{
  "contractName": "Charity",
  "abi": [
    {
      "inputs": [
        {
          "internalType": "contract CharityStorage",
          "name": "charityAddress",
          "type": "address"
        },
        {
          "internalType": "contract CharityToken",
          "name": "charityTokenAddress",
          "type": "address"
        }
      ],
      "stateMutability": "nonpayable",
      "type": "constructor"
    },
    {
      "anonymous": false,
      "inputs": [
        {
          "indexed": false,
          "internalType": "address",
          "name": "charity",
          "type": "address"
        }
      ],
      "name": "charityActivated",
      "type": "event"
    },
    {
      "anonymous": false,
      "inputs": [
        {
          "indexed": false,
          "internalType": "address",
          "name": "charity",
          "type": "address"
        }
      ],
      "name": "charityVerified",
      "type": "event"
    },
    {
      "anonymous": false,
      "inputs": [
        {
          "indexed": false,
          "internalType": "address",
          "name": "charity",
          "type": "address"
        }
      ],
      "name": "charitytDeactivated",
      "type": "event"
    },
    {
      "anonymous": false,
      "inputs": [
        {
          "indexed": false,
          "internalType": "address",
          "name": "charity",
          "type": "address"
        }
      ],
      "name": "withdrawCredits",
      "type": "event"
    },
    {
      "inputs": [],
      "name": "owner",
      "outputs": [
        {
          "internalType": "address",
          "name": "",
          "type": "address"
        }
      ],
      "stateMutability": "view",
      "type": "function",
      "constant": true
    },
    {
      "inputs": [
        {
          "internalType": "address",
          "name": "charityOwner",
          "type": "address"
        },
        {
          "internalType": "string",
          "name": "name",
          "type": "string"
        },
        {
          "internalType": "enum CharityStorage.charityCategory",
          "name": "category",
          "type": "uint8"
        }
      ],
      "name": "verifyCharity",
      "outputs": [],
      "stateMutability": "nonpayable",
      "type": "function"
    },
    {
      "inputs": [
        {
          "internalType": "uint256",
          "name": "charityId",
          "type": "uint256"
        }
      ],
      "name": "deactivateCharity",
      "outputs": [],
      "stateMutability": "nonpayable",
      "type": "function"
    },
    {
      "inputs": [
        {
          "internalType": "uint256",
          "name": "charityId",
          "type": "uint256"
        }
      ],
      "name": "activateCharity",
      "outputs": [],
      "stateMutability": "nonpayable",
      "type": "function"
    },
    {
      "inputs": [
        {
          "internalType": "uint256",
          "name": "charityId",
          "type": "uint256"
        }
      ],
      "name": "checkTokenBalance",
      "outputs": [
        {
          "internalType": "uint256",
          "name": "",
          "type": "uint256"
        }
      ],
      "stateMutability": "view",
      "type": "function",
      "constant": true
    },
    {
      "inputs": [
        {
          "internalType": "uint256",
          "name": "charityId",
          "type": "uint256"
        },
        {
          "internalType": "uint256",
          "name": "numTokens",
          "type": "uint256"
        }
      ],
      "name": "withdrawTokens",
      "outputs": [],
      "stateMutability": "nonpayable",
      "type": "function"
    },
    {
      "inputs": [
        {
          "internalType": "uint256",
          "name": "charityId",
          "type": "uint256"
        }
      ],
      "name": "lockWallet",
      "outputs": [],
      "stateMutability": "nonpayable",
      "type": "function"
    },
    {
      "inputs": [
        {
          "internalType": "uint256",
          "name": "charityId",
          "type": "uint256"
        }
      ],
      "name": "getCharityOwner",
      "outputs": [
        {
          "internalType": "address",
          "name": "",
          "type": "address"
        }
      ],
      "stateMutability": "view",
      "type": "function",
      "constant": true
    },
    {
      "inputs": [
        {
          "internalType": "uint256",
          "name": "charityId",
          "type": "uint256"
        },
        {
          "internalType": "address",
          "name": "charityOwner",
          "type": "address"
        }
      ],
      "name": "isOwnerOfCharity",
      "outputs": [
        {
          "internalType": "bool",
          "name": "",
          "type": "bool"
        }
      ],
      "stateMutability": "view",
      "type": "function",
      "constant": true
    },
    {
      "inputs": [
        {
          "internalType": "uint256",
          "name": "charityId",
          "type": "uint256"
        }
      ],
      "name": "isCharityActive",
      "outputs": [
        {
          "internalType": "bool",
          "name": "",
          "type": "bool"
        }
      ],
      "stateMutability": "view",
      "type": "function",
      "constant": true
    },
    {
      "inputs": [],
      "name": "getOwner",
      "outputs": [
        {
          "internalType": "address",
          "name": "",
          "type": "address"
        }
      ],
      "stateMutability": "view",
      "type": "function",
      "constant": true
    }
  ],
  "bytecode": "0x60806040523480156200001157600080fd5b5060405162001c6738038062001c678339818101604052810190620000379190620001c4565b336000806101000a81548173ffffffffffffffffffffffffffffffffffffffff021916908373ffffffffffffffffffffffffffffffffffffffff16021790555081600160006101000a81548173ffffffffffffffffffffffffffffffffffffffff021916908373ffffffffffffffffffffffffffffffffffffffff16021790555080600260006101000a81548173ffffffffffffffffffffffffffffffffffffffff021916908373ffffffffffffffffffffffffffffffffffffffff16021790555050506200020b565b600080fd5b600073ffffffffffffffffffffffffffffffffffffffff82169050919050565b6000620001338262000106565b9050919050565b6000620001478262000126565b9050919050565b62000159816200013a565b81146200016557600080fd5b50565b60008151905062000179816200014e565b92915050565b60006200018c8262000126565b9050919050565b6200019e816200017f565b8114620001aa57600080fd5b50565b600081519050620001be8162000193565b92915050565b60008060408385031215620001de57620001dd62000101565b5b6000620001ee8582860162000168565b92505060206200020185828601620001ad565b9150509250929050565b611a4c806200021b6000396000f3fe608060405234801561001057600080fd5b50600436106100a95760003560e01c8063893d20e811610071578063893d20e81461014e5780638da5cb5b1461016c578063ba7bd2aa1461018a578063c9ae116c146101a6578063e317526a146101d6578063f6c997b814610206576100a9565b8063213ef5e7146100ae5780632da8d725146100ca5780634f1f4211146100e65780636ab9a025146101025780636afc133414610132575b600080fd5b6100c860048036038101906100c391906110bf565b610236565b005b6100e460048036038101906100df91906110bf565b610429565b005b61010060048036038101906100fb91906112b5565b61061c565b005b61011c60048036038101906101179190611324565b610789565b604051610129919061137f565b60405180910390f35b61014c600480360381019061014791906110bf565b61085d565b005b610156610a5b565b60405161016391906113a9565b60405180910390f35b610174610a84565b60405161018191906113a9565b60405180910390f35b6101a4600480360381019061019f91906113c4565b610aa8565b005b6101c060048036038101906101bb91906110bf565b610e3b565b6040516101cd9190611413565b60405180910390f35b6101f060048036038101906101eb91906110bf565b610f2b565b6040516101fd91906113a9565b60405180910390f35b610220600480360381019061021b91906110bf565b610fd0565b60405161022d919061137f565b60405180910390f35b60008054906101000a900473ffffffffffffffffffffffffffffffffffffffff1673ffffffffffffffffffffffffffffffffffffffff163373ffffffffffffffffffffffffffffffffffffffff16146102c4576040517f08c379a00000000000000000000000000000000000000000000000000000000081526004016102bb906114d7565b60405180910390fd5b600160009054906101000a900473ffffffffffffffffffffffffffffffffffffffff1673ffffffffffffffffffffffffffffffffffffffff16638293cc188260016040518363ffffffff1660e01b81526004016103229291906114f7565b600060405180830381600087803b15801561033c57600080fd5b505af1158015610350573d6000803e3d6000fd5b505050507fa436eebdff427b7b534ef84d66927979b99f72abbfe7f3cc8e4619eb3aa2e68b600160009054906101000a900473ffffffffffffffffffffffffffffffffffffffff1673ffffffffffffffffffffffffffffffffffffffff1663e317526a836040518263ffffffff1660e01b81526004016103d09190611413565b602060405180830381865afa1580156103ed573d6000803e3d6000fd5b505050506040513d601f19601f820116820180604052508101906104119190611535565b60405161041e91906113a9565b60405180910390a150565b60008054906101000a900473ffffffffffffffffffffffffffffffffffffffff1673ffffffffffffffffffffffffffffffffffffffff163373ffffffffffffffffffffffffffffffffffffffff16146104b7576040517f08c379a00000000000000000000000000000000000000000000000000000000081526004016104ae906114d7565b60405180910390fd5b600160009054906101000a900473ffffffffffffffffffffffffffffffffffffffff1673ffffffffffffffffffffffffffffffffffffffff16638293cc188260006040518363ffffffff1660e01b81526004016105159291906114f7565b600060405180830381600087803b15801561052f57600080fd5b505af1158015610543573d6000803e3d6000fd5b505050507fa5b6f160624521b2b07a6e2e0e6465209f1937bb1e800b1a9746577b9ba89f5c600160009054906101000a900473ffffffffffffffffffffffffffffffffffffffff1673ffffffffffffffffffffffffffffffffffffffff1663e317526a836040518263ffffffff1660e01b81526004016105c39190611413565b602060405180830381865afa1580156105e0573d6000803e3d6000fd5b505050506040513d601f19601f820116820180604052508101906106049190611535565b60405161061191906113a9565b60405180910390a150565b60008054906101000a900473ffffffffffffffffffffffffffffffffffffffff1673ffffffffffffffffffffffffffffffffffffffff163373ffffffffffffffffffffffffffffffffffffffff16146106aa576040517f08c379a00000000000000000000000000000000000000000000000000000000081526004016106a1906114d7565b60405180910390fd5b600160009054906101000a900473ffffffffffffffffffffffffffffffffffffffff1673ffffffffffffffffffffffffffffffffffffffff166384b087f88484846040518463ffffffff1660e01b815260040161070993929190611647565b6020604051808303816000875af1158015610728573d6000803e3d6000fd5b505050506040513d601f19601f8201168201806040525081019061074c919061169a565b507f73a00ca3471780fdad82da2ff806041a27f7ec6ab4ee13a7f57fe11f068dfa468360405161077c91906113a9565b60405180910390a1505050565b60008173ffffffffffffffffffffffffffffffffffffffff16600160009054906101000a900473ffffffffffffffffffffffffffffffffffffffff1673ffffffffffffffffffffffffffffffffffffffff1663e317526a856040518263ffffffff1660e01b81526004016107fd9190611413565b602060405180830381865afa15801561081a573d6000803e3d6000fd5b505050506040513d601f19601f8201168201806040525081019061083e9190611535565b73ffffffffffffffffffffffffffffffffffffffff1614905092915050565b60008054906101000a900473ffffffffffffffffffffffffffffffffffffffff1673ffffffffffffffffffffffffffffffffffffffff163373ffffffffffffffffffffffffffffffffffffffff16146108eb576040517f08c379a00000000000000000000000000000000000000000000000000000000081526004016108e2906114d7565b60405180910390fd5b80600160009054906101000a900473ffffffffffffffffffffffffffffffffffffffff1673ffffffffffffffffffffffffffffffffffffffff166378a1f8a0826040518263ffffffff1660e01b81526004016109479190611413565b602060405180830381865afa158015610964573d6000803e3d6000fd5b505050506040513d601f19601f8201168201806040525081019061098891906116f3565b6109c7576040517f08c379a00000000000000000000000000000000000000000000000000000000081526004016109be9061176c565b60405180910390fd5b600160009054906101000a900473ffffffffffffffffffffffffffffffffffffffff1673ffffffffffffffffffffffffffffffffffffffff1663e9f490178360016040518363ffffffff1660e01b8152600401610a259291906114f7565b600060405180830381600087803b158015610a3f57600080fd5b505af1158015610a53573d6000803e3d6000fd5b505050505050565b60008060009054906101000a900473ffffffffffffffffffffffffffffffffffffffff16905090565b60008054906101000a900473ffffffffffffffffffffffffffffffffffffffff1681565b81600160009054906101000a900473ffffffffffffffffffffffffffffffffffffffff1673ffffffffffffffffffffffffffffffffffffffff166378a1f8a0826040518263ffffffff1660e01b8152600401610b049190611413565b602060405180830381865afa158015610b21573d6000803e3d6000fd5b505050506040513d601f19601f82011682018060405250810190610b4591906116f3565b610b84576040517f08c379a0000000000000000000000000000000000000000000000000000000008152600401610b7b9061176c565b60405180910390fd5b82610b8f8133610789565b610bce576040517f08c379a0000000000000000000000000000000000000000000000000000000008152600401610bc5906117fe565b60405180910390fd5b83600160009054906101000a900473ffffffffffffffffffffffffffffffffffffffff1673ffffffffffffffffffffffffffffffffffffffff16633c907bea826040518263ffffffff1660e01b8152600401610c2a9190611413565b602060405180830381865afa158015610c47573d6000803e3d6000fd5b505050506040513d601f19601f82011682018060405250810190610c6b91906116f3565b15610cab576040517f08c379a0000000000000000000000000000000000000000000000000000000008152600401610ca290611890565b60405180910390fd5b6000610cb686610e3b565b905080851115610cfb576040517f08c379a0000000000000000000000000000000000000000000000000000000008152600401610cf2906118fc565b60405180910390fd5b6000606486610d0a919061197a565b9050600081670de0b6b3a7640000610d2291906119ab565b90503373ffffffffffffffffffffffffffffffffffffffff166108fc829081150290604051600060405180830381858888f19350505050158015610d6a573d6000803e3d6000fd5b50600260009054906101000a900473ffffffffffffffffffffffffffffffffffffffff1673ffffffffffffffffffffffffffffffffffffffff1663bec3fa1730896040518363ffffffff1660e01b8152600401610dc89291906119ed565b600060405180830381600087803b158015610de257600080fd5b505af1158015610df6573d6000803e3d6000fd5b505050507f87a78f7df6302725b7b44f64ed140f2b072832394391bf2b94c9bb5563e5bf0833604051610e2991906113a9565b60405180910390a15050505050505050565b600081610e488133610789565b610e87576040517f08c379a0000000000000000000000000000000000000000000000000000000008152600401610e7e906117fe565b60405180910390fd5b600260009054906101000a900473ffffffffffffffffffffffffffffffffffffffff1673ffffffffffffffffffffffffffffffffffffffff16635f515226336040518263ffffffff1660e01b8152600401610ee291906113a9565b602060405180830381865afa158015610eff573d6000803e3d6000fd5b505050506040513d601f19601f82011682018060405250810190610f23919061169a565b915050919050565b6000600160009054906101000a900473ffffffffffffffffffffffffffffffffffffffff1673ffffffffffffffffffffffffffffffffffffffff1663e317526a836040518263ffffffff1660e01b8152600401610f889190611413565b602060405180830381865afa158015610fa5573d6000803e3d6000fd5b505050506040513d601f19601f82011682018060405250810190610fc99190611535565b9050919050565b6000600160009054906101000a900473ffffffffffffffffffffffffffffffffffffffff1673ffffffffffffffffffffffffffffffffffffffff166378a1f8a0836040518263ffffffff1660e01b815260040161102d9190611413565b602060405180830381865afa15801561104a573d6000803e3d6000fd5b505050506040513d601f19601f8201168201806040525081019061106e91906116f3565b9050919050565b6000604051905090565b600080fd5b600080fd5b6000819050919050565b61109c81611089565b81146110a757600080fd5b50565b6000813590506110b981611093565b92915050565b6000602082840312156110d5576110d461107f565b5b60006110e3848285016110aa565b91505092915050565b600073ffffffffffffffffffffffffffffffffffffffff82169050919050565b6000611117826110ec565b9050919050565b6111278161110c565b811461113257600080fd5b50565b6000813590506111448161111e565b92915050565b600080fd5b600080fd5b6000601f19601f8301169050919050565b7f4e487b7100000000000000000000000000000000000000000000000000000000600052604160045260246000fd5b61119d82611154565b810181811067ffffffffffffffff821117156111bc576111bb611165565b5b80604052505050565b60006111cf611075565b90506111db8282611194565b919050565b600067ffffffffffffffff8211156111fb576111fa611165565b5b61120482611154565b9050602081019050919050565b82818337600083830152505050565b600061123361122e846111e0565b6111c5565b90508281526020810184848401111561124f5761124e61114f565b5b61125a848285611211565b509392505050565b600082601f8301126112775761127661114a565b5b8135611287848260208601611220565b91505092915050565b6005811061129d57600080fd5b50565b6000813590506112af81611290565b92915050565b6000806000606084860312156112ce576112cd61107f565b5b60006112dc86828701611135565b935050602084013567ffffffffffffffff8111156112fd576112fc611084565b5b61130986828701611262565b925050604061131a868287016112a0565b9150509250925092565b6000806040838503121561133b5761133a61107f565b5b6000611349858286016110aa565b925050602061135a85828601611135565b9150509250929050565b60008115159050919050565b61137981611364565b82525050565b60006020820190506113946000830184611370565b92915050565b6113a38161110c565b82525050565b60006020820190506113be600083018461139a565b92915050565b600080604083850312156113db576113da61107f565b5b60006113e9858286016110aa565b92505060206113fa858286016110aa565b9150509250929050565b61140d81611089565b82525050565b60006020820190506114286000830184611404565b92915050565b600082825260208201905092915050565b7f4f6e6c7920746865206f776e6572206f66207468697320636f6e74726163742060008201527f697320616c6c6f77656420746f20706572666f726d2074686973206f7065726160208201527f74696f6e00000000000000000000000000000000000000000000000000000000604082015250565b60006114c160448361142e565b91506114cc8261143f565b606082019050919050565b600060208201905081810360008301526114f0816114b4565b9050919050565b600060408201905061150c6000830185611404565b6115196020830184611370565b9392505050565b60008151905061152f8161111e565b92915050565b60006020828403121561154b5761154a61107f565b5b600061155984828501611520565b91505092915050565b600081519050919050565b60005b8381101561158b578082015181840152602081019050611570565b60008484015250505050565b60006115a282611562565b6115ac818561142e565b93506115bc81856020860161156d565b6115c581611154565b840191505092915050565b7f4e487b7100000000000000000000000000000000000000000000000000000000600052602160045260246000fd5b600581106116105761160f6115d0565b5b50565b6000819050611621826115ff565b919050565b600061163182611613565b9050919050565b61164181611626565b82525050565b600060608201905061165c600083018661139a565b818103602083015261166e8185611597565b905061167d6040830184611638565b949350505050565b60008151905061169481611093565b92915050565b6000602082840312156116b0576116af61107f565b5b60006116be84828501611685565b91505092915050565b6116d081611364565b81146116db57600080fd5b50565b6000815190506116ed816116c7565b92915050565b6000602082840312156117095761170861107f565b5b6000611717848285016116de565b91505092915050565b7f4368617269747920494420676976656e206973206e6f742076616c6964000000600082015250565b6000611756601d8361142e565b915061176182611720565b602082019050919050565b6000602082019050818103600083015261178581611749565b9050919050565b7f4f6e6c79206f776e696e6720636861726974792063616e20706572666f726d2060008201527f7468697320616374696f6e210000000000000000000000000000000000000000602082015250565b60006117e8602c8361142e565b91506117f38261178c565b604082019050919050565b60006020820190508181036000830152611817816117db565b9050919050565b7f57616c6c6574206973206c6f636b656420616e6420746f6b656e732063616e6e60008201527f6f742062652077697468647261776e0000000000000000000000000000000000602082015250565b600061187a602f8361142e565b91506118858261181e565b604082019050919050565b600060208201905081810360008301526118a98161186d565b9050919050565b7f596f7520646f6e2774206861766520656e6f75676820746f6b656e7300000000600082015250565b60006118e6601c8361142e565b91506118f1826118b0565b602082019050919050565b60006020820190508181036000830152611915816118d9565b9050919050565b7f4e487b7100000000000000000000000000000000000000000000000000000000600052601260045260246000fd5b7f4e487b7100000000000000000000000000000000000000000000000000000000600052601160045260246000fd5b600061198582611089565b915061199083611089565b9250826119a05761199f61191c565b5b828204905092915050565b60006119b682611089565b91506119c183611089565b92508282026119cf81611089565b915082820484148315176119e6576119e561194b565b5b5092915050565b6000604082019050611a02600083018561139a565b611a0f6020830184611404565b939250505056fea2646970667358221220e70a01ac24d10e425457a007e442dab7b374ba927c9330b1cf2a76cc9328863d64736f6c63430008110033",
  "immutableReferences": {},
  "source": "// SPDX-License-Identifier: MIT\npragma solidity ^0.8.0;\nimport \"./CharityStorage.sol\";\nimport \"./CharityToken.sol\";\n\ncontract Charity {\n    address public owner;\n    CharityStorage charityStorage;\n    CharityToken charityTokenContract;\n\n    event charityVerified(address charity);\n    event charitytDeactivated(address charity);\n    event charityActivated(address charity);\n    event withdrawCredits(address charity);\n\n    constructor(\n        CharityStorage charityAddress,\n        CharityToken charityTokenAddress\n    ) {\n        owner = msg.sender;\n        charityStorage = charityAddress;\n        charityTokenContract = charityTokenAddress;\n    }\n\n    modifier ownerOnly() {\n        require(\n            msg.sender == owner,\n            \"Only the owner of this contract is allowed to perform this operation\"\n        );\n        _;\n    }\n\n    modifier isValidCharity(uint256 charityId) {\n        require(\n            charityStorage.getCharityActive(charityId),\n            \"Charity ID given is not valid\"\n        );\n        _;\n    }\n\n    modifier owningCharityOnly(uint256 charityId) {\n        require(\n            isOwnerOfCharity(charityId, msg.sender),\n            \"Only owning charity can perform this action!\"\n        );\n        _;\n    }\n\n    modifier walletNotLocked(uint256 charityId) {\n        require(\n            !charityStorage.getCharityWalletLocked(charityId),\n            \"Wallet is locked and tokens cannot be withdrawn\"\n        );\n        _;\n    }\n\n    function verifyCharity(\n        address charityOwner,\n        string memory name,\n        CharityStorage.charityCategory category\n    ) public ownerOnly {\n        charityStorage.addCharity(charityOwner, name, category);\n        emit charityVerified(charityOwner);\n    }\n\n    function deactivateCharity(uint256 charityId) public ownerOnly {\n        charityStorage.setCharityActive(charityId, false);\n        emit charitytDeactivated(charityStorage.getCharityOwner(charityId));\n    }\n\n    function activateCharity(uint256 charityId) public ownerOnly {\n        charityStorage.setCharityActive(charityId, true);\n        emit charityActivated(charityStorage.getCharityOwner(charityId));\n    }\n\n    function checkTokenBalance(\n        uint256 charityId\n    ) public view owningCharityOnly(charityId) returns (uint256) {\n        return charityTokenContract.checkBalance(msg.sender);\n    }\n\n    function withdrawTokens(\n        uint256 charityId,\n        uint256 numTokens\n    )\n        public\n        isValidCharity(charityId)\n        owningCharityOnly(charityId)\n        walletNotLocked(charityId)\n    {\n        uint256 charityTokensBalance = checkTokenBalance(charityId);\n        require(\n            numTokens <= charityTokensBalance,\n            \"You don't have enough tokens\"\n        );\n\n        uint256 etherAmt = numTokens / 100;\n        uint256 weiAmt = 1000000000000000000 * etherAmt;\n\n        payable(msg.sender).transfer(weiAmt);\n        charityTokenContract.transferTokens(address(this), numTokens); // transfer CT back to this contract address\n        emit withdrawCredits(msg.sender);\n    }\n\n    function lockWallet(\n        uint256 charityId\n    ) public ownerOnly isValidCharity(charityId) {\n        charityStorage.setCharityWalletLocked(charityId, true);\n    }\n\n    function getCharityOwner(uint256 charityId) public view returns (address) {\n        return charityStorage.getCharityOwner(charityId);\n    }\n\n    function isOwnerOfCharity(\n        uint256 charityId,\n        address charityOwner\n    ) public view returns (bool) {\n        return charityStorage.getCharityOwner(charityId) == charityOwner;\n    }\n\n    function isCharityActive(uint256 charityId) public view returns (bool) {\n        return charityStorage.getCharityActive(charityId);\n    }\n\n    function getOwner() public view returns (address) {\n        return owner;\n    }\n}\n",
  "sourcePath": "/Users/danielonges/Desktop/coding/blockchain-charity/contracts/Charity.sol",
  "compiler": {
    "name": "solc",
    "version": "0.8.17+commit.8df45f5f.Emscripten.clang"
  },
  "schemaVersion": "3.4.11",
  "updatedAt": "2023-03-24T07:33:44.799Z",
  "networkType": "ethereum",
  "devdoc": {
    "kind": "dev",
    "methods": {},
    "version": 1
  },
  "userdoc": {
    "kind": "user",
    "methods": {},
    "version": 1
  }
}