{
  "contractName": "CharityToken",
  "abi": [
    {
      "inputs": [],
      "stateMutability": "nonpayable",
      "type": "constructor"
    },
    {
      "inputs": [
        {
          "internalType": "address",
          "name": "recipient",
          "type": "address"
        },
        {
          "internalType": "uint256",
          "name": "weiAmt",
          "type": "uint256"
        }
      ],
      "name": "getTokens",
      "outputs": [],
      "stateMutability": "nonpayable",
      "type": "function"
    },
    {
      "inputs": [
        {
          "internalType": "address",
          "name": "ad",
          "type": "address"
        }
      ],
      "name": "checkBalance",
      "outputs": [
        {
          "internalType": "uint256",
          "name": "",
          "type": "uint256"
        }
      ],
      "stateMutability": "view",
      "type": "function",
      "constant": true
    },
    {
      "inputs": [
        {
          "internalType": "address",
          "name": "recipient",
          "type": "address"
        },
        {
          "internalType": "uint256",
          "name": "amt",
          "type": "uint256"
        }
      ],
      "name": "transferTokens",
      "outputs": [],
      "stateMutability": "nonpayable",
      "type": "function"
    },
    {
      "inputs": [
        {
          "internalType": "address",
          "name": "from",
          "type": "address"
        },
        {
          "internalType": "address",
          "name": "to",
          "type": "address"
        },
        {
          "internalType": "uint256",
          "name": "amt",
          "type": "uint256"
        }
      ],
      "name": "transferTokensFrom",
      "outputs": [],
      "stateMutability": "nonpayable",
      "type": "function"
    },
    {
      "inputs": [
        {
          "internalType": "address",
          "name": "spender",
          "type": "address"
        },
        {
          "internalType": "uint256",
          "name": "amt",
          "type": "uint256"
        }
      ],
      "name": "approveTokenSpending",
      "outputs": [],
      "stateMutability": "nonpayable",
      "type": "function"
    },
    {
      "inputs": [
        {
          "internalType": "address",
          "name": "approver",
          "type": "address"
        },
        {
          "internalType": "address",
          "name": "spender",
          "type": "address"
        }
      ],
      "name": "checkApproval",
      "outputs": [
        {
          "internalType": "uint256",
          "name": "",
          "type": "uint256"
        }
      ],
      "stateMutability": "view",
      "type": "function",
      "constant": true
    }
  ],
  "bytecode": "0x608060405234801561001057600080fd5b50336000806101000a81548173ffffffffffffffffffffffffffffffffffffffff021916908373ffffffffffffffffffffffffffffffffffffffff160217905550600060405161005f906100c5565b604051809103906000f08015801561007b573d6000803e3d6000fd5b50905080600160006101000a81548173ffffffffffffffffffffffffffffffffffffffff021916908373ffffffffffffffffffffffffffffffffffffffff160217905550506100d2565b6114f7806109c783390190565b6108e6806100e16000396000f3fe608060405234801561001057600080fd5b50600436106100625760003560e01c80632c512d6e1461006757806352912042146100835780635cda4b411461009f5780635f515226146100cf578063bec3fa17146100ff578063fe266d781461011b575b600080fd5b610081600480360381019061007c91906105cc565b610137565b005b61009d6004803603810190610098919061060c565b6101f4565b005b6100b960048036038101906100b4919061065f565b61029c565b6040516100c691906106ae565b60405180910390f35b6100e960048036038101906100e491906106c9565b610344565b6040516100f691906106ae565b60405180910390f35b610119600480360381019061011491906105cc565b6103e9565b005b610135600480360381019061013091906105cc565b61048e565b005b6000662386f26fc100008261014c9190610725565b9050600160009054906101000a900473ffffffffffffffffffffffffffffffffffffffff1673ffffffffffffffffffffffffffffffffffffffff166340c10f1984836040518363ffffffff1660e01b81526004016101ab929190610765565b6020604051808303816000875af11580156101ca573d6000803e3d6000fd5b505050506040513d601f19601f820116820180604052508101906101ee91906107c6565b50505050565b600160009054906101000a900473ffffffffffffffffffffffffffffffffffffffff1673ffffffffffffffffffffffffffffffffffffffff166323b872dd8484846040518463ffffffff1660e01b8152600401610253939291906107f3565b6020604051808303816000875af1158015610272573d6000803e3d6000fd5b505050506040513d601f19601f8201168201806040525081019061029691906107c6565b50505050565b6000600160009054906101000a900473ffffffffffffffffffffffffffffffffffffffff1673ffffffffffffffffffffffffffffffffffffffff1663dd62ed3e84846040518363ffffffff1660e01b81526004016102fb92919061082a565b602060405180830381865afa158015610318573d6000803e3d6000fd5b505050506040513d601f19601f8201168201806040525081019061033c9190610868565b905092915050565b6000600160009054906101000a900473ffffffffffffffffffffffffffffffffffffffff1673ffffffffffffffffffffffffffffffffffffffff166370a08231836040518263ffffffff1660e01b81526004016103a19190610895565b602060405180830381865afa1580156103be573d6000803e3d6000fd5b505050506040513d601f19601f820116820180604052508101906103e29190610868565b9050919050565b600160009054906101000a900473ffffffffffffffffffffffffffffffffffffffff1673ffffffffffffffffffffffffffffffffffffffff1663a9059cbb83836040518363ffffffff1660e01b8152600401610446929190610765565b6020604051808303816000875af1158015610465573d6000803e3d6000fd5b505050506040513d601f19601f8201168201806040525081019061048991906107c6565b505050565b600160009054906101000a900473ffffffffffffffffffffffffffffffffffffffff1673ffffffffffffffffffffffffffffffffffffffff1663095ea7b383836040518363ffffffff1660e01b81526004016104eb929190610765565b6020604051808303816000875af115801561050a573d6000803e3d6000fd5b505050506040513d601f19601f8201168201806040525081019061052e91906107c6565b505050565b600080fd5b600073ffffffffffffffffffffffffffffffffffffffff82169050919050565b600061056382610538565b9050919050565b61057381610558565b811461057e57600080fd5b50565b6000813590506105908161056a565b92915050565b6000819050919050565b6105a981610596565b81146105b457600080fd5b50565b6000813590506105c6816105a0565b92915050565b600080604083850312156105e3576105e2610533565b5b60006105f185828601610581565b9250506020610602858286016105b7565b9150509250929050565b60008060006060848603121561062557610624610533565b5b600061063386828701610581565b935050602061064486828701610581565b9250506040610655868287016105b7565b9150509250925092565b6000806040838503121561067657610675610533565b5b600061068485828601610581565b925050602061069585828601610581565b9150509250929050565b6106a881610596565b82525050565b60006020820190506106c3600083018461069f565b92915050565b6000602082840312156106df576106de610533565b5b60006106ed84828501610581565b91505092915050565b7f4e487b7100000000000000000000000000000000000000000000000000000000600052601260045260246000fd5b600061073082610596565b915061073b83610596565b92508261074b5761074a6106f6565b5b828204905092915050565b61075f81610558565b82525050565b600060408201905061077a6000830185610756565b610787602083018461069f565b9392505050565b60008115159050919050565b6107a38161078e565b81146107ae57600080fd5b50565b6000815190506107c08161079a565b92915050565b6000602082840312156107dc576107db610533565b5b60006107ea848285016107b1565b91505092915050565b60006060820190506108086000830186610756565b6108156020830185610756565b610822604083018461069f565b949350505050565b600060408201905061083f6000830185610756565b61084c6020830184610756565b9392505050565b600081519050610862816105a0565b92915050565b60006020828403121561087e5761087d610533565b5b600061088c84828501610853565b91505092915050565b60006020820190506108aa6000830184610756565b9291505056fea264697066735822122045139f3d1fadfa99a391a48e49612358822a37dbb675051939dcf6e15e719b7364736f6c63430008110033608060405260008060006101000a81548160ff02191690831515021790555033600060016101000a81548173ffffffffffffffffffffffffffffffffffffffff021916908373ffffffffffffffffffffffffffffffffffffffff16021790555034801561006b57600080fd5b5061147c8061007b6000396000f3fe608060405234801561001057600080fd5b50600436106100ea5760003560e01c806370a082311161008c5780638da5cb5b116100665780638da5cb5b1461026357806395d89b4114610281578063a9059cbb1461029f578063dd62ed3e146102cf576100ea565b806370a08231146101f75780637d64bcb414610227578063893d20e814610245576100ea565b806318160ddd116100c857806318160ddd1461015b57806323b872dd14610179578063313ce567146101a957806340c10f19146101c7576100ea565b806305d2035b146100ef57806306fdde031461010d578063095ea7b31461012b575b600080fd5b6100f76102ff565b6040516101049190610f25565b60405180910390f35b610115610310565b6040516101229190610fd0565b60405180910390f35b6101456004803603810190610140919061108b565b610349565b6040516101529190610f25565b60405180910390f35b61016361043b565b60405161017091906110da565b60405180910390f35b610193600480360381019061018e91906110f5565b610445565b6040516101a09190610f25565b60405180910390f35b6101b1610869565b6040516101be9190611164565b60405180910390f35b6101e160048036038101906101dc919061108b565b61086e565b6040516101ee9190610f25565b60405180910390f35b610211600480360381019061020c919061117f565b610a4f565b60405161021e91906110da565b60405180910390f35b61022f610a98565b60405161023c9190610f25565b60405180910390f35b61024d610b58565b60405161025a91906111bb565b60405180910390f35b61026b610b81565b60405161027891906111bb565b60405180910390f35b610289610ba7565b6040516102969190610fd0565b60405180910390f35b6102b960048036038101906102b4919061108b565b610be0565b6040516102c69190610f25565b60405180910390f35b6102e960048036038101906102e491906111d6565b610e35565b6040516102f691906110da565b60405180910390f35b60008054906101000a900460ff1681565b6040518060400160405280600c81526020017f43686172697479546f6b656e000000000000000000000000000000000000000081525081565b600081600160003373ffffffffffffffffffffffffffffffffffffffff1673ffffffffffffffffffffffffffffffffffffffff16815260200190815260200160002060008573ffffffffffffffffffffffffffffffffffffffff1673ffffffffffffffffffffffffffffffffffffffff168152602001908152602001600020819055508273ffffffffffffffffffffffffffffffffffffffff163373ffffffffffffffffffffffffffffffffffffffff167f8c5be1e5ebec7d5bd14f71427d1e84f3dd0314c0f7b2291e5b200ac8c7c3b9258460405161042991906110da565b60405180910390a36001905092915050565b6000600354905090565b60008073ffffffffffffffffffffffffffffffffffffffff168373ffffffffffffffffffffffffffffffffffffffff160361047f57600080fd5b600260008573ffffffffffffffffffffffffffffffffffffffff1673ffffffffffffffffffffffffffffffffffffffff16815260200190815260200160002054821115610501576040517f08c379a00000000000000000000000000000000000000000000000000000000081526004016104f890611262565b60405180910390fd5b600160008573ffffffffffffffffffffffffffffffffffffffff1673ffffffffffffffffffffffffffffffffffffffff16815260200190815260200160002060003273ffffffffffffffffffffffffffffffffffffffff1673ffffffffffffffffffffffffffffffffffffffff168152602001908152602001600020548211156105c0576040517f08c379a00000000000000000000000000000000000000000000000000000000081526004016105b7906112ce565b60405180910390fd5b61061282600260008773ffffffffffffffffffffffffffffffffffffffff1673ffffffffffffffffffffffffffffffffffffffff16815260200190815260200160002054610ebc90919063ffffffff16565b600260008673ffffffffffffffffffffffffffffffffffffffff1673ffffffffffffffffffffffffffffffffffffffff168152602001908152602001600020819055506106a782600260008673ffffffffffffffffffffffffffffffffffffffff1673ffffffffffffffffffffffffffffffffffffffff16815260200190815260200160002054610ee390919063ffffffff16565b600260008573ffffffffffffffffffffffffffffffffffffffff1673ffffffffffffffffffffffffffffffffffffffff1681526020019081526020016000208190555061077982600160008773ffffffffffffffffffffffffffffffffffffffff1673ffffffffffffffffffffffffffffffffffffffff16815260200190815260200160002060003273ffffffffffffffffffffffffffffffffffffffff1673ffffffffffffffffffffffffffffffffffffffff16815260200190815260200160002054610ebc90919063ffffffff16565b600160008673ffffffffffffffffffffffffffffffffffffffff1673ffffffffffffffffffffffffffffffffffffffff16815260200190815260200160002060003273ffffffffffffffffffffffffffffffffffffffff1673ffffffffffffffffffffffffffffffffffffffff168152602001908152602001600020819055508273ffffffffffffffffffffffffffffffffffffffff168473ffffffffffffffffffffffffffffffffffffffff167fddf252ad1be2c89b69c2b068fc378daa952ba7f163c4a11628f55a4df523b3ef8460405161085691906110da565b60405180910390a3600190509392505050565b601281565b60008060019054906101000a900473ffffffffffffffffffffffffffffffffffffffff1673ffffffffffffffffffffffffffffffffffffffff163373ffffffffffffffffffffffffffffffffffffffff16146108c957600080fd5b60008054906101000a900460ff16156108e157600080fd5b6108f682600354610ee390919063ffffffff16565b60038190555061094e82600260008673ffffffffffffffffffffffffffffffffffffffff1673ffffffffffffffffffffffffffffffffffffffff16815260200190815260200160002054610ee390919063ffffffff16565b600260008573ffffffffffffffffffffffffffffffffffffffff1673ffffffffffffffffffffffffffffffffffffffff168152602001908152602001600020819055508273ffffffffffffffffffffffffffffffffffffffff167f0f6798a560793a54c3bcfe86a93cde1e73087d944c0ea20544137d4121396885836040516109d791906110da565b60405180910390a28273ffffffffffffffffffffffffffffffffffffffff16600073ffffffffffffffffffffffffffffffffffffffff167fddf252ad1be2c89b69c2b068fc378daa952ba7f163c4a11628f55a4df523b3ef84604051610a3d91906110da565b60405180910390a36001905092915050565b6000600260008373ffffffffffffffffffffffffffffffffffffffff1673ffffffffffffffffffffffffffffffffffffffff168152602001908152602001600020549050919050565b60008060019054906101000a900473ffffffffffffffffffffffffffffffffffffffff1673ffffffffffffffffffffffffffffffffffffffff163373ffffffffffffffffffffffffffffffffffffffff1614610af357600080fd5b60008054906101000a900460ff1615610b0b57600080fd5b60016000806101000a81548160ff0219169083151502179055507fae5184fba832cb2b1f702aca6117b8d265eaf03ad33eb133f19dde0f5920fa0860405160405180910390a16001905090565b60008060019054906101000a900473ffffffffffffffffffffffffffffffffffffffff16905090565b600060019054906101000a900473ffffffffffffffffffffffffffffffffffffffff1681565b6040518060400160405280600281526020017f435400000000000000000000000000000000000000000000000000000000000081525081565b60008073ffffffffffffffffffffffffffffffffffffffff168373ffffffffffffffffffffffffffffffffffffffff1603610c1a57600080fd5b600260003273ffffffffffffffffffffffffffffffffffffffff1673ffffffffffffffffffffffffffffffffffffffff16815260200190815260200160002054821115610c9c576040517f08c379a0000000000000000000000000000000000000000000000000000000008152600401610c9390611360565b60405180910390fd5b610cee82600260003273ffffffffffffffffffffffffffffffffffffffff1673ffffffffffffffffffffffffffffffffffffffff16815260200190815260200160002054610ebc90919063ffffffff16565b600260003273ffffffffffffffffffffffffffffffffffffffff1673ffffffffffffffffffffffffffffffffffffffff16815260200190815260200160002081905550610d8382600260008673ffffffffffffffffffffffffffffffffffffffff1673ffffffffffffffffffffffffffffffffffffffff16815260200190815260200160002054610ee390919063ffffffff16565b600260008573ffffffffffffffffffffffffffffffffffffffff1673ffffffffffffffffffffffffffffffffffffffff168152602001908152602001600020819055508273ffffffffffffffffffffffffffffffffffffffff163273ffffffffffffffffffffffffffffffffffffffff167fddf252ad1be2c89b69c2b068fc378daa952ba7f163c4a11628f55a4df523b3ef84604051610e2391906110da565b60405180910390a36001905092915050565b6000600160008473ffffffffffffffffffffffffffffffffffffffff1673ffffffffffffffffffffffffffffffffffffffff16815260200190815260200160002060008373ffffffffffffffffffffffffffffffffffffffff1673ffffffffffffffffffffffffffffffffffffffff16815260200190815260200160002054905092915050565b600082821115610ecf57610ece611380565b5b8183610edb91906113de565b905092915050565b60008183610ef19190611412565b905082811015610f0457610f03611380565b5b92915050565b60008115159050919050565b610f1f81610f0a565b82525050565b6000602082019050610f3a6000830184610f16565b92915050565b600081519050919050565b600082825260208201905092915050565b60005b83811015610f7a578082015181840152602081019050610f5f565b60008484015250505050565b6000601f19601f8301169050919050565b6000610fa282610f40565b610fac8185610f4b565b9350610fbc818560208601610f5c565b610fc581610f86565b840191505092915050565b60006020820190508181036000830152610fea8184610f97565b905092915050565b600080fd5b600073ffffffffffffffffffffffffffffffffffffffff82169050919050565b600061102282610ff7565b9050919050565b61103281611017565b811461103d57600080fd5b50565b60008135905061104f81611029565b92915050565b6000819050919050565b61106881611055565b811461107357600080fd5b50565b6000813590506110858161105f565b92915050565b600080604083850312156110a2576110a1610ff2565b5b60006110b085828601611040565b92505060206110c185828601611076565b9150509250929050565b6110d481611055565b82525050565b60006020820190506110ef60008301846110cb565b92915050565b60008060006060848603121561110e5761110d610ff2565b5b600061111c86828701611040565b935050602061112d86828701611040565b925050604061113e86828701611076565b9150509250925092565b600060ff82169050919050565b61115e81611148565b82525050565b60006020820190506111796000830184611155565b92915050565b60006020828403121561119557611194610ff2565b5b60006111a384828501611040565b91505092915050565b6111b581611017565b82525050565b60006020820190506111d060008301846111ac565b92915050565b600080604083850312156111ed576111ec610ff2565b5b60006111fb85828601611040565b925050602061120c85828601611040565b9150509250929050565b7f46726f6d20646f65736e2774206861766520656e6f7567682062616c616e6365600082015250565b600061124c602083610f4b565b915061125782611216565b602082019050919050565b6000602082019050818103600083015261127b8161123f565b9050919050565b7f4e6f7420616c6c6f77656420746f207370656e642074686973206d7563680000600082015250565b60006112b8601e83610f4b565b91506112c382611282565b602082019050919050565b600060208201905081810360008301526112e7816112ab565b9050919050565b7f6d73672e73656e64657220646f65736e2774206861766520656e6f756768206260008201527f616c616e63650000000000000000000000000000000000000000000000000000602082015250565b600061134a602683610f4b565b9150611355826112ee565b604082019050919050565b600060208201905081810360008301526113798161133d565b9050919050565b7f4e487b7100000000000000000000000000000000000000000000000000000000600052600160045260246000fd5b7f4e487b7100000000000000000000000000000000000000000000000000000000600052601160045260246000fd5b60006113e982611055565b91506113f483611055565b925082820390508181111561140c5761140b6113af565b5b92915050565b600061141d82611055565b915061142883611055565b92508282019050808211156114405761143f6113af565b5b9291505056fea2646970667358221220ee519c5189b56d6c357a19610cfc22a17140ac553e85387ca69397e4a04a07f564736f6c63430008110033",
  "immutableReferences": {},
  "source": "// SPDX-License-Identifier: MIT\npragma solidity ^0.8.0;\n\nimport \"./ERC20.sol\";\n\ncontract CharityToken {\n    address owner;\n    ERC20 erc20Contract;\n\n    constructor() {\n        owner = msg.sender;\n        ERC20 e = new ERC20(); // create a new instance of ERC20\n        erc20Contract = e; // assign it to the variable erc20Contract\n    }\n\n    function getTokens(address recipient, uint256 weiAmt) public {\n        uint256 amt = weiAmt / (1000000000000000000 / 100); // Convert weiAmt to Charity Token\n        erc20Contract.mint(recipient, amt);\n    }\n\n    function checkBalance(address ad) public view returns (uint256) {\n        return erc20Contract.balanceOf(ad);\n    }\n\n    function transferTokens(address recipient, uint256 amt) public {\n        // Transfers from tx.origin to receipient\n        erc20Contract.transfer(recipient, amt);\n    }\n\n    function transferTokensFrom(address from, address to, uint256 amt) public {\n        erc20Contract.transferFrom(from, to, amt);\n    }\n\n    function approveTokenSpending(address spender, uint256 amt) public {\n        erc20Contract.approve(spender, amt);\n    }\n\n    function checkApproval(\n        address approver,\n        address spender\n    ) public view returns (uint256) {\n        return erc20Contract.allowance(approver, spender);\n    }\n}\n",
  "sourcePath": "/Users/danielonges/Desktop/coding/blockchain-charity/contracts/CharityToken.sol",
  "compiler": {
    "name": "solc",
    "version": "0.8.17+commit.8df45f5f.Emscripten.clang"
  },
  "schemaVersion": "3.4.11",
  "updatedAt": "2023-04-07T10:35:22.077Z",
  "networkType": "ethereum",
  "devdoc": {
    "kind": "dev",
    "methods": {},
    "version": 1
  },
  "userdoc": {
    "kind": "user",
    "methods": {},
    "version": 1
  }
}