{
  "contractName": "Charity",
  "abi": [
    {
      "inputs": [
        {
          "internalType": "contract CharityStorage",
          "name": "charityAddress",
          "type": "address"
        },
        {
          "internalType": "contract CharityToken",
          "name": "charityTokenAddress",
          "type": "address"
        }
      ],
      "stateMutability": "nonpayable",
      "type": "constructor"
    },
    {
      "anonymous": false,
      "inputs": [
        {
          "indexed": false,
          "internalType": "address",
          "name": "charity",
          "type": "address"
        }
      ],
      "name": "charityActivated",
      "type": "event"
    },
    {
      "anonymous": false,
      "inputs": [
        {
          "indexed": false,
          "internalType": "address",
          "name": "charity",
          "type": "address"
        },
        {
          "indexed": false,
          "internalType": "uint256",
          "name": "charityId",
          "type": "uint256"
        }
      ],
      "name": "charityVerified",
      "type": "event"
    },
    {
      "anonymous": false,
      "inputs": [
        {
          "indexed": false,
          "internalType": "address",
          "name": "charity",
          "type": "address"
        }
      ],
      "name": "charityWalletLocked",
      "type": "event"
    },
    {
      "anonymous": false,
      "inputs": [
        {
          "indexed": false,
          "internalType": "address",
          "name": "charity",
          "type": "address"
        }
      ],
      "name": "charityWalletUnlocked",
      "type": "event"
    },
    {
      "anonymous": false,
      "inputs": [
        {
          "indexed": false,
          "internalType": "address",
          "name": "charity",
          "type": "address"
        }
      ],
      "name": "charitytDeactivated",
      "type": "event"
    },
    {
      "anonymous": false,
      "inputs": [
        {
          "indexed": false,
          "internalType": "address",
          "name": "charity",
          "type": "address"
        }
      ],
      "name": "withdrawCredits",
      "type": "event"
    },
    {
      "inputs": [],
      "name": "contractStopped",
      "outputs": [
        {
          "internalType": "bool",
          "name": "",
          "type": "bool"
        }
      ],
      "stateMutability": "view",
      "type": "function"
    },
    {
      "inputs": [],
      "name": "owner",
      "outputs": [
        {
          "internalType": "address",
          "name": "",
          "type": "address"
        }
      ],
      "stateMutability": "view",
      "type": "function"
    },
    {
      "inputs": [],
      "name": "toggleContractStopped",
      "outputs": [],
      "stateMutability": "nonpayable",
      "type": "function"
    },
    {
      "inputs": [
        {
          "internalType": "address",
          "name": "charityOwner",
          "type": "address"
        },
        {
          "internalType": "string",
          "name": "name",
          "type": "string"
        },
        {
          "internalType": "enum CharityStorage.charityCategory",
          "name": "category",
          "type": "uint8"
        }
      ],
      "name": "verifyCharity",
      "outputs": [],
      "stateMutability": "nonpayable",
      "type": "function"
    },
    {
      "inputs": [
        {
          "internalType": "uint256",
          "name": "charityId",
          "type": "uint256"
        }
      ],
      "name": "deactivateCharity",
      "outputs": [],
      "stateMutability": "nonpayable",
      "type": "function"
    },
    {
      "inputs": [
        {
          "internalType": "uint256",
          "name": "charityId",
          "type": "uint256"
        }
      ],
      "name": "activateCharity",
      "outputs": [],
      "stateMutability": "nonpayable",
      "type": "function"
    },
    {
      "inputs": [
        {
          "internalType": "uint256",
          "name": "charityId",
          "type": "uint256"
        }
      ],
      "name": "checkTokenBalance",
      "outputs": [
        {
          "internalType": "uint256",
          "name": "",
          "type": "uint256"
        }
      ],
      "stateMutability": "view",
      "type": "function"
    },
    {
      "inputs": [
        {
          "internalType": "uint256",
          "name": "charityId",
          "type": "uint256"
        },
        {
          "internalType": "uint256",
          "name": "numTokens",
          "type": "uint256"
        }
      ],
      "name": "withdrawTokens",
      "outputs": [],
      "stateMutability": "nonpayable",
      "type": "function"
    },
    {
      "inputs": [
        {
          "internalType": "uint256",
          "name": "charityId",
          "type": "uint256"
        }
      ],
      "name": "lockWallet",
      "outputs": [],
      "stateMutability": "nonpayable",
      "type": "function"
    },
    {
      "inputs": [
        {
          "internalType": "uint256",
          "name": "charityId",
          "type": "uint256"
        }
      ],
      "name": "unlockWallet",
      "outputs": [],
      "stateMutability": "nonpayable",
      "type": "function"
    },
    {
      "inputs": [
        {
          "internalType": "uint256",
          "name": "charityId",
          "type": "uint256"
        }
      ],
      "name": "getCharityOwner",
      "outputs": [
        {
          "internalType": "address",
          "name": "",
          "type": "address"
        }
      ],
      "stateMutability": "view",
      "type": "function"
    },
    {
      "inputs": [
        {
          "internalType": "uint256",
          "name": "charityId",
          "type": "uint256"
        },
        {
          "internalType": "address",
          "name": "charityOwner",
          "type": "address"
        }
      ],
      "name": "isOwnerOfCharity",
      "outputs": [
        {
          "internalType": "bool",
          "name": "",
          "type": "bool"
        }
      ],
      "stateMutability": "view",
      "type": "function"
    },
    {
      "inputs": [
        {
          "internalType": "uint256",
          "name": "charityId",
          "type": "uint256"
        }
      ],
      "name": "isCharityActive",
      "outputs": [
        {
          "internalType": "bool",
          "name": "",
          "type": "bool"
        }
      ],
      "stateMutability": "view",
      "type": "function"
    },
    {
      "inputs": [],
      "name": "getAllCharities",
      "outputs": [
        {
          "components": [
            {
              "internalType": "uint256",
              "name": "id",
              "type": "uint256"
            },
            {
              "internalType": "address",
              "name": "owner",
              "type": "address"
            },
            {
              "internalType": "string",
              "name": "name",
              "type": "string"
            },
            {
              "internalType": "enum CharityStorage.charityCategory",
              "name": "category",
              "type": "uint8"
            },
            {
              "internalType": "bool",
              "name": "isActive",
              "type": "bool"
            },
            {
              "internalType": "bool",
              "name": "isWalletLocked",
              "type": "bool"
            }
          ],
          "internalType": "struct CharityStorage.charity[]",
          "name": "",
          "type": "tuple[]"
        }
      ],
      "stateMutability": "view",
      "type": "function"
    },
    {
      "inputs": [
        {
          "internalType": "uint256",
          "name": "charityId",
          "type": "uint256"
        }
      ],
      "name": "getCharityDetails",
      "outputs": [
        {
          "components": [
            {
              "internalType": "uint256",
              "name": "id",
              "type": "uint256"
            },
            {
              "internalType": "address",
              "name": "owner",
              "type": "address"
            },
            {
              "internalType": "string",
              "name": "name",
              "type": "string"
            },
            {
              "internalType": "enum CharityStorage.charityCategory",
              "name": "category",
              "type": "uint8"
            },
            {
              "internalType": "bool",
              "name": "isActive",
              "type": "bool"
            },
            {
              "internalType": "bool",
              "name": "isWalletLocked",
              "type": "bool"
            }
          ],
          "internalType": "struct CharityStorage.charity",
          "name": "",
          "type": "tuple"
        }
      ],
      "stateMutability": "view",
      "type": "function"
    },
    {
      "inputs": [
        {
          "internalType": "uint256",
          "name": "charityId",
          "type": "uint256"
        }
      ],
      "name": "getCategoryByCharity",
      "outputs": [
        {
          "internalType": "enum CharityStorage.charityCategory",
          "name": "",
          "type": "uint8"
        }
      ],
      "stateMutability": "view",
      "type": "function"
    }
  ],
  "bytecode": "0x60806040523480156200001157600080fd5b5060405162002c4c38038062002c4c8339818101604052810190620000379190620001c4565b336000806101000a81548173ffffffffffffffffffffffffffffffffffffffff021916908373ffffffffffffffffffffffffffffffffffffffff16021790555081600160006101000a81548173ffffffffffffffffffffffffffffffffffffffff021916908373ffffffffffffffffffffffffffffffffffffffff16021790555080600260006101000a81548173ffffffffffffffffffffffffffffffffffffffff021916908373ffffffffffffffffffffffffffffffffffffffff16021790555050506200020b565b600080fd5b600073ffffffffffffffffffffffffffffffffffffffff82169050919050565b6000620001338262000106565b9050919050565b6000620001478262000126565b9050919050565b62000159816200013a565b81146200016557600080fd5b50565b60008151905062000179816200014e565b92915050565b60006200018c8262000126565b9050919050565b6200019e816200017f565b8114620001aa57600080fd5b50565b600081519050620001be8162000193565b92915050565b60008060408385031215620001de57620001dd62000101565b5b6000620001ee8582860162000168565b92505060206200020185828601620001ad565b9150509250929050565b612a31806200021b6000396000f3fe608060405234801561001057600080fd5b50600436106101005760003560e01c80638da5cb5b11610097578063daea74c511610066578063daea74c5146102a9578063e317526a146102c7578063e83c78d4146102f7578063f6c997b81461030157610100565b80638da5cb5b14610221578063b5bbd2791461023f578063ba7bd2aa1461025d578063c9ae116c1461027957610100565b806351c3898f116100d357806351c3898f14610175578063539a4a31146101a55780636ab9a025146101d55780636afc13341461020557610100565b8063213ef5e7146101055780632da8d7251461012157806335ca1c791461013d5780634f1f421114610159575b600080fd5b61011f600480360381019061011a9190611abc565b610331565b005b61013b60048036038101906101369190611abc565b61057a565b005b61015760048036038101906101529190611abc565b6107c3565b005b610173600480360381019061016e9190611cb2565b610ae9565b005b61018f600480360381019061018a9190611abc565b610cb2565b60405161019c9190611d98565b60405180910390f35b6101bf60048036038101906101ba9190611abc565b610d65565b6040516101cc9190611f03565b60405180910390f35b6101ef60048036038101906101ea9190611f25565b610e15565b6040516101fc9190611f74565b60405180910390f35b61021f600480360381019061021a9190611abc565b610ee9565b005b61022961120f565b6040516102369190611f9e565b60405180910390f35b610247611233565b6040516102549190612104565b60405180910390f35b61027760048036038101906102729190612126565b6112d0565b005b610293600480360381019061028e9190611abc565b6116b3565b6040516102a09190612175565b60405180910390f35b6102b16117a3565b6040516102be9190611f74565b60405180910390f35b6102e160048036038101906102dc9190611abc565b6117b6565b6040516102ee9190611f9e565b60405180910390f35b6102ff61185b565b005b61031b60048036038101906103169190611abc565b61196b565b6040516103289190611f74565b60405180910390f35b60008054906101000a900473ffffffffffffffffffffffffffffffffffffffff1673ffffffffffffffffffffffffffffffffffffffff163373ffffffffffffffffffffffffffffffffffffffff1614806103d6575060008054906101000a900473ffffffffffffffffffffffffffffffffffffffff1673ffffffffffffffffffffffffffffffffffffffff163273ffffffffffffffffffffffffffffffffffffffff16145b610415576040517f08c379a000000000000000000000000000000000000000000000000000000000815260040161040c90612239565b60405180910390fd5b600160009054906101000a900473ffffffffffffffffffffffffffffffffffffffff1673ffffffffffffffffffffffffffffffffffffffff16638293cc188260016040518363ffffffff1660e01b8152600401610473929190612259565b600060405180830381600087803b15801561048d57600080fd5b505af11580156104a1573d6000803e3d6000fd5b505050507fa436eebdff427b7b534ef84d66927979b99f72abbfe7f3cc8e4619eb3aa2e68b600160009054906101000a900473ffffffffffffffffffffffffffffffffffffffff1673ffffffffffffffffffffffffffffffffffffffff1663e317526a836040518263ffffffff1660e01b81526004016105219190612175565b602060405180830381865afa15801561053e573d6000803e3d6000fd5b505050506040513d601f19601f820116820180604052508101906105629190612297565b60405161056f9190611f9e565b60405180910390a150565b60008054906101000a900473ffffffffffffffffffffffffffffffffffffffff1673ffffffffffffffffffffffffffffffffffffffff163373ffffffffffffffffffffffffffffffffffffffff16148061061f575060008054906101000a900473ffffffffffffffffffffffffffffffffffffffff1673ffffffffffffffffffffffffffffffffffffffff163273ffffffffffffffffffffffffffffffffffffffff16145b61065e576040517f08c379a000000000000000000000000000000000000000000000000000000000815260040161065590612239565b60405180910390fd5b600160009054906101000a900473ffffffffffffffffffffffffffffffffffffffff1673ffffffffffffffffffffffffffffffffffffffff16638293cc188260006040518363ffffffff1660e01b81526004016106bc929190612259565b600060405180830381600087803b1580156106d657600080fd5b505af11580156106ea573d6000803e3d6000fd5b505050507fa5b6f160624521b2b07a6e2e0e6465209f1937bb1e800b1a9746577b9ba89f5c600160009054906101000a900473ffffffffffffffffffffffffffffffffffffffff1673ffffffffffffffffffffffffffffffffffffffff1663e317526a836040518263ffffffff1660e01b815260040161076a9190612175565b602060405180830381865afa158015610787573d6000803e3d6000fd5b505050506040513d601f19601f820116820180604052508101906107ab9190612297565b6040516107b89190611f9e565b60405180910390a150565b60008054906101000a900473ffffffffffffffffffffffffffffffffffffffff1673ffffffffffffffffffffffffffffffffffffffff163373ffffffffffffffffffffffffffffffffffffffff161480610868575060008054906101000a900473ffffffffffffffffffffffffffffffffffffffff1673ffffffffffffffffffffffffffffffffffffffff163273ffffffffffffffffffffffffffffffffffffffff16145b6108a7576040517f08c379a000000000000000000000000000000000000000000000000000000000815260040161089e90612239565b60405180910390fd5b80600160009054906101000a900473ffffffffffffffffffffffffffffffffffffffff1673ffffffffffffffffffffffffffffffffffffffff166378a1f8a0826040518263ffffffff1660e01b81526004016109039190612175565b602060405180830381865afa158015610920573d6000803e3d6000fd5b505050506040513d601f19601f8201168201806040525081019061094491906122f0565b610983576040517f08c379a000000000000000000000000000000000000000000000000000000000815260040161097a90612369565b60405180910390fd5b600160009054906101000a900473ffffffffffffffffffffffffffffffffffffffff1673ffffffffffffffffffffffffffffffffffffffff1663e9f490178360006040518363ffffffff1660e01b81526004016109e1929190612259565b600060405180830381600087803b1580156109fb57600080fd5b505af1158015610a0f573d6000803e3d6000fd5b505050507fc1ea69314b4e70863f0a0ae7de7170ce9fe6b6988af096f87eef7380470364d1600160009054906101000a900473ffffffffffffffffffffffffffffffffffffffff1673ffffffffffffffffffffffffffffffffffffffff1663e317526a846040518263ffffffff1660e01b8152600401610a8f9190612175565b602060405180830381865afa158015610aac573d6000803e3d6000fd5b505050506040513d601f19601f82011682018060405250810190610ad09190612297565b604051610add9190611f9e565b60405180910390a15050565b60008054906101000a900473ffffffffffffffffffffffffffffffffffffffff1673ffffffffffffffffffffffffffffffffffffffff163373ffffffffffffffffffffffffffffffffffffffff161480610b8e575060008054906101000a900473ffffffffffffffffffffffffffffffffffffffff1673ffffffffffffffffffffffffffffffffffffffff163273ffffffffffffffffffffffffffffffffffffffff16145b610bcd576040517f08c379a0000000000000000000000000000000000000000000000000000000008152600401610bc490612239565b60405180910390fd5b6000600160009054906101000a900473ffffffffffffffffffffffffffffffffffffffff1673ffffffffffffffffffffffffffffffffffffffff166384b087f88585856040518463ffffffff1660e01b8152600401610c2e939291906123c2565b6020604051808303816000875af1158015610c4d573d6000803e3d6000fd5b505050506040513d601f19601f82011682018060405250810190610c719190612415565b90507f7a609f60f049d0811669fabadc4ca21d9e12ee33fcf77a6f749c0d6e3c17b3cf8482604051610ca4929190612442565b60405180910390a150505050565b600080600160009054906101000a900473ffffffffffffffffffffffffffffffffffffffff1673ffffffffffffffffffffffffffffffffffffffff166321b914bc846040518263ffffffff1660e01b8152600401610d109190612175565b600060405180830381865afa158015610d2d573d6000803e3d6000fd5b505050506040513d6000823e3d601f19601f82011682018060405250810190610d5691906125b6565b90508060600151915050919050565b610d6d611a10565b600160009054906101000a900473ffffffffffffffffffffffffffffffffffffffff1673ffffffffffffffffffffffffffffffffffffffff166321b914bc836040518263ffffffff1660e01b8152600401610dc89190612175565b600060405180830381865afa158015610de5573d6000803e3d6000fd5b505050506040513d6000823e3d601f19601f82011682018060405250810190610e0e91906125b6565b9050919050565b60008173ffffffffffffffffffffffffffffffffffffffff16600160009054906101000a900473ffffffffffffffffffffffffffffffffffffffff1673ffffffffffffffffffffffffffffffffffffffff1663e317526a856040518263ffffffff1660e01b8152600401610e899190612175565b602060405180830381865afa158015610ea6573d6000803e3d6000fd5b505050506040513d601f19601f82011682018060405250810190610eca9190612297565b73ffffffffffffffffffffffffffffffffffffffff1614905092915050565b60008054906101000a900473ffffffffffffffffffffffffffffffffffffffff1673ffffffffffffffffffffffffffffffffffffffff163373ffffffffffffffffffffffffffffffffffffffff161480610f8e575060008054906101000a900473ffffffffffffffffffffffffffffffffffffffff1673ffffffffffffffffffffffffffffffffffffffff163273ffffffffffffffffffffffffffffffffffffffff16145b610fcd576040517f08c379a0000000000000000000000000000000000000000000000000000000008152600401610fc490612239565b60405180910390fd5b80600160009054906101000a900473ffffffffffffffffffffffffffffffffffffffff1673ffffffffffffffffffffffffffffffffffffffff166378a1f8a0826040518263ffffffff1660e01b81526004016110299190612175565b602060405180830381865afa158015611046573d6000803e3d6000fd5b505050506040513d601f19601f8201168201806040525081019061106a91906122f0565b6110a9576040517f08c379a00000000000000000000000000000000000000000000000000000000081526004016110a090612369565b60405180910390fd5b600160009054906101000a900473ffffffffffffffffffffffffffffffffffffffff1673ffffffffffffffffffffffffffffffffffffffff1663e9f490178360016040518363ffffffff1660e01b8152600401611107929190612259565b600060405180830381600087803b15801561112157600080fd5b505af1158015611135573d6000803e3d6000fd5b505050507f62f2df39e0fcf26c8932574fab58b855e905448accc61256a566fec263b676ab600160009054906101000a900473ffffffffffffffffffffffffffffffffffffffff1673ffffffffffffffffffffffffffffffffffffffff1663e317526a846040518263ffffffff1660e01b81526004016111b59190612175565b602060405180830381865afa1580156111d2573d6000803e3d6000fd5b505050506040513d601f19601f820116820180604052508101906111f69190612297565b6040516112039190611f9e565b60405180910390a15050565b60008054906101000a900473ffffffffffffffffffffffffffffffffffffffff1681565b6060600160009054906101000a900473ffffffffffffffffffffffffffffffffffffffff1673ffffffffffffffffffffffffffffffffffffffff1663b5bbd2796040518163ffffffff1660e01b8152600401600060405180830381865afa1580156112a2573d6000803e3d6000fd5b505050506040513d6000823e3d601f19601f820116820180604052508101906112cb91906126e5565b905090565b81600160009054906101000a900473ffffffffffffffffffffffffffffffffffffffff1673ffffffffffffffffffffffffffffffffffffffff166378a1f8a0826040518263ffffffff1660e01b815260040161132c9190612175565b602060405180830381865afa158015611349573d6000803e3d6000fd5b505050506040513d601f19601f8201168201806040525081019061136d91906122f0565b6113ac576040517f08c379a00000000000000000000000000000000000000000000000000000000081526004016113a390612369565b60405180910390fd5b826113b78133610e15565b6113f6576040517f08c379a00000000000000000000000000000000000000000000000000000000081526004016113ed906127a0565b60405180910390fd5b83600160009054906101000a900473ffffffffffffffffffffffffffffffffffffffff1673ffffffffffffffffffffffffffffffffffffffff16633c907bea826040518263ffffffff1660e01b81526004016114529190612175565b602060405180830381865afa15801561146f573d6000803e3d6000fd5b505050506040513d601f19601f8201168201806040525081019061149391906122f0565b156114d3576040517f08c379a00000000000000000000000000000000000000000000000000000000081526004016114ca90612832565b60405180910390fd5b600060149054906101000a900460ff1615611523576040517f08c379a000000000000000000000000000000000000000000000000000000000815260040161151a9061289e565b60405180910390fd5b600061152e866116b3565b905080851115611573576040517f08c379a000000000000000000000000000000000000000000000000000000000815260040161156a9061290a565b60405180910390fd5b60006064866115829190612988565b9050600081670de0b6b3a764000061159a91906129b9565b90503373ffffffffffffffffffffffffffffffffffffffff166108fc829081150290604051600060405180830381858888f193505050501580156115e2573d6000803e3d6000fd5b50600260009054906101000a900473ffffffffffffffffffffffffffffffffffffffff1673ffffffffffffffffffffffffffffffffffffffff1663bec3fa1730896040518363ffffffff1660e01b8152600401611640929190612442565b600060405180830381600087803b15801561165a57600080fd5b505af115801561166e573d6000803e3d6000fd5b505050507f87a78f7df6302725b7b44f64ed140f2b072832394391bf2b94c9bb5563e5bf08336040516116a19190611f9e565b60405180910390a15050505050505050565b6000816116c08133610e15565b6116ff576040517f08c379a00000000000000000000000000000000000000000000000000000000081526004016116f6906127a0565b60405180910390fd5b600260009054906101000a900473ffffffffffffffffffffffffffffffffffffffff1673ffffffffffffffffffffffffffffffffffffffff16635f515226336040518263ffffffff1660e01b815260040161175a9190611f9e565b602060405180830381865afa158015611777573d6000803e3d6000fd5b505050506040513d601f19601f8201168201806040525081019061179b9190612415565b915050919050565b600060149054906101000a900460ff1681565b6000600160009054906101000a900473ffffffffffffffffffffffffffffffffffffffff1673ffffffffffffffffffffffffffffffffffffffff1663e317526a836040518263ffffffff1660e01b81526004016118139190612175565b602060405180830381865afa158015611830573d6000803e3d6000fd5b505050506040513d601f19601f820116820180604052508101906118549190612297565b9050919050565b60008054906101000a900473ffffffffffffffffffffffffffffffffffffffff1673ffffffffffffffffffffffffffffffffffffffff163373ffffffffffffffffffffffffffffffffffffffff161480611900575060008054906101000a900473ffffffffffffffffffffffffffffffffffffffff1673ffffffffffffffffffffffffffffffffffffffff163273ffffffffffffffffffffffffffffffffffffffff16145b61193f576040517f08c379a000000000000000000000000000000000000000000000000000000000815260040161193690612239565b60405180910390fd5b600060149054906101000a900460ff1615600060146101000a81548160ff021916908315150217905550565b6000600160009054906101000a900473ffffffffffffffffffffffffffffffffffffffff1673ffffffffffffffffffffffffffffffffffffffff166378a1f8a0836040518263ffffffff1660e01b81526004016119c89190612175565b602060405180830381865afa1580156119e5573d6000803e3d6000fd5b505050506040513d601f19601f82011682018060405250810190611a0991906122f0565b9050919050565b6040518060c0016040528060008152602001600073ffffffffffffffffffffffffffffffffffffffff1681526020016060815260200160006004811115611a5a57611a59611d21565b5b81526020016000151581526020016000151581525090565b6000604051905090565b600080fd5b600080fd5b6000819050919050565b611a9981611a86565b8114611aa457600080fd5b50565b600081359050611ab681611a90565b92915050565b600060208284031215611ad257611ad1611a7c565b5b6000611ae084828501611aa7565b91505092915050565b600073ffffffffffffffffffffffffffffffffffffffff82169050919050565b6000611b1482611ae9565b9050919050565b611b2481611b09565b8114611b2f57600080fd5b50565b600081359050611b4181611b1b565b92915050565b600080fd5b600080fd5b6000601f19601f8301169050919050565b7f4e487b7100000000000000000000000000000000000000000000000000000000600052604160045260246000fd5b611b9a82611b51565b810181811067ffffffffffffffff82111715611bb957611bb8611b62565b5b80604052505050565b6000611bcc611a72565b9050611bd88282611b91565b919050565b600067ffffffffffffffff821115611bf857611bf7611b62565b5b611c0182611b51565b9050602081019050919050565b82818337600083830152505050565b6000611c30611c2b84611bdd565b611bc2565b905082815260208101848484011115611c4c57611c4b611b4c565b5b611c57848285611c0e565b509392505050565b600082601f830112611c7457611c73611b47565b5b8135611c84848260208601611c1d565b91505092915050565b60058110611c9a57600080fd5b50565b600081359050611cac81611c8d565b92915050565b600080600060608486031215611ccb57611cca611a7c565b5b6000611cd986828701611b32565b935050602084013567ffffffffffffffff811115611cfa57611cf9611a81565b5b611d0686828701611c5f565b9250506040611d1786828701611c9d565b9150509250925092565b7f4e487b7100000000000000000000000000000000000000000000000000000000600052602160045260246000fd5b60058110611d6157611d60611d21565b5b50565b6000819050611d7282611d50565b919050565b6000611d8282611d64565b9050919050565b611d9281611d77565b82525050565b6000602082019050611dad6000830184611d89565b92915050565b611dbc81611a86565b82525050565b611dcb81611b09565b82525050565b600081519050919050565b600082825260208201905092915050565b60005b83811015611e0b578082015181840152602081019050611df0565b60008484015250505050565b6000611e2282611dd1565b611e2c8185611ddc565b9350611e3c818560208601611ded565b611e4581611b51565b840191505092915050565b611e5981611d77565b82525050565b60008115159050919050565b611e7481611e5f565b82525050565b600060c083016000830151611e926000860182611db3565b506020830151611ea56020860182611dc2565b5060408301518482036040860152611ebd8282611e17565b9150506060830151611ed26060860182611e50565b506080830151611ee56080860182611e6b565b5060a0830151611ef860a0860182611e6b565b508091505092915050565b60006020820190508181036000830152611f1d8184611e7a565b905092915050565b60008060408385031215611f3c57611f3b611a7c565b5b6000611f4a85828601611aa7565b9250506020611f5b85828601611b32565b9150509250929050565b611f6e81611e5f565b82525050565b6000602082019050611f896000830184611f65565b92915050565b611f9881611b09565b82525050565b6000602082019050611fb36000830184611f8f565b92915050565b600081519050919050565b600082825260208201905092915050565b6000819050602082019050919050565b600060c083016000830151611ffd6000860182611db3565b5060208301516120106020860182611dc2565b50604083015184820360408601526120288282611e17565b915050606083015161203d6060860182611e50565b5060808301516120506080860182611e6b565b5060a083015161206360a0860182611e6b565b508091505092915050565b600061207a8383611fe5565b905092915050565b6000602082019050919050565b600061209a82611fb9565b6120a48185611fc4565b9350836020820285016120b685611fd5565b8060005b858110156120f257848403895281516120d3858261206e565b94506120de83612082565b925060208a019950506001810190506120ba565b50829750879550505050505092915050565b6000602082019050818103600083015261211e818461208f565b905092915050565b6000806040838503121561213d5761213c611a7c565b5b600061214b85828601611aa7565b925050602061215c85828601611aa7565b9150509250929050565b61216f81611a86565b82525050565b600060208201905061218a6000830184612166565b92915050565b600082825260208201905092915050565b7f4f6e6c7920746865206f776e6572206f66207468697320636f6e74726163742060008201527f697320616c6c6f77656420746f20706572666f726d2074686973206f7065726160208201527f74696f6e00000000000000000000000000000000000000000000000000000000604082015250565b6000612223604483612190565b915061222e826121a1565b606082019050919050565b6000602082019050818103600083015261225281612216565b9050919050565b600060408201905061226e6000830185612166565b61227b6020830184611f65565b9392505050565b60008151905061229181611b1b565b92915050565b6000602082840312156122ad576122ac611a7c565b5b60006122bb84828501612282565b91505092915050565b6122cd81611e5f565b81146122d857600080fd5b50565b6000815190506122ea816122c4565b92915050565b60006020828403121561230657612305611a7c565b5b6000612314848285016122db565b91505092915050565b7f4368617269747920494420676976656e206973206e6f742076616c6964000000600082015250565b6000612353601d83612190565b915061235e8261231d565b602082019050919050565b6000602082019050818103600083015261238281612346565b9050919050565b600061239482611dd1565b61239e8185612190565b93506123ae818560208601611ded565b6123b781611b51565b840191505092915050565b60006060820190506123d76000830186611f8f565b81810360208301526123e98185612389565b90506123f86040830184611d89565b949350505050565b60008151905061240f81611a90565b92915050565b60006020828403121561242b5761242a611a7c565b5b600061243984828501612400565b91505092915050565b60006040820190506124576000830185611f8f565b6124646020830184612166565b9392505050565b600080fd5b600080fd5b600061248861248384611bdd565b611bc2565b9050828152602081018484840111156124a4576124a3611b4c565b5b6124af848285611ded565b509392505050565b600082601f8301126124cc576124cb611b47565b5b81516124dc848260208601612475565b91505092915050565b6000815190506124f481611c8d565b92915050565b600060c082840312156125105761250f61246b565b5b61251a60c0611bc2565b9050600061252a84828501612400565b600083015250602061253e84828501612282565b602083015250604082015167ffffffffffffffff81111561256257612561612470565b5b61256e848285016124b7565b6040830152506060612582848285016124e5565b6060830152506080612596848285016122db565b60808301525060a06125aa848285016122db565b60a08301525092915050565b6000602082840312156125cc576125cb611a7c565b5b600082015167ffffffffffffffff8111156125ea576125e9611a81565b5b6125f6848285016124fa565b91505092915050565b600067ffffffffffffffff82111561261a57612619611b62565b5b602082029050602081019050919050565b600080fd5b600061264361263e846125ff565b611bc2565b905080838252602082019050602084028301858111156126665761266561262b565b5b835b818110156126ad57805167ffffffffffffffff81111561268b5761268a611b47565b5b80860161269889826124fa565b85526020850194505050602081019050612668565b5050509392505050565b600082601f8301126126cc576126cb611b47565b5b81516126dc848260208601612630565b91505092915050565b6000602082840312156126fb576126fa611a7c565b5b600082015167ffffffffffffffff81111561271957612718611a81565b5b612725848285016126b7565b91505092915050565b7f4f6e6c79206f776e696e6720636861726974792063616e20706572666f726d2060008201527f7468697320616374696f6e210000000000000000000000000000000000000000602082015250565b600061278a602c83612190565b91506127958261272e565b604082019050919050565b600060208201905081810360008301526127b98161277d565b9050919050565b7f57616c6c6574206973206c6f636b656420616e6420746f6b656e732063616e6e60008201527f6f742062652077697468647261776e0000000000000000000000000000000000602082015250565b600061281c602f83612190565b9150612827826127c0565b604082019050919050565b6000602082019050818103600083015261284b8161280f565b9050919050565b7f436f6e74726163742073746f7070656421000000000000000000000000000000600082015250565b6000612888601183612190565b915061289382612852565b602082019050919050565b600060208201905081810360008301526128b78161287b565b9050919050565b7f596f7520646f6e2774206861766520656e6f75676820746f6b656e7300000000600082015250565b60006128f4601c83612190565b91506128ff826128be565b602082019050919050565b60006020820190508181036000830152612923816128e7565b9050919050565b7f4e487b7100000000000000000000000000000000000000000000000000000000600052601260045260246000fd5b7f4e487b7100000000000000000000000000000000000000000000000000000000600052601160045260246000fd5b600061299382611a86565b915061299e83611a86565b9250826129ae576129ad61292a565b5b828204905092915050565b60006129c482611a86565b91506129cf83611a86565b92508282026129dd81611a86565b915082820484148315176129f4576129f3612959565b5b509291505056fea2646970667358221220718200aae1761d7f424dd3c06598818b9d910b24d99e1bb5b9c6d73148b8927964736f6c63430008110033",
  "immutableReferences": {},
  "source": "// SPDX-License-Identifier: MIT\npragma solidity ^0.8.0;\nimport \"./CharityStorage.sol\";\nimport \"./CharityToken.sol\";\n\ncontract Charity {\n    address public owner;\n    bool public contractStopped;\n    CharityStorage charityStorage;\n    CharityToken charityTokenContract;\n\n    event charityVerified(address charity, uint256 charityId);\n    event charitytDeactivated(address charity);\n    event charityActivated(address charity);\n    event withdrawCredits(address charity);\n    event charityWalletLocked(address charity);\n    event charityWalletUnlocked(address charity);\n\n    constructor(\n        CharityStorage charityAddress,\n        CharityToken charityTokenAddress\n    ) {\n        owner = msg.sender;\n        charityStorage = charityAddress;\n        charityTokenContract = charityTokenAddress;\n    }\n\n    modifier ownerOnly() {\n        require(\n            msg.sender == owner || tx.origin == owner,\n            \"Only the owner of this contract is allowed to perform this operation\"\n        );\n        _;\n    }\n\n    modifier isValidCharity(uint256 charityId) {\n        require(\n            charityStorage.getCharityActive(charityId),\n            \"Charity ID given is not valid\"\n        );\n        _;\n    }\n\n    modifier owningCharityOnly(uint256 charityId) {\n        require(\n            isOwnerOfCharity(charityId, msg.sender),\n            \"Only owning charity can perform this action!\"\n        );\n        _;\n    }\n\n    modifier walletNotLocked(uint256 charityId) {\n        require(\n            !charityStorage.getCharityWalletLocked(charityId),\n            \"Wallet is locked and tokens cannot be withdrawn\"\n        );\n        _;\n    }\n\n    modifier haltInEmergency() {\n        require(!contractStopped, \"Contract stopped!\");\n        _;\n    }\n\n    function toggleContractStopped() public ownerOnly {\n        contractStopped = !contractStopped;\n    }\n\n    function verifyCharity(\n        address charityOwner,\n        string memory name,\n        CharityStorage.charityCategory category\n    ) public ownerOnly {\n        uint256 charityId = charityStorage.addCharity(\n            charityOwner,\n            name,\n            category\n        );\n        emit charityVerified(charityOwner, charityId);\n    }\n\n    function deactivateCharity(uint256 charityId) public ownerOnly {\n        charityStorage.setCharityActive(charityId, false);\n        emit charitytDeactivated(charityStorage.getCharityOwner(charityId));\n    }\n\n    function activateCharity(uint256 charityId) public ownerOnly {\n        charityStorage.setCharityActive(charityId, true);\n        emit charityActivated(charityStorage.getCharityOwner(charityId));\n    }\n\n    function checkTokenBalance(\n        uint256 charityId\n    ) public view owningCharityOnly(charityId) returns (uint256) {\n        return charityTokenContract.checkBalance(msg.sender);\n    }\n\n    function withdrawTokens(\n        uint256 charityId,\n        uint256 numTokens\n    )\n        public\n        isValidCharity(charityId)\n        owningCharityOnly(charityId)\n        walletNotLocked(charityId)\n        haltInEmergency\n    {\n        uint256 charityTokensBalance = checkTokenBalance(charityId);\n        require(\n            numTokens <= charityTokensBalance,\n            \"You don't have enough tokens\"\n        );\n\n        uint256 etherAmt = numTokens / 100;\n        uint256 weiAmt = 1000000000000000000 * etherAmt;\n\n        payable(msg.sender).transfer(weiAmt);\n        charityTokenContract.transferTokens(address(this), numTokens); // transfer CT back to this contract address\n        emit withdrawCredits(msg.sender);\n    }\n\n    function lockWallet(\n        uint256 charityId\n    ) public ownerOnly isValidCharity(charityId) {\n        charityStorage.setCharityWalletLocked(charityId, true);\n        emit charityWalletLocked(charityStorage.getCharityOwner(charityId));\n    }\n\n    function unlockWallet(\n        uint256 charityId\n    ) public ownerOnly isValidCharity(charityId) {\n        charityStorage.setCharityWalletLocked(charityId, false);\n        emit charityWalletUnlocked(charityStorage.getCharityOwner(charityId));\n    }\n\n    function getCharityOwner(uint256 charityId) public view returns (address) {\n        return charityStorage.getCharityOwner(charityId);\n    }\n\n    function isOwnerOfCharity(\n        uint256 charityId,\n        address charityOwner\n    ) public view returns (bool) {\n        return charityStorage.getCharityOwner(charityId) == charityOwner;\n    }\n\n    function isCharityActive(uint256 charityId) public view returns (bool) {\n        return charityStorage.getCharityActive(charityId);\n    }\n\n    function getAllCharities()\n        public\n        view\n        returns (CharityStorage.charity[] memory)\n    {\n        return charityStorage.getAllCharities();\n    }\n\n    function getCharityDetails(\n        uint256 charityId\n    ) public view returns (CharityStorage.charity memory) {\n        return charityStorage.getCharityById(charityId);\n    }\n\n    function getCategoryByCharity(\n        uint256 charityId\n    ) public view returns (CharityStorage.charityCategory) {\n        CharityStorage.charity memory charity = charityStorage.getCharityById(\n            charityId\n        );\n        return charity.category;\n    }\n}\n",
  "sourcePath": "/Users/danielonges/Desktop/coding/blockchain-charity/contracts/Charity.sol",
  "compiler": {
    "name": "solc",
    "version": "0.8.17+commit.8df45f5f.Emscripten.clang"
  },
  "schemaVersion": "3.4.11",
  "updatedAt": "2023-04-04T10:54:06.642Z",
  "devdoc": {
    "kind": "dev",
    "methods": {},
    "version": 1
  },
  "userdoc": {
    "kind": "user",
    "methods": {},
    "version": 1
  }
}