{
  "contractName": "CharityStorage",
  "abi": [
    {
      "inputs": [],
      "name": "owner",
      "outputs": [
        {
          "internalType": "address",
          "name": "",
          "type": "address"
        }
      ],
      "stateMutability": "view",
      "type": "function",
      "constant": true
    },
    {
      "inputs": [
        {
          "internalType": "address",
          "name": "charityOwner",
          "type": "address"
        },
        {
          "internalType": "string",
          "name": "name",
          "type": "string"
        },
        {
          "internalType": "enum CharityStorage.charityCategory",
          "name": "category",
          "type": "uint8"
        }
      ],
      "name": "addCharity",
      "outputs": [
        {
          "internalType": "uint256",
          "name": "",
          "type": "uint256"
        }
      ],
      "stateMutability": "nonpayable",
      "type": "function"
    },
    {
      "inputs": [
        {
          "internalType": "uint256",
          "name": "id",
          "type": "uint256"
        }
      ],
      "name": "getCharityActive",
      "outputs": [
        {
          "internalType": "bool",
          "name": "",
          "type": "bool"
        }
      ],
      "stateMutability": "view",
      "type": "function",
      "constant": true
    },
    {
      "inputs": [
        {
          "internalType": "uint256",
          "name": "id",
          "type": "uint256"
        },
        {
          "internalType": "bool",
          "name": "active",
          "type": "bool"
        }
      ],
      "name": "setCharityActive",
      "outputs": [],
      "stateMutability": "nonpayable",
      "type": "function"
    },
    {
      "inputs": [
        {
          "internalType": "uint256",
          "name": "id",
          "type": "uint256"
        }
      ],
      "name": "getCharityOwner",
      "outputs": [
        {
          "internalType": "address",
          "name": "",
          "type": "address"
        }
      ],
      "stateMutability": "view",
      "type": "function",
      "constant": true
    },
    {
      "inputs": [
        {
          "internalType": "uint256",
          "name": "id",
          "type": "uint256"
        }
      ],
      "name": "getCharityName",
      "outputs": [
        {
          "internalType": "string",
          "name": "",
          "type": "string"
        }
      ],
      "stateMutability": "view",
      "type": "function",
      "constant": true
    },
    {
      "inputs": [
        {
          "internalType": "uint256",
          "name": "id",
          "type": "uint256"
        }
      ],
      "name": "getCharityWalletLocked",
      "outputs": [
        {
          "internalType": "bool",
          "name": "",
          "type": "bool"
        }
      ],
      "stateMutability": "view",
      "type": "function",
      "constant": true
    },
    {
      "inputs": [
        {
          "internalType": "uint256",
          "name": "id",
          "type": "uint256"
        },
        {
          "internalType": "bool",
          "name": "locked",
          "type": "bool"
        }
      ],
      "name": "setCharityWalletLocked",
      "outputs": [],
      "stateMutability": "nonpayable",
      "type": "function"
    },
    {
      "inputs": [],
      "name": "getNumCharities",
      "outputs": [
        {
          "internalType": "uint256",
          "name": "",
          "type": "uint256"
        }
      ],
      "stateMutability": "view",
      "type": "function",
      "constant": true
    },
    {
      "inputs": [],
      "name": "getAllCharities",
      "outputs": [
        {
          "components": [
            {
              "internalType": "uint256",
              "name": "id",
              "type": "uint256"
            },
            {
              "internalType": "address",
              "name": "owner",
              "type": "address"
            },
            {
              "internalType": "string",
              "name": "name",
              "type": "string"
            },
            {
              "internalType": "enum CharityStorage.charityCategory",
              "name": "category",
              "type": "uint8"
            },
            {
              "internalType": "bool",
              "name": "isActive",
              "type": "bool"
            },
            {
              "internalType": "bool",
              "name": "isWalletLocked",
              "type": "bool"
            }
          ],
          "internalType": "struct CharityStorage.charity[]",
          "name": "",
          "type": "tuple[]"
        }
      ],
      "stateMutability": "view",
      "type": "function",
      "constant": true
    },
    {
      "inputs": [
        {
          "internalType": "uint256",
          "name": "id",
          "type": "uint256"
        }
      ],
      "name": "getCharityById",
      "outputs": [
        {
          "components": [
            {
              "internalType": "uint256",
              "name": "id",
              "type": "uint256"
            },
            {
              "internalType": "address",
              "name": "owner",
              "type": "address"
            },
            {
              "internalType": "string",
              "name": "name",
              "type": "string"
            },
            {
              "internalType": "enum CharityStorage.charityCategory",
              "name": "category",
              "type": "uint8"
            },
            {
              "internalType": "bool",
              "name": "isActive",
              "type": "bool"
            },
            {
              "internalType": "bool",
              "name": "isWalletLocked",
              "type": "bool"
            }
          ],
          "internalType": "struct CharityStorage.charity",
          "name": "",
          "type": "tuple"
        }
      ],
      "stateMutability": "view",
      "type": "function",
      "constant": true
    }
  ],
  "bytecode": "0x60806040526000805533600160006101000a81548173ffffffffffffffffffffffffffffffffffffffff021916908373ffffffffffffffffffffffffffffffffffffffff16021790555034801561005557600080fd5b506117a3806100656000396000f3fe608060405234801561001057600080fd5b50600436106100a95760003560e01c80638293cc18116100715780638293cc181461018c57806384b087f8146101a85780638da5cb5b146101d8578063b5bbd279146101f6578063e317526a14610214578063e9f4901714610244576100a9565b806321b914bc146100ae5780633c907bea146100de578063658be92f1461010e57806378a1f8a01461012c5780637ede52fc1461015c575b600080fd5b6100c860048036038101906100c39190610c5e565b610260565b6040516100d59190610e86565b60405180910390f35b6100f860048036038101906100f39190610c5e565b6103f0565b6040516101059190610eb7565b60405180910390f35b61011661041d565b6040516101239190610ee1565b60405180910390f35b61014660048036038101906101419190610c5e565b61042a565b6040516101539190610eb7565b60405180910390f35b61017660048036038101906101719190610c5e565b610457565b6040516101839190610f46565b60405180910390f35b6101a660048036038101906101a19190610f94565b6104ff565b005b6101c260048036038101906101bd919061115a565b6105c1565b6040516101cf9190610ee1565b60405180910390f35b6101e06108c8565b6040516101ed91906111d8565b60405180910390f35b6101fe6108ee565b60405161020b919061133e565b60405180910390f35b61022e60048036038101906102299190610c5e565b610ab0565b60405161023b91906111d8565b60405180910390f35b61025e60048036038101906102599190610f94565b610af0565b005b610268610bb2565b600260008381526020019081526020016000206040518060c0016040529081600082015481526020016001820160009054906101000a900473ffffffffffffffffffffffffffffffffffffffff1673ffffffffffffffffffffffffffffffffffffffff1673ffffffffffffffffffffffffffffffffffffffff1681526020016002820180546102f69061138f565b80601f01602080910402602001604051908101604052809291908181526020018280546103229061138f565b801561036f5780601f106103445761010080835404028352916020019161036f565b820191906000526020600020905b81548152906001019060200180831161035257829003601f168201915b505050505081526020016003820160009054906101000a900460ff16600481111561039d5761039c610d6b565b5b60048111156103af576103ae610d6b565b5b81526020016003820160019054906101000a900460ff161515151581526020016003820160029054906101000a900460ff1615151515815250509050919050565b60006002600083815260200190815260200160002060030160029054906101000a900460ff169050919050565b6000600480549050905090565b60006002600083815260200190815260200160002060030160019054906101000a900460ff169050919050565b606060026000838152602001908152602001600020600201805461047a9061138f565b80601f01602080910402602001604051908101604052809291908181526020018280546104a69061138f565b80156104f35780601f106104c8576101008083540402835291602001916104f3565b820191906000526020600020905b8154815290600101906020018083116104d657829003601f168201915b50505050509050919050565b600160009054906101000a900473ffffffffffffffffffffffffffffffffffffffff1673ffffffffffffffffffffffffffffffffffffffff163273ffffffffffffffffffffffffffffffffffffffff161461058f576040517f08c379a000000000000000000000000000000000000000000000000000000000815260040161058690611458565b60405180910390fd5b806002600084815260200190815260200160002060030160016101000a81548160ff0219169083151502179055505050565b6000600160009054906101000a900473ffffffffffffffffffffffffffffffffffffffff1673ffffffffffffffffffffffffffffffffffffffff163273ffffffffffffffffffffffffffffffffffffffff1614610653576040517f08c379a000000000000000000000000000000000000000000000000000000000815260040161064a90611458565b60405180910390fd5b60006040518060c0016040528060005481526020018673ffffffffffffffffffffffffffffffffffffffff16815260200185815260200184600481111561069d5761069c610d6b565b5b81526020016001151581526020016000151581525090508060026000805481526020019081526020016000206000820151816000015560208201518160010160006101000a81548173ffffffffffffffffffffffffffffffffffffffff021916908373ffffffffffffffffffffffffffffffffffffffff160217905550604082015181600201908161072f9190611624565b5060608201518160030160006101000a81548160ff0219169083600481111561075b5761075a610d6b565b5b021790555060808201518160030160016101000a81548160ff02191690831515021790555060a08201518160030160026101000a81548160ff02191690831515021790555090505060048190806001815401808255809150506001900390600052602060002090600402016000909190919091506000820151816000015560208201518160010160006101000a81548173ffffffffffffffffffffffffffffffffffffffff021916908373ffffffffffffffffffffffffffffffffffffffff16021790555060408201518160020190816108359190611624565b5060608201518160030160006101000a81548160ff0219169083600481111561086157610860610d6b565b5b021790555060808201518160030160016101000a81548160ff02191690831515021790555060a08201518160030160026101000a81548160ff02191690831515021790555050506000808154809291906108ba90611725565b919050559150509392505050565b600160009054906101000a900473ffffffffffffffffffffffffffffffffffffffff1681565b60606004805480602002602001604051908101604052809291908181526020016000905b82821015610aa757838290600052602060002090600402016040518060c0016040529081600082015481526020016001820160009054906101000a900473ffffffffffffffffffffffffffffffffffffffff1673ffffffffffffffffffffffffffffffffffffffff1673ffffffffffffffffffffffffffffffffffffffff1681526020016002820180546109a59061138f565b80601f01602080910402602001604051908101604052809291908181526020018280546109d19061138f565b8015610a1e5780601f106109f357610100808354040283529160200191610a1e565b820191906000526020600020905b815481529060010190602001808311610a0157829003601f168201915b505050505081526020016003820160009054906101000a900460ff166004811115610a4c57610a4b610d6b565b5b6004811115610a5e57610a5d610d6b565b5b81526020016003820160019054906101000a900460ff161515151581526020016003820160029054906101000a900460ff16151515158152505081526020019060010190610912565b50505050905090565b60006002600083815260200190815260200160002060010160009054906101000a900473ffffffffffffffffffffffffffffffffffffffff169050919050565b600160009054906101000a900473ffffffffffffffffffffffffffffffffffffffff1673ffffffffffffffffffffffffffffffffffffffff163273ffffffffffffffffffffffffffffffffffffffff1614610b80576040517f08c379a0000000000000000000000000000000000000000000000000000000008152600401610b7790611458565b60405180910390fd5b806002600084815260200190815260200160002060030160026101000a81548160ff0219169083151502179055505050565b6040518060c0016040528060008152602001600073ffffffffffffffffffffffffffffffffffffffff1681526020016060815260200160006004811115610bfc57610bfb610d6b565b5b81526020016000151581526020016000151581525090565b6000604051905090565b600080fd5b600080fd5b6000819050919050565b610c3b81610c28565b8114610c4657600080fd5b50565b600081359050610c5881610c32565b92915050565b600060208284031215610c7457610c73610c1e565b5b6000610c8284828501610c49565b91505092915050565b610c9481610c28565b82525050565b600073ffffffffffffffffffffffffffffffffffffffff82169050919050565b6000610cc582610c9a565b9050919050565b610cd581610cba565b82525050565b600081519050919050565b600082825260208201905092915050565b60005b83811015610d15578082015181840152602081019050610cfa565b60008484015250505050565b6000601f19601f8301169050919050565b6000610d3d82610cdb565b610d478185610ce6565b9350610d57818560208601610cf7565b610d6081610d21565b840191505092915050565b7f4e487b7100000000000000000000000000000000000000000000000000000000600052602160045260246000fd5b60058110610dab57610daa610d6b565b5b50565b6000819050610dbc82610d9a565b919050565b6000610dcc82610dae565b9050919050565b610ddc81610dc1565b82525050565b60008115159050919050565b610df781610de2565b82525050565b600060c083016000830151610e156000860182610c8b565b506020830151610e286020860182610ccc565b5060408301518482036040860152610e408282610d32565b9150506060830151610e556060860182610dd3565b506080830151610e686080860182610dee565b5060a0830151610e7b60a0860182610dee565b508091505092915050565b60006020820190508181036000830152610ea08184610dfd565b905092915050565b610eb181610de2565b82525050565b6000602082019050610ecc6000830184610ea8565b92915050565b610edb81610c28565b82525050565b6000602082019050610ef66000830184610ed2565b92915050565b600082825260208201905092915050565b6000610f1882610cdb565b610f228185610efc565b9350610f32818560208601610cf7565b610f3b81610d21565b840191505092915050565b60006020820190508181036000830152610f608184610f0d565b905092915050565b610f7181610de2565b8114610f7c57600080fd5b50565b600081359050610f8e81610f68565b92915050565b60008060408385031215610fab57610faa610c1e565b5b6000610fb985828601610c49565b9250506020610fca85828601610f7f565b9150509250929050565b610fdd81610cba565b8114610fe857600080fd5b50565b600081359050610ffa81610fd4565b92915050565b600080fd5b600080fd5b7f4e487b7100000000000000000000000000000000000000000000000000000000600052604160045260246000fd5b61104282610d21565b810181811067ffffffffffffffff821117156110615761106061100a565b5b80604052505050565b6000611074610c14565b90506110808282611039565b919050565b600067ffffffffffffffff8211156110a05761109f61100a565b5b6110a982610d21565b9050602081019050919050565b82818337600083830152505050565b60006110d86110d384611085565b61106a565b9050828152602081018484840111156110f4576110f3611005565b5b6110ff8482856110b6565b509392505050565b600082601f83011261111c5761111b611000565b5b813561112c8482602086016110c5565b91505092915050565b6005811061114257600080fd5b50565b60008135905061115481611135565b92915050565b60008060006060848603121561117357611172610c1e565b5b600061118186828701610feb565b935050602084013567ffffffffffffffff8111156111a2576111a1610c23565b5b6111ae86828701611107565b92505060406111bf86828701611145565b9150509250925092565b6111d281610cba565b82525050565b60006020820190506111ed60008301846111c9565b92915050565b600081519050919050565b600082825260208201905092915050565b6000819050602082019050919050565b600060c0830160008301516112376000860182610c8b565b50602083015161124a6020860182610ccc565b50604083015184820360408601526112628282610d32565b91505060608301516112776060860182610dd3565b50608083015161128a6080860182610dee565b5060a083015161129d60a0860182610dee565b508091505092915050565b60006112b4838361121f565b905092915050565b6000602082019050919050565b60006112d4826111f3565b6112de81856111fe565b9350836020820285016112f08561120f565b8060005b8581101561132c578484038952815161130d85826112a8565b9450611318836112bc565b925060208a019950506001810190506112f4565b50829750879550505050505092915050565b6000602082019050818103600083015261135881846112c9565b905092915050565b7f4e487b7100000000000000000000000000000000000000000000000000000000600052602260045260246000fd5b600060028204905060018216806113a757607f821691505b6020821081036113ba576113b9611360565b5b50919050565b7f4f6e6c7920746865206f776e6572206f66207468697320636f6e74726163742060008201527f697320616c6c6f77656420746f20706572666f726d2074686973206f7065726160208201527f74696f6e00000000000000000000000000000000000000000000000000000000604082015250565b6000611442604483610efc565b915061144d826113c0565b606082019050919050565b6000602082019050818103600083015261147181611435565b9050919050565b60008190508160005260206000209050919050565b60006020601f8301049050919050565b600082821b905092915050565b6000600883026114da7fffffffffffffffffffffffffffffffffffffffffffffffffffffffffffffffff8261149d565b6114e4868361149d565b95508019841693508086168417925050509392505050565b6000819050919050565b600061152161151c61151784610c28565b6114fc565b610c28565b9050919050565b6000819050919050565b61153b83611506565b61154f61154782611528565b8484546114aa565b825550505050565b600090565b611564611557565b61156f818484611532565b505050565b5b818110156115935761158860008261155c565b600181019050611575565b5050565b601f8211156115d8576115a981611478565b6115b28461148d565b810160208510156115c1578190505b6115d56115cd8561148d565b830182611574565b50505b505050565b600082821c905092915050565b60006115fb600019846008026115dd565b1980831691505092915050565b600061161483836115ea565b9150826002028217905092915050565b61162d82610cdb565b67ffffffffffffffff8111156116465761164561100a565b5b611650825461138f565b61165b828285611597565b600060209050601f83116001811461168e576000841561167c578287015190505b6116868582611608565b8655506116ee565b601f19841661169c86611478565b60005b828110156116c45784890151825560018201915060208501945060208101905061169f565b868310156116e157848901516116dd601f8916826115ea565b8355505b6001600288020188555050505b505050505050565b7f4e487b7100000000000000000000000000000000000000000000000000000000600052601160045260246000fd5b600061173082610c28565b91507fffffffffffffffffffffffffffffffffffffffffffffffffffffffffffffffff8203611762576117616116f6565b5b60018201905091905056fea2646970667358221220bc48c1637a54b163057768075503e5d1f3c27e51759b08955ff27f75f76a7ceb64736f6c63430008110033",
  "immutableReferences": {},
  "source": "// SPDX-License-Identifier: MIT\npragma solidity ^0.8.0;\n\ncontract CharityStorage {\n    enum charityCategory {\n        CHILDREN,\n        HUMAN_RIGHTS,\n        DISASTER_RELIEF,\n        RELIGIOUS,\n        CULTURAL\n    }\n\n    struct charity {\n        uint256 id;\n        address owner;\n        string name;\n        charityCategory category;\n        bool isActive;\n        bool isWalletLocked;\n    }\n\n    uint256 charityIdCtr = 0;\n\n    address public owner = msg.sender; // set deployer as owner of the storage contract\n    mapping(uint256 => charity) charitiesById;\n    mapping(address => charity) charitiesByAddr;\n    // uint256 numCharities = 0; // total number of charities\n    charity[] allCharities;\n\n    modifier ownerOnly() {\n        require(\n            tx.origin == owner,\n            \"Only the owner of this contract is allowed to perform this operation\"\n        );\n        _;\n    }\n\n    // modifier activeCharityId(uint256 id) {\n    //     require(\n    //         charitiesById[id].isActive || charitiesByAddr[msg.sender].isActive,\n    //         \"Charity ID given is not valid or active\"\n    //     );\n    //     _;\n    // }\n\n    function addCharity(\n        address charityOwner,\n        string memory name,\n        charityCategory category\n    ) public ownerOnly returns (uint256) {\n        charity memory newCharity = charity(\n            charityIdCtr,\n            charityOwner,\n            name,\n            category,\n            true,\n            false\n        );\n\n        charitiesById[charityIdCtr] = newCharity;\n        allCharities.push(newCharity);\n\n        return charityIdCtr++;\n    }\n\n    function getCharityActive(uint256 id) public view returns (bool) {\n        return charitiesById[id].isActive;\n    }\n\n    function setCharityActive(uint256 id, bool active) public ownerOnly {\n        charitiesById[id].isActive = active;\n    }\n\n    function getCharityOwner(uint256 id) public view returns (address) {\n        return charitiesById[id].owner;\n    }\n\n    function getCharityName(uint256 id) public view returns (string memory) {\n        return charitiesById[id].name;\n    }\n\n    function getCharityWalletLocked(uint256 id) public view returns (bool) {\n        return charitiesById[id].isWalletLocked;\n    }\n\n    function setCharityWalletLocked(uint256 id, bool locked) public ownerOnly {\n        charitiesById[id].isWalletLocked = locked;\n    }\n\n    function getNumCharities() public view returns (uint256) {\n        return allCharities.length;\n    }\n\n    function getAllCharities() public view returns (charity[] memory) {\n        return allCharities;\n    }\n\n    function getCharityById(uint256 id) public view returns (charity memory) {\n        return charitiesById[id];\n    }\n}\n",
  "sourcePath": "/Users/danielonges/Desktop/coding/blockchain-charity/contracts/CharityStorage.sol",
  "compiler": {
    "name": "solc",
    "version": "0.8.17+commit.8df45f5f.Emscripten.clang"
  },
  "schemaVersion": "3.4.11",
  "updatedAt": "2023-04-04T10:45:19.411Z",
  "networkType": "ethereum",
  "devdoc": {
    "kind": "dev",
    "methods": {},
    "version": 1
  },
  "userdoc": {
    "kind": "user",
    "methods": {},
    "version": 1
  }
}