{
  "contractName": "Charity",
  "abi": [
    {
      "inputs": [
        {
          "internalType": "contract CharityStorage",
          "name": "charityAddress",
          "type": "address"
        },
        {
          "internalType": "contract CharityToken",
          "name": "charityTokenAddress",
          "type": "address"
        }
      ],
      "stateMutability": "nonpayable",
      "type": "constructor"
    },
    {
      "anonymous": false,
      "inputs": [
        {
          "indexed": false,
          "internalType": "address",
          "name": "charity",
          "type": "address"
        }
      ],
      "name": "charityActivated",
      "type": "event"
    },
    {
      "anonymous": false,
      "inputs": [
        {
          "indexed": false,
          "internalType": "address",
          "name": "charity",
          "type": "address"
        },
        {
          "indexed": false,
          "internalType": "uint256",
          "name": "charityId",
          "type": "uint256"
        }
      ],
      "name": "charityVerified",
      "type": "event"
    },
    {
      "anonymous": false,
      "inputs": [
        {
          "indexed": false,
          "internalType": "address",
          "name": "charity",
          "type": "address"
        }
      ],
      "name": "charityWalletLocked",
      "type": "event"
    },
    {
      "anonymous": false,
      "inputs": [
        {
          "indexed": false,
          "internalType": "address",
          "name": "charity",
          "type": "address"
        }
      ],
      "name": "charityWalletUnlocked",
      "type": "event"
    },
    {
      "anonymous": false,
      "inputs": [
        {
          "indexed": false,
          "internalType": "address",
          "name": "charity",
          "type": "address"
        }
      ],
      "name": "charitytDeactivated",
      "type": "event"
    },
    {
      "anonymous": false,
      "inputs": [
        {
          "indexed": false,
          "internalType": "address",
          "name": "charity",
          "type": "address"
        }
      ],
      "name": "withdrawCredits",
      "type": "event"
    },
    {
      "inputs": [],
      "name": "contractStopped",
      "outputs": [
        {
          "internalType": "bool",
          "name": "",
          "type": "bool"
        }
      ],
      "stateMutability": "view",
      "type": "function"
    },
    {
      "inputs": [],
      "name": "owner",
      "outputs": [
        {
          "internalType": "address",
          "name": "",
          "type": "address"
        }
      ],
      "stateMutability": "view",
      "type": "function"
    },
    {
      "inputs": [],
      "name": "toggleContractStopped",
      "outputs": [],
      "stateMutability": "nonpayable",
      "type": "function"
    },
    {
      "inputs": [
        {
          "internalType": "address",
          "name": "charityOwner",
          "type": "address"
        },
        {
          "internalType": "string",
          "name": "name",
          "type": "string"
        },
        {
          "internalType": "enum CharityStorage.charityCategory",
          "name": "category",
          "type": "uint8"
        }
      ],
      "name": "verifyCharity",
      "outputs": [],
      "stateMutability": "nonpayable",
      "type": "function"
    },
    {
      "inputs": [
        {
          "internalType": "uint256",
          "name": "charityId",
          "type": "uint256"
        }
      ],
      "name": "deactivateCharity",
      "outputs": [],
      "stateMutability": "nonpayable",
      "type": "function"
    },
    {
      "inputs": [
        {
          "internalType": "uint256",
          "name": "charityId",
          "type": "uint256"
        }
      ],
      "name": "activateCharity",
      "outputs": [],
      "stateMutability": "nonpayable",
      "type": "function"
    },
    {
      "inputs": [
        {
          "internalType": "uint256",
          "name": "charityId",
          "type": "uint256"
        }
      ],
      "name": "checkTokenBalance",
      "outputs": [
        {
          "internalType": "uint256",
          "name": "",
          "type": "uint256"
        }
      ],
      "stateMutability": "view",
      "type": "function"
    },
    {
      "inputs": [
        {
          "internalType": "uint256",
          "name": "charityId",
          "type": "uint256"
        },
        {
          "internalType": "uint256",
          "name": "numTokens",
          "type": "uint256"
        }
      ],
      "name": "withdrawTokens",
      "outputs": [],
      "stateMutability": "nonpayable",
      "type": "function"
    },
    {
      "inputs": [
        {
          "internalType": "uint256",
          "name": "charityId",
          "type": "uint256"
        }
      ],
      "name": "lockWallet",
      "outputs": [],
      "stateMutability": "nonpayable",
      "type": "function"
    },
    {
      "inputs": [
        {
          "internalType": "uint256",
          "name": "charityId",
          "type": "uint256"
        }
      ],
      "name": "unlockWallet",
      "outputs": [],
      "stateMutability": "nonpayable",
      "type": "function"
    },
    {
      "inputs": [
        {
          "internalType": "uint256",
          "name": "charityId",
          "type": "uint256"
        }
      ],
      "name": "getCharityOwner",
      "outputs": [
        {
          "internalType": "address",
          "name": "",
          "type": "address"
        }
      ],
      "stateMutability": "view",
      "type": "function"
    },
    {
      "inputs": [
        {
          "internalType": "uint256",
          "name": "charityId",
          "type": "uint256"
        },
        {
          "internalType": "address",
          "name": "charityOwner",
          "type": "address"
        }
      ],
      "name": "isOwnerOfCharity",
      "outputs": [
        {
          "internalType": "bool",
          "name": "",
          "type": "bool"
        }
      ],
      "stateMutability": "view",
      "type": "function"
    },
    {
      "inputs": [
        {
          "internalType": "uint256",
          "name": "charityId",
          "type": "uint256"
        }
      ],
      "name": "isCharityActive",
      "outputs": [
        {
          "internalType": "bool",
          "name": "",
          "type": "bool"
        }
      ],
      "stateMutability": "view",
      "type": "function"
    },
    {
      "inputs": [],
      "name": "getAllCharities",
      "outputs": [
        {
          "components": [
            {
              "internalType": "uint256",
              "name": "id",
              "type": "uint256"
            },
            {
              "internalType": "address",
              "name": "owner",
              "type": "address"
            },
            {
              "internalType": "string",
              "name": "name",
              "type": "string"
            },
            {
              "internalType": "enum CharityStorage.charityCategory",
              "name": "category",
              "type": "uint8"
            },
            {
              "internalType": "bool",
              "name": "isActive",
              "type": "bool"
            },
            {
              "internalType": "bool",
              "name": "isWalletLocked",
              "type": "bool"
            },
            {
              "internalType": "uint256",
              "name": "averageTimeTakenToVerify",
              "type": "uint256"
            },
            {
              "internalType": "uint256",
              "name": "numVerifiedTransactions",
              "type": "uint256"
            },
            {
              "internalType": "uint256",
              "name": "numUnverifiedTransactions",
              "type": "uint256"
            }
          ],
          "internalType": "struct CharityStorage.charity[]",
          "name": "",
          "type": "tuple[]"
        }
      ],
      "stateMutability": "view",
      "type": "function"
    },
    {
      "inputs": [
        {
          "internalType": "uint256",
          "name": "charityId",
          "type": "uint256"
        }
      ],
      "name": "getCharityDetails",
      "outputs": [
        {
          "components": [
            {
              "internalType": "uint256",
              "name": "id",
              "type": "uint256"
            },
            {
              "internalType": "address",
              "name": "owner",
              "type": "address"
            },
            {
              "internalType": "string",
              "name": "name",
              "type": "string"
            },
            {
              "internalType": "enum CharityStorage.charityCategory",
              "name": "category",
              "type": "uint8"
            },
            {
              "internalType": "bool",
              "name": "isActive",
              "type": "bool"
            },
            {
              "internalType": "bool",
              "name": "isWalletLocked",
              "type": "bool"
            },
            {
              "internalType": "uint256",
              "name": "averageTimeTakenToVerify",
              "type": "uint256"
            },
            {
              "internalType": "uint256",
              "name": "numVerifiedTransactions",
              "type": "uint256"
            },
            {
              "internalType": "uint256",
              "name": "numUnverifiedTransactions",
              "type": "uint256"
            }
          ],
          "internalType": "struct CharityStorage.charity",
          "name": "",
          "type": "tuple"
        }
      ],
      "stateMutability": "view",
      "type": "function"
    },
    {
      "inputs": [
        {
          "internalType": "uint256",
          "name": "charityId",
          "type": "uint256"
        }
      ],
      "name": "getCategoryByCharity",
      "outputs": [
        {
          "internalType": "enum CharityStorage.charityCategory",
          "name": "",
          "type": "uint8"
        }
      ],
      "stateMutability": "view",
      "type": "function"
    },
    {
      "inputs": [
        {
          "internalType": "uint256",
          "name": "charityId",
          "type": "uint256"
        },
        {
          "internalType": "uint256",
          "name": "timeTakenToVerify",
          "type": "uint256"
        }
      ],
      "name": "setCharityAverageTimeTakenToVerify",
      "outputs": [],
      "stateMutability": "nonpayable",
      "type": "function"
    },
    {
      "inputs": [
        {
          "internalType": "uint256",
          "name": "charityId",
          "type": "uint256"
        },
        {
          "internalType": "bool",
          "name": "isIncrement",
          "type": "bool"
        }
      ],
      "name": "incrementOrDecrementNumVerifiedTransaction",
      "outputs": [],
      "stateMutability": "nonpayable",
      "type": "function"
    },
    {
      "inputs": [
        {
          "internalType": "uint256",
          "name": "charityId",
          "type": "uint256"
        },
        {
          "internalType": "bool",
          "name": "isIncrement",
          "type": "bool"
        }
      ],
      "name": "incrementOrDecrementNumUnverifiedTransaction",
      "outputs": [],
      "stateMutability": "nonpayable",
      "type": "function"
    },
    {
      "inputs": [
        {
          "internalType": "uint256",
          "name": "charityId",
          "type": "uint256"
        }
      ],
      "name": "getNumVerifiedTransactions",
      "outputs": [
        {
          "internalType": "uint256",
          "name": "",
          "type": "uint256"
        }
      ],
      "stateMutability": "view",
      "type": "function"
    },
    {
      "inputs": [
        {
          "internalType": "uint256",
          "name": "charityId",
          "type": "uint256"
        }
      ],
      "name": "getNumUnverifiedTransactions",
      "outputs": [
        {
          "internalType": "uint256",
          "name": "",
          "type": "uint256"
        }
      ],
      "stateMutability": "view",
      "type": "function"
    }
  ],
  "bytecode": "0x60806040523480156200001157600080fd5b50604051620031a5380380620031a58339818101604052810190620000379190620001c4565b336000806101000a81548173ffffffffffffffffffffffffffffffffffffffff021916908373ffffffffffffffffffffffffffffffffffffffff16021790555081600160006101000a81548173ffffffffffffffffffffffffffffffffffffffff021916908373ffffffffffffffffffffffffffffffffffffffff16021790555080600260006101000a81548173ffffffffffffffffffffffffffffffffffffffff021916908373ffffffffffffffffffffffffffffffffffffffff16021790555050506200020b565b600080fd5b600073ffffffffffffffffffffffffffffffffffffffff82169050919050565b6000620001338262000106565b9050919050565b6000620001478262000126565b9050919050565b62000159816200013a565b81146200016557600080fd5b50565b60008151905062000179816200014e565b92915050565b60006200018c8262000126565b9050919050565b6200019e816200017f565b8114620001aa57600080fd5b50565b600081519050620001be8162000193565b92915050565b60008060408385031215620001de57620001dd62000101565b5b6000620001ee8582860162000168565b92505060206200020185828601620001ad565b9150509250929050565b612f8a806200021b6000396000f3fe608060405234801561001057600080fd5b50600436106101375760003560e01c80638da5cb5b116100b8578063c9ae116c1161007c578063c9ae116c14610334578063cd6f382314610364578063daea74c514610394578063e317526a146103b2578063e83c78d4146103e2578063f6c997b8146103ec57610137565b80638da5cb5b146102a4578063b5bbd279146102c2578063ba7bd2aa146102e0578063bb895fc1146102fc578063c7b031c81461031857610137565b8063539a4a31116100ff578063539a4a31146101dc5780636801d5291461020c5780636ab9a025146102285780636afc1334146102585780638d5235bf1461027457610137565b8063213ef5e71461013c5780632da8d7251461015857806335ca1c79146101745780634f1f42111461019057806351c3898f146101ac575b600080fd5b61015660048036038101906101519190611eb2565b61041c565b005b610172600480360381019061016d9190611eb2565b610665565b005b61018e60048036038101906101899190611eb2565b6108ae565b005b6101aa60048036038101906101a591906120a8565b610bd4565b005b6101c660048036038101906101c19190611eb2565b610d9d565b6040516101d3919061218e565b60405180910390f35b6101f660048036038101906101f19190611eb2565b610e42565b6040516102039190612335565b60405180910390f35b61022660048036038101906102219190612383565b610ef2565b005b610242600480360381019061023d91906123c3565b610f85565b60405161024f9190612412565b60405180910390f35b610272600480360381019061026d9190611eb2565b611059565b005b61028e60048036038101906102899190611eb2565b61137f565b60405161029b919061243c565b60405180910390f35b6102ac611424565b6040516102b99190612466565b60405180910390f35b6102ca611448565b6040516102d79190612608565b60405180910390f35b6102fa60048036038101906102f5919061262a565b6114e5565b005b6103166004803603810190610311919061262a565b6118c8565b005b610332600480360381019061032d9190612383565b61195b565b005b61034e60048036038101906103499190611eb2565b6119ee565b60405161035b919061243c565b60405180910390f35b61037e60048036038101906103799190611eb2565b611ade565b60405161038b919061243c565b60405180910390f35b61039c611b83565b6040516103a99190612412565b60405180910390f35b6103cc60048036038101906103c79190611eb2565b611b96565b6040516103d99190612466565b60405180910390f35b6103ea611c3b565b005b61040660048036038101906104019190611eb2565b611d4b565b6040516104139190612412565b60405180910390f35b60008054906101000a900473ffffffffffffffffffffffffffffffffffffffff1673ffffffffffffffffffffffffffffffffffffffff163373ffffffffffffffffffffffffffffffffffffffff1614806104c1575060008054906101000a900473ffffffffffffffffffffffffffffffffffffffff1673ffffffffffffffffffffffffffffffffffffffff163273ffffffffffffffffffffffffffffffffffffffff16145b610500576040517f08c379a00000000000000000000000000000000000000000000000000000000081526004016104f790612713565b60405180910390fd5b600160009054906101000a900473ffffffffffffffffffffffffffffffffffffffff1673ffffffffffffffffffffffffffffffffffffffff16638293cc188260016040518363ffffffff1660e01b815260040161055e929190612733565b600060405180830381600087803b15801561057857600080fd5b505af115801561058c573d6000803e3d6000fd5b505050507fa436eebdff427b7b534ef84d66927979b99f72abbfe7f3cc8e4619eb3aa2e68b600160009054906101000a900473ffffffffffffffffffffffffffffffffffffffff1673ffffffffffffffffffffffffffffffffffffffff1663e317526a836040518263ffffffff1660e01b815260040161060c919061243c565b602060405180830381865afa158015610629573d6000803e3d6000fd5b505050506040513d601f19601f8201168201806040525081019061064d9190612771565b60405161065a9190612466565b60405180910390a150565b60008054906101000a900473ffffffffffffffffffffffffffffffffffffffff1673ffffffffffffffffffffffffffffffffffffffff163373ffffffffffffffffffffffffffffffffffffffff16148061070a575060008054906101000a900473ffffffffffffffffffffffffffffffffffffffff1673ffffffffffffffffffffffffffffffffffffffff163273ffffffffffffffffffffffffffffffffffffffff16145b610749576040517f08c379a000000000000000000000000000000000000000000000000000000000815260040161074090612713565b60405180910390fd5b600160009054906101000a900473ffffffffffffffffffffffffffffffffffffffff1673ffffffffffffffffffffffffffffffffffffffff16638293cc188260006040518363ffffffff1660e01b81526004016107a7929190612733565b600060405180830381600087803b1580156107c157600080fd5b505af11580156107d5573d6000803e3d6000fd5b505050507fa5b6f160624521b2b07a6e2e0e6465209f1937bb1e800b1a9746577b9ba89f5c600160009054906101000a900473ffffffffffffffffffffffffffffffffffffffff1673ffffffffffffffffffffffffffffffffffffffff1663e317526a836040518263ffffffff1660e01b8152600401610855919061243c565b602060405180830381865afa158015610872573d6000803e3d6000fd5b505050506040513d601f19601f820116820180604052508101906108969190612771565b6040516108a39190612466565b60405180910390a150565b60008054906101000a900473ffffffffffffffffffffffffffffffffffffffff1673ffffffffffffffffffffffffffffffffffffffff163373ffffffffffffffffffffffffffffffffffffffff161480610953575060008054906101000a900473ffffffffffffffffffffffffffffffffffffffff1673ffffffffffffffffffffffffffffffffffffffff163273ffffffffffffffffffffffffffffffffffffffff16145b610992576040517f08c379a000000000000000000000000000000000000000000000000000000000815260040161098990612713565b60405180910390fd5b80600160009054906101000a900473ffffffffffffffffffffffffffffffffffffffff1673ffffffffffffffffffffffffffffffffffffffff166378a1f8a0826040518263ffffffff1660e01b81526004016109ee919061243c565b602060405180830381865afa158015610a0b573d6000803e3d6000fd5b505050506040513d601f19601f82011682018060405250810190610a2f91906127b3565b610a6e576040517f08c379a0000000000000000000000000000000000000000000000000000000008152600401610a659061282c565b60405180910390fd5b600160009054906101000a900473ffffffffffffffffffffffffffffffffffffffff1673ffffffffffffffffffffffffffffffffffffffff1663e9f490178360006040518363ffffffff1660e01b8152600401610acc929190612733565b600060405180830381600087803b158015610ae657600080fd5b505af1158015610afa573d6000803e3d6000fd5b505050507fc1ea69314b4e70863f0a0ae7de7170ce9fe6b6988af096f87eef7380470364d1600160009054906101000a900473ffffffffffffffffffffffffffffffffffffffff1673ffffffffffffffffffffffffffffffffffffffff1663e317526a846040518263ffffffff1660e01b8152600401610b7a919061243c565b602060405180830381865afa158015610b97573d6000803e3d6000fd5b505050506040513d601f19601f82011682018060405250810190610bbb9190612771565b604051610bc89190612466565b60405180910390a15050565b60008054906101000a900473ffffffffffffffffffffffffffffffffffffffff1673ffffffffffffffffffffffffffffffffffffffff163373ffffffffffffffffffffffffffffffffffffffff161480610c79575060008054906101000a900473ffffffffffffffffffffffffffffffffffffffff1673ffffffffffffffffffffffffffffffffffffffff163273ffffffffffffffffffffffffffffffffffffffff16145b610cb8576040517f08c379a0000000000000000000000000000000000000000000000000000000008152600401610caf90612713565b60405180910390fd5b6000600160009054906101000a900473ffffffffffffffffffffffffffffffffffffffff1673ffffffffffffffffffffffffffffffffffffffff166384b087f88585856040518463ffffffff1660e01b8152600401610d1993929190612885565b6020604051808303816000875af1158015610d38573d6000803e3d6000fd5b505050506040513d601f19601f82011682018060405250810190610d5c91906128d8565b90507f7a609f60f049d0811669fabadc4ca21d9e12ee33fcf77a6f749c0d6e3c17b3cf8482604051610d8f929190612905565b60405180910390a150505050565b6000600160009054906101000a900473ffffffffffffffffffffffffffffffffffffffff1673ffffffffffffffffffffffffffffffffffffffff1663ca9099c0836040518263ffffffff1660e01b8152600401610dfa919061243c565b602060405180830381865afa158015610e17573d6000803e3d6000fd5b505050506040513d601f19601f82011682018060405250810190610e3b9190612943565b9050919050565b610e4a611df0565b600160009054906101000a900473ffffffffffffffffffffffffffffffffffffffff1673ffffffffffffffffffffffffffffffffffffffff166321b914bc836040518263ffffffff1660e01b8152600401610ea5919061243c565b600060405180830381865afa158015610ec2573d6000803e3d6000fd5b505050506040513d6000823e3d601f19601f82011682018060405250810190610eeb9190612ae6565b9050919050565b600160009054906101000a900473ffffffffffffffffffffffffffffffffffffffff1673ffffffffffffffffffffffffffffffffffffffff16636801d52983836040518363ffffffff1660e01b8152600401610f4f929190612733565b600060405180830381600087803b158015610f6957600080fd5b505af1158015610f7d573d6000803e3d6000fd5b505050505050565b60008173ffffffffffffffffffffffffffffffffffffffff16600160009054906101000a900473ffffffffffffffffffffffffffffffffffffffff1673ffffffffffffffffffffffffffffffffffffffff1663e317526a856040518263ffffffff1660e01b8152600401610ff9919061243c565b602060405180830381865afa158015611016573d6000803e3d6000fd5b505050506040513d601f19601f8201168201806040525081019061103a9190612771565b73ffffffffffffffffffffffffffffffffffffffff1614905092915050565b60008054906101000a900473ffffffffffffffffffffffffffffffffffffffff1673ffffffffffffffffffffffffffffffffffffffff163373ffffffffffffffffffffffffffffffffffffffff1614806110fe575060008054906101000a900473ffffffffffffffffffffffffffffffffffffffff1673ffffffffffffffffffffffffffffffffffffffff163273ffffffffffffffffffffffffffffffffffffffff16145b61113d576040517f08c379a000000000000000000000000000000000000000000000000000000000815260040161113490612713565b60405180910390fd5b80600160009054906101000a900473ffffffffffffffffffffffffffffffffffffffff1673ffffffffffffffffffffffffffffffffffffffff166378a1f8a0826040518263ffffffff1660e01b8152600401611199919061243c565b602060405180830381865afa1580156111b6573d6000803e3d6000fd5b505050506040513d601f19601f820116820180604052508101906111da91906127b3565b611219576040517f08c379a00000000000000000000000000000000000000000000000000000000081526004016112109061282c565b60405180910390fd5b600160009054906101000a900473ffffffffffffffffffffffffffffffffffffffff1673ffffffffffffffffffffffffffffffffffffffff1663e9f490178360016040518363ffffffff1660e01b8152600401611277929190612733565b600060405180830381600087803b15801561129157600080fd5b505af11580156112a5573d6000803e3d6000fd5b505050507f62f2df39e0fcf26c8932574fab58b855e905448accc61256a566fec263b676ab600160009054906101000a900473ffffffffffffffffffffffffffffffffffffffff1673ffffffffffffffffffffffffffffffffffffffff1663e317526a846040518263ffffffff1660e01b8152600401611325919061243c565b602060405180830381865afa158015611342573d6000803e3d6000fd5b505050506040513d601f19601f820116820180604052508101906113669190612771565b6040516113739190612466565b60405180910390a15050565b6000600160009054906101000a900473ffffffffffffffffffffffffffffffffffffffff1673ffffffffffffffffffffffffffffffffffffffff16638d5235bf836040518263ffffffff1660e01b81526004016113dc919061243c565b602060405180830381865afa1580156113f9573d6000803e3d6000fd5b505050506040513d601f19601f8201168201806040525081019061141d91906128d8565b9050919050565b60008054906101000a900473ffffffffffffffffffffffffffffffffffffffff1681565b6060600160009054906101000a900473ffffffffffffffffffffffffffffffffffffffff1673ffffffffffffffffffffffffffffffffffffffff1663b5bbd2796040518163ffffffff1660e01b8152600401600060405180830381865afa1580156114b7573d6000803e3d6000fd5b505050506040513d6000823e3d601f19601f820116820180604052508101906114e09190612c15565b905090565b81600160009054906101000a900473ffffffffffffffffffffffffffffffffffffffff1673ffffffffffffffffffffffffffffffffffffffff166378a1f8a0826040518263ffffffff1660e01b8152600401611541919061243c565b602060405180830381865afa15801561155e573d6000803e3d6000fd5b505050506040513d601f19601f8201168201806040525081019061158291906127b3565b6115c1576040517f08c379a00000000000000000000000000000000000000000000000000000000081526004016115b89061282c565b60405180910390fd5b826115cc8133610f85565b61160b576040517f08c379a000000000000000000000000000000000000000000000000000000000815260040161160290612cd0565b60405180910390fd5b83600160009054906101000a900473ffffffffffffffffffffffffffffffffffffffff1673ffffffffffffffffffffffffffffffffffffffff16633c907bea826040518263ffffffff1660e01b8152600401611667919061243c565b602060405180830381865afa158015611684573d6000803e3d6000fd5b505050506040513d601f19601f820116820180604052508101906116a891906127b3565b156116e8576040517f08c379a00000000000000000000000000000000000000000000000000000000081526004016116df90612d62565b60405180910390fd5b600060149054906101000a900460ff1615611738576040517f08c379a000000000000000000000000000000000000000000000000000000000815260040161172f90612dce565b60405180910390fd5b6000611743866119ee565b905080851115611788576040517f08c379a000000000000000000000000000000000000000000000000000000000815260040161177f90612e3a565b60405180910390fd5b60006064866117979190612eb8565b9050600081670de0b6b3a76400006117af9190612ee9565b90503373ffffffffffffffffffffffffffffffffffffffff166108fc829081150290604051600060405180830381858888f193505050501580156117f7573d6000803e3d6000fd5b50600260009054906101000a900473ffffffffffffffffffffffffffffffffffffffff1673ffffffffffffffffffffffffffffffffffffffff1663bec3fa1730896040518363ffffffff1660e01b8152600401611855929190612905565b600060405180830381600087803b15801561186f57600080fd5b505af1158015611883573d6000803e3d6000fd5b505050507f87a78f7df6302725b7b44f64ed140f2b072832394391bf2b94c9bb5563e5bf08336040516118b69190612466565b60405180910390a15050505050505050565b600160009054906101000a900473ffffffffffffffffffffffffffffffffffffffff1673ffffffffffffffffffffffffffffffffffffffff1663bb895fc183836040518363ffffffff1660e01b8152600401611925929190612f2b565b600060405180830381600087803b15801561193f57600080fd5b505af1158015611953573d6000803e3d6000fd5b505050505050565b600160009054906101000a900473ffffffffffffffffffffffffffffffffffffffff1673ffffffffffffffffffffffffffffffffffffffff1663c7b031c883836040518363ffffffff1660e01b81526004016119b8929190612733565b600060405180830381600087803b1580156119d257600080fd5b505af11580156119e6573d6000803e3d6000fd5b505050505050565b6000816119fb8133610f85565b611a3a576040517f08c379a0000000000000000000000000000000000000000000000000000000008152600401611a3190612cd0565b60405180910390fd5b600260009054906101000a900473ffffffffffffffffffffffffffffffffffffffff1673ffffffffffffffffffffffffffffffffffffffff16635f515226336040518263ffffffff1660e01b8152600401611a959190612466565b602060405180830381865afa158015611ab2573d6000803e3d6000fd5b505050506040513d601f19601f82011682018060405250810190611ad691906128d8565b915050919050565b6000600160009054906101000a900473ffffffffffffffffffffffffffffffffffffffff1673ffffffffffffffffffffffffffffffffffffffff1663cd6f3823836040518263ffffffff1660e01b8152600401611b3b919061243c565b602060405180830381865afa158015611b58573d6000803e3d6000fd5b505050506040513d601f19601f82011682018060405250810190611b7c91906128d8565b9050919050565b600060149054906101000a900460ff1681565b6000600160009054906101000a900473ffffffffffffffffffffffffffffffffffffffff1673ffffffffffffffffffffffffffffffffffffffff1663e317526a836040518263ffffffff1660e01b8152600401611bf3919061243c565b602060405180830381865afa158015611c10573d6000803e3d6000fd5b505050506040513d601f19601f82011682018060405250810190611c349190612771565b9050919050565b60008054906101000a900473ffffffffffffffffffffffffffffffffffffffff1673ffffffffffffffffffffffffffffffffffffffff163373ffffffffffffffffffffffffffffffffffffffff161480611ce0575060008054906101000a900473ffffffffffffffffffffffffffffffffffffffff1673ffffffffffffffffffffffffffffffffffffffff163273ffffffffffffffffffffffffffffffffffffffff16145b611d1f576040517f08c379a0000000000000000000000000000000000000000000000000000000008152600401611d1690612713565b60405180910390fd5b600060149054906101000a900460ff1615600060146101000a81548160ff021916908315150217905550565b6000600160009054906101000a900473ffffffffffffffffffffffffffffffffffffffff1673ffffffffffffffffffffffffffffffffffffffff166378a1f8a0836040518263ffffffff1660e01b8152600401611da8919061243c565b602060405180830381865afa158015611dc5573d6000803e3d6000fd5b505050506040513d601f19601f82011682018060405250810190611de991906127b3565b9050919050565b60405180610120016040528060008152602001600073ffffffffffffffffffffffffffffffffffffffff1681526020016060815260200160006004811115611e3b57611e3a612117565b5b81526020016000151581526020016000151581526020016000815260200160008152602001600081525090565b6000604051905090565b600080fd5b600080fd5b6000819050919050565b611e8f81611e7c565b8114611e9a57600080fd5b50565b600081359050611eac81611e86565b92915050565b600060208284031215611ec857611ec7611e72565b5b6000611ed684828501611e9d565b91505092915050565b600073ffffffffffffffffffffffffffffffffffffffff82169050919050565b6000611f0a82611edf565b9050919050565b611f1a81611eff565b8114611f2557600080fd5b50565b600081359050611f3781611f11565b92915050565b600080fd5b600080fd5b6000601f19601f8301169050919050565b7f4e487b7100000000000000000000000000000000000000000000000000000000600052604160045260246000fd5b611f9082611f47565b810181811067ffffffffffffffff82111715611faf57611fae611f58565b5b80604052505050565b6000611fc2611e68565b9050611fce8282611f87565b919050565b600067ffffffffffffffff821115611fee57611fed611f58565b5b611ff782611f47565b9050602081019050919050565b82818337600083830152505050565b600061202661202184611fd3565b611fb8565b90508281526020810184848401111561204257612041611f42565b5b61204d848285612004565b509392505050565b600082601f83011261206a57612069611f3d565b5b813561207a848260208601612013565b91505092915050565b6005811061209057600080fd5b50565b6000813590506120a281612083565b92915050565b6000806000606084860312156120c1576120c0611e72565b5b60006120cf86828701611f28565b935050602084013567ffffffffffffffff8111156120f0576120ef611e77565b5b6120fc86828701612055565b925050604061210d86828701612093565b9150509250925092565b7f4e487b7100000000000000000000000000000000000000000000000000000000600052602160045260246000fd5b6005811061215757612156612117565b5b50565b600081905061216882612146565b919050565b60006121788261215a565b9050919050565b6121888161216d565b82525050565b60006020820190506121a3600083018461217f565b92915050565b6121b281611e7c565b82525050565b6121c181611eff565b82525050565b600081519050919050565b600082825260208201905092915050565b60005b838110156122015780820151818401526020810190506121e6565b60008484015250505050565b6000612218826121c7565b61222281856121d2565b93506122328185602086016121e3565b61223b81611f47565b840191505092915050565b61224f8161216d565b82525050565b60008115159050919050565b61226a81612255565b82525050565b60006101208301600083015161228960008601826121a9565b50602083015161229c60208601826121b8565b50604083015184820360408601526122b4828261220d565b91505060608301516122c96060860182612246565b5060808301516122dc6080860182612261565b5060a08301516122ef60a0860182612261565b5060c083015161230260c08601826121a9565b5060e083015161231560e08601826121a9565b5061010083015161232a6101008601826121a9565b508091505092915050565b6000602082019050818103600083015261234f8184612270565b905092915050565b61236081612255565b811461236b57600080fd5b50565b60008135905061237d81612357565b92915050565b6000806040838503121561239a57612399611e72565b5b60006123a885828601611e9d565b92505060206123b98582860161236e565b9150509250929050565b600080604083850312156123da576123d9611e72565b5b60006123e885828601611e9d565b92505060206123f985828601611f28565b9150509250929050565b61240c81612255565b82525050565b60006020820190506124276000830184612403565b92915050565b61243681611e7c565b82525050565b6000602082019050612451600083018461242d565b92915050565b61246081611eff565b82525050565b600060208201905061247b6000830184612457565b92915050565b600081519050919050565b600082825260208201905092915050565b6000819050602082019050919050565b6000610120830160008301516124c660008601826121a9565b5060208301516124d960208601826121b8565b50604083015184820360408601526124f1828261220d565b91505060608301516125066060860182612246565b5060808301516125196080860182612261565b5060a083015161252c60a0860182612261565b5060c083015161253f60c08601826121a9565b5060e083015161255260e08601826121a9565b506101008301516125676101008601826121a9565b508091505092915050565b600061257e83836124ad565b905092915050565b6000602082019050919050565b600061259e82612481565b6125a8818561248c565b9350836020820285016125ba8561249d565b8060005b858110156125f657848403895281516125d78582612572565b94506125e283612586565b925060208a019950506001810190506125be565b50829750879550505050505092915050565b600060208201905081810360008301526126228184612593565b905092915050565b6000806040838503121561264157612640611e72565b5b600061264f85828601611e9d565b925050602061266085828601611e9d565b9150509250929050565b600082825260208201905092915050565b7f4f6e6c7920746865206f776e6572206f66207468697320636f6e74726163742060008201527f697320616c6c6f77656420746f20706572666f726d2074686973206f7065726160208201527f74696f6e00000000000000000000000000000000000000000000000000000000604082015250565b60006126fd60448361266a565b91506127088261267b565b606082019050919050565b6000602082019050818103600083015261272c816126f0565b9050919050565b6000604082019050612748600083018561242d565b6127556020830184612403565b9392505050565b60008151905061276b81611f11565b92915050565b60006020828403121561278757612786611e72565b5b60006127958482850161275c565b91505092915050565b6000815190506127ad81612357565b92915050565b6000602082840312156127c9576127c8611e72565b5b60006127d78482850161279e565b91505092915050565b7f4368617269747920494420676976656e206973206e6f742076616c6964000000600082015250565b6000612816601d8361266a565b9150612821826127e0565b602082019050919050565b6000602082019050818103600083015261284581612809565b9050919050565b6000612857826121c7565b612861818561266a565b93506128718185602086016121e3565b61287a81611f47565b840191505092915050565b600060608201905061289a6000830186612457565b81810360208301526128ac818561284c565b90506128bb604083018461217f565b949350505050565b6000815190506128d281611e86565b92915050565b6000602082840312156128ee576128ed611e72565b5b60006128fc848285016128c3565b91505092915050565b600060408201905061291a6000830185612457565b612927602083018461242d565b9392505050565b60008151905061293d81612083565b92915050565b60006020828403121561295957612958611e72565b5b60006129678482850161292e565b91505092915050565b600080fd5b600080fd5b600061298d61298884611fd3565b611fb8565b9050828152602081018484840111156129a9576129a8611f42565b5b6129b48482856121e3565b509392505050565b600082601f8301126129d1576129d0611f3d565b5b81516129e184826020860161297a565b91505092915050565b60006101208284031215612a0157612a00612970565b5b612a0c610120611fb8565b90506000612a1c848285016128c3565b6000830152506020612a308482850161275c565b602083015250604082015167ffffffffffffffff811115612a5457612a53612975565b5b612a60848285016129bc565b6040830152506060612a748482850161292e565b6060830152506080612a888482850161279e565b60808301525060a0612a9c8482850161279e565b60a08301525060c0612ab0848285016128c3565b60c08301525060e0612ac4848285016128c3565b60e083015250610100612ad9848285016128c3565b6101008301525092915050565b600060208284031215612afc57612afb611e72565b5b600082015167ffffffffffffffff811115612b1a57612b19611e77565b5b612b26848285016129ea565b91505092915050565b600067ffffffffffffffff821115612b4a57612b49611f58565b5b602082029050602081019050919050565b600080fd5b6000612b73612b6e84612b2f565b611fb8565b90508083825260208201905060208402830185811115612b9657612b95612b5b565b5b835b81811015612bdd57805167ffffffffffffffff811115612bbb57612bba611f3d565b5b808601612bc889826129ea565b85526020850194505050602081019050612b98565b5050509392505050565b600082601f830112612bfc57612bfb611f3d565b5b8151612c0c848260208601612b60565b91505092915050565b600060208284031215612c2b57612c2a611e72565b5b600082015167ffffffffffffffff811115612c4957612c48611e77565b5b612c5584828501612be7565b91505092915050565b7f4f6e6c79206f776e696e6720636861726974792063616e20706572666f726d2060008201527f7468697320616374696f6e210000000000000000000000000000000000000000602082015250565b6000612cba602c8361266a565b9150612cc582612c5e565b604082019050919050565b60006020820190508181036000830152612ce981612cad565b9050919050565b7f57616c6c6574206973206c6f636b656420616e6420746f6b656e732063616e6e60008201527f6f742062652077697468647261776e0000000000000000000000000000000000602082015250565b6000612d4c602f8361266a565b9150612d5782612cf0565b604082019050919050565b60006020820190508181036000830152612d7b81612d3f565b9050919050565b7f436f6e74726163742073746f7070656421000000000000000000000000000000600082015250565b6000612db860118361266a565b9150612dc382612d82565b602082019050919050565b60006020820190508181036000830152612de781612dab565b9050919050565b7f596f7520646f6e2774206861766520656e6f75676820746f6b656e7300000000600082015250565b6000612e24601c8361266a565b9150612e2f82612dee565b602082019050919050565b60006020820190508181036000830152612e5381612e17565b9050919050565b7f4e487b7100000000000000000000000000000000000000000000000000000000600052601260045260246000fd5b7f4e487b7100000000000000000000000000000000000000000000000000000000600052601160045260246000fd5b6000612ec382611e7c565b9150612ece83611e7c565b925082612ede57612edd612e5a565b5b828204905092915050565b6000612ef482611e7c565b9150612eff83611e7c565b9250828202612f0d81611e7c565b91508282048414831517612f2457612f23612e89565b5b5092915050565b6000604082019050612f40600083018561242d565b612f4d602083018461242d565b939250505056fea2646970667358221220592512d8cb67c5466126f435a1b2e004828b6c70f5cbb65d26ed1a9b704b96cd64736f6c63430008110033",
  "immutableReferences": {},
  "source": "// SPDX-License-Identifier: MIT\npragma solidity ^0.8.0;\nimport \"./CharityStorage.sol\";\nimport \"./CharityToken.sol\";\n\ncontract Charity {\n    address public owner;\n    bool public contractStopped;\n    CharityStorage charityStorage;\n    CharityToken charityTokenContract;\n\n    event charityVerified(address charity, uint256 charityId);\n    event charitytDeactivated(address charity);\n    event charityActivated(address charity);\n    event withdrawCredits(address charity);\n    event charityWalletLocked(address charity);\n    event charityWalletUnlocked(address charity);\n\n    constructor(\n        CharityStorage charityAddress,\n        CharityToken charityTokenAddress\n    ) {\n        owner = msg.sender;\n        charityStorage = charityAddress;\n        charityTokenContract = charityTokenAddress;\n    }\n\n    modifier ownerOnly() {\n        require(\n            msg.sender == owner || tx.origin == owner,\n            \"Only the owner of this contract is allowed to perform this operation\"\n        );\n        _;\n    }\n\n    modifier isValidCharity(uint256 charityId) {\n        require(\n            charityStorage.getCharityActive(charityId),\n            \"Charity ID given is not valid\"\n        );\n        _;\n    }\n\n    modifier owningCharityOnly(uint256 charityId) {\n        require(\n            isOwnerOfCharity(charityId, msg.sender),\n            \"Only owning charity can perform this action!\"\n        );\n        _;\n    }\n\n    modifier walletNotLocked(uint256 charityId) {\n        require(\n            !charityStorage.getCharityWalletLocked(charityId),\n            \"Wallet is locked and tokens cannot be withdrawn\"\n        );\n        _;\n    }\n\n    modifier haltInEmergency() {\n        require(!contractStopped, \"Contract stopped!\");\n        _;\n    }\n\n    function toggleContractStopped() public ownerOnly {\n        contractStopped = !contractStopped;\n    }\n\n    function verifyCharity(\n        address charityOwner,\n        string memory name,\n        CharityStorage.charityCategory category\n    ) public ownerOnly {\n        uint256 charityId = charityStorage.addCharity(\n            charityOwner,\n            name,\n            category\n        );\n        emit charityVerified(charityOwner, charityId);\n    }\n\n    function deactivateCharity(uint256 charityId) public ownerOnly {\n        charityStorage.setCharityActive(charityId, false);\n        emit charitytDeactivated(charityStorage.getCharityOwner(charityId));\n    }\n\n    function activateCharity(uint256 charityId) public ownerOnly {\n        charityStorage.setCharityActive(charityId, true);\n        emit charityActivated(charityStorage.getCharityOwner(charityId));\n    }\n\n    function checkTokenBalance(\n        uint256 charityId\n    ) public view owningCharityOnly(charityId) returns (uint256) {\n        return charityTokenContract.checkBalance(msg.sender);\n    }\n\n    function withdrawTokens(\n        uint256 charityId,\n        uint256 numTokens\n    )\n        public\n        isValidCharity(charityId)\n        owningCharityOnly(charityId)\n        walletNotLocked(charityId)\n        haltInEmergency\n    {\n        uint256 charityTokensBalance = checkTokenBalance(charityId);\n        require(\n            numTokens <= charityTokensBalance,\n            \"You don't have enough tokens\"\n        );\n\n        uint256 etherAmt = numTokens / 100;\n        uint256 weiAmt = 1000000000000000000 * etherAmt;\n\n        payable(msg.sender).transfer(weiAmt);\n        charityTokenContract.transferTokens(address(this), numTokens); // transfer CT back to this contract address\n        emit withdrawCredits(msg.sender);\n    }\n\n    function lockWallet(\n        uint256 charityId\n    ) public ownerOnly isValidCharity(charityId) {\n        charityStorage.setCharityWalletLocked(charityId, true);\n        emit charityWalletLocked(charityStorage.getCharityOwner(charityId));\n    }\n\n    function unlockWallet(\n        uint256 charityId\n    ) public ownerOnly isValidCharity(charityId) {\n        charityStorage.setCharityWalletLocked(charityId, false);\n        emit charityWalletUnlocked(charityStorage.getCharityOwner(charityId));\n    }\n\n    function getCharityOwner(uint256 charityId) public view returns (address) {\n        return charityStorage.getCharityOwner(charityId);\n    }\n\n    function isOwnerOfCharity(\n        uint256 charityId,\n        address charityOwner\n    ) public view returns (bool) {\n        return charityStorage.getCharityOwner(charityId) == charityOwner;\n    }\n\n    function isCharityActive(uint256 charityId) public view returns (bool) {\n        return charityStorage.getCharityActive(charityId);\n    }\n\n    function getAllCharities()\n        public\n        view\n        returns (CharityStorage.charity[] memory)\n    {\n        return charityStorage.getAllCharities();\n    }\n\n    function getCharityDetails(\n        uint256 charityId\n    ) public view returns (CharityStorage.charity memory) {\n        return charityStorage.getCharityById(charityId);\n    }\n\n    function getCategoryByCharity(\n        uint256 charityId\n    ) public view returns (CharityStorage.charityCategory) {\n        return charityStorage.getCategoryByCharityId(charityId);\n    }\n\n    function setCharityAverageTimeTakenToVerify(\n        uint256 charityId,\n        uint256 timeTakenToVerify\n    ) public {\n        charityStorage.setCharityAverageTimeTakenToVerify(\n            charityId,\n            timeTakenToVerify\n        );\n    }\n\n    function incrementOrDecrementNumVerifiedTransaction(\n        uint256 charityId,\n        bool isIncrement\n    ) public {\n        charityStorage.incrementOrDecrementNumVerifiedTransaction(\n            charityId,\n            isIncrement\n        );\n    }\n\n    function incrementOrDecrementNumUnverifiedTransaction(\n        uint256 charityId,\n        bool isIncrement\n    ) public {\n        charityStorage.incrementOrDecrementNumUnverifiedTransaction(\n            charityId,\n            isIncrement\n        );\n    }\n\n    function getNumVerifiedTransactions(\n        uint256 charityId\n    ) public view returns (uint256) {\n        return charityStorage.getNumVerifiedTransactions(charityId);\n    }\n\n    function getNumUnverifiedTransactions(\n        uint256 charityId\n    ) public view returns (uint256) {\n        return charityStorage.getNumUnverifiedTransactions(charityId);\n    }\n}\n",
  "sourcePath": "/Users/danielonges/Desktop/coding/blockchain-charity/contracts/Charity.sol",
  "compiler": {
    "name": "solc",
    "version": "0.8.17+commit.8df45f5f.Emscripten.clang"
  },
  "schemaVersion": "3.4.11",
  "updatedAt": "2023-04-04T11:26:52.373Z",
  "devdoc": {
    "kind": "dev",
    "methods": {},
    "version": 1
  },
  "userdoc": {
    "kind": "user",
    "methods": {},
    "version": 1
  }
}