{
  "contractName": "CharityStorage",
  "abi": [
    {
      "inputs": [],
      "name": "owner",
      "outputs": [
        {
          "internalType": "address",
          "name": "",
          "type": "address"
        }
      ],
      "stateMutability": "view",
      "type": "function",
      "constant": true
    },
    {
      "inputs": [
        {
          "internalType": "address",
          "name": "charityOwner",
          "type": "address"
        },
        {
          "internalType": "string",
          "name": "name",
          "type": "string"
        },
        {
          "internalType": "enum CharityStorage.charityCategory",
          "name": "category",
          "type": "uint8"
        }
      ],
      "name": "addCharity",
      "outputs": [
        {
          "internalType": "uint256",
          "name": "",
          "type": "uint256"
        }
      ],
      "stateMutability": "nonpayable",
      "type": "function"
    },
    {
      "inputs": [
        {
          "internalType": "uint256",
          "name": "id",
          "type": "uint256"
        }
      ],
      "name": "getCharityActive",
      "outputs": [
        {
          "internalType": "bool",
          "name": "",
          "type": "bool"
        }
      ],
      "stateMutability": "view",
      "type": "function",
      "constant": true
    },
    {
      "inputs": [
        {
          "internalType": "uint256",
          "name": "id",
          "type": "uint256"
        },
        {
          "internalType": "bool",
          "name": "active",
          "type": "bool"
        }
      ],
      "name": "setCharityActive",
      "outputs": [],
      "stateMutability": "nonpayable",
      "type": "function"
    },
    {
      "inputs": [
        {
          "internalType": "uint256",
          "name": "id",
          "type": "uint256"
        }
      ],
      "name": "getCharityOwner",
      "outputs": [
        {
          "internalType": "address",
          "name": "",
          "type": "address"
        }
      ],
      "stateMutability": "view",
      "type": "function",
      "constant": true
    },
    {
      "inputs": [
        {
          "internalType": "uint256",
          "name": "id",
          "type": "uint256"
        }
      ],
      "name": "getCharityName",
      "outputs": [
        {
          "internalType": "string",
          "name": "",
          "type": "string"
        }
      ],
      "stateMutability": "view",
      "type": "function",
      "constant": true
    },
    {
      "inputs": [
        {
          "internalType": "uint256",
          "name": "id",
          "type": "uint256"
        }
      ],
      "name": "getCharityWalletLocked",
      "outputs": [
        {
          "internalType": "bool",
          "name": "",
          "type": "bool"
        }
      ],
      "stateMutability": "view",
      "type": "function",
      "constant": true
    },
    {
      "inputs": [
        {
          "internalType": "uint256",
          "name": "id",
          "type": "uint256"
        },
        {
          "internalType": "bool",
          "name": "locked",
          "type": "bool"
        }
      ],
      "name": "setCharityWalletLocked",
      "outputs": [],
      "stateMutability": "nonpayable",
      "type": "function"
    },
    {
      "inputs": [],
      "name": "getNumCharities",
      "outputs": [
        {
          "internalType": "uint256",
          "name": "",
          "type": "uint256"
        }
      ],
      "stateMutability": "view",
      "type": "function",
      "constant": true
    },
    {
      "inputs": [],
      "name": "getAllCharities",
      "outputs": [
        {
          "components": [
            {
              "internalType": "uint256",
              "name": "id",
              "type": "uint256"
            },
            {
              "internalType": "address",
              "name": "owner",
              "type": "address"
            },
            {
              "internalType": "string",
              "name": "name",
              "type": "string"
            },
            {
              "internalType": "enum CharityStorage.charityCategory",
              "name": "category",
              "type": "uint8"
            },
            {
              "internalType": "bool",
              "name": "isActive",
              "type": "bool"
            },
            {
              "internalType": "bool",
              "name": "isWalletLocked",
              "type": "bool"
            },
            {
              "internalType": "uint256",
              "name": "averageTimeTakenToVerify",
              "type": "uint256"
            },
            {
              "internalType": "uint256",
              "name": "numVerifiedTransactions",
              "type": "uint256"
            },
            {
              "internalType": "uint256",
              "name": "numUnverifiedTransactions",
              "type": "uint256"
            }
          ],
          "internalType": "struct CharityStorage.charity[]",
          "name": "",
          "type": "tuple[]"
        }
      ],
      "stateMutability": "view",
      "type": "function",
      "constant": true
    },
    {
      "inputs": [
        {
          "internalType": "uint256",
          "name": "id",
          "type": "uint256"
        }
      ],
      "name": "getCharityById",
      "outputs": [
        {
          "components": [
            {
              "internalType": "uint256",
              "name": "id",
              "type": "uint256"
            },
            {
              "internalType": "address",
              "name": "owner",
              "type": "address"
            },
            {
              "internalType": "string",
              "name": "name",
              "type": "string"
            },
            {
              "internalType": "enum CharityStorage.charityCategory",
              "name": "category",
              "type": "uint8"
            },
            {
              "internalType": "bool",
              "name": "isActive",
              "type": "bool"
            },
            {
              "internalType": "bool",
              "name": "isWalletLocked",
              "type": "bool"
            },
            {
              "internalType": "uint256",
              "name": "averageTimeTakenToVerify",
              "type": "uint256"
            },
            {
              "internalType": "uint256",
              "name": "numVerifiedTransactions",
              "type": "uint256"
            },
            {
              "internalType": "uint256",
              "name": "numUnverifiedTransactions",
              "type": "uint256"
            }
          ],
          "internalType": "struct CharityStorage.charity",
          "name": "",
          "type": "tuple"
        }
      ],
      "stateMutability": "view",
      "type": "function",
      "constant": true
    },
    {
      "inputs": [
        {
          "internalType": "uint256",
          "name": "charityId",
          "type": "uint256"
        }
      ],
      "name": "getCategoryByCharityId",
      "outputs": [
        {
          "internalType": "enum CharityStorage.charityCategory",
          "name": "",
          "type": "uint8"
        }
      ],
      "stateMutability": "view",
      "type": "function",
      "constant": true
    },
    {
      "inputs": [
        {
          "internalType": "uint256",
          "name": "charityId",
          "type": "uint256"
        },
        {
          "internalType": "uint256",
          "name": "timeTakenToVerify",
          "type": "uint256"
        }
      ],
      "name": "setCharityAverageTimeTakenToVerify",
      "outputs": [],
      "stateMutability": "nonpayable",
      "type": "function"
    },
    {
      "inputs": [
        {
          "internalType": "uint256",
          "name": "charityId",
          "type": "uint256"
        },
        {
          "internalType": "bool",
          "name": "isIncrement",
          "type": "bool"
        }
      ],
      "name": "incrementOrDecrementNumVerifiedTransaction",
      "outputs": [],
      "stateMutability": "nonpayable",
      "type": "function"
    },
    {
      "inputs": [
        {
          "internalType": "uint256",
          "name": "charityId",
          "type": "uint256"
        },
        {
          "internalType": "bool",
          "name": "isIncrement",
          "type": "bool"
        }
      ],
      "name": "incrementOrDecrementNumUnverifiedTransaction",
      "outputs": [],
      "stateMutability": "nonpayable",
      "type": "function"
    },
    {
      "inputs": [
        {
          "internalType": "uint256",
          "name": "charityId",
          "type": "uint256"
        }
      ],
      "name": "getNumVerifiedTransactions",
      "outputs": [
        {
          "internalType": "uint256",
          "name": "",
          "type": "uint256"
        }
      ],
      "stateMutability": "view",
      "type": "function",
      "constant": true
    },
    {
      "inputs": [
        {
          "internalType": "uint256",
          "name": "charityId",
          "type": "uint256"
        }
      ],
      "name": "getNumUnverifiedTransactions",
      "outputs": [
        {
          "internalType": "uint256",
          "name": "",
          "type": "uint256"
        }
      ],
      "stateMutability": "view",
      "type": "function",
      "constant": true
    }
  ],
  "bytecode": "0x60806040526000805533600160006101000a81548173ffffffffffffffffffffffffffffffffffffffff021916908373ffffffffffffffffffffffffffffffffffffffff16021790555034801561005557600080fd5b50611f6f806100656000396000f3fe608060405234801561001057600080fd5b506004361061010b5760003560e01c80638d5235bf116100a2578063c7b031c811610071578063c7b031c8146102de578063ca9099c0146102fa578063cd6f38231461032a578063e317526a1461035a578063e9f490171461038a5761010b565b80638d5235bf146102565780638da5cb5b14610286578063b5bbd279146102a4578063bb895fc1146102c25761010b565b806378a1f8a0116100de57806378a1f8a0146101aa5780637ede52fc146101da5780638293cc181461020a57806384b087f8146102265761010b565b806321b914bc146101105780633c907bea14610140578063658be92f146101705780636801d5291461018e575b600080fd5b61012a600480360381019061012591906112b1565b6103a6565b6040516101379190611515565b60405180910390f35b61015a600480360381019061015591906112b1565b610555565b6040516101679190611546565b60405180910390f35b610178610582565b6040516101859190611570565b60405180910390f35b6101a860048036038101906101a391906115b7565b61058f565b005b6101c460048036038101906101bf91906112b1565b610737565b6040516101d19190611546565b60405180910390f35b6101f460048036038101906101ef91906112b1565b610764565b6040516102019190611641565b60405180910390f35b610224600480360381019061021f91906115b7565b61080c565b005b610240600480360381019061023b91906117e9565b6108ce565b60405161024d9190611570565b60405180910390f35b610270600480360381019061026b91906112b1565b610c29565b60405161027d9190611570565b60405180910390f35b61028e610c49565b60405161029b9190611867565b60405180910390f35b6102ac610c6f565b6040516102b99190611a09565b60405180910390f35b6102dc60048036038101906102d79190611a2b565b610e50565b005b6102f860048036038101906102f391906115b7565b610ef8565b005b610314600480360381019061030f91906112b1565b6110a0565b6040516103219190611a7a565b60405180910390f35b610344600480360381019061033f91906112b1565b6110cd565b6040516103519190611570565b60405180910390f35b610374600480360381019061036f91906112b1565b6110ed565b6040516103819190611867565b60405180910390f35b6103a4600480360381019061039f91906115b7565b61112d565b005b6103ae6111ef565b6002600083815260200190815260200160002060405180610120016040529081600082015481526020016001820160009054906101000a900473ffffffffffffffffffffffffffffffffffffffff1673ffffffffffffffffffffffffffffffffffffffff1673ffffffffffffffffffffffffffffffffffffffff16815260200160028201805461043d90611ac4565b80601f016020809104026020016040519081016040528092919081815260200182805461046990611ac4565b80156104b65780601f1061048b576101008083540402835291602001916104b6565b820191906000526020600020905b81548152906001019060200180831161049957829003601f168201915b505050505081526020016003820160009054906101000a900460ff1660048111156104e4576104e36113be565b5b60048111156104f6576104f56113be565b5b81526020016003820160019054906101000a900460ff161515151581526020016003820160029054906101000a900460ff1615151515815260200160048201548152602001600582015481526020016006820154815250509050919050565b60006002600083815260200190815260200160002060030160029054906101000a900460ff169050919050565b6000600480549050905090565b600061059a836110ed565b9050811561066c5760016002600085815260200190815260200160002060050160008282546105c99190611b24565b925050819055506001600360008373ffffffffffffffffffffffffffffffffffffffff1673ffffffffffffffffffffffffffffffffffffffff16815260200190815260200160002060050160008282546106239190611b24565b925050819055506001600484815481106106405761063f611b58565b5b906000526020600020906007020160050160008282546106609190611b24565b92505081905550610732565b60016002600085815260200190815260200160002060050160008282546106939190611b87565b925050819055506001600360008373ffffffffffffffffffffffffffffffffffffffff1673ffffffffffffffffffffffffffffffffffffffff16815260200190815260200160002060050160008282546106ed9190611b87565b9250508190555060016004848154811061070a57610709611b58565b5b9060005260206000209060070201600501600082825461072a9190611b87565b925050819055505b505050565b60006002600083815260200190815260200160002060030160019054906101000a900460ff169050919050565b606060026000838152602001908152602001600020600201805461078790611ac4565b80601f01602080910402602001604051908101604052809291908181526020018280546107b390611ac4565b80156108005780601f106107d557610100808354040283529160200191610800565b820191906000526020600020905b8154815290600101906020018083116107e357829003601f168201915b50505050509050919050565b600160009054906101000a900473ffffffffffffffffffffffffffffffffffffffff1673ffffffffffffffffffffffffffffffffffffffff163273ffffffffffffffffffffffffffffffffffffffff161461089c576040517f08c379a000000000000000000000000000000000000000000000000000000000815260040161089390611c53565b60405180910390fd5b806002600084815260200190815260200160002060030160016101000a81548160ff0219169083151502179055505050565b6000600160009054906101000a900473ffffffffffffffffffffffffffffffffffffffff1673ffffffffffffffffffffffffffffffffffffffff163273ffffffffffffffffffffffffffffffffffffffff1614610960576040517f08c379a000000000000000000000000000000000000000000000000000000000815260040161095790611c53565b60405180910390fd5b600060405180610120016040528060005481526020018673ffffffffffffffffffffffffffffffffffffffff1681526020018581526020018460048111156109ab576109aa6113be565b5b81526020016001151581526020016000151581526020016000815260200160008152602001600081525090508060026000805481526020019081526020016000206000820151816000015560208201518160010160006101000a81548173ffffffffffffffffffffffffffffffffffffffff021916908373ffffffffffffffffffffffffffffffffffffffff1602179055506040820151816002019081610a529190611e1f565b5060608201518160030160006101000a81548160ff02191690836004811115610a7e57610a7d6113be565b5b021790555060808201518160030160016101000a81548160ff02191690831515021790555060a08201518160030160026101000a81548160ff02191690831515021790555060c0820151816004015560e08201518160050155610100820151816006015590505060048190806001815401808255809150506001900390600052602060002090600702016000909190919091506000820151816000015560208201518160010160006101000a81548173ffffffffffffffffffffffffffffffffffffffff021916908373ffffffffffffffffffffffffffffffffffffffff1602179055506040820151816002019081610b779190611e1f565b5060608201518160030160006101000a81548160ff02191690836004811115610ba357610ba26113be565b5b021790555060808201518160030160016101000a81548160ff02191690831515021790555060a08201518160030160026101000a81548160ff02191690831515021790555060c0820151816004015560e0820151816005015561010082015181600601555050600080815480929190610c1b90611ef1565b919050559150509392505050565b600060026000838152602001908152602001600020600501549050919050565b600160009054906101000a900473ffffffffffffffffffffffffffffffffffffffff1681565b60606004805480602002602001604051908101604052809291908181526020016000905b82821015610e47578382906000526020600020906007020160405180610120016040529081600082015481526020016001820160009054906101000a900473ffffffffffffffffffffffffffffffffffffffff1673ffffffffffffffffffffffffffffffffffffffff1673ffffffffffffffffffffffffffffffffffffffff168152602001600282018054610d2790611ac4565b80601f0160208091040260200160405190810160405280929190818152602001828054610d5390611ac4565b8015610da05780601f10610d7557610100808354040283529160200191610da0565b820191906000526020600020905b815481529060010190602001808311610d8357829003601f168201915b505050505081526020016003820160009054906101000a900460ff166004811115610dce57610dcd6113be565b5b6004811115610de057610ddf6113be565b5b81526020016003820160019054906101000a900460ff161515151581526020016003820160029054906101000a900460ff16151515158152602001600482015481526020016005820154815260200160068201548152505081526020019060010190610c93565b50505050905090565b6000610e5b836110ed565b90506000821115610ef35781600260008581526020019081526020016000206004018190555081600360008373ffffffffffffffffffffffffffffffffffffffff1673ffffffffffffffffffffffffffffffffffffffff168152602001908152602001600020600401819055508160048481548110610edd57610edc611b58565b5b9060005260206000209060070201600401819055505b505050565b6000610f03836110ed565b90508115610fd5576001600260008581526020019081526020016000206006016000828254610f329190611b24565b925050819055506001600360008373ffffffffffffffffffffffffffffffffffffffff1673ffffffffffffffffffffffffffffffffffffffff1681526020019081526020016000206006016000828254610f8c9190611b24565b92505081905550600160048481548110610fa957610fa8611b58565b5b90600052602060002090600702016006016000828254610fc99190611b24565b9250508190555061109b565b6001600260008581526020019081526020016000206006016000828254610ffc9190611b87565b925050819055506001600360008373ffffffffffffffffffffffffffffffffffffffff1673ffffffffffffffffffffffffffffffffffffffff16815260200190815260200160002060060160008282546110569190611b87565b9250508190555060016004848154811061107357611072611b58565b5b906000526020600020906007020160060160008282546110939190611b87565b925050819055505b505050565b60006002600083815260200190815260200160002060030160009054906101000a900460ff169050919050565b600060026000838152602001908152602001600020600601549050919050565b60006002600083815260200190815260200160002060010160009054906101000a900473ffffffffffffffffffffffffffffffffffffffff169050919050565b600160009054906101000a900473ffffffffffffffffffffffffffffffffffffffff1673ffffffffffffffffffffffffffffffffffffffff163273ffffffffffffffffffffffffffffffffffffffff16146111bd576040517f08c379a00000000000000000000000000000000000000000000000000000000081526004016111b490611c53565b60405180910390fd5b806002600084815260200190815260200160002060030160026101000a81548160ff0219169083151502179055505050565b60405180610120016040528060008152602001600073ffffffffffffffffffffffffffffffffffffffff168152602001606081526020016000600481111561123a576112396113be565b5b81526020016000151581526020016000151581526020016000815260200160008152602001600081525090565b6000604051905090565b600080fd5b600080fd5b6000819050919050565b61128e8161127b565b811461129957600080fd5b50565b6000813590506112ab81611285565b92915050565b6000602082840312156112c7576112c6611271565b5b60006112d58482850161129c565b91505092915050565b6112e78161127b565b82525050565b600073ffffffffffffffffffffffffffffffffffffffff82169050919050565b6000611318826112ed565b9050919050565b6113288161130d565b82525050565b600081519050919050565b600082825260208201905092915050565b60005b8381101561136857808201518184015260208101905061134d565b60008484015250505050565b6000601f19601f8301169050919050565b60006113908261132e565b61139a8185611339565b93506113aa81856020860161134a565b6113b381611374565b840191505092915050565b7f4e487b7100000000000000000000000000000000000000000000000000000000600052602160045260246000fd5b600581106113fe576113fd6113be565b5b50565b600081905061140f826113ed565b919050565b600061141f82611401565b9050919050565b61142f81611414565b82525050565b60008115159050919050565b61144a81611435565b82525050565b60006101208301600083015161146960008601826112de565b50602083015161147c602086018261131f565b50604083015184820360408601526114948282611385565b91505060608301516114a96060860182611426565b5060808301516114bc6080860182611441565b5060a08301516114cf60a0860182611441565b5060c08301516114e260c08601826112de565b5060e08301516114f560e08601826112de565b5061010083015161150a6101008601826112de565b508091505092915050565b6000602082019050818103600083015261152f8184611450565b905092915050565b61154081611435565b82525050565b600060208201905061155b6000830184611537565b92915050565b61156a8161127b565b82525050565b60006020820190506115856000830184611561565b92915050565b61159481611435565b811461159f57600080fd5b50565b6000813590506115b18161158b565b92915050565b600080604083850312156115ce576115cd611271565b5b60006115dc8582860161129c565b92505060206115ed858286016115a2565b9150509250929050565b600082825260208201905092915050565b60006116138261132e565b61161d81856115f7565b935061162d81856020860161134a565b61163681611374565b840191505092915050565b6000602082019050818103600083015261165b8184611608565b905092915050565b61166c8161130d565b811461167757600080fd5b50565b60008135905061168981611663565b92915050565b600080fd5b600080fd5b7f4e487b7100000000000000000000000000000000000000000000000000000000600052604160045260246000fd5b6116d182611374565b810181811067ffffffffffffffff821117156116f0576116ef611699565b5b80604052505050565b6000611703611267565b905061170f82826116c8565b919050565b600067ffffffffffffffff82111561172f5761172e611699565b5b61173882611374565b9050602081019050919050565b82818337600083830152505050565b600061176761176284611714565b6116f9565b90508281526020810184848401111561178357611782611694565b5b61178e848285611745565b509392505050565b600082601f8301126117ab576117aa61168f565b5b81356117bb848260208601611754565b91505092915050565b600581106117d157600080fd5b50565b6000813590506117e3816117c4565b92915050565b60008060006060848603121561180257611801611271565b5b60006118108682870161167a565b935050602084013567ffffffffffffffff81111561183157611830611276565b5b61183d86828701611796565b925050604061184e868287016117d4565b9150509250925092565b6118618161130d565b82525050565b600060208201905061187c6000830184611858565b92915050565b600081519050919050565b600082825260208201905092915050565b6000819050602082019050919050565b6000610120830160008301516118c760008601826112de565b5060208301516118da602086018261131f565b50604083015184820360408601526118f28282611385565b91505060608301516119076060860182611426565b50608083015161191a6080860182611441565b5060a083015161192d60a0860182611441565b5060c083015161194060c08601826112de565b5060e083015161195360e08601826112de565b506101008301516119686101008601826112de565b508091505092915050565b600061197f83836118ae565b905092915050565b6000602082019050919050565b600061199f82611882565b6119a9818561188d565b9350836020820285016119bb8561189e565b8060005b858110156119f757848403895281516119d88582611973565b94506119e383611987565b925060208a019950506001810190506119bf565b50829750879550505050505092915050565b60006020820190508181036000830152611a238184611994565b905092915050565b60008060408385031215611a4257611a41611271565b5b6000611a508582860161129c565b9250506020611a618582860161129c565b9150509250929050565b611a7481611414565b82525050565b6000602082019050611a8f6000830184611a6b565b92915050565b7f4e487b7100000000000000000000000000000000000000000000000000000000600052602260045260246000fd5b60006002820490506001821680611adc57607f821691505b602082108103611aef57611aee611a95565b5b50919050565b7f4e487b7100000000000000000000000000000000000000000000000000000000600052601160045260246000fd5b6000611b2f8261127b565b9150611b3a8361127b565b9250828201905080821115611b5257611b51611af5565b5b92915050565b7f4e487b7100000000000000000000000000000000000000000000000000000000600052603260045260246000fd5b6000611b928261127b565b9150611b9d8361127b565b9250828203905081811115611bb557611bb4611af5565b5b92915050565b7f4f6e6c7920746865206f776e6572206f66207468697320636f6e74726163742060008201527f697320616c6c6f77656420746f20706572666f726d2074686973206f7065726160208201527f74696f6e00000000000000000000000000000000000000000000000000000000604082015250565b6000611c3d6044836115f7565b9150611c4882611bbb565b606082019050919050565b60006020820190508181036000830152611c6c81611c30565b9050919050565b60008190508160005260206000209050919050565b60006020601f8301049050919050565b600082821b905092915050565b600060088302611cd57fffffffffffffffffffffffffffffffffffffffffffffffffffffffffffffffff82611c98565b611cdf8683611c98565b95508019841693508086168417925050509392505050565b6000819050919050565b6000611d1c611d17611d128461127b565b611cf7565b61127b565b9050919050565b6000819050919050565b611d3683611d01565b611d4a611d4282611d23565b848454611ca5565b825550505050565b600090565b611d5f611d52565b611d6a818484611d2d565b505050565b5b81811015611d8e57611d83600082611d57565b600181019050611d70565b5050565b601f821115611dd357611da481611c73565b611dad84611c88565b81016020851015611dbc578190505b611dd0611dc885611c88565b830182611d6f565b50505b505050565b600082821c905092915050565b6000611df660001984600802611dd8565b1980831691505092915050565b6000611e0f8383611de5565b9150826002028217905092915050565b611e288261132e565b67ffffffffffffffff811115611e4157611e40611699565b5b611e4b8254611ac4565b611e56828285611d92565b600060209050601f831160018114611e895760008415611e77578287015190505b611e818582611e03565b865550611ee9565b601f198416611e9786611c73565b60005b82811015611ebf57848901518255600182019150602085019450602081019050611e9a565b86831015611edc5784890151611ed8601f891682611de5565b8355505b6001600288020188555050505b505050505050565b6000611efc8261127b565b91507fffffffffffffffffffffffffffffffffffffffffffffffffffffffffffffffff8203611f2e57611f2d611af5565b5b60018201905091905056fea2646970667358221220166e356d39ac5bddb6ab9d09d5a0dac75c2075bbaa888fb2301f14c62c477cf764736f6c63430008110033",
  "immutableReferences": {},
  "source": "// SPDX-License-Identifier: MIT\npragma solidity ^0.8.0;\n\ncontract CharityStorage {\n    enum charityCategory {\n        CHILDREN,\n        HUMAN_RIGHTS,\n        DISASTER_RELIEF,\n        RELIGIOUS,\n        CULTURAL\n    }\n\n    struct charity {\n        uint256 id;\n        address owner;\n        string name;\n        charityCategory category;\n        bool isActive;\n        bool isWalletLocked;\n        uint256 averageTimeTakenToVerify;\n        uint256 numVerifiedTransactions;\n        uint256 numUnverifiedTransactions;\n    }\n\n    uint256 charityIdCtr = 0;\n\n    address public owner = msg.sender; // set deployer as owner of the storage contract\n    mapping(uint256 => charity) charitiesById;\n    mapping(address => charity) charitiesByAddr;\n    // uint256 numCharities = 0; // total number of charities\n    charity[] allCharities;\n\n    modifier ownerOnly() {\n        require(\n            tx.origin == owner,\n            \"Only the owner of this contract is allowed to perform this operation\"\n        );\n        _;\n    }\n\n    // modifier activeCharityId(uint256 id) {\n    //     require(\n    //         charitiesById[id].isActive || charitiesByAddr[msg.sender].isActive,\n    //         \"Charity ID given is not valid or active\"\n    //     );\n    //     _;\n    // }\n\n    function addCharity(\n        address charityOwner,\n        string memory name,\n        charityCategory category\n    ) public ownerOnly returns (uint256) {\n        charity memory newCharity = charity(\n            charityIdCtr,\n            charityOwner,\n            name,\n            category,\n            true,\n            false,\n            0,\n            0,\n            0\n        );\n        charitiesById[charityIdCtr] = newCharity;\n        allCharities.push(newCharity);\n\n        return charityIdCtr++;\n    }\n\n    function getCharityActive(uint256 id) public view returns (bool) {\n        return charitiesById[id].isActive;\n    }\n\n    function setCharityActive(uint256 id, bool active) public ownerOnly {\n        charitiesById[id].isActive = active;\n    }\n\n    function getCharityOwner(uint256 id) public view returns (address) {\n        return charitiesById[id].owner;\n    }\n\n    function getCharityName(uint256 id) public view returns (string memory) {\n        return charitiesById[id].name;\n    }\n\n    function getCharityWalletLocked(uint256 id) public view returns (bool) {\n        return charitiesById[id].isWalletLocked;\n    }\n\n    function setCharityWalletLocked(uint256 id, bool locked) public ownerOnly {\n        charitiesById[id].isWalletLocked = locked;\n    }\n\n    function getNumCharities() public view returns (uint256) {\n        return allCharities.length;\n    }\n\n    function getAllCharities() public view returns (charity[] memory) {\n        return allCharities;\n    }\n\n    function getCharityById(uint256 id) public view returns (charity memory) {\n        return charitiesById[id];\n    }\n\n    function getCategoryByCharityId(uint256 charityId) public view returns (charityCategory) {\n        return charityCategory(charitiesById[charityId].category);\n    }\n\n    function setCharityAverageTimeTakenToVerify(uint256 charityId, uint256 timeTakenToVerify) public {\n        address charityAddr = getCharityOwner(charityId);\n        if (timeTakenToVerify > 0) {\n            charitiesById[charityId].averageTimeTakenToVerify = timeTakenToVerify;\n            charitiesByAddr[charityAddr].averageTimeTakenToVerify = timeTakenToVerify;\n            allCharities[charityId].averageTimeTakenToVerify = timeTakenToVerify;\n        }\n    }\n\n    function incrementOrDecrementNumVerifiedTransaction(uint256 charityId, bool isIncrement) public {\n        address charityAddr = getCharityOwner(charityId);\n        if (isIncrement) {\n            charitiesById[charityId].numVerifiedTransactions += 1;\n            charitiesByAddr[charityAddr].numVerifiedTransactions += 1;\n            allCharities[charityId].numVerifiedTransactions += 1;\n\n        } else {\n            charitiesById[charityId].numVerifiedTransactions -= 1;\n            charitiesByAddr[charityAddr].numVerifiedTransactions -= 1;\n            allCharities[charityId].numVerifiedTransactions -= 1;\n        }\n    }\n\n    function incrementOrDecrementNumUnverifiedTransaction(uint256 charityId, bool isIncrement) public {\n        address charityAddr = getCharityOwner(charityId);\n        if (isIncrement) {\n            charitiesById[charityId].numUnverifiedTransactions += 1;\n            charitiesByAddr[charityAddr].numUnverifiedTransactions += 1;\n            allCharities[charityId].numUnverifiedTransactions += 1;\n        } else {\n            charitiesById[charityId].numUnverifiedTransactions -= 1;\n            charitiesByAddr[charityAddr].numUnverifiedTransactions -= 1;\n            allCharities[charityId].numUnverifiedTransactions -= 1;\n        }\n    }\n\n    function getNumVerifiedTransactions(uint256 charityId) public view returns (uint256) {\n        return charitiesById[charityId].numVerifiedTransactions;\n    }\n\n     function getNumUnverifiedTransactions(uint256 charityId) public view returns (uint256) {\n        return charitiesById[charityId].numUnverifiedTransactions;\n    }\n}\n",
  "sourcePath": "/Users/danielonges/Desktop/coding/blockchain-charity/contracts/CharityStorage.sol",
  "compiler": {
    "name": "solc",
    "version": "0.8.17+commit.8df45f5f.Emscripten.clang"
  },
  "schemaVersion": "3.4.11",
  "updatedAt": "2023-04-07T10:35:22.034Z",
  "networkType": "ethereum",
  "devdoc": {
    "kind": "dev",
    "methods": {},
    "version": 1
  },
  "userdoc": {
    "kind": "user",
    "methods": {},
    "version": 1
  }
}