{
  "contractName": "Charity",
  "abi": [
    {
      "inputs": [
        {
          "internalType": "contract CharityStorage",
          "name": "charityAddress",
          "type": "address"
        },
        {
          "internalType": "contract CharityToken",
          "name": "charityTokenAddress",
          "type": "address"
        }
      ],
      "stateMutability": "nonpayable",
      "type": "constructor"
    },
    {
      "anonymous": false,
      "inputs": [
        {
          "indexed": false,
          "internalType": "address",
          "name": "charity",
          "type": "address"
        }
      ],
      "name": "charityActivated",
      "type": "event"
    },
    {
      "anonymous": false,
      "inputs": [
        {
          "indexed": false,
          "internalType": "address",
          "name": "charity",
          "type": "address"
        }
      ],
      "name": "charityVerified",
      "type": "event"
    },
    {
      "anonymous": false,
      "inputs": [
        {
          "indexed": false,
          "internalType": "address",
          "name": "charity",
          "type": "address"
        }
      ],
      "name": "charitytDeactivated",
      "type": "event"
    },
    {
      "anonymous": false,
      "inputs": [
        {
          "indexed": false,
          "internalType": "address",
          "name": "charity",
          "type": "address"
        }
      ],
      "name": "withdrawCredits",
      "type": "event"
    },
    {
      "inputs": [],
      "name": "owner",
      "outputs": [
        {
          "internalType": "address",
          "name": "",
          "type": "address"
        }
      ],
      "stateMutability": "view",
      "type": "function"
    },
    {
      "inputs": [
        {
          "internalType": "address",
          "name": "charityOwner",
          "type": "address"
        },
        {
          "internalType": "string",
          "name": "name",
          "type": "string"
        },
        {
          "internalType": "enum CharityStorage.charityCategory",
          "name": "category",
          "type": "uint8"
        }
      ],
      "name": "verifyCharity",
      "outputs": [
        {
          "internalType": "uint256",
          "name": "",
          "type": "uint256"
        }
      ],
      "stateMutability": "nonpayable",
      "type": "function"
    },
    {
      "inputs": [
        {
          "internalType": "uint256",
          "name": "charityId",
          "type": "uint256"
        }
      ],
      "name": "deactivateCharity",
      "outputs": [],
      "stateMutability": "nonpayable",
      "type": "function"
    },
    {
      "inputs": [
        {
          "internalType": "uint256",
          "name": "charityId",
          "type": "uint256"
        }
      ],
      "name": "activateCharity",
      "outputs": [],
      "stateMutability": "nonpayable",
      "type": "function"
    },
    {
      "inputs": [
        {
          "internalType": "uint256",
          "name": "charityId",
          "type": "uint256"
        }
      ],
      "name": "checkTokenBalance",
      "outputs": [
        {
          "internalType": "uint256",
          "name": "",
          "type": "uint256"
        }
      ],
      "stateMutability": "view",
      "type": "function"
    },
    {
      "inputs": [
        {
          "internalType": "uint256",
          "name": "charityId",
          "type": "uint256"
        },
        {
          "internalType": "uint256",
          "name": "numTokens",
          "type": "uint256"
        }
      ],
      "name": "withdrawTokens",
      "outputs": [],
      "stateMutability": "nonpayable",
      "type": "function"
    },
    {
      "inputs": [
        {
          "internalType": "uint256",
          "name": "charityId",
          "type": "uint256"
        }
      ],
      "name": "lockWallet",
      "outputs": [],
      "stateMutability": "nonpayable",
      "type": "function"
    },
    {
      "inputs": [
        {
          "internalType": "uint256",
          "name": "charityId",
          "type": "uint256"
        }
      ],
      "name": "unlockWallet",
      "outputs": [],
      "stateMutability": "nonpayable",
      "type": "function"
    },
    {
      "inputs": [
        {
          "internalType": "uint256",
          "name": "charityId",
          "type": "uint256"
        }
      ],
      "name": "getCharityOwner",
      "outputs": [
        {
          "internalType": "address",
          "name": "",
          "type": "address"
        }
      ],
      "stateMutability": "view",
      "type": "function"
    },
    {
      "inputs": [
        {
          "internalType": "uint256",
          "name": "charityId",
          "type": "uint256"
        },
        {
          "internalType": "address",
          "name": "charityOwner",
          "type": "address"
        }
      ],
      "name": "isOwnerOfCharity",
      "outputs": [
        {
          "internalType": "bool",
          "name": "",
          "type": "bool"
        }
      ],
      "stateMutability": "view",
      "type": "function"
    },
    {
      "inputs": [
        {
          "internalType": "uint256",
          "name": "charityId",
          "type": "uint256"
        }
      ],
      "name": "isCharityActive",
      "outputs": [
        {
          "internalType": "bool",
          "name": "",
          "type": "bool"
        }
      ],
      "stateMutability": "view",
      "type": "function"
    },
    {
      "inputs": [],
      "name": "getOwner",
      "outputs": [
        {
          "internalType": "address",
          "name": "",
          "type": "address"
        }
      ],
      "stateMutability": "view",
      "type": "function"
    }
  ],
  "bytecode": "0x60806040523480156200001157600080fd5b5060405162001eac38038062001eac8339818101604052810190620000379190620001c4565b336000806101000a81548173ffffffffffffffffffffffffffffffffffffffff021916908373ffffffffffffffffffffffffffffffffffffffff16021790555081600160006101000a81548173ffffffffffffffffffffffffffffffffffffffff021916908373ffffffffffffffffffffffffffffffffffffffff16021790555080600260006101000a81548173ffffffffffffffffffffffffffffffffffffffff021916908373ffffffffffffffffffffffffffffffffffffffff16021790555050506200020b565b600080fd5b600073ffffffffffffffffffffffffffffffffffffffff82169050919050565b6000620001338262000106565b9050919050565b6000620001478262000126565b9050919050565b62000159816200013a565b81146200016557600080fd5b50565b60008151905062000179816200014e565b92915050565b60006200018c8262000126565b9050919050565b6200019e816200017f565b8114620001aa57600080fd5b50565b600081519050620001be8162000193565b92915050565b60008060408385031215620001de57620001dd62000101565b5b6000620001ee8582860162000168565b92505060206200020185828601620001ad565b9150509250929050565b611c91806200021b6000396000f3fe608060405234801561001057600080fd5b50600436106100b45760003560e01c8063893d20e811610071578063893d20e8146101895780638da5cb5b146101a7578063ba7bd2aa146101c5578063c9ae116c146101e1578063e317526a14610211578063f6c997b814610241576100b4565b8063213ef5e7146100b95780632da8d725146100d557806335ca1c79146100f15780634f1f42111461010d5780636ab9a0251461013d5780636afc13341461016d575b600080fd5b6100d360048036038101906100ce9190611304565b610271565b005b6100ef60048036038101906100ea9190611304565b610464565b005b61010b60048036038101906101069190611304565b610657565b005b610127600480360381019061012291906114fa565b610855565b6040516101349190611578565b60405180910390f35b61015760048036038101906101529190611593565b6109ce565b60405161016491906115ee565b60405180910390f35b61018760048036038101906101829190611304565b610aa2565b005b610191610ca0565b60405161019e9190611618565b60405180910390f35b6101af610cc9565b6040516101bc9190611618565b60405180910390f35b6101df60048036038101906101da9190611633565b610ced565b005b6101fb60048036038101906101f69190611304565b611080565b6040516102089190611578565b60405180910390f35b61022b60048036038101906102269190611304565b611170565b6040516102389190611618565b60405180910390f35b61025b60048036038101906102569190611304565b611215565b60405161026891906115ee565b60405180910390f35b60008054906101000a900473ffffffffffffffffffffffffffffffffffffffff1673ffffffffffffffffffffffffffffffffffffffff163373ffffffffffffffffffffffffffffffffffffffff16146102ff576040517f08c379a00000000000000000000000000000000000000000000000000000000081526004016102f69061171c565b60405180910390fd5b600160009054906101000a900473ffffffffffffffffffffffffffffffffffffffff1673ffffffffffffffffffffffffffffffffffffffff16638293cc188260016040518363ffffffff1660e01b815260040161035d92919061173c565b600060405180830381600087803b15801561037757600080fd5b505af115801561038b573d6000803e3d6000fd5b505050507fa436eebdff427b7b534ef84d66927979b99f72abbfe7f3cc8e4619eb3aa2e68b600160009054906101000a900473ffffffffffffffffffffffffffffffffffffffff1673ffffffffffffffffffffffffffffffffffffffff1663e317526a836040518263ffffffff1660e01b815260040161040b9190611578565b602060405180830381865afa158015610428573d6000803e3d6000fd5b505050506040513d601f19601f8201168201806040525081019061044c919061177a565b6040516104599190611618565b60405180910390a150565b60008054906101000a900473ffffffffffffffffffffffffffffffffffffffff1673ffffffffffffffffffffffffffffffffffffffff163373ffffffffffffffffffffffffffffffffffffffff16146104f2576040517f08c379a00000000000000000000000000000000000000000000000000000000081526004016104e99061171c565b60405180910390fd5b600160009054906101000a900473ffffffffffffffffffffffffffffffffffffffff1673ffffffffffffffffffffffffffffffffffffffff16638293cc188260006040518363ffffffff1660e01b815260040161055092919061173c565b600060405180830381600087803b15801561056a57600080fd5b505af115801561057e573d6000803e3d6000fd5b505050507fa5b6f160624521b2b07a6e2e0e6465209f1937bb1e800b1a9746577b9ba89f5c600160009054906101000a900473ffffffffffffffffffffffffffffffffffffffff1673ffffffffffffffffffffffffffffffffffffffff1663e317526a836040518263ffffffff1660e01b81526004016105fe9190611578565b602060405180830381865afa15801561061b573d6000803e3d6000fd5b505050506040513d601f19601f8201168201806040525081019061063f919061177a565b60405161064c9190611618565b60405180910390a150565b60008054906101000a900473ffffffffffffffffffffffffffffffffffffffff1673ffffffffffffffffffffffffffffffffffffffff163373ffffffffffffffffffffffffffffffffffffffff16146106e5576040517f08c379a00000000000000000000000000000000000000000000000000000000081526004016106dc9061171c565b60405180910390fd5b80600160009054906101000a900473ffffffffffffffffffffffffffffffffffffffff1673ffffffffffffffffffffffffffffffffffffffff166378a1f8a0826040518263ffffffff1660e01b81526004016107419190611578565b602060405180830381865afa15801561075e573d6000803e3d6000fd5b505050506040513d601f19601f8201168201806040525081019061078291906117d3565b6107c1576040517f08c379a00000000000000000000000000000000000000000000000000000000081526004016107b89061184c565b60405180910390fd5b600160009054906101000a900473ffffffffffffffffffffffffffffffffffffffff1673ffffffffffffffffffffffffffffffffffffffff1663e9f490178360006040518363ffffffff1660e01b815260040161081f92919061173c565b600060405180830381600087803b15801561083957600080fd5b505af115801561084d573d6000803e3d6000fd5b505050505050565b60008060009054906101000a900473ffffffffffffffffffffffffffffffffffffffff1673ffffffffffffffffffffffffffffffffffffffff163373ffffffffffffffffffffffffffffffffffffffff16146108e6576040517f08c379a00000000000000000000000000000000000000000000000000000000081526004016108dd9061171c565b60405180910390fd5b6000600160009054906101000a900473ffffffffffffffffffffffffffffffffffffffff1673ffffffffffffffffffffffffffffffffffffffff166384b087f88686866040518463ffffffff1660e01b815260040161094793929190611951565b6020604051808303816000875af1158015610966573d6000803e3d6000fd5b505050506040513d601f19601f8201168201806040525081019061098a91906119a4565b90507f73a00ca3471780fdad82da2ff806041a27f7ec6ab4ee13a7f57fe11f068dfa46856040516109bb9190611618565b60405180910390a1809150509392505050565b60008173ffffffffffffffffffffffffffffffffffffffff16600160009054906101000a900473ffffffffffffffffffffffffffffffffffffffff1673ffffffffffffffffffffffffffffffffffffffff1663e317526a856040518263ffffffff1660e01b8152600401610a429190611578565b602060405180830381865afa158015610a5f573d6000803e3d6000fd5b505050506040513d601f19601f82011682018060405250810190610a83919061177a565b73ffffffffffffffffffffffffffffffffffffffff1614905092915050565b60008054906101000a900473ffffffffffffffffffffffffffffffffffffffff1673ffffffffffffffffffffffffffffffffffffffff163373ffffffffffffffffffffffffffffffffffffffff1614610b30576040517f08c379a0000000000000000000000000000000000000000000000000000000008152600401610b279061171c565b60405180910390fd5b80600160009054906101000a900473ffffffffffffffffffffffffffffffffffffffff1673ffffffffffffffffffffffffffffffffffffffff166378a1f8a0826040518263ffffffff1660e01b8152600401610b8c9190611578565b602060405180830381865afa158015610ba9573d6000803e3d6000fd5b505050506040513d601f19601f82011682018060405250810190610bcd91906117d3565b610c0c576040517f08c379a0000000000000000000000000000000000000000000000000000000008152600401610c039061184c565b60405180910390fd5b600160009054906101000a900473ffffffffffffffffffffffffffffffffffffffff1673ffffffffffffffffffffffffffffffffffffffff1663e9f490178360016040518363ffffffff1660e01b8152600401610c6a92919061173c565b600060405180830381600087803b158015610c8457600080fd5b505af1158015610c98573d6000803e3d6000fd5b505050505050565b60008060009054906101000a900473ffffffffffffffffffffffffffffffffffffffff16905090565b60008054906101000a900473ffffffffffffffffffffffffffffffffffffffff1681565b81600160009054906101000a900473ffffffffffffffffffffffffffffffffffffffff1673ffffffffffffffffffffffffffffffffffffffff166378a1f8a0826040518263ffffffff1660e01b8152600401610d499190611578565b602060405180830381865afa158015610d66573d6000803e3d6000fd5b505050506040513d601f19601f82011682018060405250810190610d8a91906117d3565b610dc9576040517f08c379a0000000000000000000000000000000000000000000000000000000008152600401610dc09061184c565b60405180910390fd5b82610dd481336109ce565b610e13576040517f08c379a0000000000000000000000000000000000000000000000000000000008152600401610e0a90611a43565b60405180910390fd5b83600160009054906101000a900473ffffffffffffffffffffffffffffffffffffffff1673ffffffffffffffffffffffffffffffffffffffff16633c907bea826040518263ffffffff1660e01b8152600401610e6f9190611578565b602060405180830381865afa158015610e8c573d6000803e3d6000fd5b505050506040513d601f19601f82011682018060405250810190610eb091906117d3565b15610ef0576040517f08c379a0000000000000000000000000000000000000000000000000000000008152600401610ee790611ad5565b60405180910390fd5b6000610efb86611080565b905080851115610f40576040517f08c379a0000000000000000000000000000000000000000000000000000000008152600401610f3790611b41565b60405180910390fd5b6000606486610f4f9190611bbf565b9050600081670de0b6b3a7640000610f679190611bf0565b90503373ffffffffffffffffffffffffffffffffffffffff166108fc829081150290604051600060405180830381858888f19350505050158015610faf573d6000803e3d6000fd5b50600260009054906101000a900473ffffffffffffffffffffffffffffffffffffffff1673ffffffffffffffffffffffffffffffffffffffff1663bec3fa1730896040518363ffffffff1660e01b815260040161100d929190611c32565b600060405180830381600087803b15801561102757600080fd5b505af115801561103b573d6000803e3d6000fd5b505050507f87a78f7df6302725b7b44f64ed140f2b072832394391bf2b94c9bb5563e5bf083360405161106e9190611618565b60405180910390a15050505050505050565b60008161108d81336109ce565b6110cc576040517f08c379a00000000000000000000000000000000000000000000000000000000081526004016110c390611a43565b60405180910390fd5b600260009054906101000a900473ffffffffffffffffffffffffffffffffffffffff1673ffffffffffffffffffffffffffffffffffffffff16635f515226336040518263ffffffff1660e01b81526004016111279190611618565b602060405180830381865afa158015611144573d6000803e3d6000fd5b505050506040513d601f19601f8201168201806040525081019061116891906119a4565b915050919050565b6000600160009054906101000a900473ffffffffffffffffffffffffffffffffffffffff1673ffffffffffffffffffffffffffffffffffffffff1663e317526a836040518263ffffffff1660e01b81526004016111cd9190611578565b602060405180830381865afa1580156111ea573d6000803e3d6000fd5b505050506040513d601f19601f8201168201806040525081019061120e919061177a565b9050919050565b6000600160009054906101000a900473ffffffffffffffffffffffffffffffffffffffff1673ffffffffffffffffffffffffffffffffffffffff166378a1f8a0836040518263ffffffff1660e01b81526004016112729190611578565b602060405180830381865afa15801561128f573d6000803e3d6000fd5b505050506040513d601f19601f820116820180604052508101906112b391906117d3565b9050919050565b6000604051905090565b600080fd5b600080fd5b6000819050919050565b6112e1816112ce565b81146112ec57600080fd5b50565b6000813590506112fe816112d8565b92915050565b60006020828403121561131a576113196112c4565b5b6000611328848285016112ef565b91505092915050565b600073ffffffffffffffffffffffffffffffffffffffff82169050919050565b600061135c82611331565b9050919050565b61136c81611351565b811461137757600080fd5b50565b60008135905061138981611363565b92915050565b600080fd5b600080fd5b6000601f19601f8301169050919050565b7f4e487b7100000000000000000000000000000000000000000000000000000000600052604160045260246000fd5b6113e282611399565b810181811067ffffffffffffffff82111715611401576114006113aa565b5b80604052505050565b60006114146112ba565b905061142082826113d9565b919050565b600067ffffffffffffffff8211156114405761143f6113aa565b5b61144982611399565b9050602081019050919050565b82818337600083830152505050565b600061147861147384611425565b61140a565b90508281526020810184848401111561149457611493611394565b5b61149f848285611456565b509392505050565b600082601f8301126114bc576114bb61138f565b5b81356114cc848260208601611465565b91505092915050565b600581106114e257600080fd5b50565b6000813590506114f4816114d5565b92915050565b600080600060608486031215611513576115126112c4565b5b60006115218682870161137a565b935050602084013567ffffffffffffffff811115611542576115416112c9565b5b61154e868287016114a7565b925050604061155f868287016114e5565b9150509250925092565b611572816112ce565b82525050565b600060208201905061158d6000830184611569565b92915050565b600080604083850312156115aa576115a96112c4565b5b60006115b8858286016112ef565b92505060206115c98582860161137a565b9150509250929050565b60008115159050919050565b6115e8816115d3565b82525050565b600060208201905061160360008301846115df565b92915050565b61161281611351565b82525050565b600060208201905061162d6000830184611609565b92915050565b6000806040838503121561164a576116496112c4565b5b6000611658858286016112ef565b9250506020611669858286016112ef565b9150509250929050565b600082825260208201905092915050565b7f4f6e6c7920746865206f776e6572206f66207468697320636f6e74726163742060008201527f697320616c6c6f77656420746f20706572666f726d2074686973206f7065726160208201527f74696f6e00000000000000000000000000000000000000000000000000000000604082015250565b6000611706604483611673565b915061171182611684565b606082019050919050565b60006020820190508181036000830152611735816116f9565b9050919050565b60006040820190506117516000830185611569565b61175e60208301846115df565b9392505050565b60008151905061177481611363565b92915050565b6000602082840312156117905761178f6112c4565b5b600061179e84828501611765565b91505092915050565b6117b0816115d3565b81146117bb57600080fd5b50565b6000815190506117cd816117a7565b92915050565b6000602082840312156117e9576117e86112c4565b5b60006117f7848285016117be565b91505092915050565b7f4368617269747920494420676976656e206973206e6f742076616c6964000000600082015250565b6000611836601d83611673565b915061184182611800565b602082019050919050565b6000602082019050818103600083015261186581611829565b9050919050565b600081519050919050565b60005b8381101561189557808201518184015260208101905061187a565b60008484015250505050565b60006118ac8261186c565b6118b68185611673565b93506118c6818560208601611877565b6118cf81611399565b840191505092915050565b7f4e487b7100000000000000000000000000000000000000000000000000000000600052602160045260246000fd5b6005811061191a576119196118da565b5b50565b600081905061192b82611909565b919050565b600061193b8261191d565b9050919050565b61194b81611930565b82525050565b60006060820190506119666000830186611609565b818103602083015261197881856118a1565b90506119876040830184611942565b949350505050565b60008151905061199e816112d8565b92915050565b6000602082840312156119ba576119b96112c4565b5b60006119c88482850161198f565b91505092915050565b7f4f6e6c79206f776e696e6720636861726974792063616e20706572666f726d2060008201527f7468697320616374696f6e210000000000000000000000000000000000000000602082015250565b6000611a2d602c83611673565b9150611a38826119d1565b604082019050919050565b60006020820190508181036000830152611a5c81611a20565b9050919050565b7f57616c6c6574206973206c6f636b656420616e6420746f6b656e732063616e6e60008201527f6f742062652077697468647261776e0000000000000000000000000000000000602082015250565b6000611abf602f83611673565b9150611aca82611a63565b604082019050919050565b60006020820190508181036000830152611aee81611ab2565b9050919050565b7f596f7520646f6e2774206861766520656e6f75676820746f6b656e7300000000600082015250565b6000611b2b601c83611673565b9150611b3682611af5565b602082019050919050565b60006020820190508181036000830152611b5a81611b1e565b9050919050565b7f4e487b7100000000000000000000000000000000000000000000000000000000600052601260045260246000fd5b7f4e487b7100000000000000000000000000000000000000000000000000000000600052601160045260246000fd5b6000611bca826112ce565b9150611bd5836112ce565b925082611be557611be4611b61565b5b828204905092915050565b6000611bfb826112ce565b9150611c06836112ce565b9250828202611c14816112ce565b91508282048414831517611c2b57611c2a611b90565b5b5092915050565b6000604082019050611c476000830185611609565b611c546020830184611569565b939250505056fea264697066735822122081526356b59d0c193f9bfb9b6b2b9fd2ab4ccb3ec798857afacfc8afba4149fa64736f6c63430008110033",
  "immutableReferences": {},
  "source": "// SPDX-License-Identifier: MIT\npragma solidity ^0.8.0;\nimport \"./CharityStorage.sol\";\nimport \"./CharityToken.sol\";\n\ncontract Charity {\n    address public owner;\n    CharityStorage charityStorage;\n    CharityToken charityTokenContract;\n\n    event charityVerified(address charity);\n    event charitytDeactivated(address charity);\n    event charityActivated(address charity);\n    event withdrawCredits(address charity);\n\n    constructor(\n        CharityStorage charityAddress,\n        CharityToken charityTokenAddress\n    ) {\n        owner = msg.sender;\n        charityStorage = charityAddress;\n        charityTokenContract = charityTokenAddress;\n    }\n\n    modifier ownerOnly() {\n        require(\n            msg.sender == owner,\n            \"Only the owner of this contract is allowed to perform this operation\"\n        );\n        _;\n    }\n\n    modifier isValidCharity(uint256 charityId) {\n        require(\n            charityStorage.getCharityActive(charityId),\n            \"Charity ID given is not valid\"\n        );\n        _;\n    }\n\n    modifier owningCharityOnly(uint256 charityId) {\n        require(\n            isOwnerOfCharity(charityId, msg.sender),\n            \"Only owning charity can perform this action!\"\n        );\n        _;\n    }\n\n    modifier walletNotLocked(uint256 charityId) {\n        require(\n            !charityStorage.getCharityWalletLocked(charityId),\n            \"Wallet is locked and tokens cannot be withdrawn\"\n        );\n        _;\n    }\n\n    function verifyCharity(\n        address charityOwner,\n        string memory name,\n        CharityStorage.charityCategory category\n    ) public ownerOnly returns (uint256) {\n        uint256 charityId = charityStorage.addCharity(\n            charityOwner,\n            name,\n            category\n        );\n        emit charityVerified(charityOwner);\n        return charityId;\n    }\n\n    function deactivateCharity(uint256 charityId) public ownerOnly {\n        charityStorage.setCharityActive(charityId, false);\n        emit charitytDeactivated(charityStorage.getCharityOwner(charityId));\n    }\n\n    function activateCharity(uint256 charityId) public ownerOnly {\n        charityStorage.setCharityActive(charityId, true);\n        emit charityActivated(charityStorage.getCharityOwner(charityId));\n    }\n\n    function checkTokenBalance(\n        uint256 charityId\n    ) public view owningCharityOnly(charityId) returns (uint256) {\n        return charityTokenContract.checkBalance(msg.sender);\n    }\n\n    function withdrawTokens(\n        uint256 charityId,\n        uint256 numTokens\n    )\n        public\n        isValidCharity(charityId)\n        owningCharityOnly(charityId)\n        walletNotLocked(charityId)\n    {\n        uint256 charityTokensBalance = checkTokenBalance(charityId);\n        require(\n            numTokens <= charityTokensBalance,\n            \"You don't have enough tokens\"\n        );\n\n        uint256 etherAmt = numTokens / 100;\n        uint256 weiAmt = 1000000000000000000 * etherAmt;\n\n        payable(msg.sender).transfer(weiAmt);\n        charityTokenContract.transferTokens(address(this), numTokens); // transfer CT back to this contract address\n        emit withdrawCredits(msg.sender);\n    }\n\n    function lockWallet(\n        uint256 charityId\n    ) public ownerOnly isValidCharity(charityId) {\n        charityStorage.setCharityWalletLocked(charityId, true);\n    }\n\n    function unlockWallet(\n        uint256 charityId\n    ) public ownerOnly isValidCharity(charityId) {\n        charityStorage.setCharityWalletLocked(charityId, false);\n    }\n\n    function getCharityOwner(uint256 charityId) public view returns (address) {\n        return charityStorage.getCharityOwner(charityId);\n    }\n\n    function isOwnerOfCharity(\n        uint256 charityId,\n        address charityOwner\n    ) public view returns (bool) {\n        return charityStorage.getCharityOwner(charityId) == charityOwner;\n    }\n\n    function isCharityActive(uint256 charityId) public view returns (bool) {\n        return charityStorage.getCharityActive(charityId);\n    }\n\n    function getOwner() public view returns (address) {\n        return owner;\n    }\n}\n",
  "sourcePath": "/Users/danielonges/Desktop/coding/blockchain-charity/contracts/Charity.sol",
  "compiler": {
    "name": "solc",
    "version": "0.8.17+commit.8df45f5f.Emscripten.clang"
  },
  "schemaVersion": "3.4.11",
  "updatedAt": "2023-03-24T11:09:33.132Z",
  "devdoc": {
    "kind": "dev",
    "methods": {},
    "version": 1
  },
  "userdoc": {
    "kind": "user",
    "methods": {},
    "version": 1
  }
}