{
  "contractName": "CharityStorage",
  "abi": [
    {
      "inputs": [],
      "name": "owner",
      "outputs": [
        {
          "internalType": "address",
          "name": "",
          "type": "address"
        }
      ],
      "stateMutability": "view",
      "type": "function",
      "constant": true
    },
    {
      "inputs": [
        {
          "internalType": "address",
          "name": "charityOwner",
          "type": "address"
        },
        {
          "internalType": "string",
          "name": "name",
          "type": "string"
        },
        {
          "internalType": "enum CharityStorage.charityCategory",
          "name": "category",
          "type": "uint8"
        }
      ],
      "name": "addCharity",
      "outputs": [
        {
          "internalType": "uint256",
          "name": "",
          "type": "uint256"
        }
      ],
      "stateMutability": "nonpayable",
      "type": "function"
    },
    {
      "inputs": [
        {
          "internalType": "uint256",
          "name": "id",
          "type": "uint256"
        }
      ],
      "name": "getCharityActive",
      "outputs": [
        {
          "internalType": "bool",
          "name": "",
          "type": "bool"
        }
      ],
      "stateMutability": "view",
      "type": "function",
      "constant": true
    },
    {
      "inputs": [
        {
          "internalType": "uint256",
          "name": "id",
          "type": "uint256"
        },
        {
          "internalType": "bool",
          "name": "active",
          "type": "bool"
        }
      ],
      "name": "setCharityActive",
      "outputs": [],
      "stateMutability": "nonpayable",
      "type": "function"
    },
    {
      "inputs": [
        {
          "internalType": "uint256",
          "name": "id",
          "type": "uint256"
        }
      ],
      "name": "getCharityOwner",
      "outputs": [
        {
          "internalType": "address",
          "name": "",
          "type": "address"
        }
      ],
      "stateMutability": "view",
      "type": "function",
      "constant": true
    },
    {
      "inputs": [
        {
          "internalType": "uint256",
          "name": "id",
          "type": "uint256"
        }
      ],
      "name": "getCharityName",
      "outputs": [
        {
          "internalType": "string",
          "name": "",
          "type": "string"
        }
      ],
      "stateMutability": "view",
      "type": "function",
      "constant": true
    },
    {
      "inputs": [
        {
          "internalType": "uint256",
          "name": "id",
          "type": "uint256"
        }
      ],
      "name": "getCharityWalletLocked",
      "outputs": [
        {
          "internalType": "bool",
          "name": "",
          "type": "bool"
        }
      ],
      "stateMutability": "view",
      "type": "function",
      "constant": true
    },
    {
      "inputs": [
        {
          "internalType": "uint256",
          "name": "id",
          "type": "uint256"
        },
        {
          "internalType": "bool",
          "name": "locked",
          "type": "bool"
        }
      ],
      "name": "setCharityWalletLocked",
      "outputs": [],
      "stateMutability": "nonpayable",
      "type": "function"
    },
    {
      "inputs": [],
      "name": "getNumCharities",
      "outputs": [
        {
          "internalType": "uint256",
          "name": "",
          "type": "uint256"
        }
      ],
      "stateMutability": "view",
      "type": "function",
      "constant": true
    },
    {
      "inputs": [],
      "name": "getAllCharities",
      "outputs": [
        {
          "components": [
            {
              "internalType": "uint256",
              "name": "id",
              "type": "uint256"
            },
            {
              "internalType": "address",
              "name": "owner",
              "type": "address"
            },
            {
              "internalType": "string",
              "name": "name",
              "type": "string"
            },
            {
              "internalType": "enum CharityStorage.charityCategory",
              "name": "category",
              "type": "uint8"
            },
            {
              "internalType": "bool",
              "name": "isActive",
              "type": "bool"
            },
            {
              "internalType": "bool",
              "name": "isWalletLocked",
              "type": "bool"
            }
          ],
          "internalType": "struct CharityStorage.charity[]",
          "name": "",
          "type": "tuple[]"
        }
      ],
      "stateMutability": "view",
      "type": "function",
      "constant": true
    }
  ],
  "bytecode": "0x60806040526000805533600160006101000a81548173ffffffffffffffffffffffffffffffffffffffff021916908373ffffffffffffffffffffffffffffffffffffffff16021790555034801561005557600080fd5b506114cb806100656000396000f3fe608060405234801561001057600080fd5b506004361061009e5760003560e01c806384b087f81161006657806384b087f81461016d5780638da5cb5b1461019d578063b5bbd279146101bb578063e317526a146101d9578063e9f49017146102095761009e565b80633c907bea146100a3578063658be92f146100d357806378a1f8a0146100f15780637ede52fc146101215780638293cc1814610151575b600080fd5b6100bd60048036038101906100b89190610a31565b610225565b6040516100ca9190610a79565b60405180910390f35b6100db610252565b6040516100e89190610aa3565b60405180910390f35b61010b60048036038101906101069190610a31565b61025f565b6040516101189190610a79565b60405180910390f35b61013b60048036038101906101369190610a31565b61028c565b6040516101489190610b4e565b60405180910390f35b61016b60048036038101906101669190610b9c565b610334565b005b61018760048036038101906101829190610d94565b6103f6565b6040516101949190610aa3565b60405180910390f35b6101a56106fd565b6040516101b29190610e12565b60405180910390f35b6101c3610723565b6040516101d09190611066565b60405180910390f35b6101f360048036038101906101ee9190610a31565b6108e5565b6040516102009190610e12565b60405180910390f35b610223600480360381019061021e9190610b9c565b610925565b005b60006002600083815260200190815260200160002060030160029054906101000a900460ff169050919050565b6000600380549050905090565b60006002600083815260200190815260200160002060030160019054906101000a900460ff169050919050565b60606002600083815260200190815260200160002060020180546102af906110b7565b80601f01602080910402602001604051908101604052809291908181526020018280546102db906110b7565b80156103285780601f106102fd57610100808354040283529160200191610328565b820191906000526020600020905b81548152906001019060200180831161030b57829003601f168201915b50505050509050919050565b600160009054906101000a900473ffffffffffffffffffffffffffffffffffffffff1673ffffffffffffffffffffffffffffffffffffffff163373ffffffffffffffffffffffffffffffffffffffff16146103c4576040517f08c379a00000000000000000000000000000000000000000000000000000000081526004016103bb90611180565b60405180910390fd5b806002600084815260200190815260200160002060030160016101000a81548160ff0219169083151502179055505050565b6000600160009054906101000a900473ffffffffffffffffffffffffffffffffffffffff1673ffffffffffffffffffffffffffffffffffffffff163373ffffffffffffffffffffffffffffffffffffffff1614610488576040517f08c379a000000000000000000000000000000000000000000000000000000000815260040161047f90611180565b60405180910390fd5b60006040518060c0016040528060005481526020018673ffffffffffffffffffffffffffffffffffffffff1681526020018581526020018460048111156104d2576104d1610ec1565b5b81526020016001151581526020016000151581525090508060026000805481526020019081526020016000206000820151816000015560208201518160010160006101000a81548173ffffffffffffffffffffffffffffffffffffffff021916908373ffffffffffffffffffffffffffffffffffffffff1602179055506040820151816002019081610564919061134c565b5060608201518160030160006101000a81548160ff021916908360048111156105905761058f610ec1565b5b021790555060808201518160030160016101000a81548160ff02191690831515021790555060a08201518160030160026101000a81548160ff02191690831515021790555090505060038190806001815401808255809150506001900390600052602060002090600402016000909190919091506000820151816000015560208201518160010160006101000a81548173ffffffffffffffffffffffffffffffffffffffff021916908373ffffffffffffffffffffffffffffffffffffffff160217905550604082015181600201908161066a919061134c565b5060608201518160030160006101000a81548160ff0219169083600481111561069657610695610ec1565b5b021790555060808201518160030160016101000a81548160ff02191690831515021790555060a08201518160030160026101000a81548160ff02191690831515021790555050506000808154809291906106ef9061144d565b919050559150509392505050565b600160009054906101000a900473ffffffffffffffffffffffffffffffffffffffff1681565b60606003805480602002602001604051908101604052809291908181526020016000905b828210156108dc57838290600052602060002090600402016040518060c0016040529081600082015481526020016001820160009054906101000a900473ffffffffffffffffffffffffffffffffffffffff1673ffffffffffffffffffffffffffffffffffffffff1673ffffffffffffffffffffffffffffffffffffffff1681526020016002820180546107da906110b7565b80601f0160208091040260200160405190810160405280929190818152602001828054610806906110b7565b80156108535780601f1061082857610100808354040283529160200191610853565b820191906000526020600020905b81548152906001019060200180831161083657829003601f168201915b505050505081526020016003820160009054906101000a900460ff16600481111561088157610880610ec1565b5b600481111561089357610892610ec1565b5b81526020016003820160019054906101000a900460ff161515151581526020016003820160029054906101000a900460ff16151515158152505081526020019060010190610747565b50505050905090565b60006002600083815260200190815260200160002060010160009054906101000a900473ffffffffffffffffffffffffffffffffffffffff169050919050565b600160009054906101000a900473ffffffffffffffffffffffffffffffffffffffff1673ffffffffffffffffffffffffffffffffffffffff163373ffffffffffffffffffffffffffffffffffffffff16146109b5576040517f08c379a00000000000000000000000000000000000000000000000000000000081526004016109ac90611180565b60405180910390fd5b806002600084815260200190815260200160002060030160026101000a81548160ff0219169083151502179055505050565b6000604051905090565b600080fd5b600080fd5b6000819050919050565b610a0e816109fb565b8114610a1957600080fd5b50565b600081359050610a2b81610a05565b92915050565b600060208284031215610a4757610a466109f1565b5b6000610a5584828501610a1c565b91505092915050565b60008115159050919050565b610a7381610a5e565b82525050565b6000602082019050610a8e6000830184610a6a565b92915050565b610a9d816109fb565b82525050565b6000602082019050610ab86000830184610a94565b92915050565b600081519050919050565b600082825260208201905092915050565b60005b83811015610af8578082015181840152602081019050610add565b60008484015250505050565b6000601f19601f8301169050919050565b6000610b2082610abe565b610b2a8185610ac9565b9350610b3a818560208601610ada565b610b4381610b04565b840191505092915050565b60006020820190508181036000830152610b688184610b15565b905092915050565b610b7981610a5e565b8114610b8457600080fd5b50565b600081359050610b9681610b70565b92915050565b60008060408385031215610bb357610bb26109f1565b5b6000610bc185828601610a1c565b9250506020610bd285828601610b87565b9150509250929050565b600073ffffffffffffffffffffffffffffffffffffffff82169050919050565b6000610c0782610bdc565b9050919050565b610c1781610bfc565b8114610c2257600080fd5b50565b600081359050610c3481610c0e565b92915050565b600080fd5b600080fd5b7f4e487b7100000000000000000000000000000000000000000000000000000000600052604160045260246000fd5b610c7c82610b04565b810181811067ffffffffffffffff82111715610c9b57610c9a610c44565b5b80604052505050565b6000610cae6109e7565b9050610cba8282610c73565b919050565b600067ffffffffffffffff821115610cda57610cd9610c44565b5b610ce382610b04565b9050602081019050919050565b82818337600083830152505050565b6000610d12610d0d84610cbf565b610ca4565b905082815260208101848484011115610d2e57610d2d610c3f565b5b610d39848285610cf0565b509392505050565b600082601f830112610d5657610d55610c3a565b5b8135610d66848260208601610cff565b91505092915050565b60058110610d7c57600080fd5b50565b600081359050610d8e81610d6f565b92915050565b600080600060608486031215610dad57610dac6109f1565b5b6000610dbb86828701610c25565b935050602084013567ffffffffffffffff811115610ddc57610ddb6109f6565b5b610de886828701610d41565b9250506040610df986828701610d7f565b9150509250925092565b610e0c81610bfc565b82525050565b6000602082019050610e276000830184610e03565b92915050565b600081519050919050565b600082825260208201905092915050565b6000819050602082019050919050565b610e62816109fb565b82525050565b610e7181610bfc565b82525050565b600082825260208201905092915050565b6000610e9382610abe565b610e9d8185610e77565b9350610ead818560208601610ada565b610eb681610b04565b840191505092915050565b7f4e487b7100000000000000000000000000000000000000000000000000000000600052602160045260246000fd5b60058110610f0157610f00610ec1565b5b50565b6000819050610f1282610ef0565b919050565b6000610f2282610f04565b9050919050565b610f3281610f17565b82525050565b610f4181610a5e565b82525050565b600060c083016000830151610f5f6000860182610e59565b506020830151610f726020860182610e68565b5060408301518482036040860152610f8a8282610e88565b9150506060830151610f9f6060860182610f29565b506080830151610fb26080860182610f38565b5060a0830151610fc560a0860182610f38565b508091505092915050565b6000610fdc8383610f47565b905092915050565b6000602082019050919050565b6000610ffc82610e2d565b6110068185610e38565b93508360208202850161101885610e49565b8060005b8581101561105457848403895281516110358582610fd0565b945061104083610fe4565b925060208a0199505060018101905061101c565b50829750879550505050505092915050565b600060208201905081810360008301526110808184610ff1565b905092915050565b7f4e487b7100000000000000000000000000000000000000000000000000000000600052602260045260246000fd5b600060028204905060018216806110cf57607f821691505b6020821081036110e2576110e1611088565b5b50919050565b7f4f6e6c7920746865206f776e6572206f66207468697320636f6e74726163742060008201527f697320616c6c6f77656420746f20706572666f726d2074686973206f7065726160208201527f74696f6e00000000000000000000000000000000000000000000000000000000604082015250565b600061116a604483610ac9565b9150611175826110e8565b606082019050919050565b600060208201905081810360008301526111998161115d565b9050919050565b60008190508160005260206000209050919050565b60006020601f8301049050919050565b600082821b905092915050565b6000600883026112027fffffffffffffffffffffffffffffffffffffffffffffffffffffffffffffffff826111c5565b61120c86836111c5565b95508019841693508086168417925050509392505050565b6000819050919050565b600061124961124461123f846109fb565b611224565b6109fb565b9050919050565b6000819050919050565b6112638361122e565b61127761126f82611250565b8484546111d2565b825550505050565b600090565b61128c61127f565b61129781848461125a565b505050565b5b818110156112bb576112b0600082611284565b60018101905061129d565b5050565b601f821115611300576112d1816111a0565b6112da846111b5565b810160208510156112e9578190505b6112fd6112f5856111b5565b83018261129c565b50505b505050565b600082821c905092915050565b600061132360001984600802611305565b1980831691505092915050565b600061133c8383611312565b9150826002028217905092915050565b61135582610abe565b67ffffffffffffffff81111561136e5761136d610c44565b5b61137882546110b7565b6113838282856112bf565b600060209050601f8311600181146113b657600084156113a4578287015190505b6113ae8582611330565b865550611416565b601f1984166113c4866111a0565b60005b828110156113ec578489015182556001820191506020850194506020810190506113c7565b868310156114095784890151611405601f891682611312565b8355505b6001600288020188555050505b505050505050565b7f4e487b7100000000000000000000000000000000000000000000000000000000600052601160045260246000fd5b6000611458826109fb565b91507fffffffffffffffffffffffffffffffffffffffffffffffffffffffffffffffff820361148a5761148961141e565b5b60018201905091905056fea26469706673582212206d6b4f82a708a669daf6f2a5895c39e5cc9f45db5f0893c016d80304bce81ff864736f6c63430008110033",
  "immutableReferences": {},
  "source": "// SPDX-License-Identifier: MIT\npragma solidity ^0.8.0;\n\ncontract CharityStorage {\n    enum charityCategory {\n        CHILDREN,\n        HUMAN_RIGHTS,\n        DISASTER_RELIEF,\n        RELIGIOUS,\n        CULTURAL\n    }\n\n    struct charity {\n        uint256 id;\n        address owner;\n        string name;\n        charityCategory category;\n        bool isActive;\n        bool isWalletLocked;\n    }\n\n    uint256 charityIdCtr = 0;\n\n    address public owner = msg.sender; // set deployer as owner of the storage contract\n    mapping(uint256 => charity) charities;\n    // uint256 numCharities = 0; // total number of charities\n    charity[] allCharities;\n\n    modifier ownerOnly() {\n        require(\n            msg.sender == owner,\n            \"Only the owner of this contract is allowed to perform this operation\"\n        );\n        _;\n    }\n\n    modifier activeCharityId(uint256 id) {\n        require(\n            charities[id].isActive,\n            \"Charity ID given is not valid or active\"\n        );\n        _;\n    }\n\n    function addCharity(\n        address charityOwner,\n        string memory name,\n        charityCategory category\n    ) public ownerOnly returns (uint256) {\n        charity memory newCharity = charity(\n            charityIdCtr,\n            charityOwner,\n            name,\n            category,\n            true,\n            false\n        );\n\n        charities[charityIdCtr] = newCharity;\n        allCharities.push(newCharity);\n\n        return charityIdCtr++;\n    }\n\n    function getCharityActive(uint256 id) public view returns (bool) {\n        return charities[id].isActive;\n    }\n\n    function setCharityActive(uint256 id, bool active) public ownerOnly {\n        charities[id].isActive = active;\n    }\n\n    function getCharityOwner(uint256 id) public view returns (address) {\n        return charities[id].owner;\n    }\n\n    function getCharityName(uint256 id) public view returns (string memory) {\n        return charities[id].name;\n    }\n\n    function getCharityWalletLocked(uint256 id) public view returns (bool) {\n        return charities[id].isWalletLocked;\n    }\n\n    function setCharityWalletLocked(uint256 id, bool locked) public ownerOnly {\n        charities[id].isWalletLocked = locked;\n    }\n\n    function getNumCharities() public view returns (uint256) {\n        return allCharities.length;\n    }\n\n    function getAllCharities() public view returns (charity[] memory) {\n        return allCharities;\n    }\n}\n",
  "sourcePath": "/Users/danielonges/Desktop/coding/blockchain-charity/contracts/CharityStorage.sol",
  "compiler": {
    "name": "solc",
    "version": "0.8.17+commit.8df45f5f.Emscripten.clang"
  },
  "schemaVersion": "3.4.11",
  "updatedAt": "2023-03-24T07:33:44.792Z",
  "networkType": "ethereum",
  "devdoc": {
    "kind": "dev",
    "methods": {},
    "version": 1
  },
  "userdoc": {
    "kind": "user",
    "methods": {},
    "version": 1
  }
}