{
  "contractName": "Charity",
  "abi": [
    {
      "inputs": [
        {
          "internalType": "contract CharityStorage",
          "name": "charityAddress",
          "type": "address"
        },
        {
          "internalType": "contract CharityToken",
          "name": "charityTokenAddress",
          "type": "address"
        }
      ],
      "stateMutability": "nonpayable",
      "type": "constructor"
    },
    {
      "anonymous": false,
      "inputs": [
        {
          "indexed": false,
          "internalType": "address",
          "name": "charity",
          "type": "address"
        }
      ],
      "name": "charityActivated",
      "type": "event"
    },
    {
      "anonymous": false,
      "inputs": [
        {
          "indexed": false,
          "internalType": "address",
          "name": "charity",
          "type": "address"
        },
        {
          "indexed": false,
          "internalType": "uint256",
          "name": "charityId",
          "type": "uint256"
        }
      ],
      "name": "charityVerified",
      "type": "event"
    },
    {
      "anonymous": false,
      "inputs": [
        {
          "indexed": false,
          "internalType": "address",
          "name": "charity",
          "type": "address"
        }
      ],
      "name": "charityWalletLocked",
      "type": "event"
    },
    {
      "anonymous": false,
      "inputs": [
        {
          "indexed": false,
          "internalType": "address",
          "name": "charity",
          "type": "address"
        }
      ],
      "name": "charityWalletUnlocked",
      "type": "event"
    },
    {
      "anonymous": false,
      "inputs": [
        {
          "indexed": false,
          "internalType": "address",
          "name": "charity",
          "type": "address"
        }
      ],
      "name": "charitytDeactivated",
      "type": "event"
    },
    {
      "anonymous": false,
      "inputs": [
        {
          "indexed": false,
          "internalType": "address",
          "name": "charity",
          "type": "address"
        }
      ],
      "name": "withdrawCredits",
      "type": "event"
    },
    {
      "inputs": [],
      "name": "contractStopped",
      "outputs": [
        {
          "internalType": "bool",
          "name": "",
          "type": "bool"
        }
      ],
      "stateMutability": "view",
      "type": "function",
      "constant": true
    },
    {
      "inputs": [],
      "name": "owner",
      "outputs": [
        {
          "internalType": "address",
          "name": "",
          "type": "address"
        }
      ],
      "stateMutability": "view",
      "type": "function",
      "constant": true
    },
    {
      "inputs": [],
      "name": "toggleContractStopped",
      "outputs": [],
      "stateMutability": "nonpayable",
      "type": "function"
    },
    {
      "inputs": [
        {
          "internalType": "address",
          "name": "charityOwner",
          "type": "address"
        },
        {
          "internalType": "string",
          "name": "name",
          "type": "string"
        },
        {
          "internalType": "enum CharityStorage.charityCategory",
          "name": "category",
          "type": "uint8"
        }
      ],
      "name": "verifyCharity",
      "outputs": [],
      "stateMutability": "nonpayable",
      "type": "function"
    },
    {
      "inputs": [
        {
          "internalType": "uint256",
          "name": "charityId",
          "type": "uint256"
        }
      ],
      "name": "deactivateCharity",
      "outputs": [],
      "stateMutability": "nonpayable",
      "type": "function"
    },
    {
      "inputs": [
        {
          "internalType": "uint256",
          "name": "charityId",
          "type": "uint256"
        }
      ],
      "name": "activateCharity",
      "outputs": [],
      "stateMutability": "nonpayable",
      "type": "function"
    },
    {
      "inputs": [
        {
          "internalType": "uint256",
          "name": "charityId",
          "type": "uint256"
        }
      ],
      "name": "checkTokenBalance",
      "outputs": [
        {
          "internalType": "uint256",
          "name": "",
          "type": "uint256"
        }
      ],
      "stateMutability": "view",
      "type": "function",
      "constant": true
    },
    {
      "inputs": [
        {
          "internalType": "uint256",
          "name": "charityId",
          "type": "uint256"
        },
        {
          "internalType": "uint256",
          "name": "numTokens",
          "type": "uint256"
        }
      ],
      "name": "withdrawTokens",
      "outputs": [],
      "stateMutability": "nonpayable",
      "type": "function"
    },
    {
      "inputs": [
        {
          "internalType": "uint256",
          "name": "charityId",
          "type": "uint256"
        }
      ],
      "name": "lockWallet",
      "outputs": [],
      "stateMutability": "nonpayable",
      "type": "function"
    },
    {
      "inputs": [
        {
          "internalType": "uint256",
          "name": "charityId",
          "type": "uint256"
        }
      ],
      "name": "unlockWallet",
      "outputs": [],
      "stateMutability": "nonpayable",
      "type": "function"
    },
    {
      "inputs": [
        {
          "internalType": "uint256",
          "name": "charityId",
          "type": "uint256"
        }
      ],
      "name": "isWalletLocked",
      "outputs": [
        {
          "internalType": "bool",
          "name": "",
          "type": "bool"
        }
      ],
      "stateMutability": "view",
      "type": "function",
      "constant": true
    },
    {
      "inputs": [
        {
          "internalType": "uint256",
          "name": "charityId",
          "type": "uint256"
        }
      ],
      "name": "getCharityOwner",
      "outputs": [
        {
          "internalType": "address",
          "name": "",
          "type": "address"
        }
      ],
      "stateMutability": "view",
      "type": "function",
      "constant": true
    },
    {
      "inputs": [
        {
          "internalType": "uint256",
          "name": "charityId",
          "type": "uint256"
        },
        {
          "internalType": "address",
          "name": "charityOwner",
          "type": "address"
        }
      ],
      "name": "isOwnerOfCharity",
      "outputs": [
        {
          "internalType": "bool",
          "name": "",
          "type": "bool"
        }
      ],
      "stateMutability": "view",
      "type": "function",
      "constant": true
    },
    {
      "inputs": [
        {
          "internalType": "uint256",
          "name": "charityId",
          "type": "uint256"
        }
      ],
      "name": "isCharityActive",
      "outputs": [
        {
          "internalType": "bool",
          "name": "",
          "type": "bool"
        }
      ],
      "stateMutability": "view",
      "type": "function",
      "constant": true
    },
    {
      "inputs": [],
      "name": "getAllCharities",
      "outputs": [
        {
          "components": [
            {
              "internalType": "uint256",
              "name": "id",
              "type": "uint256"
            },
            {
              "internalType": "address",
              "name": "owner",
              "type": "address"
            },
            {
              "internalType": "string",
              "name": "name",
              "type": "string"
            },
            {
              "internalType": "enum CharityStorage.charityCategory",
              "name": "category",
              "type": "uint8"
            },
            {
              "internalType": "bool",
              "name": "isActive",
              "type": "bool"
            },
            {
              "internalType": "bool",
              "name": "isWalletLocked",
              "type": "bool"
            },
            {
              "internalType": "uint256",
              "name": "averageTimeTakenToVerify",
              "type": "uint256"
            },
            {
              "internalType": "uint256",
              "name": "numVerifiedTransactions",
              "type": "uint256"
            },
            {
              "internalType": "uint256",
              "name": "numUnverifiedTransactions",
              "type": "uint256"
            }
          ],
          "internalType": "struct CharityStorage.charity[]",
          "name": "",
          "type": "tuple[]"
        }
      ],
      "stateMutability": "view",
      "type": "function",
      "constant": true
    },
    {
      "inputs": [
        {
          "internalType": "uint256",
          "name": "charityId",
          "type": "uint256"
        }
      ],
      "name": "getCharityDetails",
      "outputs": [
        {
          "components": [
            {
              "internalType": "uint256",
              "name": "id",
              "type": "uint256"
            },
            {
              "internalType": "address",
              "name": "owner",
              "type": "address"
            },
            {
              "internalType": "string",
              "name": "name",
              "type": "string"
            },
            {
              "internalType": "enum CharityStorage.charityCategory",
              "name": "category",
              "type": "uint8"
            },
            {
              "internalType": "bool",
              "name": "isActive",
              "type": "bool"
            },
            {
              "internalType": "bool",
              "name": "isWalletLocked",
              "type": "bool"
            },
            {
              "internalType": "uint256",
              "name": "averageTimeTakenToVerify",
              "type": "uint256"
            },
            {
              "internalType": "uint256",
              "name": "numVerifiedTransactions",
              "type": "uint256"
            },
            {
              "internalType": "uint256",
              "name": "numUnverifiedTransactions",
              "type": "uint256"
            }
          ],
          "internalType": "struct CharityStorage.charity",
          "name": "",
          "type": "tuple"
        }
      ],
      "stateMutability": "view",
      "type": "function",
      "constant": true
    },
    {
      "inputs": [
        {
          "internalType": "uint256",
          "name": "charityId",
          "type": "uint256"
        }
      ],
      "name": "getCategoryByCharity",
      "outputs": [
        {
          "internalType": "enum CharityStorage.charityCategory",
          "name": "",
          "type": "uint8"
        }
      ],
      "stateMutability": "view",
      "type": "function",
      "constant": true
    },
    {
      "inputs": [
        {
          "internalType": "uint256",
          "name": "charityId",
          "type": "uint256"
        },
        {
          "internalType": "uint256",
          "name": "timeTakenToVerify",
          "type": "uint256"
        }
      ],
      "name": "setCharityAverageTimeTakenToVerify",
      "outputs": [],
      "stateMutability": "nonpayable",
      "type": "function"
    },
    {
      "inputs": [
        {
          "internalType": "uint256",
          "name": "charityId",
          "type": "uint256"
        },
        {
          "internalType": "bool",
          "name": "isIncrement",
          "type": "bool"
        }
      ],
      "name": "incrementOrDecrementNumVerifiedTransaction",
      "outputs": [],
      "stateMutability": "nonpayable",
      "type": "function"
    },
    {
      "inputs": [
        {
          "internalType": "uint256",
          "name": "charityId",
          "type": "uint256"
        },
        {
          "internalType": "bool",
          "name": "isIncrement",
          "type": "bool"
        }
      ],
      "name": "incrementOrDecrementNumUnverifiedTransaction",
      "outputs": [],
      "stateMutability": "nonpayable",
      "type": "function"
    },
    {
      "inputs": [
        {
          "internalType": "uint256",
          "name": "charityId",
          "type": "uint256"
        }
      ],
      "name": "getNumVerifiedTransactions",
      "outputs": [
        {
          "internalType": "uint256",
          "name": "",
          "type": "uint256"
        }
      ],
      "stateMutability": "view",
      "type": "function",
      "constant": true
    },
    {
      "inputs": [
        {
          "internalType": "uint256",
          "name": "charityId",
          "type": "uint256"
        }
      ],
      "name": "getNumUnverifiedTransactions",
      "outputs": [
        {
          "internalType": "uint256",
          "name": "",
          "type": "uint256"
        }
      ],
      "stateMutability": "view",
      "type": "function",
      "constant": true
    }
  ],
  "bytecode": "0x60806040523480156200001157600080fd5b506040516200328e3803806200328e8339818101604052810190620000379190620001c4565b336000806101000a81548173ffffffffffffffffffffffffffffffffffffffff021916908373ffffffffffffffffffffffffffffffffffffffff16021790555081600160006101000a81548173ffffffffffffffffffffffffffffffffffffffff021916908373ffffffffffffffffffffffffffffffffffffffff16021790555080600260006101000a81548173ffffffffffffffffffffffffffffffffffffffff021916908373ffffffffffffffffffffffffffffffffffffffff16021790555050506200020b565b600080fd5b600073ffffffffffffffffffffffffffffffffffffffff82169050919050565b6000620001338262000106565b9050919050565b6000620001478262000126565b9050919050565b62000159816200013a565b81146200016557600080fd5b50565b60008151905062000179816200014e565b92915050565b60006200018c8262000126565b9050919050565b6200019e816200017f565b8114620001aa57600080fd5b50565b600081519050620001be8162000193565b92915050565b60008060408385031215620001de57620001dd62000101565b5b6000620001ee8582860162000168565b92505060206200020185828601620001ad565b9150509250929050565b613073806200021b6000396000f3fe608060405234801561001057600080fd5b50600436106101425760003560e01c80638da5cb5b116100b8578063c9ae116c1161007c578063c9ae116c1461036f578063cd6f38231461039f578063daea74c5146103cf578063e317526a146103ed578063e83c78d41461041d578063f6c997b81461042757610142565b80638da5cb5b146102df578063b5bbd279146102fd578063ba7bd2aa1461031b578063bb895fc114610337578063c7b031c81461035357610142565b806351c3898f1161010a57806351c3898f146101e7578063539a4a31146102175780636801d529146102475780636ab9a025146102635780636afc1334146102935780638d5235bf146102af57610142565b8063213ef5e7146101475780632da8d7251461016357806335ca1c791461017f5780634f1f42111461019b5780634f95964b146101b7575b600080fd5b610161600480360381019061015c9190611f9b565b610457565b005b61017d60048036038101906101789190611f9b565b6106a0565b005b61019960048036038101906101949190611f9b565b6108e9565b005b6101b560048036038101906101b09190612191565b610c0f565b005b6101d160048036038101906101cc9190611f9b565b610dd8565b6040516101de919061221b565b60405180910390f35b61020160048036038101906101fc9190611f9b565b610e86565b60405161020e91906122ad565b60405180910390f35b610231600480360381019061022c9190611f9b565b610f2b565b60405161023e9190612448565b60405180910390f35b610261600480360381019061025c9190612496565b610fdb565b005b61027d600480360381019061027891906124d6565b61106e565b60405161028a919061221b565b60405180910390f35b6102ad60048036038101906102a89190611f9b565b611142565b005b6102c960048036038101906102c49190611f9b565b611468565b6040516102d69190612525565b60405180910390f35b6102e761150d565b6040516102f4919061254f565b60405180910390f35b610305611531565b60405161031291906126f1565b60405180910390f35b61033560048036038101906103309190612713565b6115ce565b005b610351600480360381019061034c9190612713565b6119b1565b005b61036d60048036038101906103689190612496565b611a44565b005b61038960048036038101906103849190611f9b565b611ad7565b6040516103969190612525565b60405180910390f35b6103b960048036038101906103b49190611f9b565b611bc7565b6040516103c69190612525565b60405180910390f35b6103d7611c6c565b6040516103e4919061221b565b60405180910390f35b61040760048036038101906104029190611f9b565b611c7f565b604051610414919061254f565b60405180910390f35b610425611d24565b005b610441600480360381019061043c9190611f9b565b611e34565b60405161044e919061221b565b60405180910390f35b60008054906101000a900473ffffffffffffffffffffffffffffffffffffffff1673ffffffffffffffffffffffffffffffffffffffff163373ffffffffffffffffffffffffffffffffffffffff1614806104fc575060008054906101000a900473ffffffffffffffffffffffffffffffffffffffff1673ffffffffffffffffffffffffffffffffffffffff163273ffffffffffffffffffffffffffffffffffffffff16145b61053b576040517f08c379a0000000000000000000000000000000000000000000000000000000008152600401610532906127fc565b60405180910390fd5b600160009054906101000a900473ffffffffffffffffffffffffffffffffffffffff1673ffffffffffffffffffffffffffffffffffffffff16638293cc188260016040518363ffffffff1660e01b815260040161059992919061281c565b600060405180830381600087803b1580156105b357600080fd5b505af11580156105c7573d6000803e3d6000fd5b505050507fa436eebdff427b7b534ef84d66927979b99f72abbfe7f3cc8e4619eb3aa2e68b600160009054906101000a900473ffffffffffffffffffffffffffffffffffffffff1673ffffffffffffffffffffffffffffffffffffffff1663e317526a836040518263ffffffff1660e01b81526004016106479190612525565b602060405180830381865afa158015610664573d6000803e3d6000fd5b505050506040513d601f19601f82011682018060405250810190610688919061285a565b604051610695919061254f565b60405180910390a150565b60008054906101000a900473ffffffffffffffffffffffffffffffffffffffff1673ffffffffffffffffffffffffffffffffffffffff163373ffffffffffffffffffffffffffffffffffffffff161480610745575060008054906101000a900473ffffffffffffffffffffffffffffffffffffffff1673ffffffffffffffffffffffffffffffffffffffff163273ffffffffffffffffffffffffffffffffffffffff16145b610784576040517f08c379a000000000000000000000000000000000000000000000000000000000815260040161077b906127fc565b60405180910390fd5b600160009054906101000a900473ffffffffffffffffffffffffffffffffffffffff1673ffffffffffffffffffffffffffffffffffffffff16638293cc188260006040518363ffffffff1660e01b81526004016107e292919061281c565b600060405180830381600087803b1580156107fc57600080fd5b505af1158015610810573d6000803e3d6000fd5b505050507fa5b6f160624521b2b07a6e2e0e6465209f1937bb1e800b1a9746577b9ba89f5c600160009054906101000a900473ffffffffffffffffffffffffffffffffffffffff1673ffffffffffffffffffffffffffffffffffffffff1663e317526a836040518263ffffffff1660e01b81526004016108909190612525565b602060405180830381865afa1580156108ad573d6000803e3d6000fd5b505050506040513d601f19601f820116820180604052508101906108d1919061285a565b6040516108de919061254f565b60405180910390a150565b60008054906101000a900473ffffffffffffffffffffffffffffffffffffffff1673ffffffffffffffffffffffffffffffffffffffff163373ffffffffffffffffffffffffffffffffffffffff16148061098e575060008054906101000a900473ffffffffffffffffffffffffffffffffffffffff1673ffffffffffffffffffffffffffffffffffffffff163273ffffffffffffffffffffffffffffffffffffffff16145b6109cd576040517f08c379a00000000000000000000000000000000000000000000000000000000081526004016109c4906127fc565b60405180910390fd5b80600160009054906101000a900473ffffffffffffffffffffffffffffffffffffffff1673ffffffffffffffffffffffffffffffffffffffff166378a1f8a0826040518263ffffffff1660e01b8152600401610a299190612525565b602060405180830381865afa158015610a46573d6000803e3d6000fd5b505050506040513d601f19601f82011682018060405250810190610a6a919061289c565b610aa9576040517f08c379a0000000000000000000000000000000000000000000000000000000008152600401610aa090612915565b60405180910390fd5b600160009054906101000a900473ffffffffffffffffffffffffffffffffffffffff1673ffffffffffffffffffffffffffffffffffffffff1663e9f490178360006040518363ffffffff1660e01b8152600401610b0792919061281c565b600060405180830381600087803b158015610b2157600080fd5b505af1158015610b35573d6000803e3d6000fd5b505050507fc1ea69314b4e70863f0a0ae7de7170ce9fe6b6988af096f87eef7380470364d1600160009054906101000a900473ffffffffffffffffffffffffffffffffffffffff1673ffffffffffffffffffffffffffffffffffffffff1663e317526a846040518263ffffffff1660e01b8152600401610bb59190612525565b602060405180830381865afa158015610bd2573d6000803e3d6000fd5b505050506040513d601f19601f82011682018060405250810190610bf6919061285a565b604051610c03919061254f565b60405180910390a15050565b60008054906101000a900473ffffffffffffffffffffffffffffffffffffffff1673ffffffffffffffffffffffffffffffffffffffff163373ffffffffffffffffffffffffffffffffffffffff161480610cb4575060008054906101000a900473ffffffffffffffffffffffffffffffffffffffff1673ffffffffffffffffffffffffffffffffffffffff163273ffffffffffffffffffffffffffffffffffffffff16145b610cf3576040517f08c379a0000000000000000000000000000000000000000000000000000000008152600401610cea906127fc565b60405180910390fd5b6000600160009054906101000a900473ffffffffffffffffffffffffffffffffffffffff1673ffffffffffffffffffffffffffffffffffffffff166384b087f88585856040518463ffffffff1660e01b8152600401610d549392919061296e565b6020604051808303816000875af1158015610d73573d6000803e3d6000fd5b505050506040513d601f19601f82011682018060405250810190610d9791906129c1565b90507f7a609f60f049d0811669fabadc4ca21d9e12ee33fcf77a6f749c0d6e3c17b3cf8482604051610dca9291906129ee565b60405180910390a150505050565b6000600160009054906101000a900473ffffffffffffffffffffffffffffffffffffffff1673ffffffffffffffffffffffffffffffffffffffff166321b914bc836040518263ffffffff1660e01b8152600401610e359190612525565b600060405180830381865afa158015610e52573d6000803e3d6000fd5b505050506040513d6000823e3d601f19601f82011682018060405250810190610e7b9190612ba2565b60a001519050919050565b6000600160009054906101000a900473ffffffffffffffffffffffffffffffffffffffff1673ffffffffffffffffffffffffffffffffffffffff1663ca9099c0836040518263ffffffff1660e01b8152600401610ee39190612525565b602060405180830381865afa158015610f00573d6000803e3d6000fd5b505050506040513d601f19601f82011682018060405250810190610f249190612beb565b9050919050565b610f33611ed9565b600160009054906101000a900473ffffffffffffffffffffffffffffffffffffffff1673ffffffffffffffffffffffffffffffffffffffff166321b914bc836040518263ffffffff1660e01b8152600401610f8e9190612525565b600060405180830381865afa158015610fab573d6000803e3d6000fd5b505050506040513d6000823e3d601f19601f82011682018060405250810190610fd49190612ba2565b9050919050565b600160009054906101000a900473ffffffffffffffffffffffffffffffffffffffff1673ffffffffffffffffffffffffffffffffffffffff16636801d52983836040518363ffffffff1660e01b815260040161103892919061281c565b600060405180830381600087803b15801561105257600080fd5b505af1158015611066573d6000803e3d6000fd5b505050505050565b60008173ffffffffffffffffffffffffffffffffffffffff16600160009054906101000a900473ffffffffffffffffffffffffffffffffffffffff1673ffffffffffffffffffffffffffffffffffffffff1663e317526a856040518263ffffffff1660e01b81526004016110e29190612525565b602060405180830381865afa1580156110ff573d6000803e3d6000fd5b505050506040513d601f19601f82011682018060405250810190611123919061285a565b73ffffffffffffffffffffffffffffffffffffffff1614905092915050565b60008054906101000a900473ffffffffffffffffffffffffffffffffffffffff1673ffffffffffffffffffffffffffffffffffffffff163373ffffffffffffffffffffffffffffffffffffffff1614806111e7575060008054906101000a900473ffffffffffffffffffffffffffffffffffffffff1673ffffffffffffffffffffffffffffffffffffffff163273ffffffffffffffffffffffffffffffffffffffff16145b611226576040517f08c379a000000000000000000000000000000000000000000000000000000000815260040161121d906127fc565b60405180910390fd5b80600160009054906101000a900473ffffffffffffffffffffffffffffffffffffffff1673ffffffffffffffffffffffffffffffffffffffff166378a1f8a0826040518263ffffffff1660e01b81526004016112829190612525565b602060405180830381865afa15801561129f573d6000803e3d6000fd5b505050506040513d601f19601f820116820180604052508101906112c3919061289c565b611302576040517f08c379a00000000000000000000000000000000000000000000000000000000081526004016112f990612915565b60405180910390fd5b600160009054906101000a900473ffffffffffffffffffffffffffffffffffffffff1673ffffffffffffffffffffffffffffffffffffffff1663e9f490178360016040518363ffffffff1660e01b815260040161136092919061281c565b600060405180830381600087803b15801561137a57600080fd5b505af115801561138e573d6000803e3d6000fd5b505050507f62f2df39e0fcf26c8932574fab58b855e905448accc61256a566fec263b676ab600160009054906101000a900473ffffffffffffffffffffffffffffffffffffffff1673ffffffffffffffffffffffffffffffffffffffff1663e317526a846040518263ffffffff1660e01b815260040161140e9190612525565b602060405180830381865afa15801561142b573d6000803e3d6000fd5b505050506040513d601f19601f8201168201806040525081019061144f919061285a565b60405161145c919061254f565b60405180910390a15050565b6000600160009054906101000a900473ffffffffffffffffffffffffffffffffffffffff1673ffffffffffffffffffffffffffffffffffffffff16638d5235bf836040518263ffffffff1660e01b81526004016114c59190612525565b602060405180830381865afa1580156114e2573d6000803e3d6000fd5b505050506040513d601f19601f8201168201806040525081019061150691906129c1565b9050919050565b60008054906101000a900473ffffffffffffffffffffffffffffffffffffffff1681565b6060600160009054906101000a900473ffffffffffffffffffffffffffffffffffffffff1673ffffffffffffffffffffffffffffffffffffffff1663b5bbd2796040518163ffffffff1660e01b8152600401600060405180830381865afa1580156115a0573d6000803e3d6000fd5b505050506040513d6000823e3d601f19601f820116820180604052508101906115c99190612cfe565b905090565b81600160009054906101000a900473ffffffffffffffffffffffffffffffffffffffff1673ffffffffffffffffffffffffffffffffffffffff166378a1f8a0826040518263ffffffff1660e01b815260040161162a9190612525565b602060405180830381865afa158015611647573d6000803e3d6000fd5b505050506040513d601f19601f8201168201806040525081019061166b919061289c565b6116aa576040517f08c379a00000000000000000000000000000000000000000000000000000000081526004016116a190612915565b60405180910390fd5b826116b5813361106e565b6116f4576040517f08c379a00000000000000000000000000000000000000000000000000000000081526004016116eb90612db9565b60405180910390fd5b83600160009054906101000a900473ffffffffffffffffffffffffffffffffffffffff1673ffffffffffffffffffffffffffffffffffffffff16633c907bea826040518263ffffffff1660e01b81526004016117509190612525565b602060405180830381865afa15801561176d573d6000803e3d6000fd5b505050506040513d601f19601f82011682018060405250810190611791919061289c565b156117d1576040517f08c379a00000000000000000000000000000000000000000000000000000000081526004016117c890612e4b565b60405180910390fd5b600060149054906101000a900460ff1615611821576040517f08c379a000000000000000000000000000000000000000000000000000000000815260040161181890612eb7565b60405180910390fd5b600061182c86611ad7565b905080851115611871576040517f08c379a000000000000000000000000000000000000000000000000000000000815260040161186890612f23565b60405180910390fd5b60006064866118809190612fa1565b9050600081670de0b6b3a76400006118989190612fd2565b90503373ffffffffffffffffffffffffffffffffffffffff166108fc829081150290604051600060405180830381858888f193505050501580156118e0573d6000803e3d6000fd5b50600260009054906101000a900473ffffffffffffffffffffffffffffffffffffffff1673ffffffffffffffffffffffffffffffffffffffff1663bec3fa1730896040518363ffffffff1660e01b815260040161193e9291906129ee565b600060405180830381600087803b15801561195857600080fd5b505af115801561196c573d6000803e3d6000fd5b505050507f87a78f7df6302725b7b44f64ed140f2b072832394391bf2b94c9bb5563e5bf083360405161199f919061254f565b60405180910390a15050505050505050565b600160009054906101000a900473ffffffffffffffffffffffffffffffffffffffff1673ffffffffffffffffffffffffffffffffffffffff1663bb895fc183836040518363ffffffff1660e01b8152600401611a0e929190613014565b600060405180830381600087803b158015611a2857600080fd5b505af1158015611a3c573d6000803e3d6000fd5b505050505050565b600160009054906101000a900473ffffffffffffffffffffffffffffffffffffffff1673ffffffffffffffffffffffffffffffffffffffff1663c7b031c883836040518363ffffffff1660e01b8152600401611aa192919061281c565b600060405180830381600087803b158015611abb57600080fd5b505af1158015611acf573d6000803e3d6000fd5b505050505050565b600081611ae4813361106e565b611b23576040517f08c379a0000000000000000000000000000000000000000000000000000000008152600401611b1a90612db9565b60405180910390fd5b600260009054906101000a900473ffffffffffffffffffffffffffffffffffffffff1673ffffffffffffffffffffffffffffffffffffffff16635f515226336040518263ffffffff1660e01b8152600401611b7e919061254f565b602060405180830381865afa158015611b9b573d6000803e3d6000fd5b505050506040513d601f19601f82011682018060405250810190611bbf91906129c1565b915050919050565b6000600160009054906101000a900473ffffffffffffffffffffffffffffffffffffffff1673ffffffffffffffffffffffffffffffffffffffff1663cd6f3823836040518263ffffffff1660e01b8152600401611c249190612525565b602060405180830381865afa158015611c41573d6000803e3d6000fd5b505050506040513d601f19601f82011682018060405250810190611c6591906129c1565b9050919050565b600060149054906101000a900460ff1681565b6000600160009054906101000a900473ffffffffffffffffffffffffffffffffffffffff1673ffffffffffffffffffffffffffffffffffffffff1663e317526a836040518263ffffffff1660e01b8152600401611cdc9190612525565b602060405180830381865afa158015611cf9573d6000803e3d6000fd5b505050506040513d601f19601f82011682018060405250810190611d1d919061285a565b9050919050565b60008054906101000a900473ffffffffffffffffffffffffffffffffffffffff1673ffffffffffffffffffffffffffffffffffffffff163373ffffffffffffffffffffffffffffffffffffffff161480611dc9575060008054906101000a900473ffffffffffffffffffffffffffffffffffffffff1673ffffffffffffffffffffffffffffffffffffffff163273ffffffffffffffffffffffffffffffffffffffff16145b611e08576040517f08c379a0000000000000000000000000000000000000000000000000000000008152600401611dff906127fc565b60405180910390fd5b600060149054906101000a900460ff1615600060146101000a81548160ff021916908315150217905550565b6000600160009054906101000a900473ffffffffffffffffffffffffffffffffffffffff1673ffffffffffffffffffffffffffffffffffffffff166378a1f8a0836040518263ffffffff1660e01b8152600401611e919190612525565b602060405180830381865afa158015611eae573d6000803e3d6000fd5b505050506040513d601f19601f82011682018060405250810190611ed2919061289c565b9050919050565b60405180610120016040528060008152602001600073ffffffffffffffffffffffffffffffffffffffff1681526020016060815260200160006004811115611f2457611f23612236565b5b81526020016000151581526020016000151581526020016000815260200160008152602001600081525090565b6000604051905090565b600080fd5b600080fd5b6000819050919050565b611f7881611f65565b8114611f8357600080fd5b50565b600081359050611f9581611f6f565b92915050565b600060208284031215611fb157611fb0611f5b565b5b6000611fbf84828501611f86565b91505092915050565b600073ffffffffffffffffffffffffffffffffffffffff82169050919050565b6000611ff382611fc8565b9050919050565b61200381611fe8565b811461200e57600080fd5b50565b60008135905061202081611ffa565b92915050565b600080fd5b600080fd5b6000601f19601f8301169050919050565b7f4e487b7100000000000000000000000000000000000000000000000000000000600052604160045260246000fd5b61207982612030565b810181811067ffffffffffffffff8211171561209857612097612041565b5b80604052505050565b60006120ab611f51565b90506120b78282612070565b919050565b600067ffffffffffffffff8211156120d7576120d6612041565b5b6120e082612030565b9050602081019050919050565b82818337600083830152505050565b600061210f61210a846120bc565b6120a1565b90508281526020810184848401111561212b5761212a61202b565b5b6121368482856120ed565b509392505050565b600082601f83011261215357612152612026565b5b81356121638482602086016120fc565b91505092915050565b6005811061217957600080fd5b50565b60008135905061218b8161216c565b92915050565b6000806000606084860312156121aa576121a9611f5b565b5b60006121b886828701612011565b935050602084013567ffffffffffffffff8111156121d9576121d8611f60565b5b6121e58682870161213e565b92505060406121f68682870161217c565b9150509250925092565b60008115159050919050565b61221581612200565b82525050565b6000602082019050612230600083018461220c565b92915050565b7f4e487b7100000000000000000000000000000000000000000000000000000000600052602160045260246000fd5b6005811061227657612275612236565b5b50565b600081905061228782612265565b919050565b600061229782612279565b9050919050565b6122a78161228c565b82525050565b60006020820190506122c2600083018461229e565b92915050565b6122d181611f65565b82525050565b6122e081611fe8565b82525050565b600081519050919050565b600082825260208201905092915050565b60005b83811015612320578082015181840152602081019050612305565b60008484015250505050565b6000612337826122e6565b61234181856122f1565b9350612351818560208601612302565b61235a81612030565b840191505092915050565b61236e8161228c565b82525050565b61237d81612200565b82525050565b60006101208301600083015161239c60008601826122c8565b5060208301516123af60208601826122d7565b50604083015184820360408601526123c7828261232c565b91505060608301516123dc6060860182612365565b5060808301516123ef6080860182612374565b5060a083015161240260a0860182612374565b5060c083015161241560c08601826122c8565b5060e083015161242860e08601826122c8565b5061010083015161243d6101008601826122c8565b508091505092915050565b600060208201905081810360008301526124628184612383565b905092915050565b61247381612200565b811461247e57600080fd5b50565b6000813590506124908161246a565b92915050565b600080604083850312156124ad576124ac611f5b565b5b60006124bb85828601611f86565b92505060206124cc85828601612481565b9150509250929050565b600080604083850312156124ed576124ec611f5b565b5b60006124fb85828601611f86565b925050602061250c85828601612011565b9150509250929050565b61251f81611f65565b82525050565b600060208201905061253a6000830184612516565b92915050565b61254981611fe8565b82525050565b60006020820190506125646000830184612540565b92915050565b600081519050919050565b600082825260208201905092915050565b6000819050602082019050919050565b6000610120830160008301516125af60008601826122c8565b5060208301516125c260208601826122d7565b50604083015184820360408601526125da828261232c565b91505060608301516125ef6060860182612365565b5060808301516126026080860182612374565b5060a083015161261560a0860182612374565b5060c083015161262860c08601826122c8565b5060e083015161263b60e08601826122c8565b506101008301516126506101008601826122c8565b508091505092915050565b60006126678383612596565b905092915050565b6000602082019050919050565b60006126878261256a565b6126918185612575565b9350836020820285016126a385612586565b8060005b858110156126df57848403895281516126c0858261265b565b94506126cb8361266f565b925060208a019950506001810190506126a7565b50829750879550505050505092915050565b6000602082019050818103600083015261270b818461267c565b905092915050565b6000806040838503121561272a57612729611f5b565b5b600061273885828601611f86565b925050602061274985828601611f86565b9150509250929050565b600082825260208201905092915050565b7f4f6e6c7920746865206f776e6572206f66207468697320636f6e74726163742060008201527f697320616c6c6f77656420746f20706572666f726d2074686973206f7065726160208201527f74696f6e00000000000000000000000000000000000000000000000000000000604082015250565b60006127e6604483612753565b91506127f182612764565b606082019050919050565b60006020820190508181036000830152612815816127d9565b9050919050565b60006040820190506128316000830185612516565b61283e602083018461220c565b9392505050565b60008151905061285481611ffa565b92915050565b6000602082840312156128705761286f611f5b565b5b600061287e84828501612845565b91505092915050565b6000815190506128968161246a565b92915050565b6000602082840312156128b2576128b1611f5b565b5b60006128c084828501612887565b91505092915050565b7f4368617269747920494420676976656e206973206e6f742076616c6964000000600082015250565b60006128ff601d83612753565b915061290a826128c9565b602082019050919050565b6000602082019050818103600083015261292e816128f2565b9050919050565b6000612940826122e6565b61294a8185612753565b935061295a818560208601612302565b61296381612030565b840191505092915050565b60006060820190506129836000830186612540565b81810360208301526129958185612935565b90506129a4604083018461229e565b949350505050565b6000815190506129bb81611f6f565b92915050565b6000602082840312156129d7576129d6611f5b565b5b60006129e5848285016129ac565b91505092915050565b6000604082019050612a036000830185612540565b612a106020830184612516565b9392505050565b600080fd5b600080fd5b6000612a34612a2f846120bc565b6120a1565b905082815260208101848484011115612a5057612a4f61202b565b5b612a5b848285612302565b509392505050565b600082601f830112612a7857612a77612026565b5b8151612a88848260208601612a21565b91505092915050565b600081519050612aa08161216c565b92915050565b60006101208284031215612abd57612abc612a17565b5b612ac86101206120a1565b90506000612ad8848285016129ac565b6000830152506020612aec84828501612845565b602083015250604082015167ffffffffffffffff811115612b1057612b0f612a1c565b5b612b1c84828501612a63565b6040830152506060612b3084828501612a91565b6060830152506080612b4484828501612887565b60808301525060a0612b5884828501612887565b60a08301525060c0612b6c848285016129ac565b60c08301525060e0612b80848285016129ac565b60e083015250610100612b95848285016129ac565b6101008301525092915050565b600060208284031215612bb857612bb7611f5b565b5b600082015167ffffffffffffffff811115612bd657612bd5611f60565b5b612be284828501612aa6565b91505092915050565b600060208284031215612c0157612c00611f5b565b5b6000612c0f84828501612a91565b91505092915050565b600067ffffffffffffffff821115612c3357612c32612041565b5b602082029050602081019050919050565b600080fd5b6000612c5c612c5784612c18565b6120a1565b90508083825260208201905060208402830185811115612c7f57612c7e612c44565b5b835b81811015612cc657805167ffffffffffffffff811115612ca457612ca3612026565b5b808601612cb18982612aa6565b85526020850194505050602081019050612c81565b5050509392505050565b600082601f830112612ce557612ce4612026565b5b8151612cf5848260208601612c49565b91505092915050565b600060208284031215612d1457612d13611f5b565b5b600082015167ffffffffffffffff811115612d3257612d31611f60565b5b612d3e84828501612cd0565b91505092915050565b7f4f6e6c79206f776e696e6720636861726974792063616e20706572666f726d2060008201527f7468697320616374696f6e210000000000000000000000000000000000000000602082015250565b6000612da3602c83612753565b9150612dae82612d47565b604082019050919050565b60006020820190508181036000830152612dd281612d96565b9050919050565b7f57616c6c6574206973206c6f636b656420616e6420746f6b656e732063616e6e60008201527f6f742062652077697468647261776e0000000000000000000000000000000000602082015250565b6000612e35602f83612753565b9150612e4082612dd9565b604082019050919050565b60006020820190508181036000830152612e6481612e28565b9050919050565b7f436f6e74726163742073746f7070656421000000000000000000000000000000600082015250565b6000612ea1601183612753565b9150612eac82612e6b565b602082019050919050565b60006020820190508181036000830152612ed081612e94565b9050919050565b7f596f7520646f6e2774206861766520656e6f75676820746f6b656e7300000000600082015250565b6000612f0d601c83612753565b9150612f1882612ed7565b602082019050919050565b60006020820190508181036000830152612f3c81612f00565b9050919050565b7f4e487b7100000000000000000000000000000000000000000000000000000000600052601260045260246000fd5b7f4e487b7100000000000000000000000000000000000000000000000000000000600052601160045260246000fd5b6000612fac82611f65565b9150612fb783611f65565b925082612fc757612fc6612f43565b5b828204905092915050565b6000612fdd82611f65565b9150612fe883611f65565b9250828202612ff681611f65565b9150828204841483151761300d5761300c612f72565b5b5092915050565b60006040820190506130296000830185612516565b6130366020830184612516565b939250505056fea2646970667358221220b23c600d1314bf3869081a25f1a92e4edc477f091cd57928e46289a053c4facc64736f6c63430008110033",
  "immutableReferences": {},
  "source": "// SPDX-License-Identifier: MIT\npragma solidity ^0.8.0;\nimport \"./CharityStorage.sol\";\nimport \"./CharityToken.sol\";\n\ncontract Charity {\n    address public owner;\n    bool public contractStopped;\n    CharityStorage charityStorage;\n    CharityToken charityTokenContract;\n\n    event charityVerified(address charity, uint256 charityId);\n    event charitytDeactivated(address charity);\n    event charityActivated(address charity);\n    event withdrawCredits(address charity);\n    event charityWalletLocked(address charity);\n    event charityWalletUnlocked(address charity);\n\n    constructor(\n        CharityStorage charityAddress,\n        CharityToken charityTokenAddress\n    ) {\n        owner = msg.sender;\n        charityStorage = charityAddress;\n        charityTokenContract = charityTokenAddress;\n    }\n\n    modifier ownerOnly() {\n        require(\n            msg.sender == owner || tx.origin == owner,\n            \"Only the owner of this contract is allowed to perform this operation\"\n        );\n        _;\n    }\n\n    modifier isValidCharity(uint256 charityId) {\n        require(\n            charityStorage.getCharityActive(charityId),\n            \"Charity ID given is not valid\"\n        );\n        _;\n    }\n\n    modifier owningCharityOnly(uint256 charityId) {\n        require(\n            isOwnerOfCharity(charityId, msg.sender),\n            \"Only owning charity can perform this action!\"\n        );\n        _;\n    }\n\n    modifier walletNotLocked(uint256 charityId) {\n        require(\n            !charityStorage.getCharityWalletLocked(charityId),\n            \"Wallet is locked and tokens cannot be withdrawn\"\n        );\n        _;\n    }\n\n    modifier haltInEmergency() {\n        require(!contractStopped, \"Contract stopped!\");\n        _;\n    }\n\n    function toggleContractStopped() public ownerOnly {\n        contractStopped = !contractStopped;\n    }\n\n    function verifyCharity(\n        address charityOwner,\n        string memory name,\n        CharityStorage.charityCategory category\n    ) public ownerOnly {\n        uint256 charityId = charityStorage.addCharity(\n            charityOwner,\n            name,\n            category\n        );\n        emit charityVerified(charityOwner, charityId);\n    }\n\n    function deactivateCharity(uint256 charityId) public ownerOnly {\n        charityStorage.setCharityActive(charityId, false);\n        emit charitytDeactivated(charityStorage.getCharityOwner(charityId));\n    }\n\n    function activateCharity(uint256 charityId) public ownerOnly {\n        charityStorage.setCharityActive(charityId, true);\n        emit charityActivated(charityStorage.getCharityOwner(charityId));\n    }\n\n    function checkTokenBalance(\n        uint256 charityId\n    ) public view owningCharityOnly(charityId) returns (uint256) {\n        return charityTokenContract.checkBalance(msg.sender);\n    }\n\n    function withdrawTokens(\n        uint256 charityId,\n        uint256 numTokens\n    )\n        public\n        isValidCharity(charityId)\n        owningCharityOnly(charityId)\n        walletNotLocked(charityId)\n        haltInEmergency\n    {\n        uint256 charityTokensBalance = checkTokenBalance(charityId);\n        require(\n            numTokens <= charityTokensBalance,\n            \"You don't have enough tokens\"\n        );\n\n        uint256 etherAmt = numTokens / 100;\n        uint256 weiAmt = 1000000000000000000 * etherAmt;\n\n        payable(msg.sender).transfer(weiAmt);\n        charityTokenContract.transferTokens(address(this), numTokens); // transfer CT back to this contract address\n        emit withdrawCredits(msg.sender);\n    }\n\n    function lockWallet(\n        uint256 charityId\n    ) public ownerOnly isValidCharity(charityId) {\n        charityStorage.setCharityWalletLocked(charityId, true);\n        emit charityWalletLocked(charityStorage.getCharityOwner(charityId));\n    }\n\n    function unlockWallet(\n        uint256 charityId\n    ) public ownerOnly isValidCharity(charityId) {\n        charityStorage.setCharityWalletLocked(charityId, false);\n        emit charityWalletUnlocked(charityStorage.getCharityOwner(charityId));\n    }\n\n    function isWalletLocked(uint256 charityId) public view returns (bool) {\n        return charityStorage.getCharityById(charityId).isWalletLocked;\n    }\n\n    function getCharityOwner(uint256 charityId) public view returns (address) {\n        return charityStorage.getCharityOwner(charityId);\n    }\n\n    function isOwnerOfCharity(\n        uint256 charityId,\n        address charityOwner\n    ) public view returns (bool) {\n        return charityStorage.getCharityOwner(charityId) == charityOwner;\n    }\n\n    function isCharityActive(uint256 charityId) public view returns (bool) {\n        return charityStorage.getCharityActive(charityId);\n    }\n\n    function getAllCharities()\n        public\n        view\n        returns (CharityStorage.charity[] memory)\n    {\n        return charityStorage.getAllCharities();\n    }\n\n    function getCharityDetails(\n        uint256 charityId\n    ) public view returns (CharityStorage.charity memory) {\n        return charityStorage.getCharityById(charityId);\n    }\n\n    function getCategoryByCharity(\n        uint256 charityId\n    ) public view returns (CharityStorage.charityCategory) {\n        return charityStorage.getCategoryByCharityId(charityId);\n    }\n\n    function setCharityAverageTimeTakenToVerify(\n        uint256 charityId,\n        uint256 timeTakenToVerify\n    ) public {\n        charityStorage.setCharityAverageTimeTakenToVerify(\n            charityId,\n            timeTakenToVerify\n        );\n    }\n\n    function incrementOrDecrementNumVerifiedTransaction(\n        uint256 charityId,\n        bool isIncrement\n    ) public {\n        charityStorage.incrementOrDecrementNumVerifiedTransaction(\n            charityId,\n            isIncrement\n        );\n    }\n\n    function incrementOrDecrementNumUnverifiedTransaction(\n        uint256 charityId,\n        bool isIncrement\n    ) public {\n        charityStorage.incrementOrDecrementNumUnverifiedTransaction(\n            charityId,\n            isIncrement\n        );\n    }\n\n    function getNumVerifiedTransactions(\n        uint256 charityId\n    ) public view returns (uint256) {\n        return charityStorage.getNumVerifiedTransactions(charityId);\n    }\n\n    function getNumUnverifiedTransactions(\n        uint256 charityId\n    ) public view returns (uint256) {\n        return charityStorage.getNumUnverifiedTransactions(charityId);\n    }\n}\n",
  "sourcePath": "/Users/danielonges/Desktop/coding/blockchain-charity/contracts/Charity.sol",
  "compiler": {
    "name": "solc",
    "version": "0.8.17+commit.8df45f5f.Emscripten.clang"
  },
  "schemaVersion": "3.4.11",
  "updatedAt": "2023-04-07T10:35:22.041Z",
  "networkType": "ethereum",
  "devdoc": {
    "kind": "dev",
    "methods": {},
    "version": 1
  },
  "userdoc": {
    "kind": "user",
    "methods": {},
    "version": 1
  }
}