{
  "contractName": "Donor",
  "abi": [
    {
      "inputs": [
        {
          "internalType": "contract DonorStorage",
          "name": "donorAddress",
          "type": "address"
        },
        {
          "internalType": "contract CharityToken",
          "name": "token",
          "type": "address"
        }
      ],
      "stateMutability": "nonpayable",
      "type": "constructor"
    },
    {
      "anonymous": false,
      "inputs": [
        {
          "indexed": false,
          "internalType": "address",
          "name": "donor",
          "type": "address"
        }
      ],
      "name": "buyCredits",
      "type": "event"
    },
    {
      "anonymous": false,
      "inputs": [
        {
          "indexed": false,
          "internalType": "address",
          "name": "donor",
          "type": "address"
        }
      ],
      "name": "donorActivated",
      "type": "event"
    },
    {
      "anonymous": false,
      "inputs": [
        {
          "indexed": false,
          "internalType": "address",
          "name": "donor",
          "type": "address"
        }
      ],
      "name": "donorDeactivated",
      "type": "event"
    },
    {
      "anonymous": false,
      "inputs": [
        {
          "indexed": false,
          "internalType": "address",
          "name": "donor",
          "type": "address"
        }
      ],
      "name": "donorVerified",
      "type": "event"
    },
    {
      "inputs": [],
      "name": "owner",
      "outputs": [
        {
          "internalType": "address",
          "name": "",
          "type": "address"
        }
      ],
      "stateMutability": "view",
      "type": "function",
      "constant": true
    },
    {
      "inputs": [
        {
          "internalType": "address",
          "name": "addr",
          "type": "address"
        }
      ],
      "name": "isValidDonor",
      "outputs": [
        {
          "internalType": "bool",
          "name": "",
          "type": "bool"
        }
      ],
      "stateMutability": "view",
      "type": "function",
      "constant": true
    },
    {
      "inputs": [
        {
          "internalType": "address",
          "name": "donorAddr",
          "type": "address"
        }
      ],
      "name": "verifyDonor",
      "outputs": [],
      "stateMutability": "nonpayable",
      "type": "function"
    },
    {
      "inputs": [
        {
          "internalType": "uint256",
          "name": "donorId",
          "type": "uint256"
        }
      ],
      "name": "deactivateDonor",
      "outputs": [],
      "stateMutability": "nonpayable",
      "type": "function"
    },
    {
      "inputs": [
        {
          "internalType": "uint256",
          "name": "donorId",
          "type": "uint256"
        }
      ],
      "name": "activateCharity",
      "outputs": [],
      "stateMutability": "nonpayable",
      "type": "function"
    },
    {
      "inputs": [],
      "name": "checkTokenBalance",
      "outputs": [
        {
          "internalType": "uint256",
          "name": "",
          "type": "uint256"
        }
      ],
      "stateMutability": "view",
      "type": "function",
      "constant": true
    },
    {
      "inputs": [
        {
          "internalType": "uint256",
          "name": "numTokens",
          "type": "uint256"
        }
      ],
      "name": "withdrawTokens",
      "outputs": [],
      "stateMutability": "nonpayable",
      "type": "function"
    },
    {
      "inputs": [],
      "name": "getTokens",
      "outputs": [],
      "stateMutability": "payable",
      "type": "function",
      "payable": true
    }
  ],
  "bytecode": "0x60806040523480156200001157600080fd5b5060405162001584380380620015848339818101604052810190620000379190620001c4565b336000806101000a81548173ffffffffffffffffffffffffffffffffffffffff021916908373ffffffffffffffffffffffffffffffffffffffff16021790555081600160006101000a81548173ffffffffffffffffffffffffffffffffffffffff021916908373ffffffffffffffffffffffffffffffffffffffff16021790555080600260006101000a81548173ffffffffffffffffffffffffffffffffffffffff021916908373ffffffffffffffffffffffffffffffffffffffff16021790555050506200020b565b600080fd5b600073ffffffffffffffffffffffffffffffffffffffff82169050919050565b6000620001338262000106565b9050919050565b6000620001478262000126565b9050919050565b62000159816200013a565b81146200016557600080fd5b50565b60008151905062000179816200014e565b92915050565b60006200018c8262000126565b9050919050565b6200019e816200017f565b8114620001aa57600080fd5b50565b600081519050620001be8162000193565b92915050565b60008060408385031215620001de57620001dd62000101565b5b6000620001ee8582860162000168565b92505060206200020185828601620001ad565b9150509250929050565b611369806200021b6000396000f3fe60806040526004361061007b5760003560e01c80638b24db1a1161004e5780638b24db1a146101265780638da5cb5b14610163578063aa6ca8081461018e578063f7530df5146101985761007b565b8063213ef5e714610080578063315a095d146100a95780634f731087146100d2578063506af7e2146100fd575b600080fd5b34801561008c57600080fd5b506100a760048036038101906100a29190610dbe565b6101c1565b005b3480156100b557600080fd5b506100d060048036038101906100cb9190610dbe565b6103b4565b005b3480156100de57600080fd5b506100e76105e3565b6040516100f49190610dfa565b60405180910390f35b34801561010957600080fd5b50610124600480360381019061011f9190610e73565b610761565b005b34801561013257600080fd5b5061014d60048036038101906101489190610e73565b6108c8565b60405161015a9190610ebb565b60405180910390f35b34801561016f57600080fd5b5061017861096d565b6040516101859190610ee5565b60405180910390f35b610196610991565b005b3480156101a457600080fd5b506101bf60048036038101906101ba9190610dbe565b610b90565b005b60008054906101000a900473ffffffffffffffffffffffffffffffffffffffff1673ffffffffffffffffffffffffffffffffffffffff163373ffffffffffffffffffffffffffffffffffffffff161461024f576040517f08c379a000000000000000000000000000000000000000000000000000000000815260040161024690610fa9565b60405180910390fd5b600160009054906101000a900473ffffffffffffffffffffffffffffffffffffffff1673ffffffffffffffffffffffffffffffffffffffff1663a726cab48260016040518363ffffffff1660e01b81526004016102ad929190610fc9565b600060405180830381600087803b1580156102c757600080fd5b505af11580156102db573d6000803e3d6000fd5b505050507f49dbb244af8b346501cf876b2683351daae055de2a23aba1c5bc98410a7eec7c600160009054906101000a900473ffffffffffffffffffffffffffffffffffffffff1673ffffffffffffffffffffffffffffffffffffffff1663a52891b3836040518263ffffffff1660e01b815260040161035b9190610dfa565b602060405180830381865afa158015610378573d6000803e3d6000fd5b505050506040513d601f19601f8201168201806040525081019061039c9190611007565b6040516103a99190610ee5565b60405180910390a150565b600160009054906101000a900473ffffffffffffffffffffffffffffffffffffffff1673ffffffffffffffffffffffffffffffffffffffff16638b24db1a336040518263ffffffff1660e01b815260040161040f9190610ee5565b602060405180830381865afa15801561042c573d6000803e3d6000fd5b505050506040513d601f19601f820116820180604052508101906104509190611060565b61048f576040517f08c379a0000000000000000000000000000000000000000000000000000000008152600401610486906110d9565b60405180910390fd5b60006104996105e3565b9050808211156104de576040517f08c379a00000000000000000000000000000000000000000000000000000000081526004016104d590611145565b60405180910390fd5b60006064836104ed91906111c3565b9050600081670de0b6b3a764000061050591906111f4565b90503373ffffffffffffffffffffffffffffffffffffffff166108fc829081150290604051600060405180830381858888f1935050505015801561054d573d6000803e3d6000fd5b50600260009054906101000a900473ffffffffffffffffffffffffffffffffffffffff1673ffffffffffffffffffffffffffffffffffffffff1663bec3fa1730866040518363ffffffff1660e01b81526004016105ab929190611236565b600060405180830381600087803b1580156105c557600080fd5b505af11580156105d9573d6000803e3d6000fd5b5050505050505050565b6000600160009054906101000a900473ffffffffffffffffffffffffffffffffffffffff1673ffffffffffffffffffffffffffffffffffffffff16638b24db1a336040518263ffffffff1660e01b81526004016106409190610ee5565b602060405180830381865afa15801561065d573d6000803e3d6000fd5b505050506040513d601f19601f820116820180604052508101906106819190611060565b6106c0576040517f08c379a00000000000000000000000000000000000000000000000000000000081526004016106b7906110d9565b60405180910390fd5b600260009054906101000a900473ffffffffffffffffffffffffffffffffffffffff1673ffffffffffffffffffffffffffffffffffffffff16635f515226336040518263ffffffff1660e01b815260040161071b9190610ee5565b602060405180830381865afa158015610738573d6000803e3d6000fd5b505050506040513d601f19601f8201168201806040525081019061075c9190611274565b905090565b60008054906101000a900473ffffffffffffffffffffffffffffffffffffffff1673ffffffffffffffffffffffffffffffffffffffff163373ffffffffffffffffffffffffffffffffffffffff16146107ef576040517f08c379a00000000000000000000000000000000000000000000000000000000081526004016107e690610fa9565b60405180910390fd5b600160009054906101000a900473ffffffffffffffffffffffffffffffffffffffff1673ffffffffffffffffffffffffffffffffffffffff166325746834826040518263ffffffff1660e01b815260040161084a9190610ee5565b6020604051808303816000875af1158015610869573d6000803e3d6000fd5b505050506040513d601f19601f8201168201806040525081019061088d9190611274565b507f65ba7320482d40f526c4680522c80dbeea05eb62287240e29b2039f78ecedb37816040516108bd9190610ee5565b60405180910390a150565b6000600160009054906101000a900473ffffffffffffffffffffffffffffffffffffffff1673ffffffffffffffffffffffffffffffffffffffff16638b24db1a836040518263ffffffff1660e01b81526004016109259190610ee5565b602060405180830381865afa158015610942573d6000803e3d6000fd5b505050506040513d601f19601f820116820180604052508101906109669190611060565b9050919050565b60008054906101000a900473ffffffffffffffffffffffffffffffffffffffff1681565b600160009054906101000a900473ffffffffffffffffffffffffffffffffffffffff1673ffffffffffffffffffffffffffffffffffffffff16638b24db1a336040518263ffffffff1660e01b81526004016109ec9190610ee5565b602060405180830381865afa158015610a09573d6000803e3d6000fd5b505050506040513d601f19601f82011682018060405250810190610a2d9190611060565b610a6c576040517f08c379a0000000000000000000000000000000000000000000000000000000008152600401610a63906110d9565b60405180910390fd5b662386f26fc10000341015610ab6576040517f08c379a0000000000000000000000000000000000000000000000000000000008152600401610aad90611313565b60405180910390fd5b600260009054906101000a900473ffffffffffffffffffffffffffffffffffffffff1673ffffffffffffffffffffffffffffffffffffffff16632c512d6e33662386f26fc1000034610b0891906111c3565b6040518363ffffffff1660e01b8152600401610b25929190611236565b600060405180830381600087803b158015610b3f57600080fd5b505af1158015610b53573d6000803e3d6000fd5b505050507ff1716b4c6dd6f36373e9fba50735f30d1f1331effd36e669c0437aea633b9b9933604051610b869190610ee5565b60405180910390a1565b60008054906101000a900473ffffffffffffffffffffffffffffffffffffffff1673ffffffffffffffffffffffffffffffffffffffff163373ffffffffffffffffffffffffffffffffffffffff1614610c1e576040517f08c379a0000000000000000000000000000000000000000000000000000000008152600401610c1590610fa9565b60405180910390fd5b600160009054906101000a900473ffffffffffffffffffffffffffffffffffffffff1673ffffffffffffffffffffffffffffffffffffffff1663a726cab48260006040518363ffffffff1660e01b8152600401610c7c929190610fc9565b600060405180830381600087803b158015610c9657600080fd5b505af1158015610caa573d6000803e3d6000fd5b505050507f8b3cdb46bddbda2dc81918bffe9d203d3be16878fcbb7e7af1dc4e30be60f6de600160009054906101000a900473ffffffffffffffffffffffffffffffffffffffff1673ffffffffffffffffffffffffffffffffffffffff1663a52891b3836040518263ffffffff1660e01b8152600401610d2a9190610dfa565b602060405180830381865afa158015610d47573d6000803e3d6000fd5b505050506040513d601f19601f82011682018060405250810190610d6b9190611007565b604051610d789190610ee5565b60405180910390a150565b600080fd5b6000819050919050565b610d9b81610d88565b8114610da657600080fd5b50565b600081359050610db881610d92565b92915050565b600060208284031215610dd457610dd3610d83565b5b6000610de284828501610da9565b91505092915050565b610df481610d88565b82525050565b6000602082019050610e0f6000830184610deb565b92915050565b600073ffffffffffffffffffffffffffffffffffffffff82169050919050565b6000610e4082610e15565b9050919050565b610e5081610e35565b8114610e5b57600080fd5b50565b600081359050610e6d81610e47565b92915050565b600060208284031215610e8957610e88610d83565b5b6000610e9784828501610e5e565b91505092915050565b60008115159050919050565b610eb581610ea0565b82525050565b6000602082019050610ed06000830184610eac565b92915050565b610edf81610e35565b82525050565b6000602082019050610efa6000830184610ed6565b92915050565b600082825260208201905092915050565b7f4f6e6c7920746865206f776e6572206f66207468697320636f6e74726163742060008201527f697320616c6c6f77656420746f20706572666f726d2074686973206f7065726160208201527f74696f6e00000000000000000000000000000000000000000000000000000000604082015250565b6000610f93604483610f00565b9150610f9e82610f11565b606082019050919050565b60006020820190508181036000830152610fc281610f86565b9050919050565b6000604082019050610fde6000830185610deb565b610feb6020830184610eac565b9392505050565b60008151905061100181610e47565b92915050565b60006020828403121561101d5761101c610d83565b5b600061102b84828501610ff2565b91505092915050565b61103d81610ea0565b811461104857600080fd5b50565b60008151905061105a81611034565b92915050565b60006020828403121561107657611075610d83565b5b60006110848482850161104b565b91505092915050565b7f446f6e6f722061646472657373206973206e6f742076616c6964000000000000600082015250565b60006110c3601a83610f00565b91506110ce8261108d565b602082019050919050565b600060208201905081810360008301526110f2816110b6565b9050919050565b7f596f7520646f6e2774206861766520656e6f75676820746f6b656e7300000000600082015250565b600061112f601c83610f00565b915061113a826110f9565b602082019050919050565b6000602082019050818103600083015261115e81611122565b9050919050565b7f4e487b7100000000000000000000000000000000000000000000000000000000600052601260045260246000fd5b7f4e487b7100000000000000000000000000000000000000000000000000000000600052601160045260246000fd5b60006111ce82610d88565b91506111d983610d88565b9250826111e9576111e8611165565b5b828204905092915050565b60006111ff82610d88565b915061120a83610d88565b925082820261121881610d88565b9150828204841483151761122f5761122e611194565b5b5092915050565b600060408201905061124b6000830185610ed6565b6112586020830184610deb565b9392505050565b60008151905061126e81610d92565b92915050565b60006020828403121561128a57611289610d83565b5b60006112988482850161125f565b91505092915050565b7f4174206c6561737420302e303145544820697320726571756972656420746f2060008201527f6765742043686172697479546f6b656e00000000000000000000000000000000602082015250565b60006112fd603083610f00565b9150611308826112a1565b604082019050919050565b6000602082019050818103600083015261132c816112f0565b905091905056fea264697066735822122062df1417cbe75b71e7a893ce8879c8b2d156ad800cb4ebfcdb7c2a33e18958fa64736f6c63430008110033",
  "immutableReferences": {},
  "source": "// SPDX-License-Identifier: MIT\npragma solidity ^0.8.0;\nimport \"./DonorStorage.sol\";\nimport \"./CharityToken.sol\";\n\ncontract Donor {\n    address public owner;\n    DonorStorage donorStorage;\n    CharityToken tokenContract;\n\n    event donorVerified(address donor);\n    event donorDeactivated(address donor);\n    event donorActivated(address donor);\n    event buyCredits(address donor);\n\n    constructor(DonorStorage donorAddress, CharityToken token) {\n        owner = msg.sender;\n        donorStorage = donorAddress;\n        tokenContract = token;\n    }\n\n    modifier ownerOnly() {\n        require(\n            msg.sender == owner,\n            \"Only the owner of this contract is allowed to perform this operation\"\n        );\n        _;\n    }\n\n    // modifier donorOnly(uint256 donorId) {\n    //     require(\n    //         donorStorage.getDonorAddr(donorId) == msg.sender,\n    //         \"Only the donor is allowed to perform this operation\"\n    //     );\n    //     _;\n    // }\n\n    modifier validDonor() {\n        require(\n            donorStorage.isValidDonor(msg.sender),\n            \"Donor address is not valid\"\n        );\n        _;\n    }\n\n    function isValidDonor(address addr) public view returns (bool) {\n        return donorStorage.isValidDonor(addr);\n    }\n\n    function verifyDonor(address donorAddr) public ownerOnly {\n        donorStorage.addDonor(donorAddr);\n        emit donorVerified(donorAddr);\n    }\n\n    function deactivateDonor(uint256 donorId) public ownerOnly {\n        donorStorage.setDonorActive(donorId, false);\n        emit donorDeactivated(donorStorage.getDonorAddr(donorId));\n    }\n\n    function activateCharity(uint256 donorId) public ownerOnly {\n        donorStorage.setDonorActive(donorId, true);\n        emit donorActivated(donorStorage.getDonorAddr(donorId));\n    }\n\n    function checkTokenBalance() public view validDonor returns (uint256) {\n        return tokenContract.checkBalance(msg.sender);\n    }\n\n    function withdrawTokens(uint256 numTokens) public validDonor {\n        uint256 tokenBalance = checkTokenBalance();\n        require(numTokens <= tokenBalance, \"You don't have enough tokens\");\n\n        uint256 etherAmt = numTokens / 100;\n        uint256 weiAmt = 1000000000000000000 * etherAmt;\n\n        payable(msg.sender).transfer(weiAmt);\n        tokenContract.transferTokens(address(this), numTokens);\n    }\n\n    function getTokens() public payable validDonor {\n        require(\n            msg.value >= 1E16,\n            \"At least 0.01ETH is required to get CharityToken\"\n        );\n        tokenContract.getTokens(msg.sender, msg.value / 1E16);\n        emit buyCredits(msg.sender);\n    }\n}\n",
  "sourcePath": "/Users/danielonges/Desktop/coding/blockchain-charity/contracts/Donor.sol",
  "compiler": {
    "name": "solc",
    "version": "0.8.17+commit.8df45f5f.Emscripten.clang"
  },
  "schemaVersion": "3.4.11",
  "updatedAt": "2023-03-24T10:43:55.376Z",
  "networkType": "ethereum",
  "devdoc": {
    "kind": "dev",
    "methods": {},
    "version": 1
  },
  "userdoc": {
    "kind": "user",
    "methods": {},
    "version": 1
  }
}