{
  "contractName": "Donor",
  "abi": [
    {
      "inputs": [
        {
          "internalType": "contract DonorStorage",
          "name": "donorAddress",
          "type": "address"
        },
        {
          "internalType": "contract CharityToken",
          "name": "token",
          "type": "address"
        }
      ],
      "stateMutability": "nonpayable",
      "type": "constructor"
    },
    {
      "anonymous": false,
      "inputs": [
        {
          "indexed": false,
          "internalType": "address",
          "name": "donor",
          "type": "address"
        }
      ],
      "name": "buyCredits",
      "type": "event"
    },
    {
      "anonymous": false,
      "inputs": [
        {
          "indexed": false,
          "internalType": "address",
          "name": "donor",
          "type": "address"
        }
      ],
      "name": "donorActivated",
      "type": "event"
    },
    {
      "anonymous": false,
      "inputs": [
        {
          "indexed": false,
          "internalType": "address",
          "name": "donor",
          "type": "address"
        }
      ],
      "name": "donorDeactivated",
      "type": "event"
    },
    {
      "anonymous": false,
      "inputs": [
        {
          "indexed": false,
          "internalType": "address",
          "name": "donor",
          "type": "address"
        }
      ],
      "name": "donorVerified",
      "type": "event"
    },
    {
      "anonymous": false,
      "inputs": [
        {
          "indexed": false,
          "internalType": "address",
          "name": "donor",
          "type": "address"
        }
      ],
      "name": "withdrawCredits",
      "type": "event"
    },
    {
      "inputs": [],
      "name": "owner",
      "outputs": [
        {
          "internalType": "address",
          "name": "",
          "type": "address"
        }
      ],
      "stateMutability": "view",
      "type": "function",
      "constant": true
    },
    {
      "inputs": [
        {
          "internalType": "address",
          "name": "addr",
          "type": "address"
        }
      ],
      "name": "isValidDonor",
      "outputs": [
        {
          "internalType": "bool",
          "name": "",
          "type": "bool"
        }
      ],
      "stateMutability": "view",
      "type": "function",
      "constant": true
    },
    {
      "inputs": [
        {
          "internalType": "address",
          "name": "donorAddr",
          "type": "address"
        }
      ],
      "name": "verifyDonor",
      "outputs": [],
      "stateMutability": "nonpayable",
      "type": "function"
    },
    {
      "inputs": [
        {
          "internalType": "uint256",
          "name": "donorId",
          "type": "uint256"
        }
      ],
      "name": "deactivateDonor",
      "outputs": [],
      "stateMutability": "nonpayable",
      "type": "function"
    },
    {
      "inputs": [
        {
          "internalType": "uint256",
          "name": "donorId",
          "type": "uint256"
        }
      ],
      "name": "activateDonor",
      "outputs": [],
      "stateMutability": "nonpayable",
      "type": "function"
    },
    {
      "inputs": [],
      "name": "checkTokenBalance",
      "outputs": [
        {
          "internalType": "uint256",
          "name": "",
          "type": "uint256"
        }
      ],
      "stateMutability": "view",
      "type": "function",
      "constant": true
    },
    {
      "inputs": [
        {
          "internalType": "uint256",
          "name": "numTokens",
          "type": "uint256"
        }
      ],
      "name": "withdrawTokens",
      "outputs": [],
      "stateMutability": "nonpayable",
      "type": "function"
    },
    {
      "inputs": [],
      "name": "getTokens",
      "outputs": [],
      "stateMutability": "payable",
      "type": "function",
      "payable": true
    }
  ],
  "bytecode": "0x60806040523480156200001157600080fd5b50604051620015a9380380620015a98339818101604052810190620000379190620001c4565b336000806101000a81548173ffffffffffffffffffffffffffffffffffffffff021916908373ffffffffffffffffffffffffffffffffffffffff16021790555081600160006101000a81548173ffffffffffffffffffffffffffffffffffffffff021916908373ffffffffffffffffffffffffffffffffffffffff16021790555080600260006101000a81548173ffffffffffffffffffffffffffffffffffffffff021916908373ffffffffffffffffffffffffffffffffffffffff16021790555050506200020b565b600080fd5b600073ffffffffffffffffffffffffffffffffffffffff82169050919050565b6000620001338262000106565b9050919050565b6000620001478262000126565b9050919050565b62000159816200013a565b81146200016557600080fd5b50565b60008151905062000179816200014e565b92915050565b60006200018c8262000126565b9050919050565b6200019e816200017f565b8114620001aa57600080fd5b50565b600081519050620001be8162000193565b92915050565b60008060408385031215620001de57620001dd62000101565b5b6000620001ee8582860162000168565b92505060206200020185828601620001ad565b9150509250929050565b61138e806200021b6000396000f3fe60806040526004361061007b5760003560e01c80638b24db1a1161004e5780638b24db1a146101265780638da5cb5b14610163578063aa6ca8081461018e578063f7530df5146101985761007b565b8063315a095d146100805780634f731087146100a9578063506af7e2146100d4578063853b4a47146100fd575b600080fd5b34801561008c57600080fd5b506100a760048036038101906100a29190610de3565b6101c1565b005b3480156100b557600080fd5b506100be610427565b6040516100cb9190610e1f565b60405180910390f35b3480156100e057600080fd5b506100fb60048036038101906100f69190610e98565b6105a5565b005b34801561010957600080fd5b50610124600480360381019061011f9190610de3565b61070c565b005b34801561013257600080fd5b5061014d60048036038101906101489190610e98565b6108ff565b60405161015a9190610ee0565b60405180910390f35b34801561016f57600080fd5b506101786109a4565b6040516101859190610f0a565b60405180910390f35b6101966109c8565b005b3480156101a457600080fd5b506101bf60048036038101906101ba9190610de3565b610bb5565b005b600160009054906101000a900473ffffffffffffffffffffffffffffffffffffffff1673ffffffffffffffffffffffffffffffffffffffff16638b24db1a336040518263ffffffff1660e01b815260040161021c9190610f0a565b602060405180830381865afa158015610239573d6000803e3d6000fd5b505050506040513d601f19601f8201168201806040525081019061025d9190610f51565b61029c576040517f08c379a000000000000000000000000000000000000000000000000000000000815260040161029390610fdb565b60405180910390fd5b60006102a6610427565b9050808211156102eb576040517f08c379a00000000000000000000000000000000000000000000000000000000081526004016102e290611047565b60405180910390fd5b60006064836102fa91906110c5565b9050600081670de0b6b3a764000061031291906110f6565b90503373ffffffffffffffffffffffffffffffffffffffff166108fc829081150290604051600060405180830381858888f1935050505015801561035a573d6000803e3d6000fd5b50600260009054906101000a900473ffffffffffffffffffffffffffffffffffffffff1673ffffffffffffffffffffffffffffffffffffffff1663bec3fa1730866040518363ffffffff1660e01b81526004016103b8929190611138565b600060405180830381600087803b1580156103d257600080fd5b505af11580156103e6573d6000803e3d6000fd5b505050507f87a78f7df6302725b7b44f64ed140f2b072832394391bf2b94c9bb5563e5bf08336040516104199190610f0a565b60405180910390a150505050565b6000600160009054906101000a900473ffffffffffffffffffffffffffffffffffffffff1673ffffffffffffffffffffffffffffffffffffffff16638b24db1a336040518263ffffffff1660e01b81526004016104849190610f0a565b602060405180830381865afa1580156104a1573d6000803e3d6000fd5b505050506040513d601f19601f820116820180604052508101906104c59190610f51565b610504576040517f08c379a00000000000000000000000000000000000000000000000000000000081526004016104fb90610fdb565b60405180910390fd5b600260009054906101000a900473ffffffffffffffffffffffffffffffffffffffff1673ffffffffffffffffffffffffffffffffffffffff16635f515226336040518263ffffffff1660e01b815260040161055f9190610f0a565b602060405180830381865afa15801561057c573d6000803e3d6000fd5b505050506040513d601f19601f820116820180604052508101906105a09190611176565b905090565b60008054906101000a900473ffffffffffffffffffffffffffffffffffffffff1673ffffffffffffffffffffffffffffffffffffffff163373ffffffffffffffffffffffffffffffffffffffff1614610633576040517f08c379a000000000000000000000000000000000000000000000000000000000815260040161062a9061123b565b60405180910390fd5b600160009054906101000a900473ffffffffffffffffffffffffffffffffffffffff1673ffffffffffffffffffffffffffffffffffffffff166325746834826040518263ffffffff1660e01b815260040161068e9190610f0a565b6020604051808303816000875af11580156106ad573d6000803e3d6000fd5b505050506040513d601f19601f820116820180604052508101906106d19190611176565b507f65ba7320482d40f526c4680522c80dbeea05eb62287240e29b2039f78ecedb37816040516107019190610f0a565b60405180910390a150565b60008054906101000a900473ffffffffffffffffffffffffffffffffffffffff1673ffffffffffffffffffffffffffffffffffffffff163373ffffffffffffffffffffffffffffffffffffffff161461079a576040517f08c379a00000000000000000000000000000000000000000000000000000000081526004016107919061123b565b60405180910390fd5b600160009054906101000a900473ffffffffffffffffffffffffffffffffffffffff1673ffffffffffffffffffffffffffffffffffffffff1663a726cab48260016040518363ffffffff1660e01b81526004016107f892919061125b565b600060405180830381600087803b15801561081257600080fd5b505af1158015610826573d6000803e3d6000fd5b505050507f49dbb244af8b346501cf876b2683351daae055de2a23aba1c5bc98410a7eec7c600160009054906101000a900473ffffffffffffffffffffffffffffffffffffffff1673ffffffffffffffffffffffffffffffffffffffff1663a52891b3836040518263ffffffff1660e01b81526004016108a69190610e1f565b602060405180830381865afa1580156108c3573d6000803e3d6000fd5b505050506040513d601f19601f820116820180604052508101906108e79190611299565b6040516108f49190610f0a565b60405180910390a150565b6000600160009054906101000a900473ffffffffffffffffffffffffffffffffffffffff1673ffffffffffffffffffffffffffffffffffffffff16638b24db1a836040518263ffffffff1660e01b815260040161095c9190610f0a565b602060405180830381865afa158015610979573d6000803e3d6000fd5b505050506040513d601f19601f8201168201806040525081019061099d9190610f51565b9050919050565b60008054906101000a900473ffffffffffffffffffffffffffffffffffffffff1681565b600160009054906101000a900473ffffffffffffffffffffffffffffffffffffffff1673ffffffffffffffffffffffffffffffffffffffff16638b24db1a336040518263ffffffff1660e01b8152600401610a239190610f0a565b602060405180830381865afa158015610a40573d6000803e3d6000fd5b505050506040513d601f19601f82011682018060405250810190610a649190610f51565b610aa3576040517f08c379a0000000000000000000000000000000000000000000000000000000008152600401610a9a90610fdb565b60405180910390fd5b662386f26fc10000341015610aed576040517f08c379a0000000000000000000000000000000000000000000000000000000008152600401610ae490611338565b60405180910390fd5b600260009054906101000a900473ffffffffffffffffffffffffffffffffffffffff1673ffffffffffffffffffffffffffffffffffffffff16632c512d6e33346040518363ffffffff1660e01b8152600401610b4a929190611138565b600060405180830381600087803b158015610b6457600080fd5b505af1158015610b78573d6000803e3d6000fd5b505050507ff1716b4c6dd6f36373e9fba50735f30d1f1331effd36e669c0437aea633b9b9933604051610bab9190610f0a565b60405180910390a1565b60008054906101000a900473ffffffffffffffffffffffffffffffffffffffff1673ffffffffffffffffffffffffffffffffffffffff163373ffffffffffffffffffffffffffffffffffffffff1614610c43576040517f08c379a0000000000000000000000000000000000000000000000000000000008152600401610c3a9061123b565b60405180910390fd5b600160009054906101000a900473ffffffffffffffffffffffffffffffffffffffff1673ffffffffffffffffffffffffffffffffffffffff1663a726cab48260006040518363ffffffff1660e01b8152600401610ca192919061125b565b600060405180830381600087803b158015610cbb57600080fd5b505af1158015610ccf573d6000803e3d6000fd5b505050507f8b3cdb46bddbda2dc81918bffe9d203d3be16878fcbb7e7af1dc4e30be60f6de600160009054906101000a900473ffffffffffffffffffffffffffffffffffffffff1673ffffffffffffffffffffffffffffffffffffffff1663a52891b3836040518263ffffffff1660e01b8152600401610d4f9190610e1f565b602060405180830381865afa158015610d6c573d6000803e3d6000fd5b505050506040513d601f19601f82011682018060405250810190610d909190611299565b604051610d9d9190610f0a565b60405180910390a150565b600080fd5b6000819050919050565b610dc081610dad565b8114610dcb57600080fd5b50565b600081359050610ddd81610db7565b92915050565b600060208284031215610df957610df8610da8565b5b6000610e0784828501610dce565b91505092915050565b610e1981610dad565b82525050565b6000602082019050610e346000830184610e10565b92915050565b600073ffffffffffffffffffffffffffffffffffffffff82169050919050565b6000610e6582610e3a565b9050919050565b610e7581610e5a565b8114610e8057600080fd5b50565b600081359050610e9281610e6c565b92915050565b600060208284031215610eae57610ead610da8565b5b6000610ebc84828501610e83565b91505092915050565b60008115159050919050565b610eda81610ec5565b82525050565b6000602082019050610ef56000830184610ed1565b92915050565b610f0481610e5a565b82525050565b6000602082019050610f1f6000830184610efb565b92915050565b610f2e81610ec5565b8114610f3957600080fd5b50565b600081519050610f4b81610f25565b92915050565b600060208284031215610f6757610f66610da8565b5b6000610f7584828501610f3c565b91505092915050565b600082825260208201905092915050565b7f446f6e6f722061646472657373206973206e6f742076616c6964000000000000600082015250565b6000610fc5601a83610f7e565b9150610fd082610f8f565b602082019050919050565b60006020820190508181036000830152610ff481610fb8565b9050919050565b7f596f7520646f6e2774206861766520656e6f75676820746f6b656e7300000000600082015250565b6000611031601c83610f7e565b915061103c82610ffb565b602082019050919050565b6000602082019050818103600083015261106081611024565b9050919050565b7f4e487b7100000000000000000000000000000000000000000000000000000000600052601260045260246000fd5b7f4e487b7100000000000000000000000000000000000000000000000000000000600052601160045260246000fd5b60006110d082610dad565b91506110db83610dad565b9250826110eb576110ea611067565b5b828204905092915050565b600061110182610dad565b915061110c83610dad565b925082820261111a81610dad565b9150828204841483151761113157611130611096565b5b5092915050565b600060408201905061114d6000830185610efb565b61115a6020830184610e10565b9392505050565b60008151905061117081610db7565b92915050565b60006020828403121561118c5761118b610da8565b5b600061119a84828501611161565b91505092915050565b7f4f6e6c7920746865206f776e6572206f66207468697320636f6e74726163742060008201527f697320616c6c6f77656420746f20706572666f726d2074686973206f7065726160208201527f74696f6e00000000000000000000000000000000000000000000000000000000604082015250565b6000611225604483610f7e565b9150611230826111a3565b606082019050919050565b6000602082019050818103600083015261125481611218565b9050919050565b60006040820190506112706000830185610e10565b61127d6020830184610ed1565b9392505050565b60008151905061129381610e6c565b92915050565b6000602082840312156112af576112ae610da8565b5b60006112bd84828501611284565b91505092915050565b7f4174206c6561737420302e303145544820697320726571756972656420746f2060008201527f6765742043686172697479546f6b656e00000000000000000000000000000000602082015250565b6000611322603083610f7e565b915061132d826112c6565b604082019050919050565b6000602082019050818103600083015261135181611315565b905091905056fea26469706673582212204b2c86db61fa13f97a096656ddea4f27cbbdd657c07ed3140d7e31631400338264736f6c63430008110033",
  "immutableReferences": {},
  "source": "// SPDX-License-Identifier: MIT\npragma solidity ^0.8.0;\nimport \"./DonorStorage.sol\";\nimport \"./CharityToken.sol\";\n\ncontract Donor {\n    address public owner;\n    DonorStorage donorStorage;\n    CharityToken tokenContract;\n\n    event donorVerified(address donor);\n    event donorDeactivated(address donor);\n    event donorActivated(address donor);\n    event buyCredits(address donor);\n    event withdrawCredits(address donor);\n\n    constructor(DonorStorage donorAddress, CharityToken token) {\n        owner = msg.sender;\n        donorStorage = donorAddress;\n        tokenContract = token;\n    }\n\n    modifier ownerOnly() {\n        require(\n            msg.sender == owner,\n            \"Only the owner of this contract is allowed to perform this operation\"\n        );\n        _;\n    }\n\n    // modifier donorOnly(uint256 donorId) {\n    //     require(\n    //         donorStorage.getDonorAddr(donorId) == msg.sender,\n    //         \"Only the donor is allowed to perform this operation\"\n    //     );\n    //     _;\n    // }\n\n    modifier validDonor() {\n        require(\n            donorStorage.isValidDonor(msg.sender),\n            \"Donor address is not valid\"\n        );\n        _;\n    }\n\n    function isValidDonor(address addr) public view returns (bool) {\n        return donorStorage.isValidDonor(addr);\n    }\n\n    function verifyDonor(address donorAddr) public ownerOnly {\n        donorStorage.addDonor(donorAddr);\n        emit donorVerified(donorAddr);\n    }\n\n    function deactivateDonor(uint256 donorId) public ownerOnly {\n        donorStorage.setDonorActive(donorId, false);\n        emit donorDeactivated(donorStorage.getDonorAddr(donorId));\n    }\n\n    function activateDonor(uint256 donorId) public ownerOnly {\n        donorStorage.setDonorActive(donorId, true);\n        emit donorActivated(donorStorage.getDonorAddr(donorId));\n    }\n\n    function checkTokenBalance() public view validDonor returns (uint256) {\n        return tokenContract.checkBalance(msg.sender);\n    }\n\n    function withdrawTokens(uint256 numTokens) public validDonor {\n        uint256 tokenBalance = checkTokenBalance();\n        require(numTokens <= tokenBalance, \"You don't have enough tokens\");\n\n        uint256 etherAmt = numTokens / 100;\n        uint256 weiAmt = 1000000000000000000 * etherAmt;\n\n        payable(msg.sender).transfer(weiAmt);\n        tokenContract.transferTokens(address(this), numTokens);\n        emit withdrawCredits(msg.sender);\n    }\n\n    function getTokens() public payable validDonor {\n        require(\n            msg.value >= 1E16,\n            \"At least 0.01ETH is required to get CharityToken\"\n        );\n        tokenContract.getTokens(msg.sender, msg.value);\n        emit buyCredits(msg.sender);\n    }\n}\n",
  "sourcePath": "/Users/danielonges/Desktop/coding/blockchain-charity/contracts/Donor.sol",
  "compiler": {
    "name": "solc",
    "version": "0.8.17+commit.8df45f5f.Emscripten.clang"
  },
  "schemaVersion": "3.4.11",
  "updatedAt": "2023-04-04T10:45:19.428Z",
  "networkType": "ethereum",
  "devdoc": {
    "kind": "dev",
    "methods": {},
    "version": 1
  },
  "userdoc": {
    "kind": "user",
    "methods": {},
    "version": 1
  }
}