{
  "contractName": "DonorStorage",
  "abi": [
    {
      "inputs": [],
      "name": "owner",
      "outputs": [
        {
          "internalType": "address",
          "name": "",
          "type": "address"
        }
      ],
      "stateMutability": "view",
      "type": "function",
      "constant": true
    },
    {
      "inputs": [
        {
          "internalType": "address",
          "name": "donorAddr",
          "type": "address"
        }
      ],
      "name": "addDonor",
      "outputs": [
        {
          "internalType": "uint256",
          "name": "",
          "type": "uint256"
        }
      ],
      "stateMutability": "nonpayable",
      "type": "function"
    },
    {
      "inputs": [
        {
          "internalType": "uint256",
          "name": "id",
          "type": "uint256"
        }
      ],
      "name": "getDonorActive",
      "outputs": [
        {
          "internalType": "bool",
          "name": "",
          "type": "bool"
        }
      ],
      "stateMutability": "view",
      "type": "function",
      "constant": true
    },
    {
      "inputs": [
        {
          "internalType": "uint256",
          "name": "id",
          "type": "uint256"
        },
        {
          "internalType": "bool",
          "name": "active",
          "type": "bool"
        }
      ],
      "name": "setDonorActive",
      "outputs": [],
      "stateMutability": "nonpayable",
      "type": "function"
    },
    {
      "inputs": [],
      "name": "getNumDonors",
      "outputs": [
        {
          "internalType": "uint256",
          "name": "",
          "type": "uint256"
        }
      ],
      "stateMutability": "view",
      "type": "function",
      "constant": true
    },
    {
      "inputs": [],
      "name": "getAllDonors",
      "outputs": [
        {
          "components": [
            {
              "internalType": "uint256",
              "name": "id",
              "type": "uint256"
            },
            {
              "internalType": "address",
              "name": "donorAddr",
              "type": "address"
            },
            {
              "internalType": "bool",
              "name": "isActive",
              "type": "bool"
            }
          ],
          "internalType": "struct DonorStorage.donor[]",
          "name": "",
          "type": "tuple[]"
        }
      ],
      "stateMutability": "view",
      "type": "function",
      "constant": true
    },
    {
      "inputs": [
        {
          "internalType": "uint256",
          "name": "id",
          "type": "uint256"
        }
      ],
      "name": "getDonorAddr",
      "outputs": [
        {
          "internalType": "address",
          "name": "",
          "type": "address"
        }
      ],
      "stateMutability": "view",
      "type": "function",
      "constant": true
    },
    {
      "inputs": [
        {
          "internalType": "address",
          "name": "addr",
          "type": "address"
        }
      ],
      "name": "isValidDonor",
      "outputs": [
        {
          "internalType": "bool",
          "name": "",
          "type": "bool"
        }
      ],
      "stateMutability": "view",
      "type": "function",
      "constant": true
    }
  ],
  "bytecode": "0x60806040526000805533600160006101000a81548173ffffffffffffffffffffffffffffffffffffffff021916908373ffffffffffffffffffffffffffffffffffffffff16021790555034801561005557600080fd5b50610bbd806100656000396000f3fe608060405234801561001057600080fd5b50600436106100885760003560e01c806398e36b041161005b57806398e36b041461013b578063a52891b314610159578063a726cab414610189578063b529af8d146101a557610088565b8063257468341461008d578063490ef07b146100bd5780638b24db1a146100ed5780638da5cb5b1461011d575b600080fd5b6100a760048036038101906100a29190610781565b6101c3565b6040516100b491906107c7565b60405180910390f35b6100d760048036038101906100d2919061080e565b610489565b6040516100e49190610856565b60405180910390f35b61010760048036038101906101029190610781565b6104b6565b6040516101149190610856565b60405180910390f35b61012561050f565b6040516101329190610880565b60405180910390f35b610143610535565b60405161015091906109b9565b60405180910390f35b610173600480360381019061016e919061080e565b61060f565b6040516101809190610880565b60405180910390f35b6101a3600480360381019061019e9190610a07565b61064f565b005b6101ad610711565b6040516101ba91906107c7565b60405180910390f35b6000600160009054906101000a900473ffffffffffffffffffffffffffffffffffffffff1673ffffffffffffffffffffffffffffffffffffffff163273ffffffffffffffffffffffffffffffffffffffff1614610255576040517f08c379a000000000000000000000000000000000000000000000000000000000815260040161024c90610af0565b60405180910390fd5b6000604051806060016040528060005481526020018473ffffffffffffffffffffffffffffffffffffffff1681526020016001151581525090508060026000805481526020019081526020016000206000820151816000015560208201518160010160006101000a81548173ffffffffffffffffffffffffffffffffffffffff021916908373ffffffffffffffffffffffffffffffffffffffff16021790555060408201518160010160146101000a81548160ff02191690831515021790555090505080600360008573ffffffffffffffffffffffffffffffffffffffff1673ffffffffffffffffffffffffffffffffffffffff1681526020019081526020016000206000820151816000015560208201518160010160006101000a81548173ffffffffffffffffffffffffffffffffffffffff021916908373ffffffffffffffffffffffffffffffffffffffff16021790555060408201518160010160146101000a81548160ff02191690831515021790555090505060048190806001815401808255809150506001900390600052602060002090600202016000909190919091506000820151816000015560208201518160010160006101000a81548173ffffffffffffffffffffffffffffffffffffffff021916908373ffffffffffffffffffffffffffffffffffffffff16021790555060408201518160010160146101000a81548160ff021916908315150217905550505060008081548092919061047d90610b3f565b91905055915050919050565b60006002600083815260200190815260200160002060010160149054906101000a900460ff169050919050565b6000600360008373ffffffffffffffffffffffffffffffffffffffff1673ffffffffffffffffffffffffffffffffffffffff16815260200190815260200160002060010160149054906101000a900460ff169050919050565b600160009054906101000a900473ffffffffffffffffffffffffffffffffffffffff1681565b60606004805480602002602001604051908101604052809291908181526020016000905b828210156106065783829060005260206000209060020201604051806060016040529081600082015481526020016001820160009054906101000a900473ffffffffffffffffffffffffffffffffffffffff1673ffffffffffffffffffffffffffffffffffffffff1673ffffffffffffffffffffffffffffffffffffffff1681526020016001820160149054906101000a900460ff16151515158152505081526020019060010190610559565b50505050905090565b60006002600083815260200190815260200160002060010160009054906101000a900473ffffffffffffffffffffffffffffffffffffffff169050919050565b600160009054906101000a900473ffffffffffffffffffffffffffffffffffffffff1673ffffffffffffffffffffffffffffffffffffffff163273ffffffffffffffffffffffffffffffffffffffff16146106df576040517f08c379a00000000000000000000000000000000000000000000000000000000081526004016106d690610af0565b60405180910390fd5b806002600084815260200190815260200160002060010160146101000a81548160ff0219169083151502179055505050565b6000600480549050905090565b600080fd5b600073ffffffffffffffffffffffffffffffffffffffff82169050919050565b600061074e82610723565b9050919050565b61075e81610743565b811461076957600080fd5b50565b60008135905061077b81610755565b92915050565b6000602082840312156107975761079661071e565b5b60006107a58482850161076c565b91505092915050565b6000819050919050565b6107c1816107ae565b82525050565b60006020820190506107dc60008301846107b8565b92915050565b6107eb816107ae565b81146107f657600080fd5b50565b600081359050610808816107e2565b92915050565b6000602082840312156108245761082361071e565b5b6000610832848285016107f9565b91505092915050565b60008115159050919050565b6108508161083b565b82525050565b600060208201905061086b6000830184610847565b92915050565b61087a81610743565b82525050565b60006020820190506108956000830184610871565b92915050565b600081519050919050565b600082825260208201905092915050565b6000819050602082019050919050565b6108d0816107ae565b82525050565b6108df81610743565b82525050565b6108ee8161083b565b82525050565b60608201600082015161090a60008501826108c7565b50602082015161091d60208501826108d6565b50604082015161093060408501826108e5565b50505050565b600061094283836108f4565b60608301905092915050565b6000602082019050919050565b60006109668261089b565b61097081856108a6565b935061097b836108b7565b8060005b838110156109ac5781516109938882610936565b975061099e8361094e565b92505060018101905061097f565b5085935050505092915050565b600060208201905081810360008301526109d3818461095b565b905092915050565b6109e48161083b565b81146109ef57600080fd5b50565b600081359050610a01816109db565b92915050565b60008060408385031215610a1e57610a1d61071e565b5b6000610a2c858286016107f9565b9250506020610a3d858286016109f2565b9150509250929050565b600082825260208201905092915050565b7f4f6e6c7920746865206f776e6572206f66207468697320636f6e74726163742060008201527f697320616c6c6f77656420746f20706572666f726d2074686973206f7065726160208201527f74696f6e00000000000000000000000000000000000000000000000000000000604082015250565b6000610ada604483610a47565b9150610ae582610a58565b606082019050919050565b60006020820190508181036000830152610b0981610acd565b9050919050565b7f4e487b7100000000000000000000000000000000000000000000000000000000600052601160045260246000fd5b6000610b4a826107ae565b91507fffffffffffffffffffffffffffffffffffffffffffffffffffffffffffffffff8203610b7c57610b7b610b10565b5b60018201905091905056fea264697066735822122080004485190e66ea9ba072eee823f1255e9369001981315c74376437a2a94c1664736f6c63430008110033",
  "immutableReferences": {},
  "source": "// SPDX-License-Identifier: MIT\npragma solidity ^0.8.0;\n\ncontract DonorStorage {\n    struct donor {\n        uint256 id;\n        address donorAddr;\n        bool isActive;\n    }\n\n    uint256 donorIdCtr = 0;\n    address public owner = msg.sender;\n    mapping(uint256 => donor) donorsById; // map donorId to donor\n    mapping(address => donor) donorsByAddr; // map donor's address to donor\n    donor[] allDonors;\n\n    modifier ownerOnly() {\n        require(\n            tx.origin == owner,\n            \"Only the owner of this contract is allowed to perform this operation\"\n        );\n        _;\n    }\n\n    function addDonor(address donorAddr) public ownerOnly returns (uint256) {\n        donor memory newDonor = donor(donorIdCtr, donorAddr, true);\n\n        donorsById[donorIdCtr] = newDonor;\n        donorsByAddr[donorAddr] = newDonor;\n        allDonors.push(newDonor);\n\n        return donorIdCtr++;\n    }\n\n    function getDonorActive(uint256 id) public view returns (bool) {\n        return donorsById[id].isActive;\n    }\n\n    function setDonorActive(uint256 id, bool active) public ownerOnly {\n        donorsById[id].isActive = active;\n    }\n\n    function getNumDonors() public view returns (uint256) {\n        return allDonors.length;\n    }\n\n    function getAllDonors() public view returns (donor[] memory) {\n        return allDonors;\n    }\n\n    function getDonorAddr(uint256 id) public view returns (address) {\n        return donorsById[id].donorAddr;\n    }\n\n    function isValidDonor(address addr) public view returns (bool) {\n        return donorsByAddr[addr].isActive;\n    }\n}\n",
  "sourcePath": "/Users/danielonges/Desktop/coding/blockchain-charity/contracts/DonorStorage.sol",
  "compiler": {
    "name": "solc",
    "version": "0.8.17+commit.8df45f5f.Emscripten.clang"
  },
  "schemaVersion": "3.4.11",
  "updatedAt": "2023-04-07T10:35:22.048Z",
  "networkType": "ethereum",
  "devdoc": {
    "kind": "dev",
    "methods": {},
    "version": 1
  },
  "userdoc": {
    "kind": "user",
    "methods": {},
    "version": 1
  }
}