{
  "contractName": "DonorStorage",
  "abi": [
    {
      "inputs": [],
      "name": "owner",
      "outputs": [
        {
          "internalType": "address",
          "name": "",
          "type": "address"
        }
      ],
      "stateMutability": "view",
      "type": "function"
    },
    {
      "inputs": [
        {
          "internalType": "address",
          "name": "donorAddr",
          "type": "address"
        }
      ],
      "name": "addDonor",
      "outputs": [
        {
          "internalType": "uint256",
          "name": "",
          "type": "uint256"
        }
      ],
      "stateMutability": "nonpayable",
      "type": "function"
    },
    {
      "inputs": [
        {
          "internalType": "uint256",
          "name": "id",
          "type": "uint256"
        }
      ],
      "name": "getDonorActive",
      "outputs": [
        {
          "internalType": "bool",
          "name": "",
          "type": "bool"
        }
      ],
      "stateMutability": "view",
      "type": "function"
    },
    {
      "inputs": [
        {
          "internalType": "uint256",
          "name": "id",
          "type": "uint256"
        },
        {
          "internalType": "bool",
          "name": "active",
          "type": "bool"
        }
      ],
      "name": "setDonorActive",
      "outputs": [],
      "stateMutability": "nonpayable",
      "type": "function"
    },
    {
      "inputs": [],
      "name": "getNumDonors",
      "outputs": [
        {
          "internalType": "uint256",
          "name": "",
          "type": "uint256"
        }
      ],
      "stateMutability": "view",
      "type": "function"
    },
    {
      "inputs": [],
      "name": "getAllDonors",
      "outputs": [
        {
          "components": [
            {
              "internalType": "uint256",
              "name": "id",
              "type": "uint256"
            },
            {
              "internalType": "address",
              "name": "donorAddr",
              "type": "address"
            },
            {
              "internalType": "bool",
              "name": "isActive",
              "type": "bool"
            }
          ],
          "internalType": "struct DonorStorage.donor[]",
          "name": "",
          "type": "tuple[]"
        }
      ],
      "stateMutability": "view",
      "type": "function"
    },
    {
      "inputs": [
        {
          "internalType": "uint256",
          "name": "id",
          "type": "uint256"
        }
      ],
      "name": "getDonorAddr",
      "outputs": [
        {
          "internalType": "address",
          "name": "",
          "type": "address"
        }
      ],
      "stateMutability": "view",
      "type": "function"
    },
    {
      "inputs": [
        {
          "internalType": "address",
          "name": "addr",
          "type": "address"
        }
      ],
      "name": "isValidDonor",
      "outputs": [
        {
          "internalType": "bool",
          "name": "",
          "type": "bool"
        }
      ],
      "stateMutability": "view",
      "type": "function"
    }
  ],
  "bytecode": "0x60806040526000805533600160006101000a81548173ffffffffffffffffffffffffffffffffffffffff021916908373ffffffffffffffffffffffffffffffffffffffff16021790555034801561005557600080fd5b50610b09806100656000396000f3fe608060405234801561001057600080fd5b50600436106100885760003560e01c806398e36b041161005b57806398e36b041461013b578063a52891b314610159578063a726cab414610189578063b529af8d146101a557610088565b8063257468341461008d578063490ef07b146100bd5780638b24db1a146100ed5780638da5cb5b1461011d575b600080fd5b6100a760048036038101906100a291906106cd565b6101c3565b6040516100b49190610713565b60405180910390f35b6100d760048036038101906100d2919061075a565b6103d5565b6040516100e491906107a2565b60405180910390f35b610107600480360381019061010291906106cd565b610402565b60405161011491906107a2565b60405180910390f35b61012561045b565b60405161013291906107cc565b60405180910390f35b610143610481565b6040516101509190610905565b60405180910390f35b610173600480360381019061016e919061075a565b61055b565b60405161018091906107cc565b60405180910390f35b6101a3600480360381019061019e9190610953565b61059b565b005b6101ad61065d565b6040516101ba9190610713565b60405180910390f35b6000600160009054906101000a900473ffffffffffffffffffffffffffffffffffffffff1673ffffffffffffffffffffffffffffffffffffffff163373ffffffffffffffffffffffffffffffffffffffff1614610255576040517f08c379a000000000000000000000000000000000000000000000000000000000815260040161024c90610a3c565b60405180910390fd5b6000604051806060016040528060005481526020018473ffffffffffffffffffffffffffffffffffffffff1681526020016001151581525090508060026000805481526020019081526020016000206000820151816000015560208201518160010160006101000a81548173ffffffffffffffffffffffffffffffffffffffff021916908373ffffffffffffffffffffffffffffffffffffffff16021790555060408201518160010160146101000a81548160ff02191690831515021790555090505060048190806001815401808255809150506001900390600052602060002090600202016000909190919091506000820151816000015560208201518160010160006101000a81548173ffffffffffffffffffffffffffffffffffffffff021916908373ffffffffffffffffffffffffffffffffffffffff16021790555060408201518160010160146101000a81548160ff02191690831515021790555050506000808154809291906103c990610a8b565b91905055915050919050565b60006002600083815260200190815260200160002060010160149054906101000a900460ff169050919050565b6000600360008373ffffffffffffffffffffffffffffffffffffffff1673ffffffffffffffffffffffffffffffffffffffff16815260200190815260200160002060010160149054906101000a900460ff169050919050565b600160009054906101000a900473ffffffffffffffffffffffffffffffffffffffff1681565b60606004805480602002602001604051908101604052809291908181526020016000905b828210156105525783829060005260206000209060020201604051806060016040529081600082015481526020016001820160009054906101000a900473ffffffffffffffffffffffffffffffffffffffff1673ffffffffffffffffffffffffffffffffffffffff1673ffffffffffffffffffffffffffffffffffffffff1681526020016001820160149054906101000a900460ff161515151581525050815260200190600101906104a5565b50505050905090565b60006002600083815260200190815260200160002060010160009054906101000a900473ffffffffffffffffffffffffffffffffffffffff169050919050565b600160009054906101000a900473ffffffffffffffffffffffffffffffffffffffff1673ffffffffffffffffffffffffffffffffffffffff163373ffffffffffffffffffffffffffffffffffffffff161461062b576040517f08c379a000000000000000000000000000000000000000000000000000000000815260040161062290610a3c565b60405180910390fd5b806002600084815260200190815260200160002060010160146101000a81548160ff0219169083151502179055505050565b6000600480549050905090565b600080fd5b600073ffffffffffffffffffffffffffffffffffffffff82169050919050565b600061069a8261066f565b9050919050565b6106aa8161068f565b81146106b557600080fd5b50565b6000813590506106c7816106a1565b92915050565b6000602082840312156106e3576106e261066a565b5b60006106f1848285016106b8565b91505092915050565b6000819050919050565b61070d816106fa565b82525050565b60006020820190506107286000830184610704565b92915050565b610737816106fa565b811461074257600080fd5b50565b6000813590506107548161072e565b92915050565b6000602082840312156107705761076f61066a565b5b600061077e84828501610745565b91505092915050565b60008115159050919050565b61079c81610787565b82525050565b60006020820190506107b76000830184610793565b92915050565b6107c68161068f565b82525050565b60006020820190506107e160008301846107bd565b92915050565b600081519050919050565b600082825260208201905092915050565b6000819050602082019050919050565b61081c816106fa565b82525050565b61082b8161068f565b82525050565b61083a81610787565b82525050565b6060820160008201516108566000850182610813565b5060208201516108696020850182610822565b50604082015161087c6040850182610831565b50505050565b600061088e8383610840565b60608301905092915050565b6000602082019050919050565b60006108b2826107e7565b6108bc81856107f2565b93506108c783610803565b8060005b838110156108f85781516108df8882610882565b97506108ea8361089a565b9250506001810190506108cb565b5085935050505092915050565b6000602082019050818103600083015261091f81846108a7565b905092915050565b61093081610787565b811461093b57600080fd5b50565b60008135905061094d81610927565b92915050565b6000806040838503121561096a5761096961066a565b5b600061097885828601610745565b92505060206109898582860161093e565b9150509250929050565b600082825260208201905092915050565b7f4f6e6c7920746865206f776e6572206f66207468697320636f6e74726163742060008201527f697320616c6c6f77656420746f20706572666f726d2074686973206f7065726160208201527f74696f6e00000000000000000000000000000000000000000000000000000000604082015250565b6000610a26604483610993565b9150610a31826109a4565b606082019050919050565b60006020820190508181036000830152610a5581610a19565b9050919050565b7f4e487b7100000000000000000000000000000000000000000000000000000000600052601160045260246000fd5b6000610a96826106fa565b91507fffffffffffffffffffffffffffffffffffffffffffffffffffffffffffffffff8203610ac857610ac7610a5c565b5b60018201905091905056fea2646970667358221220a32147f9cf866cfe6cc5a560508e40721dc686aaf2d7da00633bd15003f2320b64736f6c63430008110033",
  "immutableReferences": {},
  "source": "// SPDX-License-Identifier: MIT\npragma solidity ^0.8.0;\n\ncontract DonorStorage {\n    struct donor {\n        uint256 id;\n        address donorAddr;\n        bool isActive;\n    }\n\n    uint256 donorIdCtr = 0;\n    address public owner = msg.sender;\n    mapping(uint256 => donor) donorsById; // map donorId to donor\n    mapping(address => donor) donorsByAddr; // map donor's address to donor\n    donor[] allDonors;\n\n    modifier ownerOnly() {\n        require(\n            msg.sender == owner,\n            \"Only the owner of this contract is allowed to perform this operation\"\n        );\n        _;\n    }\n\n    function addDonor(address donorAddr) public ownerOnly returns (uint256) {\n        donor memory newDonor = donor(donorIdCtr, donorAddr, true);\n\n        donorsById[donorIdCtr] = newDonor;\n        allDonors.push(newDonor);\n\n        return donorIdCtr++;\n    }\n\n    function getDonorActive(uint256 id) public view returns (bool) {\n        return donorsById[id].isActive;\n    }\n\n    function setDonorActive(uint256 id, bool active) public ownerOnly {\n        donorsById[id].isActive = active;\n    }\n\n    function getNumDonors() public view returns (uint256) {\n        return allDonors.length;\n    }\n\n    function getAllDonors() public view returns (donor[] memory) {\n        return allDonors;\n    }\n\n    function getDonorAddr(uint256 id) public view returns (address) {\n        return donorsById[id].donorAddr;\n    }\n\n    function isValidDonor(address addr) public view returns (bool) {\n        return donorsByAddr[addr].isActive;\n    }\n}\n",
  "sourcePath": "/Users/danielonges/Desktop/coding/blockchain-charity/contracts/DonorStorage.sol",
  "compiler": {
    "name": "solc",
    "version": "0.8.17+commit.8df45f5f.Emscripten.clang"
  },
  "schemaVersion": "3.4.11",
  "updatedAt": "2023-03-24T07:33:42.809Z",
  "devdoc": {
    "kind": "dev",
    "methods": {},
    "version": 1
  },
  "userdoc": {
    "kind": "user",
    "methods": {},
    "version": 1
  }
}