{
  "contractName": "ProjectMarket",
  "abi": [
    {
      "inputs": [
        {
          "internalType": "contract ProjectMarketStorage",
          "name": "projectMarketAddress",
          "type": "address"
        },
        {
          "internalType": "contract CharityToken",
          "name": "tokenAddress",
          "type": "address"
        },
        {
          "internalType": "contract Charity",
          "name": "charityAddress",
          "type": "address"
        },
        {
          "internalType": "contract Donor",
          "name": "donorAddress",
          "type": "address"
        }
      ],
      "stateMutability": "nonpayable",
      "type": "constructor"
    },
    {
      "anonymous": false,
      "inputs": [
        {
          "indexed": false,
          "internalType": "uint256",
          "name": "projectId",
          "type": "uint256"
        },
        {
          "indexed": false,
          "internalType": "address",
          "name": "donor",
          "type": "address"
        }
      ],
      "name": "donationMade",
      "type": "event"
    },
    {
      "anonymous": false,
      "inputs": [
        {
          "indexed": false,
          "internalType": "uint256",
          "name": "charityId",
          "type": "uint256"
        },
        {
          "indexed": false,
          "internalType": "uint256",
          "name": "projectMarketId",
          "type": "uint256"
        }
      ],
      "name": "projectClosed",
      "type": "event"
    },
    {
      "anonymous": false,
      "inputs": [
        {
          "indexed": false,
          "internalType": "uint256",
          "name": "charityId",
          "type": "uint256"
        }
      ],
      "name": "projectListed",
      "type": "event"
    },
    {
      "anonymous": false,
      "inputs": [
        {
          "indexed": false,
          "internalType": "uint256",
          "name": "projectId",
          "type": "uint256"
        },
        {
          "indexed": false,
          "internalType": "uint256",
          "name": "amount",
          "type": "uint256"
        }
      ],
      "name": "proofSubmitted",
      "type": "event"
    },
    {
      "anonymous": false,
      "inputs": [
        {
          "indexed": false,
          "internalType": "uint256[]",
          "name": "donations",
          "type": "uint256[]"
        }
      ],
      "name": "proofVerified",
      "type": "event"
    },
    {
      "inputs": [],
      "name": "owner",
      "outputs": [
        {
          "internalType": "address",
          "name": "",
          "type": "address"
        }
      ],
      "stateMutability": "view",
      "type": "function"
    },
    {
      "inputs": [
        {
          "internalType": "uint256",
          "name": "charityId",
          "type": "uint256"
        },
        {
          "internalType": "string",
          "name": "title",
          "type": "string"
        },
        {
          "internalType": "string",
          "name": "description",
          "type": "string"
        },
        {
          "internalType": "uint256",
          "name": "targetAmount",
          "type": "uint256"
        }
      ],
      "name": "listProject",
      "outputs": [],
      "stateMutability": "nonpayable",
      "type": "function"
    },
    {
      "inputs": [
        {
          "internalType": "uint256",
          "name": "charityId",
          "type": "uint256"
        },
        {
          "internalType": "uint256",
          "name": "projectId",
          "type": "uint256"
        }
      ],
      "name": "unlistProjectMarket",
      "outputs": [],
      "stateMutability": "nonpayable",
      "type": "function"
    },
    {
      "inputs": [
        {
          "internalType": "uint256",
          "name": "projectId",
          "type": "uint256"
        },
        {
          "internalType": "uint256",
          "name": "amt",
          "type": "uint256"
        }
      ],
      "name": "donateToProject",
      "outputs": [],
      "stateMutability": "nonpayable",
      "type": "function"
    },
    {
      "inputs": [
        {
          "internalType": "uint256",
          "name": "projectId",
          "type": "uint256"
        },
        {
          "internalType": "uint256",
          "name": "amount",
          "type": "uint256"
        }
      ],
      "name": "submitProofOfUsage",
      "outputs": [],
      "stateMutability": "nonpayable",
      "type": "function"
    },
    {
      "inputs": [
        {
          "internalType": "uint256[]",
          "name": "donations",
          "type": "uint256[]"
        }
      ],
      "name": "verifyProofOfUsage",
      "outputs": [],
      "stateMutability": "nonpayable",
      "type": "function"
    }
  ],
  "bytecode": "0x60806040523480156200001157600080fd5b5060405162001e0938038062001e098339818101604052810190620000379190620002d2565b336000806101000a81548173ffffffffffffffffffffffffffffffffffffffff021916908373ffffffffffffffffffffffffffffffffffffffff16021790555083600160006101000a81548173ffffffffffffffffffffffffffffffffffffffff021916908373ffffffffffffffffffffffffffffffffffffffff16021790555082600260006101000a81548173ffffffffffffffffffffffffffffffffffffffff021916908373ffffffffffffffffffffffffffffffffffffffff16021790555081600360006101000a81548173ffffffffffffffffffffffffffffffffffffffff021916908373ffffffffffffffffffffffffffffffffffffffff16021790555080600460006101000a81548173ffffffffffffffffffffffffffffffffffffffff021916908373ffffffffffffffffffffffffffffffffffffffff1602179055505050505062000344565b600080fd5b600073ffffffffffffffffffffffffffffffffffffffff82169050919050565b6000620001b7826200018a565b9050919050565b6000620001cb82620001aa565b9050919050565b620001dd81620001be565b8114620001e957600080fd5b50565b600081519050620001fd81620001d2565b92915050565b60006200021082620001aa565b9050919050565b620002228162000203565b81146200022e57600080fd5b50565b600081519050620002428162000217565b92915050565b60006200025582620001aa565b9050919050565b620002678162000248565b81146200027357600080fd5b50565b60008151905062000287816200025c565b92915050565b60006200029a82620001aa565b9050919050565b620002ac816200028d565b8114620002b857600080fd5b50565b600081519050620002cc81620002a1565b92915050565b60008060008060808587031215620002ef57620002ee62000185565b5b6000620002ff87828801620001ec565b9450506020620003128782880162000231565b9350506040620003258782880162000276565b92505060606200033887828801620002bb565b91505092959194509250565b611ab580620003546000396000f3fe608060405234801561001057600080fd5b50600436106100625760003560e01c806340f4230d146100675780638da5cb5b14610083578063a5d9a584146100a1578063b17c8400146100bd578063b2761ad0146100d9578063e9cbcb2e146100f5575b600080fd5b610081600480360381019061007c9190611015565b610111565b005b61008b6103bd565b60405161009891906110f5565b60405180910390f35b6100bb60048036038101906100b69190611110565b6103e1565b005b6100d760048036038101906100d29190611110565b6108ea565b005b6100f360048036038101906100ee9190611110565b6109b6565b005b61010f600480360381019061010a9190611218565b610d30565b005b8360011515600360009054906101000a900473ffffffffffffffffffffffffffffffffffffffff1673ffffffffffffffffffffffffffffffffffffffff16636ab9a02583336040518363ffffffff1660e01b8152600401610173929190611270565b602060405180830381865afa158015610190573d6000803e3d6000fd5b505050506040513d601f19601f820116820180604052508101906101b491906112d1565b1515146101f6576040517f08c379a00000000000000000000000000000000000000000000000000000000081526004016101ed90611381565b60405180910390fd5b8460011515600360009054906101000a900473ffffffffffffffffffffffffffffffffffffffff1673ffffffffffffffffffffffffffffffffffffffff1663f6c997b8836040518263ffffffff1660e01b815260040161025691906113a1565b602060405180830381865afa158015610273573d6000803e3d6000fd5b505050506040513d601f19601f8201168201806040525081019061029791906112d1565b1515146102d9576040517f08c379a00000000000000000000000000000000000000000000000000000000081526004016102d09061142e565b60405180910390fd5b600160009054906101000a900473ffffffffffffffffffffffffffffffffffffffff1673ffffffffffffffffffffffffffffffffffffffff1663e851ced8878787876040518563ffffffff1660e01b815260040161033a94939291906114bc565b6020604051808303816000875af1158015610359573d6000803e3d6000fd5b505050506040513d601f19601f8201168201806040525081019061037d9190611524565b507fc38f3286637a47d6c5733da7780f50e571951431a0b969da69824ad77712c942866040516103ad91906113a1565b60405180910390a1505050505050565b60008054906101000a900473ffffffffffffffffffffffffffffffffffffffff1681565b600460009054906101000a900473ffffffffffffffffffffffffffffffffffffffff1673ffffffffffffffffffffffffffffffffffffffff16638b24db1a336040518263ffffffff1660e01b815260040161043c91906110f5565b602060405180830381865afa158015610459573d6000803e3d6000fd5b505050506040513d601f19601f8201168201806040525081019061047d91906112d1565b6104bc576040517f08c379a00000000000000000000000000000000000000000000000000000000081526004016104b39061159d565b60405180910390fd5b6000600260009054906101000a900473ffffffffffffffffffffffffffffffffffffffff1673ffffffffffffffffffffffffffffffffffffffff16635f515226336040518263ffffffff1660e01b815260040161051991906110f5565b602060405180830381865afa158015610536573d6000803e3d6000fd5b505050506040513d601f19601f8201168201806040525081019061055a9190611524565b90508082111561059f576040517f08c379a00000000000000000000000000000000000000000000000000000000081526004016105969061162f565b60405180910390fd5b600160009054906101000a900473ffffffffffffffffffffffffffffffffffffffff1673ffffffffffffffffffffffffffffffffffffffff1663e948a74c846040518263ffffffff1660e01b81526004016105fa91906113a1565b602060405180830381865afa158015610617573d6000803e3d6000fd5b505050506040513d601f19601f8201168201806040525081019061063b91906112d1565b61067a576040517f08c379a0000000000000000000000000000000000000000000000000000000008152600401610671906116c1565b60405180910390fd5b81600260009054906101000a900473ffffffffffffffffffffffffffffffffffffffff1673ffffffffffffffffffffffffffffffffffffffff16635cda4b413360008054906101000a900473ffffffffffffffffffffffffffffffffffffffff166040518363ffffffff1660e01b81526004016106f89291906116e1565b602060405180830381865afa158015610715573d6000803e3d6000fd5b505050506040513d601f19601f820116820180604052508101906107399190611524565b101561077a576040517f08c379a0000000000000000000000000000000000000000000000000000000008152600401610771906117a2565b60405180910390fd5b6000600160009054906101000a900473ffffffffffffffffffffffffffffffffffffffff1673ffffffffffffffffffffffffffffffffffffffff166392256aec856040518263ffffffff1660e01b81526004016107d791906113a1565b602060405180830381865afa1580156107f4573d6000803e3d6000fd5b505050506040513d601f19601f8201168201806040525081019061081891906117ee565b9050600260009054906101000a900473ffffffffffffffffffffffffffffffffffffffff1673ffffffffffffffffffffffffffffffffffffffff1663529120423383866040518463ffffffff1660e01b81526004016108799392919061181b565b600060405180830381600087803b15801561089357600080fd5b505af11580156108a7573d6000803e3d6000fd5b505050507fc4211fe28f367b609d3a293c8ee487e59922662800f2b1ebe1dddc5e8f5d297984336040516108dc929190611270565b60405180910390a150505050565b600160009054906101000a900473ffffffffffffffffffffffffffffffffffffffff1673ffffffffffffffffffffffffffffffffffffffff166330933bf083836040518363ffffffff1660e01b8152600401610947929190611852565b600060405180830381600087803b15801561096157600080fd5b505af1158015610975573d6000803e3d6000fd5b505050507f1609c71f4ff420434a28155d24466b361314adcdacb1bad562e6a869c7ef041a82826040516109aa929190611852565b60405180910390a15050565b8160011515600360009054906101000a900473ffffffffffffffffffffffffffffffffffffffff1673ffffffffffffffffffffffffffffffffffffffff16636ab9a02583336040518363ffffffff1660e01b8152600401610a18929190611270565b602060405180830381865afa158015610a35573d6000803e3d6000fd5b505050506040513d601f19601f82011682018060405250810190610a5991906112d1565b151514610a9b576040517f08c379a0000000000000000000000000000000000000000000000000000000008152600401610a9290611381565b60405180910390fd5b8260011515600360009054906101000a900473ffffffffffffffffffffffffffffffffffffffff1673ffffffffffffffffffffffffffffffffffffffff1663f6c997b8836040518263ffffffff1660e01b8152600401610afb91906113a1565b602060405180830381865afa158015610b18573d6000803e3d6000fd5b505050506040513d601f19601f82011682018060405250810190610b3c91906112d1565b151514610b7e576040517f08c379a0000000000000000000000000000000000000000000000000000000008152600401610b759061142e565b60405180910390fd5b8260011515600160009054906101000a900473ffffffffffffffffffffffffffffffffffffffff1673ffffffffffffffffffffffffffffffffffffffff1663e948a74c836040518263ffffffff1660e01b8152600401610bde91906113a1565b602060405180830381865afa158015610bfb573d6000803e3d6000fd5b505050506040513d601f19601f82011682018060405250810190610c1f91906112d1565b151514610c61576040517f08c379a0000000000000000000000000000000000000000000000000000000008152600401610c58906118ed565b60405180910390fd5b600160009054906101000a900473ffffffffffffffffffffffffffffffffffffffff1673ffffffffffffffffffffffffffffffffffffffff16633972af3b86866040518363ffffffff1660e01b8152600401610cbe929190611852565b600060405180830381600087803b158015610cd857600080fd5b505af1158015610cec573d6000803e3d6000fd5b505050507fa0ddccab616d12cf88ecc43ca51b9daf184ad5ccd5bfc056d05e348545e920f58585604051610d21929190611852565b60405180910390a15050505050565b60008054906101000a900473ffffffffffffffffffffffffffffffffffffffff1673ffffffffffffffffffffffffffffffffffffffff163373ffffffffffffffffffffffffffffffffffffffff1614610dbe576040517f08c379a0000000000000000000000000000000000000000000000000000000008152600401610db59061197f565b60405180910390fd5b600160009054906101000a900473ffffffffffffffffffffffffffffffffffffffff1673ffffffffffffffffffffffffffffffffffffffff16631bf59833826040518263ffffffff1660e01b8152600401610e199190611a5d565b600060405180830381600087803b158015610e3357600080fd5b505af1158015610e47573d6000803e3d6000fd5b505050507f6ae60c7df1c8b5ffd57bcce9d8ce43599c02c9fb3803ef738c8a42279dfdeb5581604051610e7a9190611a5d565b60405180910390a150565b6000604051905090565b600080fd5b600080fd5b6000819050919050565b610eac81610e99565b8114610eb757600080fd5b50565b600081359050610ec981610ea3565b92915050565b600080fd5b600080fd5b6000601f19601f8301169050919050565b7f4e487b7100000000000000000000000000000000000000000000000000000000600052604160045260246000fd5b610f2282610ed9565b810181811067ffffffffffffffff82111715610f4157610f40610eea565b5b80604052505050565b6000610f54610e85565b9050610f608282610f19565b919050565b600067ffffffffffffffff821115610f8057610f7f610eea565b5b610f8982610ed9565b9050602081019050919050565b82818337600083830152505050565b6000610fb8610fb384610f65565b610f4a565b905082815260208101848484011115610fd457610fd3610ed4565b5b610fdf848285610f96565b509392505050565b600082601f830112610ffc57610ffb610ecf565b5b813561100c848260208601610fa5565b91505092915050565b6000806000806080858703121561102f5761102e610e8f565b5b600061103d87828801610eba565b945050602085013567ffffffffffffffff81111561105e5761105d610e94565b5b61106a87828801610fe7565b935050604085013567ffffffffffffffff81111561108b5761108a610e94565b5b61109787828801610fe7565b92505060606110a887828801610eba565b91505092959194509250565b600073ffffffffffffffffffffffffffffffffffffffff82169050919050565b60006110df826110b4565b9050919050565b6110ef816110d4565b82525050565b600060208201905061110a60008301846110e6565b92915050565b6000806040838503121561112757611126610e8f565b5b600061113585828601610eba565b925050602061114685828601610eba565b9150509250929050565b600067ffffffffffffffff82111561116b5761116a610eea565b5b602082029050602081019050919050565b600080fd5b600061119461118f84611150565b610f4a565b905080838252602082019050602084028301858111156111b7576111b661117c565b5b835b818110156111e057806111cc8882610eba565b8452602084019350506020810190506111b9565b5050509392505050565b600082601f8301126111ff576111fe610ecf565b5b813561120f848260208601611181565b91505092915050565b60006020828403121561122e5761122d610e8f565b5b600082013567ffffffffffffffff81111561124c5761124b610e94565b5b611258848285016111ea565b91505092915050565b61126a81610e99565b82525050565b60006040820190506112856000830185611261565b61129260208301846110e6565b9392505050565b60008115159050919050565b6112ae81611299565b81146112b957600080fd5b50565b6000815190506112cb816112a5565b92915050565b6000602082840312156112e7576112e6610e8f565b5b60006112f5848285016112bc565b91505092915050565b600082825260208201905092915050565b7f4f6e6c79206f776e696e6720636861726974792063616e20706572666f726d2060008201527f7468697320616374696f6e210000000000000000000000000000000000000000602082015250565b600061136b602c836112fe565b91506113768261130f565b604082019050919050565b6000602082019050818103600083015261139a8161135e565b9050919050565b60006020820190506113b66000830184611261565b92915050565b7f4368617269747920494420676976656e206973206e6f742076616c6964206f7260008201527f2061637469766500000000000000000000000000000000000000000000000000602082015250565b60006114186027836112fe565b9150611423826113bc565b604082019050919050565b600060208201905081810360008301526114478161140b565b9050919050565b600081519050919050565b60005b8381101561147757808201518184015260208101905061145c565b60008484015250505050565b600061148e8261144e565b61149881856112fe565b93506114a8818560208601611459565b6114b181610ed9565b840191505092915050565b60006080820190506114d16000830187611261565b81810360208301526114e38186611483565b905081810360408301526114f78185611483565b90506115066060830184611261565b95945050505050565b60008151905061151e81610ea3565b92915050565b60006020828403121561153a57611539610e8f565b5b60006115488482850161150f565b91505092915050565b7f596f7520617265206e6f7420612076616c696420646f6e6f7221000000000000600082015250565b6000611587601a836112fe565b915061159282611551565b602082019050919050565b600060208201905081810360008301526115b68161157a565b9050919050565b7f596f7520646f6e277420686176652073756666696369656e742066756e64732060008201527f746f20646f6e6174652100000000000000000000000000000000000000000000602082015250565b6000611619602a836112fe565b9150611624826115bd565b604082019050919050565b600060208201905081810360008301526116488161160c565b9050919050565b7f50726f6a6563742049442070726f7669646564206973206e6f742076616c696460008201527f206f722063757272656e746c79206e6f74206163746976650000000000000000602082015250565b60006116ab6038836112fe565b91506116b68261164f565b604082019050919050565b600060208201905081810360008301526116da8161169e565b9050919050565b60006040820190506116f660008301856110e6565b61170360208301846110e6565b9392505050565b7f596f7520646964206e6f7420617574686f726973652050726f6a6563744d617260008201527f6b657420746f207370656e64207468652073706563696669656420616d6f756e60208201527f7420746f20646f6e617465210000000000000000000000000000000000000000604082015250565b600061178c604c836112fe565b91506117978261170a565b606082019050919050565b600060208201905081810360008301526117bb8161177f565b9050919050565b6117cb816110d4565b81146117d657600080fd5b50565b6000815190506117e8816117c2565b92915050565b60006020828403121561180457611803610e8f565b5b6000611812848285016117d9565b91505092915050565b600060608201905061183060008301866110e6565b61183d60208301856110e6565b61184a6040830184611261565b949350505050565b60006040820190506118676000830185611261565b6118746020830184611261565b9392505050565b7f50726f6a6563744d61726b657420494420676976656e206973206e6f7420766160008201527f6c6964206f722061637469766500000000000000000000000000000000000000602082015250565b60006118d7602d836112fe565b91506118e28261187b565b604082019050919050565b60006020820190508181036000830152611906816118ca565b9050919050565b7f4f6e6c7920636f6e7472616374206f776e65722063616e20706572666f726d2060008201527f7468697320616374696f6e210000000000000000000000000000000000000000602082015250565b6000611969602c836112fe565b91506119748261190d565b604082019050919050565b600060208201905081810360008301526119988161195c565b9050919050565b600081519050919050565b600082825260208201905092915050565b6000819050602082019050919050565b6119d481610e99565b82525050565b60006119e683836119cb565b60208301905092915050565b6000602082019050919050565b6000611a0a8261199f565b611a1481856119aa565b9350611a1f836119bb565b8060005b83811015611a50578151611a3788826119da565b9750611a42836119f2565b925050600181019050611a23565b5085935050505092915050565b60006020820190508181036000830152611a7781846119ff565b90509291505056fea26469706673582212202fea9ab9299762dedad19bc88582a0f82f4fb2c5f7fc62b3096e2c7072edf0ad64736f6c63430008110033",
  "immutableReferences": {},
  "source": "// SPDX-License-Identifier: MIT\npragma solidity ^0.8.0;\nimport \"./ProjectMarketStorage.sol\";\nimport \"./Charity.sol\";\nimport \"./Donor.sol\";\n\ncontract ProjectMarket {\n    address public owner;\n    ProjectMarketStorage projectMarketStorage;\n    CharityToken tokenContract;\n    Charity charityContract;\n    Donor donorContract;\n\n    event projectListed(uint256 charityId);\n    event projectClosed(uint256 charityId, uint256 projectMarketId);\n    event donationMade(uint256 projectId, address donor);\n    event proofSubmitted(uint256 projectId, uint256 amount);\n    event proofVerified(uint256[] donations);\n\n    constructor(\n        ProjectMarketStorage projectMarketAddress,\n        CharityToken tokenAddress,\n        Charity charityAddress,\n        Donor donorAddress\n    ) {\n        owner = msg.sender;\n        projectMarketStorage = projectMarketAddress;\n        tokenContract = tokenAddress;\n        charityContract = charityAddress;\n        donorContract = donorAddress;\n    }\n\n    modifier contractOwnerOnly() {\n        require(msg.sender == owner, \"Only contract owner can perform this action!\");\n        _;\n    }\n\n    modifier owningCharityOnly(uint256 charityId) {\n        require(\n            charityContract.isOwnerOfCharity(charityId, msg.sender) == true,\n            \"Only owning charity can perform this action!\"\n        );\n        _;\n    }\n\n    modifier activeCharityId(uint256 charityId) {\n        require(\n            charityContract.isCharityActive(charityId) == true,\n            \"Charity ID given is not valid or active\"\n        );\n        _;\n    }\n\n    modifier activeProjectId(uint256 projectMarketId) {\n        require(\n            projectMarketStorage.getProjectActive(projectMarketId) == true,\n            \"ProjectMarket ID given is not valid or active\"\n        );\n        _;\n    }\n\n    modifier isValidDonor() {\n        require(\n            donorContract.isValidDonor(msg.sender),\n            \"You are not a valid donor!\"\n        );\n        _;\n    }\n\n    function listProject(\n        uint256 charityId,\n        string memory title,\n        string memory description,\n        uint256 targetAmount\n    ) public owningCharityOnly(charityId) activeCharityId(charityId) {\n        projectMarketStorage.addProjectToMarket(\n            charityId,\n            title,\n            description,\n            targetAmount\n        );\n        emit projectListed(charityId);\n    }\n\n    function unlistProjectMarket(\n        uint256 charityId,\n        uint256 projectId\n    )\n        public\n        owningCharityOnly(charityId)\n        activeCharityId(charityId)\n        activeProjectId(projectId)\n    {\n        projectMarketStorage.closeProject(charityId, projectId);\n        emit projectClosed(charityId, projectId);\n    }\n\n    // in order to donate, donor must first APPROVE the ProjectMarket contract's address to spend the specified ether\n    function donateToProject(\n        uint256 projectId,\n        uint256 amt\n    ) public isValidDonor {\n        uint256 balance = tokenContract.checkBalance(msg.sender);\n        require(amt <= balance, \"You don't have sufficient funds to donate!\");\n        require(\n            projectMarketStorage.getProjectActive(projectId),\n            \"Project ID provided is not valid or currently not active\"\n        );\n        require(\n            tokenContract.checkApproval(msg.sender, owner) >= amt,\n            \"You did not authorise ProjectMarket to spend the specified amount to donate!\"\n        );\n\n        address projectOwner = projectMarketStorage.getProjectOwner(projectId);\n        tokenContract.transferTokensFrom(msg.sender, projectOwner, amt);\n\n        emit donationMade(projectId, msg.sender);\n    }\n\n    function submitProofOfUsage(uint256 projectId, uint256 amount) public {\n\t    projectMarketStorage.addProofOfUsageToProject(projectId, amount);\n        emit proofSubmitted(projectId, amount);\n    }\n\n    function verifyProofOfUsage(uint256[] memory donations) public contractOwnerOnly() {\n        projectMarketStorage.addProofOfUsageToDonations(donations);\n        emit proofVerified(donations);\n    }\n}",
  "sourcePath": "/Users/danielonges/Desktop/coding/blockchain-charity/contracts/ProjectMarket.sol",
  "compiler": {
    "name": "solc",
    "version": "0.8.17+commit.8df45f5f.Emscripten.clang"
  },
  "schemaVersion": "3.4.11",
  "updatedAt": "2023-03-24T07:33:42.813Z",
  "devdoc": {
    "kind": "dev",
    "methods": {},
    "version": 1
  },
  "userdoc": {
    "kind": "user",
    "methods": {},
    "version": 1
  }
}