{
  "contractName": "ProjectMarket",
  "abi": [
    {
      "inputs": [
        {
          "internalType": "contract ProjectMarketStorage",
          "name": "projectMarketAddress",
          "type": "address"
        },
        {
          "internalType": "contract CharityToken",
          "name": "tokenAddress",
          "type": "address"
        },
        {
          "internalType": "contract Charity",
          "name": "charityAddress",
          "type": "address"
        },
        {
          "internalType": "contract Donor",
          "name": "donorAddress",
          "type": "address"
        }
      ],
      "stateMutability": "nonpayable",
      "type": "constructor"
    },
    {
      "anonymous": false,
      "inputs": [
        {
          "indexed": false,
          "internalType": "uint256",
          "name": "projectId",
          "type": "uint256"
        },
        {
          "indexed": false,
          "internalType": "address",
          "name": "donor",
          "type": "address"
        }
      ],
      "name": "donationMade",
      "type": "event"
    },
    {
      "anonymous": false,
      "inputs": [
        {
          "indexed": false,
          "internalType": "uint256",
          "name": "projectId",
          "type": "uint256"
        }
      ],
      "name": "projectClosed",
      "type": "event"
    },
    {
      "anonymous": false,
      "inputs": [
        {
          "indexed": false,
          "internalType": "uint256",
          "name": "charityId",
          "type": "uint256"
        }
      ],
      "name": "projectListed",
      "type": "event"
    },
    {
      "anonymous": false,
      "inputs": [
        {
          "indexed": false,
          "internalType": "uint256",
          "name": "projectId",
          "type": "uint256"
        },
        {
          "indexed": false,
          "internalType": "uint256",
          "name": "amount",
          "type": "uint256"
        }
      ],
      "name": "proofVerified",
      "type": "event"
    },
    {
      "anonymous": false,
      "inputs": [
        {
          "indexed": false,
          "internalType": "uint256",
          "name": "charityId",
          "type": "uint256"
        },
        {
          "indexed": false,
          "internalType": "uint256",
          "name": "timestamp",
          "type": "uint256"
        }
      ],
      "name": "unverifiedDonationsExceeded",
      "type": "event"
    },
    {
      "inputs": [],
      "name": "contractStopped",
      "outputs": [
        {
          "internalType": "bool",
          "name": "",
          "type": "bool"
        }
      ],
      "stateMutability": "view",
      "type": "function"
    },
    {
      "inputs": [],
      "name": "owner",
      "outputs": [
        {
          "internalType": "address",
          "name": "",
          "type": "address"
        }
      ],
      "stateMutability": "view",
      "type": "function"
    },
    {
      "inputs": [],
      "name": "unverifiedCtLimit",
      "outputs": [
        {
          "internalType": "uint256",
          "name": "",
          "type": "uint256"
        }
      ],
      "stateMutability": "view",
      "type": "function"
    },
    {
      "inputs": [],
      "name": "unverifiedTimeLimit",
      "outputs": [
        {
          "internalType": "uint256",
          "name": "",
          "type": "uint256"
        }
      ],
      "stateMutability": "view",
      "type": "function"
    },
    {
      "inputs": [],
      "name": "toggleContractStopped",
      "outputs": [],
      "stateMutability": "view",
      "type": "function"
    },
    {
      "inputs": [
        {
          "internalType": "uint256",
          "name": "charityId",
          "type": "uint256"
        },
        {
          "internalType": "string",
          "name": "title",
          "type": "string"
        },
        {
          "internalType": "string",
          "name": "description",
          "type": "string"
        },
        {
          "internalType": "uint256",
          "name": "targetAmount",
          "type": "uint256"
        }
      ],
      "name": "listProject",
      "outputs": [],
      "stateMutability": "nonpayable",
      "type": "function"
    },
    {
      "inputs": [
        {
          "internalType": "uint256",
          "name": "projectId",
          "type": "uint256"
        }
      ],
      "name": "unlistProject",
      "outputs": [],
      "stateMutability": "nonpayable",
      "type": "function"
    },
    {
      "inputs": [
        {
          "internalType": "uint256",
          "name": "charityId",
          "type": "uint256"
        },
        {
          "internalType": "uint256",
          "name": "projectId",
          "type": "uint256"
        }
      ],
      "name": "relistProject",
      "outputs": [],
      "stateMutability": "nonpayable",
      "type": "function"
    },
    {
      "inputs": [
        {
          "internalType": "uint256",
          "name": "projectId",
          "type": "uint256"
        },
        {
          "internalType": "uint256",
          "name": "amt",
          "type": "uint256"
        }
      ],
      "name": "donateToProject",
      "outputs": [],
      "stateMutability": "nonpayable",
      "type": "function"
    },
    {
      "inputs": [
        {
          "internalType": "uint256",
          "name": "projectId",
          "type": "uint256"
        }
      ],
      "name": "checkUnverifiedDonations",
      "outputs": [],
      "stateMutability": "nonpayable",
      "type": "function"
    },
    {
      "inputs": [
        {
          "internalType": "uint256",
          "name": "projectId",
          "type": "uint256"
        },
        {
          "internalType": "uint256",
          "name": "amount",
          "type": "uint256"
        }
      ],
      "name": "verifyProofOfUsage",
      "outputs": [],
      "stateMutability": "nonpayable",
      "type": "function"
    },
    {
      "inputs": [],
      "name": "getAllProjectListings",
      "outputs": [
        {
          "components": [
            {
              "internalType": "uint256",
              "name": "projectId",
              "type": "uint256"
            },
            {
              "internalType": "uint256",
              "name": "charityId",
              "type": "uint256"
            },
            {
              "internalType": "string",
              "name": "title",
              "type": "string"
            },
            {
              "internalType": "string",
              "name": "description",
              "type": "string"
            },
            {
              "internalType": "uint256",
              "name": "targetAmount",
              "type": "uint256"
            },
            {
              "internalType": "bool",
              "name": "isActive",
              "type": "bool"
            }
          ],
          "internalType": "struct ProjectMarketStorage.project[]",
          "name": "",
          "type": "tuple[]"
        }
      ],
      "stateMutability": "view",
      "type": "function"
    },
    {
      "inputs": [],
      "name": "getAllActiveProjectListings",
      "outputs": [
        {
          "components": [
            {
              "internalType": "uint256",
              "name": "projectId",
              "type": "uint256"
            },
            {
              "internalType": "uint256",
              "name": "charityId",
              "type": "uint256"
            },
            {
              "internalType": "string",
              "name": "title",
              "type": "string"
            },
            {
              "internalType": "string",
              "name": "description",
              "type": "string"
            },
            {
              "internalType": "uint256",
              "name": "targetAmount",
              "type": "uint256"
            },
            {
              "internalType": "bool",
              "name": "isActive",
              "type": "bool"
            }
          ],
          "internalType": "struct ProjectMarketStorage.project[]",
          "name": "",
          "type": "tuple[]"
        }
      ],
      "stateMutability": "view",
      "type": "function"
    },
    {
      "inputs": [
        {
          "internalType": "uint256",
          "name": "projectId",
          "type": "uint256"
        }
      ],
      "name": "getProofsByProject",
      "outputs": [
        {
          "components": [
            {
              "internalType": "uint256",
              "name": "proofId",
              "type": "uint256"
            },
            {
              "internalType": "uint256",
              "name": "projectId",
              "type": "uint256"
            },
            {
              "internalType": "uint256",
              "name": "amtVerified",
              "type": "uint256"
            },
            {
              "internalType": "uint256",
              "name": "timeOfUpload",
              "type": "uint256"
            },
            {
              "internalType": "enum CharityStorage.charityCategory",
              "name": "category",
              "type": "uint8"
            }
          ],
          "internalType": "struct ProjectMarketStorage.proof[]",
          "name": "",
          "type": "tuple[]"
        }
      ],
      "stateMutability": "view",
      "type": "function"
    },
    {
      "inputs": [
        {
          "internalType": "uint256",
          "name": "projectId",
          "type": "uint256"
        }
      ],
      "name": "getProjectListingDetails",
      "outputs": [
        {
          "components": [
            {
              "internalType": "uint256",
              "name": "projectId",
              "type": "uint256"
            },
            {
              "internalType": "uint256",
              "name": "charityId",
              "type": "uint256"
            },
            {
              "internalType": "string",
              "name": "title",
              "type": "string"
            },
            {
              "internalType": "string",
              "name": "description",
              "type": "string"
            },
            {
              "internalType": "uint256",
              "name": "targetAmount",
              "type": "uint256"
            },
            {
              "internalType": "bool",
              "name": "isActive",
              "type": "bool"
            }
          ],
          "internalType": "struct ProjectMarketStorage.project",
          "name": "",
          "type": "tuple"
        }
      ],
      "stateMutability": "view",
      "type": "function"
    },
    {
      "inputs": [
        {
          "internalType": "uint256",
          "name": "projectId",
          "type": "uint256"
        }
      ],
      "name": "isProjectActive",
      "outputs": [
        {
          "internalType": "bool",
          "name": "",
          "type": "bool"
        }
      ],
      "stateMutability": "view",
      "type": "function"
    },
    {
      "inputs": [
        {
          "internalType": "uint256",
          "name": "projectId",
          "type": "uint256"
        }
      ],
      "name": "getDonationsByProject",
      "outputs": [
        {
          "components": [
            {
              "internalType": "uint256",
              "name": "donationId",
              "type": "uint256"
            },
            {
              "internalType": "uint256",
              "name": "projectId",
              "type": "uint256"
            },
            {
              "internalType": "address",
              "name": "donor",
              "type": "address"
            },
            {
              "internalType": "uint256",
              "name": "amt",
              "type": "uint256"
            },
            {
              "internalType": "uint256",
              "name": "amtVerified",
              "type": "uint256"
            },
            {
              "internalType": "uint256",
              "name": "transactionDate",
              "type": "uint256"
            },
            {
              "internalType": "uint256",
              "name": "timeTakenToVerify",
              "type": "uint256"
            },
            {
              "internalType": "enum ProjectMarketStorage.DonationType",
              "name": "donationType",
              "type": "uint8"
            }
          ],
          "internalType": "struct ProjectMarketStorage.donation[]",
          "name": "",
          "type": "tuple[]"
        }
      ],
      "stateMutability": "view",
      "type": "function"
    },
    {
      "inputs": [],
      "name": "viewPastDonationsByDonor",
      "outputs": [
        {
          "components": [
            {
              "internalType": "uint256",
              "name": "donationId",
              "type": "uint256"
            },
            {
              "internalType": "uint256",
              "name": "projectId",
              "type": "uint256"
            },
            {
              "internalType": "address",
              "name": "donor",
              "type": "address"
            },
            {
              "internalType": "uint256",
              "name": "amt",
              "type": "uint256"
            },
            {
              "internalType": "uint256",
              "name": "amtVerified",
              "type": "uint256"
            },
            {
              "internalType": "uint256",
              "name": "transactionDate",
              "type": "uint256"
            },
            {
              "internalType": "uint256",
              "name": "timeTakenToVerify",
              "type": "uint256"
            },
            {
              "internalType": "enum ProjectMarketStorage.DonationType",
              "name": "donationType",
              "type": "uint8"
            }
          ],
          "internalType": "struct ProjectMarketStorage.donation[]",
          "name": "",
          "type": "tuple[]"
        }
      ],
      "stateMutability": "view",
      "type": "function"
    }
  ],
  "bytecode": "0x60806040526064600555621a5e006006553480156200001d57600080fd5b506040516200388d3803806200388d8339818101604052810190620000439190620002de565b336000806101000a81548173ffffffffffffffffffffffffffffffffffffffff021916908373ffffffffffffffffffffffffffffffffffffffff16021790555083600160006101000a81548173ffffffffffffffffffffffffffffffffffffffff021916908373ffffffffffffffffffffffffffffffffffffffff16021790555082600260006101000a81548173ffffffffffffffffffffffffffffffffffffffff021916908373ffffffffffffffffffffffffffffffffffffffff16021790555081600360006101000a81548173ffffffffffffffffffffffffffffffffffffffff021916908373ffffffffffffffffffffffffffffffffffffffff16021790555080600460006101000a81548173ffffffffffffffffffffffffffffffffffffffff021916908373ffffffffffffffffffffffffffffffffffffffff1602179055505050505062000350565b600080fd5b600073ffffffffffffffffffffffffffffffffffffffff82169050919050565b6000620001c38262000196565b9050919050565b6000620001d782620001b6565b9050919050565b620001e981620001ca565b8114620001f557600080fd5b50565b6000815190506200020981620001de565b92915050565b60006200021c82620001b6565b9050919050565b6200022e816200020f565b81146200023a57600080fd5b50565b6000815190506200024e8162000223565b92915050565b60006200026182620001b6565b9050919050565b620002738162000254565b81146200027f57600080fd5b50565b600081519050620002938162000268565b92915050565b6000620002a682620001b6565b9050919050565b620002b88162000299565b8114620002c457600080fd5b50565b600081519050620002d881620002ad565b92915050565b60008060008060808587031215620002fb57620002fa62000191565b5b60006200030b87828801620001f8565b94505060206200031e878288016200023d565b9350506040620003318782880162000282565b92505060606200034487828801620002c7565b91505092959194509250565b61352d80620003606000396000f3fe608060405234801561001057600080fd5b50600436106101165760003560e01c8063851bc283116100a2578063b90b1ad011610071578063b90b1ad0146102cd578063c1d9fae0146102e9578063daea74c514610307578063e83c78d414610325578063ee685df51461032f57610116565b8063851bc283146102575780638da5cb5b1461027557806392b77ca514610293578063a5d9a584146102b157610116565b806350c2f30e116100e957806350c2f30e146101a157806363b0b809146101d157806364a0e82e146101ed578063830df4a61461021d578063848744ee1461023b57610116565b806324357b2b1461011b5780633e639e101461014b57806340f4230d146101695780634a7888bf14610185575b600080fd5b61013560048036038101906101309190611d18565b61035f565b6040516101429190611e8f565b60405180910390f35b61015361040f565b60405161016091906120bb565b60405180910390f35b610183600480360381019061017e9190612212565b6104b7565b005b61019f600480360381019061019a91906122b1565b610763565b005b6101bb60048036038101906101b69190611d18565b6109f5565b6040516101c891906120bb565b60405180910390f35b6101eb60048036038101906101e69190611d18565b610a9f565b005b61020760048036038101906102029190611d18565b610f5c565b6040516102149190612450565b60405180910390f35b610225611006565b60405161023291906125c4565b60405180910390f35b61025560048036038101906102509190611d18565b6110a3565b005b61025f611400565b60405161026c91906125f5565b60405180910390f35b61027d611406565b60405161028a919061261f565b60405180910390f35b61029b61142a565b6040516102a891906125f5565b60405180910390f35b6102cb60048036038101906102c691906122b1565b611430565b005b6102e760048036038101906102e291906122b1565b6119b2565b005b6102f1611a90565b6040516102fe91906125c4565b60405180910390f35b61030f611b2d565b60405161031c9190612649565b60405180910390f35b61032d611b40565b005b61034960048036038101906103449190611d18565b611bf1565b6040516103569190612649565b60405180910390f35b610367611c96565b600160009054906101000a900473ffffffffffffffffffffffffffffffffffffffff1673ffffffffffffffffffffffffffffffffffffffff1663bee5cdca836040518263ffffffff1660e01b81526004016103c291906125f5565b600060405180830381865afa1580156103df573d6000803e3d6000fd5b505050506040513d6000823e3d601f19601f8201168201806040525081019061040891906127f7565b9050919050565b6060600160009054906101000a900473ffffffffffffffffffffffffffffffffffffffff1673ffffffffffffffffffffffffffffffffffffffff16633d0d3086336040518263ffffffff1660e01b815260040161046c919061261f565b600060405180830381865afa158015610489573d6000803e3d6000fd5b505050506040513d6000823e3d601f19601f820116820180604052508101906104b29190612a25565b905090565b8360011515600360009054906101000a900473ffffffffffffffffffffffffffffffffffffffff1673ffffffffffffffffffffffffffffffffffffffff16636ab9a02583336040518363ffffffff1660e01b8152600401610519929190612a6e565b602060405180830381865afa158015610536573d6000803e3d6000fd5b505050506040513d601f19601f8201168201806040525081019061055a9190612a97565b15151461059c576040517f08c379a000000000000000000000000000000000000000000000000000000000815260040161059390612b47565b60405180910390fd5b8460011515600360009054906101000a900473ffffffffffffffffffffffffffffffffffffffff1673ffffffffffffffffffffffffffffffffffffffff1663f6c997b8836040518263ffffffff1660e01b81526004016105fc91906125f5565b602060405180830381865afa158015610619573d6000803e3d6000fd5b505050506040513d601f19601f8201168201806040525081019061063d9190612a97565b15151461067f576040517f08c379a000000000000000000000000000000000000000000000000000000000815260040161067690612bd9565b60405180910390fd5b600160009054906101000a900473ffffffffffffffffffffffffffffffffffffffff1673ffffffffffffffffffffffffffffffffffffffff1663e851ced8878787876040518563ffffffff1660e01b81526004016106e09493929190612c32565b6020604051808303816000875af11580156106ff573d6000803e3d6000fd5b505050506040513d601f19601f820116820180604052508101906107239190612c85565b507fc38f3286637a47d6c5733da7780f50e571951431a0b969da69824ad77712c9428660405161075391906125f5565b60405180910390a1505050505050565b8160011515600360009054906101000a900473ffffffffffffffffffffffffffffffffffffffff1673ffffffffffffffffffffffffffffffffffffffff16636ab9a02583336040518363ffffffff1660e01b81526004016107c5929190612a6e565b602060405180830381865afa1580156107e2573d6000803e3d6000fd5b505050506040513d601f19601f820116820180604052508101906108069190612a97565b151514610848576040517f08c379a000000000000000000000000000000000000000000000000000000000815260040161083f90612b47565b60405180910390fd5b8260011515600360009054906101000a900473ffffffffffffffffffffffffffffffffffffffff1673ffffffffffffffffffffffffffffffffffffffff1663f6c997b8836040518263ffffffff1660e01b81526004016108a891906125f5565b602060405180830381865afa1580156108c5573d6000803e3d6000fd5b505050506040513d601f19601f820116820180604052508101906108e99190612a97565b15151461092b576040517f08c379a000000000000000000000000000000000000000000000000000000000815260040161092290612bd9565b60405180910390fd5b600160009054906101000a900473ffffffffffffffffffffffffffffffffffffffff1673ffffffffffffffffffffffffffffffffffffffff16633739fe63846040518263ffffffff1660e01b815260040161098691906125f5565b600060405180830381600087803b1580156109a057600080fd5b505af11580156109b4573d6000803e3d6000fd5b505050507fc38f3286637a47d6c5733da7780f50e571951431a0b969da69824ad77712c942846040516109e791906125f5565b60405180910390a150505050565b6060600160009054906101000a900473ffffffffffffffffffffffffffffffffffffffff1673ffffffffffffffffffffffffffffffffffffffff166350c2f30e836040518263ffffffff1660e01b8152600401610a5291906125f5565b600060405180830381865afa158015610a6f573d6000803e3d6000fd5b505050506040513d6000823e3d601f19601f82011682018060405250810190610a989190612a25565b9050919050565b600160009054906101000a900473ffffffffffffffffffffffffffffffffffffffff1673ffffffffffffffffffffffffffffffffffffffff1663bee5cdca826040518263ffffffff1660e01b8152600401610afa91906125f5565b600060405180830381865afa158015610b17573d6000803e3d6000fd5b505050506040513d6000823e3d601f19601f82011682018060405250810190610b4091906127f7565b6020015160011515600360009054906101000a900473ffffffffffffffffffffffffffffffffffffffff1673ffffffffffffffffffffffffffffffffffffffff16636ab9a02583336040518363ffffffff1660e01b8152600401610ba5929190612a6e565b602060405180830381865afa158015610bc2573d6000803e3d6000fd5b505050506040513d601f19601f82011682018060405250810190610be69190612a97565b151514610c28576040517f08c379a0000000000000000000000000000000000000000000000000000000008152600401610c1f90612b47565b60405180910390fd5b600160009054906101000a900473ffffffffffffffffffffffffffffffffffffffff1673ffffffffffffffffffffffffffffffffffffffff1663bee5cdca836040518263ffffffff1660e01b8152600401610c8391906125f5565b600060405180830381865afa158015610ca0573d6000803e3d6000fd5b505050506040513d6000823e3d601f19601f82011682018060405250810190610cc991906127f7565b6020015160011515600360009054906101000a900473ffffffffffffffffffffffffffffffffffffffff1673ffffffffffffffffffffffffffffffffffffffff1663f6c997b8836040518263ffffffff1660e01b8152600401610d2c91906125f5565b602060405180830381865afa158015610d49573d6000803e3d6000fd5b505050506040513d601f19601f82011682018060405250810190610d6d9190612a97565b151514610daf576040517f08c379a0000000000000000000000000000000000000000000000000000000008152600401610da690612bd9565b60405180910390fd5b8260011515600160009054906101000a900473ffffffffffffffffffffffffffffffffffffffff1673ffffffffffffffffffffffffffffffffffffffff1663ee685df5836040518263ffffffff1660e01b8152600401610e0f91906125f5565b602060405180830381865afa158015610e2c573d6000803e3d6000fd5b505050506040513d601f19601f82011682018060405250810190610e509190612a97565b151514610e92576040517f08c379a0000000000000000000000000000000000000000000000000000000008152600401610e8990612d24565b60405180910390fd5b600160009054906101000a900473ffffffffffffffffffffffffffffffffffffffff1673ffffffffffffffffffffffffffffffffffffffff166393dc12e6856040518263ffffffff1660e01b8152600401610eed91906125f5565b600060405180830381600087803b158015610f0757600080fd5b505af1158015610f1b573d6000803e3d6000fd5b505050507f478d380bf73b98d7970f1149c6ef1b40ecdfa9be7ee0ebb736c5c26d311925ea84604051610f4e91906125f5565b60405180910390a150505050565b6060600160009054906101000a900473ffffffffffffffffffffffffffffffffffffffff1673ffffffffffffffffffffffffffffffffffffffff1663c6d47ac9836040518263ffffffff1660e01b8152600401610fb991906125f5565b600060405180830381865afa158015610fd6573d6000803e3d6000fd5b505050506040513d6000823e3d601f19601f82011682018060405250810190610fff9190612eb8565b9050919050565b6060600160009054906101000a900473ffffffffffffffffffffffffffffffffffffffff1673ffffffffffffffffffffffffffffffffffffffff166380d038296040518163ffffffff1660e01b8152600401600060405180830381865afa158015611075573d6000803e3d6000fd5b505050506040513d6000823e3d601f19601f8201168201806040525081019061109e9190612fe2565b905090565b60008054906101000a900473ffffffffffffffffffffffffffffffffffffffff1673ffffffffffffffffffffffffffffffffffffffff163373ffffffffffffffffffffffffffffffffffffffff1614611131576040517f08c379a00000000000000000000000000000000000000000000000000000000081526004016111289061309d565b60405180910390fd5b6000600160009054906101000a900473ffffffffffffffffffffffffffffffffffffffff1673ffffffffffffffffffffffffffffffffffffffff166350c2f30e836040518263ffffffff1660e01b815260040161118e91906125f5565b600060405180830381865afa1580156111ab573d6000803e3d6000fd5b505050506040513d6000823e3d601f19601f820116820180604052508101906111d49190612a25565b90506000805b82518110156113fa5760008382815181106111f8576111f76130bd565b5b602002602001015160800151848381518110611217576112166130bd565b5b60200260200101516060015161122d919061311b565b9050600654848381518110611245576112446130bd565b5b602002602001015160a001514261125c919061311b565b1061127057808361126d919061314f565b92505b60055483106113e6576000600160009054906101000a900473ffffffffffffffffffffffffffffffffffffffff1673ffffffffffffffffffffffffffffffffffffffff1663cb65bf16876040518263ffffffff1660e01b81526004016112d691906125f5565b602060405180830381865afa1580156112f3573d6000803e3d6000fd5b505050506040513d601f19601f820116820180604052508101906113179190612c85565b9050600360009054906101000a900473ffffffffffffffffffffffffffffffffffffffff1673ffffffffffffffffffffffffffffffffffffffff16636afc1334826040518263ffffffff1660e01b815260040161137491906125f5565b600060405180830381600087803b15801561138e57600080fd5b505af11580156113a2573d6000803e3d6000fd5b505050507f32309b3cb573f3d3fcc1970e05a6425c15bbebb5faa142cab3aace7a9fa5d1b681426040516113d7929190613183565b60405180910390a150506113fa565b5080806113f2906131ac565b9150506111da565b50505050565b60055481565b60008054906101000a900473ffffffffffffffffffffffffffffffffffffffff1681565b60065481565b600460009054906101000a900473ffffffffffffffffffffffffffffffffffffffff1673ffffffffffffffffffffffffffffffffffffffff16638b24db1a336040518263ffffffff1660e01b815260040161148b919061261f565b602060405180830381865afa1580156114a8573d6000803e3d6000fd5b505050506040513d601f19601f820116820180604052508101906114cc9190612a97565b61150b576040517f08c379a000000000000000000000000000000000000000000000000000000000815260040161150290613240565b60405180910390fd5b600060149054906101000a900460ff161561155b576040517f08c379a0000000000000000000000000000000000000000000000000000000008152600401611552906132ac565b60405180910390fd5b600060159054906101000a900460ff16156115ab576040517f08c379a00000000000000000000000000000000000000000000000000000000081526004016115a290613318565b60405180910390fd5b6001600060156101000a81548160ff0219169083151502179055506000600260009054906101000a900473ffffffffffffffffffffffffffffffffffffffff1673ffffffffffffffffffffffffffffffffffffffff16635f515226336040518263ffffffff1660e01b8152600401611623919061261f565b602060405180830381865afa158015611640573d6000803e3d6000fd5b505050506040513d601f19601f820116820180604052508101906116649190612c85565b9050808211156116a9576040517f08c379a00000000000000000000000000000000000000000000000000000000081526004016116a0906133aa565b60405180910390fd5b600160009054906101000a900473ffffffffffffffffffffffffffffffffffffffff1673ffffffffffffffffffffffffffffffffffffffff1663ee685df5846040518263ffffffff1660e01b815260040161170491906125f5565b602060405180830381865afa158015611721573d6000803e3d6000fd5b505050506040513d601f19601f820116820180604052508101906117459190612a97565b611784576040517f08c379a000000000000000000000000000000000000000000000000000000000815260040161177b9061343c565b60405180910390fd5b6000600160009054906101000a900473ffffffffffffffffffffffffffffffffffffffff1673ffffffffffffffffffffffffffffffffffffffff166392256aec856040518263ffffffff1660e01b81526004016117e191906125f5565b602060405180830381865afa1580156117fe573d6000803e3d6000fd5b505050506040513d601f19601f82011682018060405250810190611822919061345c565b9050600260009054906101000a900473ffffffffffffffffffffffffffffffffffffffff1673ffffffffffffffffffffffffffffffffffffffff1663bec3fa1782856040518363ffffffff1660e01b8152600401611881929190613489565b600060405180830381600087803b15801561189b57600080fd5b505af11580156118af573d6000803e3d6000fd5b50505050600160009054906101000a900473ffffffffffffffffffffffffffffffffffffffff1673ffffffffffffffffffffffffffffffffffffffff166328d7036385853360006040518563ffffffff1660e01b815260040161191594939291906134b2565b6020604051808303816000875af1158015611934573d6000803e3d6000fd5b505050506040513d601f19601f820116820180604052508101906119589190612c85565b507fc4211fe28f367b609d3a293c8ee487e59922662800f2b1ebe1dddc5e8f5d2979843360405161198a929190612a6e565b60405180910390a1505060008060156101000a81548160ff0219169083151502179055505050565b600160009054906101000a900473ffffffffffffffffffffffffffffffffffffffff1673ffffffffffffffffffffffffffffffffffffffff166330933bf083836040518363ffffffff1660e01b8152600401611a0f929190613183565b6020604051808303816000875af1158015611a2e573d6000803e3d6000fd5b505050506040513d601f19601f82011682018060405250810190611a529190612c85565b507fb982009ab1bb7023fea7e44a58223531d493778f1d7553cec32cf81ac822ef468282604051611a84929190613183565b60405180910390a15050565b6060600160009054906101000a900473ffffffffffffffffffffffffffffffffffffffff1673ffffffffffffffffffffffffffffffffffffffff1663f2ef441b6040518163ffffffff1660e01b8152600401600060405180830381865afa158015611aff573d6000803e3d6000fd5b505050506040513d6000823e3d601f19601f82011682018060405250810190611b289190612fe2565b905090565b600060149054906101000a900460ff1681565b60008054906101000a900473ffffffffffffffffffffffffffffffffffffffff1673ffffffffffffffffffffffffffffffffffffffff163373ffffffffffffffffffffffffffffffffffffffff1614611bce576040517f08c379a0000000000000000000000000000000000000000000000000000000008152600401611bc59061309d565b60405180910390fd5b600060149054906101000a900460ff161515600060149054906101000a90505050565b6000600160009054906101000a900473ffffffffffffffffffffffffffffffffffffffff1673ffffffffffffffffffffffffffffffffffffffff1663ee685df5836040518263ffffffff1660e01b8152600401611c4e91906125f5565b602060405180830381865afa158015611c6b573d6000803e3d6000fd5b505050506040513d601f19601f82011682018060405250810190611c8f9190612a97565b9050919050565b6040518060c0016040528060008152602001600081526020016060815260200160608152602001600081526020016000151581525090565b6000604051905090565b600080fd5b600080fd5b6000819050919050565b611cf581611ce2565b8114611d0057600080fd5b50565b600081359050611d1281611cec565b92915050565b600060208284031215611d2e57611d2d611cd8565b5b6000611d3c84828501611d03565b91505092915050565b611d4e81611ce2565b82525050565b600081519050919050565b600082825260208201905092915050565b60005b83811015611d8e578082015181840152602081019050611d73565b60008484015250505050565b6000601f19601f8301169050919050565b6000611db682611d54565b611dc08185611d5f565b9350611dd0818560208601611d70565b611dd981611d9a565b840191505092915050565b60008115159050919050565b611df981611de4565b82525050565b600060c083016000830151611e176000860182611d45565b506020830151611e2a6020860182611d45565b5060408301518482036040860152611e428282611dab565b91505060608301518482036060860152611e5c8282611dab565b9150506080830151611e716080860182611d45565b5060a0830151611e8460a0860182611df0565b508091505092915050565b60006020820190508181036000830152611ea98184611dff565b905092915050565b600081519050919050565b600082825260208201905092915050565b6000819050602082019050919050565b600073ffffffffffffffffffffffffffffffffffffffff82169050919050565b6000611f0882611edd565b9050919050565b611f1881611efd565b82525050565b7f4e487b7100000000000000000000000000000000000000000000000000000000600052602160045260246000fd5b60028110611f5e57611f5d611f1e565b5b50565b6000819050611f6f82611f4d565b919050565b6000611f7f82611f61565b9050919050565b611f8f81611f74565b82525050565b61010082016000820151611fac6000850182611d45565b506020820151611fbf6020850182611d45565b506040820151611fd26040850182611f0f565b506060820151611fe56060850182611d45565b506080820151611ff86080850182611d45565b5060a082015161200b60a0850182611d45565b5060c082015161201e60c0850182611d45565b5060e082015161203160e0850182611f86565b50505050565b60006120438383611f95565b6101008301905092915050565b6000602082019050919050565b600061206882611eb1565b6120728185611ebc565b935061207d83611ecd565b8060005b838110156120ae5781516120958882612037565b97506120a083612050565b925050600181019050612081565b5085935050505092915050565b600060208201905081810360008301526120d5818461205d565b905092915050565b600080fd5b600080fd5b7f4e487b7100000000000000000000000000000000000000000000000000000000600052604160045260246000fd5b61211f82611d9a565b810181811067ffffffffffffffff8211171561213e5761213d6120e7565b5b80604052505050565b6000612151611cce565b905061215d8282612116565b919050565b600067ffffffffffffffff82111561217d5761217c6120e7565b5b61218682611d9a565b9050602081019050919050565b82818337600083830152505050565b60006121b56121b084612162565b612147565b9050828152602081018484840111156121d1576121d06120e2565b5b6121dc848285612193565b509392505050565b600082601f8301126121f9576121f86120dd565b5b81356122098482602086016121a2565b91505092915050565b6000806000806080858703121561222c5761222b611cd8565b5b600061223a87828801611d03565b945050602085013567ffffffffffffffff81111561225b5761225a611cdd565b5b612267878288016121e4565b935050604085013567ffffffffffffffff81111561228857612287611cdd565b5b612294878288016121e4565b92505060606122a587828801611d03565b91505092959194509250565b600080604083850312156122c8576122c7611cd8565b5b60006122d685828601611d03565b92505060206122e785828601611d03565b9150509250929050565b600081519050919050565b600082825260208201905092915050565b6000819050602082019050919050565b6005811061232e5761232d611f1e565b5b50565b600081905061233f8261231d565b919050565b600061234f82612331565b9050919050565b61235f81612344565b82525050565b60a08201600082015161237b6000850182611d45565b50602082015161238e6020850182611d45565b5060408201516123a16040850182611d45565b5060608201516123b46060850182611d45565b5060808201516123c76080850182612356565b50505050565b60006123d98383612365565b60a08301905092915050565b6000602082019050919050565b60006123fd826122f1565b61240781856122fc565b93506124128361230d565b8060005b8381101561244357815161242a88826123cd565b9750612435836123e5565b925050600181019050612416565b5085935050505092915050565b6000602082019050818103600083015261246a81846123f2565b905092915050565b600081519050919050565b600082825260208201905092915050565b6000819050602082019050919050565b600060c0830160008301516124b66000860182611d45565b5060208301516124c96020860182611d45565b50604083015184820360408601526124e18282611dab565b915050606083015184820360608601526124fb8282611dab565b91505060808301516125106080860182611d45565b5060a083015161252360a0860182611df0565b508091505092915050565b600061253a838361249e565b905092915050565b6000602082019050919050565b600061255a82612472565b612564818561247d565b9350836020820285016125768561248e565b8060005b858110156125b25784840389528151612593858261252e565b945061259e83612542565b925060208a0199505060018101905061257a565b50829750879550505050505092915050565b600060208201905081810360008301526125de818461254f565b905092915050565b6125ef81611ce2565b82525050565b600060208201905061260a60008301846125e6565b92915050565b61261981611efd565b82525050565b60006020820190506126346000830184612610565b92915050565b61264381611de4565b82525050565b600060208201905061265e600083018461263a565b92915050565b600080fd5b600080fd5b60008151905061267d81611cec565b92915050565b600061269661269184612162565b612147565b9050828152602081018484840111156126b2576126b16120e2565b5b6126bd848285611d70565b509392505050565b600082601f8301126126da576126d96120dd565b5b81516126ea848260208601612683565b91505092915050565b6126fc81611de4565b811461270757600080fd5b50565b600081519050612719816126f3565b92915050565b600060c0828403121561273557612734612664565b5b61273f60c0612147565b9050600061274f8482850161266e565b60008301525060206127638482850161266e565b602083015250604082015167ffffffffffffffff81111561278757612786612669565b5b612793848285016126c5565b604083015250606082015167ffffffffffffffff8111156127b7576127b6612669565b5b6127c3848285016126c5565b60608301525060806127d78482850161266e565b60808301525060a06127eb8482850161270a565b60a08301525092915050565b60006020828403121561280d5761280c611cd8565b5b600082015167ffffffffffffffff81111561282b5761282a611cdd565b5b6128378482850161271f565b91505092915050565b600067ffffffffffffffff82111561285b5761285a6120e7565b5b602082029050602081019050919050565b600080fd5b61287a81611efd565b811461288557600080fd5b50565b60008151905061289781612871565b92915050565b600281106128aa57600080fd5b50565b6000815190506128bc8161289d565b92915050565b600061010082840312156128d9576128d8612664565b5b6128e4610100612147565b905060006128f48482850161266e565b60008301525060206129088482850161266e565b602083015250604061291c84828501612888565b60408301525060606129308482850161266e565b60608301525060806129448482850161266e565b60808301525060a06129588482850161266e565b60a08301525060c061296c8482850161266e565b60c08301525060e0612980848285016128ad565b60e08301525092915050565b600061299f61299a84612840565b612147565b90508083825260208201905061010084028301858111156129c3576129c261286c565b5b835b818110156129ed57806129d888826128c2565b845260208401935050610100810190506129c5565b5050509392505050565b600082601f830112612a0c57612a0b6120dd565b5b8151612a1c84826020860161298c565b91505092915050565b600060208284031215612a3b57612a3a611cd8565b5b600082015167ffffffffffffffff811115612a5957612a58611cdd565b5b612a65848285016129f7565b91505092915050565b6000604082019050612a8360008301856125e6565b612a906020830184612610565b9392505050565b600060208284031215612aad57612aac611cd8565b5b6000612abb8482850161270a565b91505092915050565b600082825260208201905092915050565b7f4f6e6c79206f776e696e6720636861726974792063616e20706572666f726d2060008201527f7468697320616374696f6e210000000000000000000000000000000000000000602082015250565b6000612b31602c83612ac4565b9150612b3c82612ad5565b604082019050919050565b60006020820190508181036000830152612b6081612b24565b9050919050565b7f4368617269747920494420676976656e206973206e6f742076616c6964206f7260008201527f2061637469766500000000000000000000000000000000000000000000000000602082015250565b6000612bc3602783612ac4565b9150612bce82612b67565b604082019050919050565b60006020820190508181036000830152612bf281612bb6565b9050919050565b6000612c0482611d54565b612c0e8185612ac4565b9350612c1e818560208601611d70565b612c2781611d9a565b840191505092915050565b6000608082019050612c4760008301876125e6565b8181036020830152612c598186612bf9565b90508181036040830152612c6d8185612bf9565b9050612c7c60608301846125e6565b95945050505050565b600060208284031215612c9b57612c9a611cd8565b5b6000612ca98482850161266e565b91505092915050565b7f50726f6a6563744d61726b657420494420676976656e206973206e6f7420766160008201527f6c6964206f722061637469766500000000000000000000000000000000000000602082015250565b6000612d0e602d83612ac4565b9150612d1982612cb2565b604082019050919050565b60006020820190508181036000830152612d3d81612d01565b9050919050565b600067ffffffffffffffff821115612d5f57612d5e6120e7565b5b602082029050602081019050919050565b60058110612d7d57600080fd5b50565b600081519050612d8f81612d70565b92915050565b600060a08284031215612dab57612daa612664565b5b612db560a0612147565b90506000612dc58482850161266e565b6000830152506020612dd98482850161266e565b6020830152506040612ded8482850161266e565b6040830152506060612e018482850161266e565b6060830152506080612e1584828501612d80565b60808301525092915050565b6000612e34612e2f84612d44565b612147565b90508083825260208201905060a08402830185811115612e5757612e5661286c565b5b835b81811015612e805780612e6c8882612d95565b84526020840193505060a081019050612e59565b5050509392505050565b600082601f830112612e9f57612e9e6120dd565b5b8151612eaf848260208601612e21565b91505092915050565b600060208284031215612ece57612ecd611cd8565b5b600082015167ffffffffffffffff811115612eec57612eeb611cdd565b5b612ef884828501612e8a565b91505092915050565b600067ffffffffffffffff821115612f1c57612f1b6120e7565b5b602082029050602081019050919050565b6000612f40612f3b84612f01565b612147565b90508083825260208201905060208402830185811115612f6357612f6261286c565b5b835b81811015612faa57805167ffffffffffffffff811115612f8857612f876120dd565b5b808601612f95898261271f565b85526020850194505050602081019050612f65565b5050509392505050565b600082601f830112612fc957612fc86120dd565b5b8151612fd9848260208601612f2d565b91505092915050565b600060208284031215612ff857612ff7611cd8565b5b600082015167ffffffffffffffff81111561301657613015611cdd565b5b61302284828501612fb4565b91505092915050565b7f4f6e6c7920636f6e7472616374206f776e65722063616e20706572666f726d2060008201527f7468697320616374696f6e210000000000000000000000000000000000000000602082015250565b6000613087602c83612ac4565b91506130928261302b565b604082019050919050565b600060208201905081810360008301526130b68161307a565b9050919050565b7f4e487b7100000000000000000000000000000000000000000000000000000000600052603260045260246000fd5b7f4e487b7100000000000000000000000000000000000000000000000000000000600052601160045260246000fd5b600061312682611ce2565b915061313183611ce2565b9250828203905081811115613149576131486130ec565b5b92915050565b600061315a82611ce2565b915061316583611ce2565b925082820190508082111561317d5761317c6130ec565b5b92915050565b600060408201905061319860008301856125e6565b6131a560208301846125e6565b9392505050565b60006131b782611ce2565b91507fffffffffffffffffffffffffffffffffffffffffffffffffffffffffffffffff82036131e9576131e86130ec565b5b600182019050919050565b7f596f7520617265206e6f7420612076616c696420646f6e6f7221000000000000600082015250565b600061322a601a83612ac4565b9150613235826131f4565b602082019050919050565b600060208201905081810360008301526132598161321d565b9050919050565b7f436f6e74726163742073746f7070656421000000000000000000000000000000600082015250565b6000613296601183612ac4565b91506132a182613260565b602082019050919050565b600060208201905081810360008301526132c581613289565b9050919050565b7f4e6f2072652d656e7472616e6379210000000000000000000000000000000000600082015250565b6000613302600f83612ac4565b915061330d826132cc565b602082019050919050565b60006020820190508181036000830152613331816132f5565b9050919050565b7f596f7520646f6e277420686176652073756666696369656e742066756e64732060008201527f746f20646f6e6174652100000000000000000000000000000000000000000000602082015250565b6000613394602a83612ac4565b915061339f82613338565b604082019050919050565b600060208201905081810360008301526133c381613387565b9050919050565b7f50726f6a6563742049442070726f7669646564206973206e6f742076616c696460008201527f206f722063757272656e746c79206e6f74206163746976650000000000000000602082015250565b6000613426603883612ac4565b9150613431826133ca565b604082019050919050565b6000602082019050818103600083015261345581613419565b9050919050565b60006020828403121561347257613471611cd8565b5b600061348084828501612888565b91505092915050565b600060408201905061349e6000830185612610565b6134ab60208301846125e6565b9392505050565b60006080820190506134c760008301876125e6565b6134d460208301866125e6565b6134e16040830185612610565b6134ee606083018461263a565b9594505050505056fea2646970667358221220019f8eeeec2c466d3385cacba3f92dc12fc83b2955bbe5a68f4371ad9c60d8a264736f6c63430008110033",
  "immutableReferences": {},
  "source": "// SPDX-License-Identifier: MIT\npragma solidity ^0.8.0;\nimport \"./ProjectMarketStorage.sol\";\nimport \"./Charity.sol\";\nimport \"./Donor.sol\";\n\ncontract ProjectMarket {\n    address public owner;\n    bool public contractStopped;\n    bool internal locked;\n    ProjectMarketStorage projectMarketStorage;\n    CharityToken tokenContract;\n    Charity charityContract;\n    Donor donorContract;\n\n    uint256 public unverifiedCtLimit = 100;\n    uint256 public unverifiedTimeLimit = 20 days;\n\n    event projectListed(uint256 charityId);\n    event projectClosed(uint256 projectId);\n    event donationMade(uint256 projectId, address donor);\n    event proofVerified(uint256 projectId, uint256 amount);\n    event unverifiedDonationsExceeded(uint256 charityId, uint256 timestamp);\n\n    constructor(\n        ProjectMarketStorage projectMarketAddress,\n        CharityToken tokenAddress,\n        Charity charityAddress,\n        Donor donorAddress\n    ) {\n        owner = msg.sender;\n        projectMarketStorage = projectMarketAddress;\n        tokenContract = tokenAddress;\n        charityContract = charityAddress;\n        donorContract = donorAddress;\n    }\n\n    modifier contractOwnerOnly() {\n        require(\n            msg.sender == owner,\n            \"Only contract owner can perform this action!\"\n        );\n        _;\n    }\n\n    modifier owningCharityOnly(uint256 charityId) {\n        require(\n            charityContract.isOwnerOfCharity(charityId, msg.sender) == true,\n            \"Only owning charity can perform this action!\"\n        );\n        _;\n    }\n\n    modifier activeCharityId(uint256 charityId) {\n        require(\n            charityContract.isCharityActive(charityId) == true,\n            \"Charity ID given is not valid or active\"\n        );\n        _;\n    }\n\n    modifier activeProjectId(uint256 projectMarketId) {\n        require(\n            projectMarketStorage.isProjectActive(projectMarketId) == true,\n            \"ProjectMarket ID given is not valid or active\"\n        );\n        _;\n    }\n\n    modifier isValidDonor() {\n        require(\n            donorContract.isValidDonor(msg.sender),\n            \"You are not a valid donor!\"\n        );\n        _;\n    }\n\n    modifier haltInEmergency() {\n        require(!contractStopped, \"Contract stopped!\");\n        _;\n    }\n\n    modifier noReentrant() {\n        require(!locked, \"No re-entrancy!\");\n        locked = true;\n        _;\n        locked = false;\n    }\n\n    function toggleContractStopped() public view contractOwnerOnly {\n        contractStopped != contractStopped;\n    }\n\n    function listProject(\n        uint256 charityId,\n        string memory title,\n        string memory description,\n        uint256 targetAmount\n    ) public owningCharityOnly(charityId) activeCharityId(charityId) {\n        projectMarketStorage.addProjectToMarket(\n            charityId,\n            title,\n            description,\n            targetAmount\n        );\n        emit projectListed(charityId);\n    }\n\n    function unlistProject(\n        uint256 projectId\n    )\n        public\n        owningCharityOnly(\n            projectMarketStorage.getProjectById(projectId).charityId\n        )\n        activeCharityId(\n            projectMarketStorage.getProjectById(projectId).charityId\n        )\n        activeProjectId(projectId)\n    {\n        projectMarketStorage.closeProject(projectId);\n        emit projectClosed(projectId);\n    }\n\n    function relistProject(\n        uint256 charityId,\n        uint256 projectId\n    ) public owningCharityOnly(charityId) activeCharityId(charityId) {\n        projectMarketStorage.setProjectActive(projectId);\n        emit projectListed(charityId);\n    }\n\n    // in order to donate, donor must first APPROVE the ProjectMarket contract's address to spend the specified ether\n    function donateToProject(\n        uint256 projectId,\n        uint256 amt\n    ) public isValidDonor haltInEmergency noReentrant {\n        uint256 balance = tokenContract.checkBalance(msg.sender);\n        require(amt <= balance, \"You don't have sufficient funds to donate!\");\n        require(\n            projectMarketStorage.isProjectActive(projectId),\n            \"Project ID provided is not valid or currently not active\"\n        );\n        // require(\n        //     tokenContract.checkApproval(msg.sender, owner) >= amt,\n        //     \"You did not authorise ProjectMarket to spend the specified amount to donate!\"\n        // );\n\n        address projectOwner = projectMarketStorage.getProjectOwner(projectId);\n        //tokenContract.transferTokensFrom(msg.sender, projectOwner, amt);\n        tokenContract.transferTokens(projectOwner, amt);\n        projectMarketStorage.addDonationToProject(\n            projectId,\n            amt,\n            msg.sender,\n            false\n        );\n        emit donationMade(projectId, msg.sender);\n    }\n\n    // perform check for locking of charity wallet\n    function checkUnverifiedDonations(\n        uint256 projectId\n    ) public contractOwnerOnly {\n        ProjectMarketStorage.donation[] memory donations = projectMarketStorage\n            .getDonationsByProject(projectId);\n\n        uint256 totalUnverifiedAmt = 0;\n\n        for (uint256 i = 0; i < donations.length; i++) {\n            uint256 unverifiedAmt = donations[i].amt - donations[i].amtVerified;\n            if (\n                block.timestamp - donations[i].transactionDate >=\n                unverifiedTimeLimit\n            ) {\n                totalUnverifiedAmt += unverifiedAmt;\n            }\n            if (totalUnverifiedAmt >= unverifiedCtLimit) {\n                uint256 charityId = projectMarketStorage.getProjectOwnerId(\n                    projectId\n                );\n                charityContract.lockWallet(charityId);\n                emit unverifiedDonationsExceeded(charityId, block.timestamp);\n                break;\n            }\n        }\n    }\n\n    function verifyProofOfUsage(uint256 projectId, uint256 amount) public {\n        projectMarketStorage.addProofOfUsageToProject(projectId, amount);\n        emit proofVerified(projectId, amount);\n    }\n\n    function getAllProjectListings()\n        public\n        view\n        returns (ProjectMarketStorage.project[] memory)\n    {\n        return projectMarketStorage.getAllProjects();\n    }\n\n    function getAllActiveProjectListings()\n        public\n        view\n        returns (ProjectMarketStorage.project[] memory)\n    {\n        return projectMarketStorage.getAllActiveProjects();\n    }\n\n    function getProofsByProject(\n        uint256 projectId\n    ) public view returns (ProjectMarketStorage.proof[] memory) {\n        return projectMarketStorage.getAllProofsByProject(projectId);\n    }\n\n    function getProjectListingDetails(\n        uint256 projectId\n    ) public view returns (ProjectMarketStorage.project memory) {\n        return projectMarketStorage.getProjectById(projectId);\n    }\n\n    function isProjectActive(uint256 projectId) public view returns (bool) {\n        return projectMarketStorage.isProjectActive(projectId);\n    }\n\n    function getDonationsByProject(\n        uint256 projectId\n    ) public view returns (ProjectMarketStorage.donation[] memory) {\n        return projectMarketStorage.getDonationsByProject(projectId);\n    }\n\n    function viewPastDonationsByDonor()\n        public\n        view\n        returns (ProjectMarketStorage.donation[] memory)\n    {\n        return projectMarketStorage.getDonationsByDonor(msg.sender);\n    }\n}\n",
  "sourcePath": "/Users/danielonges/Desktop/coding/blockchain-charity/contracts/ProjectMarket.sol",
  "compiler": {
    "name": "solc",
    "version": "0.8.17+commit.8df45f5f.Emscripten.clang"
  },
  "schemaVersion": "3.4.11",
  "updatedAt": "2023-04-04T10:54:06.653Z",
  "devdoc": {
    "kind": "dev",
    "methods": {},
    "version": 1
  },
  "userdoc": {
    "kind": "user",
    "methods": {},
    "version": 1
  }
}