{
  "contractName": "ProjectMarketStorage",
  "abi": [
    {
      "inputs": [
        {
          "internalType": "contract Charity",
          "name": "charityAddress",
          "type": "address"
        }
      ],
      "stateMutability": "nonpayable",
      "type": "constructor"
    },
    {
      "inputs": [
        {
          "internalType": "uint256",
          "name": "",
          "type": "uint256"
        }
      ],
      "name": "allDonations",
      "outputs": [
        {
          "internalType": "uint256",
          "name": "donationId",
          "type": "uint256"
        },
        {
          "internalType": "uint256",
          "name": "projectId",
          "type": "uint256"
        },
        {
          "internalType": "address",
          "name": "donor",
          "type": "address"
        },
        {
          "internalType": "uint256",
          "name": "amt",
          "type": "uint256"
        },
        {
          "internalType": "uint256",
          "name": "amtVerified",
          "type": "uint256"
        },
        {
          "internalType": "uint256",
          "name": "transactionDate",
          "type": "uint256"
        },
        {
          "internalType": "uint256",
          "name": "timeTakenToVerify",
          "type": "uint256"
        },
        {
          "internalType": "enum ProjectMarketStorage.DonationType",
          "name": "donationType",
          "type": "uint8"
        }
      ],
      "stateMutability": "view",
      "type": "function"
    },
    {
      "inputs": [
        {
          "internalType": "uint256",
          "name": "",
          "type": "uint256"
        }
      ],
      "name": "allProjects",
      "outputs": [
        {
          "internalType": "uint256",
          "name": "projectId",
          "type": "uint256"
        },
        {
          "internalType": "uint256",
          "name": "charityId",
          "type": "uint256"
        },
        {
          "internalType": "string",
          "name": "title",
          "type": "string"
        },
        {
          "internalType": "string",
          "name": "description",
          "type": "string"
        },
        {
          "internalType": "uint256",
          "name": "targetAmount",
          "type": "uint256"
        },
        {
          "internalType": "bool",
          "name": "isActive",
          "type": "bool"
        }
      ],
      "stateMutability": "view",
      "type": "function"
    },
    {
      "inputs": [
        {
          "internalType": "address",
          "name": "",
          "type": "address"
        },
        {
          "internalType": "uint256",
          "name": "",
          "type": "uint256"
        }
      ],
      "name": "donationsByDonor",
      "outputs": [
        {
          "internalType": "uint256",
          "name": "donationId",
          "type": "uint256"
        },
        {
          "internalType": "uint256",
          "name": "projectId",
          "type": "uint256"
        },
        {
          "internalType": "address",
          "name": "donor",
          "type": "address"
        },
        {
          "internalType": "uint256",
          "name": "amt",
          "type": "uint256"
        },
        {
          "internalType": "uint256",
          "name": "amtVerified",
          "type": "uint256"
        },
        {
          "internalType": "uint256",
          "name": "transactionDate",
          "type": "uint256"
        },
        {
          "internalType": "uint256",
          "name": "timeTakenToVerify",
          "type": "uint256"
        },
        {
          "internalType": "enum ProjectMarketStorage.DonationType",
          "name": "donationType",
          "type": "uint8"
        }
      ],
      "stateMutability": "view",
      "type": "function"
    },
    {
      "inputs": [
        {
          "internalType": "uint256",
          "name": "",
          "type": "uint256"
        },
        {
          "internalType": "uint256",
          "name": "",
          "type": "uint256"
        }
      ],
      "name": "donationsByProject",
      "outputs": [
        {
          "internalType": "uint256",
          "name": "donationId",
          "type": "uint256"
        },
        {
          "internalType": "uint256",
          "name": "projectId",
          "type": "uint256"
        },
        {
          "internalType": "address",
          "name": "donor",
          "type": "address"
        },
        {
          "internalType": "uint256",
          "name": "amt",
          "type": "uint256"
        },
        {
          "internalType": "uint256",
          "name": "amtVerified",
          "type": "uint256"
        },
        {
          "internalType": "uint256",
          "name": "transactionDate",
          "type": "uint256"
        },
        {
          "internalType": "uint256",
          "name": "timeTakenToVerify",
          "type": "uint256"
        },
        {
          "internalType": "enum ProjectMarketStorage.DonationType",
          "name": "donationType",
          "type": "uint8"
        }
      ],
      "stateMutability": "view",
      "type": "function"
    },
    {
      "inputs": [],
      "name": "owner",
      "outputs": [
        {
          "internalType": "address",
          "name": "",
          "type": "address"
        }
      ],
      "stateMutability": "view",
      "type": "function"
    },
    {
      "inputs": [
        {
          "internalType": "uint256",
          "name": "",
          "type": "uint256"
        },
        {
          "internalType": "uint256",
          "name": "",
          "type": "uint256"
        }
      ],
      "name": "projectsByCharity",
      "outputs": [
        {
          "internalType": "uint256",
          "name": "projectId",
          "type": "uint256"
        },
        {
          "internalType": "uint256",
          "name": "charityId",
          "type": "uint256"
        },
        {
          "internalType": "string",
          "name": "title",
          "type": "string"
        },
        {
          "internalType": "string",
          "name": "description",
          "type": "string"
        },
        {
          "internalType": "uint256",
          "name": "targetAmount",
          "type": "uint256"
        },
        {
          "internalType": "bool",
          "name": "isActive",
          "type": "bool"
        }
      ],
      "stateMutability": "view",
      "type": "function"
    },
    {
      "inputs": [
        {
          "internalType": "uint256",
          "name": "charityId",
          "type": "uint256"
        },
        {
          "internalType": "string",
          "name": "title",
          "type": "string"
        },
        {
          "internalType": "string",
          "name": "description",
          "type": "string"
        },
        {
          "internalType": "uint256",
          "name": "targetAmount",
          "type": "uint256"
        }
      ],
      "name": "addProjectToMarket",
      "outputs": [
        {
          "internalType": "uint256",
          "name": "",
          "type": "uint256"
        }
      ],
      "stateMutability": "nonpayable",
      "type": "function"
    },
    {
      "inputs": [
        {
          "internalType": "uint256",
          "name": "projectId",
          "type": "uint256"
        }
      ],
      "name": "closeProject",
      "outputs": [],
      "stateMutability": "nonpayable",
      "type": "function"
    },
    {
      "inputs": [
        {
          "internalType": "uint256",
          "name": "projectId",
          "type": "uint256"
        }
      ],
      "name": "getProjectOwner",
      "outputs": [
        {
          "internalType": "address",
          "name": "",
          "type": "address"
        }
      ],
      "stateMutability": "view",
      "type": "function"
    },
    {
      "inputs": [
        {
          "internalType": "uint256",
          "name": "projectId",
          "type": "uint256"
        }
      ],
      "name": "getProjectOwnerId",
      "outputs": [
        {
          "internalType": "uint256",
          "name": "",
          "type": "uint256"
        }
      ],
      "stateMutability": "view",
      "type": "function"
    },
    {
      "inputs": [
        {
          "internalType": "uint256",
          "name": "projectId",
          "type": "uint256"
        },
        {
          "internalType": "uint256",
          "name": "amt",
          "type": "uint256"
        },
        {
          "internalType": "address",
          "name": "donor",
          "type": "address"
        },
        {
          "internalType": "bool",
          "name": "isRecurring",
          "type": "bool"
        }
      ],
      "name": "addDonationToProject",
      "outputs": [
        {
          "internalType": "uint256",
          "name": "",
          "type": "uint256"
        }
      ],
      "stateMutability": "nonpayable",
      "type": "function"
    },
    {
      "inputs": [
        {
          "internalType": "uint256",
          "name": "projectId",
          "type": "uint256"
        },
        {
          "internalType": "uint256",
          "name": "amount",
          "type": "uint256"
        },
        {
          "internalType": "string",
          "name": "utility",
          "type": "string"
        }
      ],
      "name": "addProofOfUsageToProject",
      "outputs": [
        {
          "internalType": "uint256",
          "name": "",
          "type": "uint256"
        }
      ],
      "stateMutability": "nonpayable",
      "type": "function"
    },
    {
      "inputs": [],
      "name": "getAllProjects",
      "outputs": [
        {
          "components": [
            {
              "internalType": "uint256",
              "name": "projectId",
              "type": "uint256"
            },
            {
              "internalType": "uint256",
              "name": "charityId",
              "type": "uint256"
            },
            {
              "internalType": "string",
              "name": "title",
              "type": "string"
            },
            {
              "internalType": "string",
              "name": "description",
              "type": "string"
            },
            {
              "internalType": "uint256",
              "name": "targetAmount",
              "type": "uint256"
            },
            {
              "internalType": "bool",
              "name": "isActive",
              "type": "bool"
            }
          ],
          "internalType": "struct ProjectMarketStorage.project[]",
          "name": "",
          "type": "tuple[]"
        }
      ],
      "stateMutability": "view",
      "type": "function"
    },
    {
      "inputs": [],
      "name": "getAllActiveProjects",
      "outputs": [
        {
          "components": [
            {
              "internalType": "uint256",
              "name": "projectId",
              "type": "uint256"
            },
            {
              "internalType": "uint256",
              "name": "charityId",
              "type": "uint256"
            },
            {
              "internalType": "string",
              "name": "title",
              "type": "string"
            },
            {
              "internalType": "string",
              "name": "description",
              "type": "string"
            },
            {
              "internalType": "uint256",
              "name": "targetAmount",
              "type": "uint256"
            },
            {
              "internalType": "bool",
              "name": "isActive",
              "type": "bool"
            }
          ],
          "internalType": "struct ProjectMarketStorage.project[]",
          "name": "",
          "type": "tuple[]"
        }
      ],
      "stateMutability": "view",
      "type": "function"
    },
    {
      "inputs": [
        {
          "internalType": "uint256",
          "name": "projectId",
          "type": "uint256"
        }
      ],
      "name": "getAllProofsByProject",
      "outputs": [
        {
          "components": [
            {
              "internalType": "uint256",
              "name": "proofId",
              "type": "uint256"
            },
            {
              "internalType": "uint256",
              "name": "projectId",
              "type": "uint256"
            },
            {
              "internalType": "uint256",
              "name": "amtVerified",
              "type": "uint256"
            },
            {
              "internalType": "uint256",
              "name": "timeOfUpload",
              "type": "uint256"
            },
            {
              "internalType": "string",
              "name": "utility",
              "type": "string"
            }
          ],
          "internalType": "struct ProjectMarketStorage.proof[]",
          "name": "",
          "type": "tuple[]"
        }
      ],
      "stateMutability": "view",
      "type": "function"
    },
    {
      "inputs": [
        {
          "internalType": "uint256",
          "name": "id",
          "type": "uint256"
        }
      ],
      "name": "getProjectById",
      "outputs": [
        {
          "components": [
            {
              "internalType": "uint256",
              "name": "projectId",
              "type": "uint256"
            },
            {
              "internalType": "uint256",
              "name": "charityId",
              "type": "uint256"
            },
            {
              "internalType": "string",
              "name": "title",
              "type": "string"
            },
            {
              "internalType": "string",
              "name": "description",
              "type": "string"
            },
            {
              "internalType": "uint256",
              "name": "targetAmount",
              "type": "uint256"
            },
            {
              "internalType": "bool",
              "name": "isActive",
              "type": "bool"
            }
          ],
          "internalType": "struct ProjectMarketStorage.project",
          "name": "",
          "type": "tuple"
        }
      ],
      "stateMutability": "view",
      "type": "function"
    },
    {
      "inputs": [
        {
          "internalType": "uint256",
          "name": "id",
          "type": "uint256"
        }
      ],
      "name": "isProjectActive",
      "outputs": [
        {
          "internalType": "bool",
          "name": "",
          "type": "bool"
        }
      ],
      "stateMutability": "view",
      "type": "function"
    },
    {
      "inputs": [
        {
          "internalType": "uint256",
          "name": "id",
          "type": "uint256"
        }
      ],
      "name": "setProjectActive",
      "outputs": [],
      "stateMutability": "nonpayable",
      "type": "function"
    },
    {
      "inputs": [
        {
          "internalType": "uint256",
          "name": "projectId",
          "type": "uint256"
        }
      ],
      "name": "getDonationsByProject",
      "outputs": [
        {
          "components": [
            {
              "internalType": "uint256",
              "name": "donationId",
              "type": "uint256"
            },
            {
              "internalType": "uint256",
              "name": "projectId",
              "type": "uint256"
            },
            {
              "internalType": "address",
              "name": "donor",
              "type": "address"
            },
            {
              "internalType": "uint256",
              "name": "amt",
              "type": "uint256"
            },
            {
              "internalType": "uint256",
              "name": "amtVerified",
              "type": "uint256"
            },
            {
              "internalType": "uint256",
              "name": "transactionDate",
              "type": "uint256"
            },
            {
              "internalType": "uint256",
              "name": "timeTakenToVerify",
              "type": "uint256"
            },
            {
              "internalType": "enum ProjectMarketStorage.DonationType",
              "name": "donationType",
              "type": "uint8"
            }
          ],
          "internalType": "struct ProjectMarketStorage.donation[]",
          "name": "",
          "type": "tuple[]"
        }
      ],
      "stateMutability": "view",
      "type": "function"
    },
    {
      "inputs": [
        {
          "internalType": "address",
          "name": "donor",
          "type": "address"
        }
      ],
      "name": "getDonationsByDonor",
      "outputs": [
        {
          "components": [
            {
              "internalType": "uint256",
              "name": "donationId",
              "type": "uint256"
            },
            {
              "internalType": "uint256",
              "name": "projectId",
              "type": "uint256"
            },
            {
              "internalType": "address",
              "name": "donor",
              "type": "address"
            },
            {
              "internalType": "uint256",
              "name": "amt",
              "type": "uint256"
            },
            {
              "internalType": "uint256",
              "name": "amtVerified",
              "type": "uint256"
            },
            {
              "internalType": "uint256",
              "name": "transactionDate",
              "type": "uint256"
            },
            {
              "internalType": "uint256",
              "name": "timeTakenToVerify",
              "type": "uint256"
            },
            {
              "internalType": "enum ProjectMarketStorage.DonationType",
              "name": "donationType",
              "type": "uint8"
            }
          ],
          "internalType": "struct ProjectMarketStorage.donation[]",
          "name": "",
          "type": "tuple[]"
        }
      ],
      "stateMutability": "view",
      "type": "function"
    },
    {
      "inputs": [
        {
          "internalType": "uint256",
          "name": "charityId",
          "type": "uint256"
        },
        {
          "internalType": "uint256",
          "name": "timeTakenToVerify",
          "type": "uint256"
        }
      ],
      "name": "setCharityAverageTimeTakenToVerify",
      "outputs": [],
      "stateMutability": "nonpayable",
      "type": "function"
    },
    {
      "inputs": [
        {
          "internalType": "uint256",
          "name": "charityId",
          "type": "uint256"
        },
        {
          "internalType": "bool",
          "name": "isIncrement",
          "type": "bool"
        }
      ],
      "name": "incrementOrDecrementNumVerifiedTransaction",
      "outputs": [],
      "stateMutability": "nonpayable",
      "type": "function"
    },
    {
      "inputs": [
        {
          "internalType": "uint256",
          "name": "charityId",
          "type": "uint256"
        },
        {
          "internalType": "bool",
          "name": "isIncrement",
          "type": "bool"
        }
      ],
      "name": "incrementOrDecrementNumUnverifiedTransaction",
      "outputs": [],
      "stateMutability": "nonpayable",
      "type": "function"
    },
    {
      "inputs": [
        {
          "internalType": "uint256",
          "name": "charityId",
          "type": "uint256"
        }
      ],
      "name": "getAverageTimeTakenToVerifyByCharity",
      "outputs": [
        {
          "internalType": "uint256",
          "name": "",
          "type": "uint256"
        }
      ],
      "stateMutability": "view",
      "type": "function"
    }
  ],
  "bytecode": "0x60806040526000805560006001556000600255600060035533600560006101000a81548173ffffffffffffffffffffffffffffffffffffffff021916908373ffffffffffffffffffffffffffffffffffffffff1602179055503480156200006557600080fd5b506040516200390a3803806200390a83398181016040528101906200008b919062000151565b80600460006101000a81548173ffffffffffffffffffffffffffffffffffffffff021916908373ffffffffffffffffffffffffffffffffffffffff1602179055505062000183565b600080fd5b600073ffffffffffffffffffffffffffffffffffffffff82169050919050565b60006200010582620000d8565b9050919050565b60006200011982620000f8565b9050919050565b6200012b816200010c565b81146200013757600080fd5b50565b6000815190506200014b8162000120565b92915050565b6000602082840312156200016a5762000169620000d3565b5b60006200017a848285016200013a565b91505092915050565b61377780620001936000396000f3fe608060405234801561001057600080fd5b50600436106101585760003560e01c80638da5cb5b116100c3578063c7b031c81161007c578063c7b031c814610463578063cb65bf161461047f578063ce980d4b146104af578063e851ced8146104e4578063ee685df514610514578063f2ef441b1461054457610158565b80638da5cb5b1461037d57806392256aec1461039b57806393dc12e6146103cb578063bb895fc1146103e7578063bee5cdca14610403578063c6d47ac91461043357610158565b80633d0d3086116101155780633d0d30861461027757806350c2f30e146102a757806353b3194c146102d75780636801d5291461030c57806371c69a8e1461032857806380d038291461035f57610158565b8063052e9c131461015d57806305bd57341461018d57806306c49713146101c45780631007f918146101fb57806328d703631461022b5780633739fe631461025b575b600080fd5b610177600480360381019061017291906125f2565b610562565b604051610184919061262e565b60405180910390f35b6101a760048036038101906101a29190612649565b610818565b6040516101bb989796959493929190612741565b60405180910390f35b6101de60048036038101906101d991906125f2565b6108aa565b6040516101f2989796959493929190612741565b60405180910390f35b61021560048036038101906102109190612905565b61091f565b604051610222919061262e565b60405180910390f35b610245600480360381019061024091906129d8565b610d97565b604051610252919061262e565b60405180910390f35b610275600480360381019061027091906125f2565b611151565b005b610291600480360381019061028c9190612a3f565b61119b565b60405161029e9190612beb565b60405180910390f35b6102c160048036038101906102bc91906125f2565b6113e5565b6040516102ce9190612beb565b60405180910390f35b6102f160048036038101906102ec91906125f2565b611525565b60405161030396959493929190612c9b565b60405180910390f35b61032660048036038101906103219190612d0a565b61167e565b005b610342600480360381019061033d9190612d4a565b611711565b604051610356989796959493929190612741565b60405180910390f35b6103676117a3565b6040516103749190612f35565b60405180910390f35b61038561195f565b6040516103929190612f57565b60405180910390f35b6103b560048036038101906103b091906125f2565b611985565b6040516103c29190612f57565b60405180910390f35b6103e560048036038101906103e091906125f2565b611a40565b005b61040160048036038101906103fc9190612649565b611ae5565b005b61041d600480360381019061041891906125f2565b611b78565b60405161042a9190613002565b60405180910390f35b61044d600480360381019061044891906125f2565b611d02565b60405161045a919061315c565b60405180910390f35b61047d60048036038101906104789190612d0a565b611e2e565b005b610499600480360381019061049491906125f2565b611ec1565b6040516104a6919061262e565b60405180910390f35b6104c960048036038101906104c49190612649565b611ee1565b6040516104db96959493929190612c9b565b60405180910390f35b6104fe60048036038101906104f9919061317e565b612057565b60405161050b919061262e565b60405180910390f35b61052e600480360381019061052991906125f2565b61228a565b60405161053b919061321d565b60405180910390f35b61054c6122b7565b6040516105599190612f35565b60405180910390f35b6000806000905060008060086000868152602001908152602001600020805480602002602001604051908101604052809291908181526020016000905b8282101561072e57838290600052602060002090600602016040518060c001604052908160008201548152602001600182015481526020016002820180546105e690613267565b80601f016020809104026020016040519081016040528092919081815260200182805461061290613267565b801561065f5780601f106106345761010080835404028352916020019161065f565b820191906000526020600020905b81548152906001019060200180831161064257829003601f168201915b5050505050815260200160038201805461067890613267565b80601f01602080910402602001604051908101604052809291908181526020018280546106a490613267565b80156106f15780601f106106c6576101008083540402835291602001916106f1565b820191906000526020600020905b8154815290600101906020018083116106d457829003601f168201915b50505050508152602001600482015481526020016005820160009054906101000a900460ff1615151515815250508152602001906001019061059f565b50505050905060005b815181101561080157600061076983838151811061075857610757613298565b5b6020026020010151600001516113e5565b905060005b81518110156107ec57600082828151811061078c5761078b613298565b5b602002602001015160c0015111156107d9578181815181106107b1576107b0613298565b5b602002602001015160c00151866107c891906132f6565b955084806107d59061332a565b9550505b80806107e49061332a565b91505061076e565b505080806107f99061332a565b915050610737565b50818361080e91906133a1565b9350505050919050565b6009602052816000526040600020818154811061083457600080fd5b9060005260206000209060080201600091509150508060000154908060010154908060020160009054906101000a900473ffffffffffffffffffffffffffffffffffffffff16908060030154908060040154908060050154908060060154908060070160009054906101000a900460ff16905088565b60076020528060005260406000206000915090508060000154908060010154908060020160009054906101000a900473ffffffffffffffffffffffffffffffffffffffff16908060030154908060040154908060050154908060060154908060070160009054906101000a900460ff16905088565b6000806006600086815260200190815260200160002060010154905060006040518060a001604052806002548152602001878152602001868152602001428152602001858152509050600c60008781526020019081526020016000208190806001815401808255809150506001900390600052602060002090600502016000909190919091506000820151816000015560208201518160010155604082015181600201556060820151816003015560808201518160040190816109e2919061357e565b50505060005b6009600088815260200190815260200160002080549050811015610d74576000600960008981526020019081526020016000208281548110610a2d57610a2c613298565b5b90600052602060002090600802016000015490506000600960008a81526020019081526020016000208381548110610a6857610a67613298565b5b90600052602060002090600802016006015403610d60576000600960008a81526020019081526020016000208381548110610aa657610aa5613298565b5b906000526020600020906008020160040154600960008b81526020019081526020016000208481548110610add57610adc613298565b5b906000526020600020906008020160030154610af99190613650565b9050808810610cdd578088610b0e9190613650565b9750600960008a81526020019081526020016000208381548110610b3557610b34613298565b5b906000526020600020906008020160030154600960008b81526020019081526020016000208481548110610b6c57610b6b613298565b5b906000526020600020906008020160040181905550600960008a81526020019081526020016000208381548110610ba657610ba5613298565b5b90600052602060002090600802016005015442610bc39190613650565b600960008b81526020019081526020016000208481548110610be857610be7613298565b5b906000526020600020906008020160060181905550600960008a81526020019081526020016000208381548110610c2257610c21613298565b5b9060005260206000209060080201600301546007600084815260200190815260200160002060040181905550600960008a81526020019081526020016000208381548110610c7357610c72613298565b5b90600052602060002090600802016005015442610c909190613650565b60076000848152602001908152602001600020600601819055506000610cb586610562565b9050610cc18682611ae5565b610ccc86600161167e565b610cd7866000611e2e565b50610d5e565b87600960008b81526020019081526020016000208481548110610d0357610d02613298565b5b90600052602060002090600802016004016000828254610d2391906132f6565b9250508190555087600760008481526020019081526020016000206004016000828254610d5091906132f6565b925050819055505050610d74565b505b508080610d6c9061332a565b9150506109e8565b5060026000815480929190610d889061332a565b91905055925050509392505050565b600080600090508215610da957600190505b600060066000888152602001908152602001600020600101549050600060405180610100016040528060015481526020018981526020018773ffffffffffffffffffffffffffffffffffffffff1681526020018881526020016000815260200142815260200160008152602001846001811115610e2957610e286126ca565b5b815250905080600760006001548152602001908152602001600020600082015181600001556020820151816001015560408201518160020160006101000a81548173ffffffffffffffffffffffffffffffffffffffff021916908373ffffffffffffffffffffffffffffffffffffffff160217905550606082015181600301556080820151816004015560a0820151816005015560c0820151816006015560e08201518160070160006101000a81548160ff02191690836001811115610ef257610ef16126ca565b5b021790555090505060096000898152602001908152602001600020819080600181540180825580915050600190039060005260206000209060080201600090919091909150600082015181600001556020820151816001015560408201518160020160006101000a81548173ffffffffffffffffffffffffffffffffffffffff021916908373ffffffffffffffffffffffffffffffffffffffff160217905550606082015181600301556080820151816004015560a0820151816005015560c0820151816006015560e08201518160070160006101000a81548160ff02191690836001811115610fe557610fe46126ca565b5b02179055505050600a60008773ffffffffffffffffffffffffffffffffffffffff1673ffffffffffffffffffffffffffffffffffffffff168152602001908152602001600020819080600181540180825580915050600190039060005260206000209060080201600090919091909150600082015181600001556020820151816001015560408201518160020160006101000a81548173ffffffffffffffffffffffffffffffffffffffff021916908373ffffffffffffffffffffffffffffffffffffffff160217905550606082015181600301556080820151816004015560a0820151816005015560c0820151816006015560e08201518160070160006101000a81548160ff02191690836001811115611103576111026126ca565b5b02179055505050600e600081548092919061111d9061332a565b919050555061112d826001611e2e565b600160008154809291906111409061332a565b919050559350505050949350505050565b60016006600083815260200190815260200160002060050160006101000a81548160ff021916908315150217905550600360008154809291906111939061332a565b919050555050565b60606000600a60008473ffffffffffffffffffffffffffffffffffffffff1673ffffffffffffffffffffffffffffffffffffffff1681526020019081526020016000208054905067ffffffffffffffff8111156111fb576111fa6127da565b5b60405190808252806020026020018201604052801561123457816020015b611221612503565b8152602001906001900390816112195790505b5090506000805b600e548110156113da578473ffffffffffffffffffffffffffffffffffffffff166007600083815260200190815260200160002060020160009054906101000a900473ffffffffffffffffffffffffffffffffffffffff1673ffffffffffffffffffffffffffffffffffffffff16036113c757600760008281526020019081526020016000206040518061010001604052908160008201548152602001600182015481526020016002820160009054906101000a900473ffffffffffffffffffffffffffffffffffffffff1673ffffffffffffffffffffffffffffffffffffffff1673ffffffffffffffffffffffffffffffffffffffff168152602001600382015481526020016004820154815260200160058201548152602001600682015481526020016007820160009054906101000a900460ff166001811115611384576113836126ca565b5b6001811115611396576113956126ca565b5b815250508383815181106113ad576113ac613298565b5b602002602001018190525081806113c39061332a565b9250505b80806113d29061332a565b91505061123b565b508192505050919050565b606060096000838152602001908152602001600020805480602002602001604051908101604052809291908181526020016000905b8282101561151a57838290600052602060002090600802016040518061010001604052908160008201548152602001600182015481526020016002820160009054906101000a900473ffffffffffffffffffffffffffffffffffffffff1673ffffffffffffffffffffffffffffffffffffffff1673ffffffffffffffffffffffffffffffffffffffff168152602001600382015481526020016004820154815260200160058201548152602001600682015481526020016007820160009054906101000a900460ff1660018111156114f5576114f46126ca565b5b6001811115611507576115066126ca565b5b815250508152602001906001019061141a565b505050509050919050565b600660205280600052604060002060009150905080600001549080600101549080600201805461155490613267565b80601f016020809104026020016040519081016040528092919081815260200182805461158090613267565b80156115cd5780601f106115a2576101008083540402835291602001916115cd565b820191906000526020600020905b8154815290600101906020018083116115b057829003601f168201915b5050505050908060030180546115e290613267565b80601f016020809104026020016040519081016040528092919081815260200182805461160e90613267565b801561165b5780601f106116305761010080835404028352916020019161165b565b820191906000526020600020905b81548152906001019060200180831161163e57829003601f168201915b5050505050908060040154908060050160009054906101000a900460ff16905086565b600460009054906101000a900473ffffffffffffffffffffffffffffffffffffffff1673ffffffffffffffffffffffffffffffffffffffff16636801d52983836040518363ffffffff1660e01b81526004016116db929190613684565b600060405180830381600087803b1580156116f557600080fd5b505af1158015611709573d6000803e3d6000fd5b505050505050565b600a602052816000526040600020818154811061172d57600080fd5b9060005260206000209060080201600091509150508060000154908060010154908060020160009054906101000a900473ffffffffffffffffffffffffffffffffffffffff16908060030154908060040154908060050154908060060154908060070160009054906101000a900460ff16905088565b6060600d805480602002602001604051908101604052809291908181526020016000905b8282101561195657838290600052602060002090600602016040518060c0016040529081600082015481526020016001820154815260200160028201805461180e90613267565b80601f016020809104026020016040519081016040528092919081815260200182805461183a90613267565b80156118875780601f1061185c57610100808354040283529160200191611887565b820191906000526020600020905b81548152906001019060200180831161186a57829003601f168201915b505050505081526020016003820180546118a090613267565b80601f01602080910402602001604051908101604052809291908181526020018280546118cc90613267565b80156119195780601f106118ee57610100808354040283529160200191611919565b820191906000526020600020905b8154815290600101906020018083116118fc57829003601f168201915b50505050508152602001600482015481526020016005820160009054906101000a900460ff161515151581525050815260200190600101906117c7565b50505050905090565b600560009054906101000a900473ffffffffffffffffffffffffffffffffffffffff1681565b6000600460009054906101000a900473ffffffffffffffffffffffffffffffffffffffff1673ffffffffffffffffffffffffffffffffffffffff1663e317526a60066000858152602001908152602001600020600101546040518263ffffffff1660e01b81526004016119f8919061262e565b602060405180830381865afa158015611a15573d6000803e3d6000fd5b505050506040513d601f19601f82011682018060405250810190611a3991906136c2565b9050919050565b60006006600083815260200190815260200160002060050160006101000a81548160ff021916908315150217905550600060086000611a7e84611b78565b6020015181526020019081526020016000208281548110611aa257611aa1613298565b5b906000526020600020906006020160050160006101000a81548160ff02191690831515021790555060036000815480929190611add906136ef565b919050555050565b600460009054906101000a900473ffffffffffffffffffffffffffffffffffffffff1673ffffffffffffffffffffffffffffffffffffffff1663bb895fc183836040518363ffffffff1660e01b8152600401611b42929190613718565b600060405180830381600087803b158015611b5c57600080fd5b505af1158015611b70573d6000803e3d6000fd5b505050505050565b611b80612570565b600660008381526020019081526020016000206040518060c00160405290816000820154815260200160018201548152602001600282018054611bc290613267565b80601f0160208091040260200160405190810160405280929190818152602001828054611bee90613267565b8015611c3b5780601f10611c1057610100808354040283529160200191611c3b565b820191906000526020600020905b815481529060010190602001808311611c1e57829003601f168201915b50505050508152602001600382018054611c5490613267565b80601f0160208091040260200160405190810160405280929190818152602001828054611c8090613267565b8015611ccd5780601f10611ca257610100808354040283529160200191611ccd565b820191906000526020600020905b815481529060010190602001808311611cb057829003601f168201915b50505050508152602001600482015481526020016005820160009054906101000a900460ff1615151515815250509050919050565b6060600c6000838152602001908152602001600020805480602002602001604051908101604052809291908181526020016000905b82821015611e2357838290600052602060002090600502016040518060a001604052908160008201548152602001600182015481526020016002820154815260200160038201548152602001600482018054611d9290613267565b80601f0160208091040260200160405190810160405280929190818152602001828054611dbe90613267565b8015611e0b5780601f10611de057610100808354040283529160200191611e0b565b820191906000526020600020905b815481529060010190602001808311611dee57829003601f168201915b50505050508152505081526020019060010190611d37565b505050509050919050565b600460009054906101000a900473ffffffffffffffffffffffffffffffffffffffff1673ffffffffffffffffffffffffffffffffffffffff1663c7b031c883836040518363ffffffff1660e01b8152600401611e8b929190613684565b600060405180830381600087803b158015611ea557600080fd5b505af1158015611eb9573d6000803e3d6000fd5b505050505050565b600060066000838152602001908152602001600020600101549050919050565b60086020528160005260406000208181548110611efd57600080fd5b906000526020600020906006020160009150915050806000015490806001015490806002018054611f2d90613267565b80601f0160208091040260200160405190810160405280929190818152602001828054611f5990613267565b8015611fa65780601f10611f7b57610100808354040283529160200191611fa6565b820191906000526020600020905b815481529060010190602001808311611f8957829003601f168201915b505050505090806003018054611fbb90613267565b80601f0160208091040260200160405190810160405280929190818152602001828054611fe790613267565b80156120345780601f1061200957610100808354040283529160200191612034565b820191906000526020600020905b81548152906001019060200180831161201757829003601f168201915b5050505050908060040154908060050160009054906101000a900460ff16905086565b6000806040518060c001604052806000548152602001878152602001868152602001858152602001848152602001600115158152509050806006600080548152602001908152602001600020600082015181600001556020820151816001015560408201518160020190816120cc919061357e565b5060608201518160030190816120e2919061357e565b506080820151816004015560a08201518160050160006101000a81548160ff0219169083151502179055509050506008600087815260200190815260200160002081908060018154018082558091505060019003906000526020600020906006020160009091909190915060008201518160000155602082015181600101556040820151816002019081612176919061357e565b50606082015181600301908161218c919061357e565b506080820151816004015560a08201518160050160006101000a81548160ff0219169083151502179055505050600d8190806001815401808255809150506001900390600052602060002090600602016000909190919091506000820151816000015560208201518160010155604082015181600201908161220e919061357e565b506060820151816003019081612224919061357e565b506080820151816004015560a08201518160050160006101000a81548160ff0219169083151502179055505050600360008154809291906122649061332a565b919050555060008081548092919061227b9061332a565b91905055915050949350505050565b60006006600083815260200190815260200160002060050160009054906101000a900460ff169050919050565b6060600060035467ffffffffffffffff8111156122d7576122d66127da565b5b60405190808252806020026020018201604052801561231057816020015b6122fd612570565b8152602001906001900390816122f55790505b5090506000805b600d805490508110156124fa5761232d8161228a565b801561233a575060035482105b156124e757600660008281526020019081526020016000206040518060c0016040529081600082015481526020016001820154815260200160028201805461238190613267565b80601f01602080910402602001604051908101604052809291908181526020018280546123ad90613267565b80156123fa5780601f106123cf576101008083540402835291602001916123fa565b820191906000526020600020905b8154815290600101906020018083116123dd57829003601f168201915b5050505050815260200160038201805461241390613267565b80601f016020809104026020016040519081016040528092919081815260200182805461243f90613267565b801561248c5780601f106124615761010080835404028352916020019161248c565b820191906000526020600020905b81548152906001019060200180831161246f57829003601f168201915b50505050508152602001600482015481526020016005820160009054906101000a900460ff1615151515815250508383815181106124cd576124cc613298565b5b602002602001018190525081806124e39061332a565b9250505b80806124f29061332a565b915050612317565b50819250505090565b6040518061010001604052806000815260200160008152602001600073ffffffffffffffffffffffffffffffffffffffff168152602001600081526020016000815260200160008152602001600081526020016000600181111561256a576125696126ca565b5b81525090565b6040518060c0016040528060008152602001600081526020016060815260200160608152602001600081526020016000151581525090565b6000604051905090565b600080fd5b600080fd5b6000819050919050565b6125cf816125bc565b81146125da57600080fd5b50565b6000813590506125ec816125c6565b92915050565b600060208284031215612608576126076125b2565b5b6000612616848285016125dd565b91505092915050565b612628816125bc565b82525050565b6000602082019050612643600083018461261f565b92915050565b600080604083850312156126605761265f6125b2565b5b600061266e858286016125dd565b925050602061267f858286016125dd565b9150509250929050565b600073ffffffffffffffffffffffffffffffffffffffff82169050919050565b60006126b482612689565b9050919050565b6126c4816126a9565b82525050565b7f4e487b7100000000000000000000000000000000000000000000000000000000600052602160045260246000fd5b6002811061270a576127096126ca565b5b50565b600081905061271b826126f9565b919050565b600061272b8261270d565b9050919050565b61273b81612720565b82525050565b600061010082019050612757600083018b61261f565b612764602083018a61261f565b61277160408301896126bb565b61277e606083018861261f565b61278b608083018761261f565b61279860a083018661261f565b6127a560c083018561261f565b6127b260e0830184612732565b9998505050505050505050565b600080fd5b600080fd5b6000601f19601f8301169050919050565b7f4e487b7100000000000000000000000000000000000000000000000000000000600052604160045260246000fd5b612812826127c9565b810181811067ffffffffffffffff82111715612831576128306127da565b5b80604052505050565b60006128446125a8565b90506128508282612809565b919050565b600067ffffffffffffffff8211156128705761286f6127da565b5b612879826127c9565b9050602081019050919050565b82818337600083830152505050565b60006128a86128a384612855565b61283a565b9050828152602081018484840111156128c4576128c36127c4565b5b6128cf848285612886565b509392505050565b600082601f8301126128ec576128eb6127bf565b5b81356128fc848260208601612895565b91505092915050565b60008060006060848603121561291e5761291d6125b2565b5b600061292c868287016125dd565b935050602061293d868287016125dd565b925050604084013567ffffffffffffffff81111561295e5761295d6125b7565b5b61296a868287016128d7565b9150509250925092565b61297d816126a9565b811461298857600080fd5b50565b60008135905061299a81612974565b92915050565b60008115159050919050565b6129b5816129a0565b81146129c057600080fd5b50565b6000813590506129d2816129ac565b92915050565b600080600080608085870312156129f2576129f16125b2565b5b6000612a00878288016125dd565b9450506020612a11878288016125dd565b9350506040612a228782880161298b565b9250506060612a33878288016129c3565b91505092959194509250565b600060208284031215612a5557612a546125b2565b5b6000612a638482850161298b565b91505092915050565b600081519050919050565b600082825260208201905092915050565b6000819050602082019050919050565b612aa1816125bc565b82525050565b612ab0816126a9565b82525050565b612abf81612720565b82525050565b61010082016000820151612adc6000850182612a98565b506020820151612aef6020850182612a98565b506040820151612b026040850182612aa7565b506060820151612b156060850182612a98565b506080820151612b286080850182612a98565b5060a0820151612b3b60a0850182612a98565b5060c0820151612b4e60c0850182612a98565b5060e0820151612b6160e0850182612ab6565b50505050565b6000612b738383612ac5565b6101008301905092915050565b6000602082019050919050565b6000612b9882612a6c565b612ba28185612a77565b9350612bad83612a88565b8060005b83811015612bde578151612bc58882612b67565b9750612bd083612b80565b925050600181019050612bb1565b5085935050505092915050565b60006020820190508181036000830152612c058184612b8d565b905092915050565b600081519050919050565b600082825260208201905092915050565b60005b83811015612c47578082015181840152602081019050612c2c565b60008484015250505050565b6000612c5e82612c0d565b612c688185612c18565b9350612c78818560208601612c29565b612c81816127c9565b840191505092915050565b612c95816129a0565b82525050565b600060c082019050612cb0600083018961261f565b612cbd602083018861261f565b8181036040830152612ccf8187612c53565b90508181036060830152612ce38186612c53565b9050612cf2608083018561261f565b612cff60a0830184612c8c565b979650505050505050565b60008060408385031215612d2157612d206125b2565b5b6000612d2f858286016125dd565b9250506020612d40858286016129c3565b9150509250929050565b60008060408385031215612d6157612d606125b2565b5b6000612d6f8582860161298b565b9250506020612d80858286016125dd565b9150509250929050565b600081519050919050565b600082825260208201905092915050565b6000819050602082019050919050565b600082825260208201905092915050565b6000612dd282612c0d565b612ddc8185612db6565b9350612dec818560208601612c29565b612df5816127c9565b840191505092915050565b612e09816129a0565b82525050565b600060c083016000830151612e276000860182612a98565b506020830151612e3a6020860182612a98565b5060408301518482036040860152612e528282612dc7565b91505060608301518482036060860152612e6c8282612dc7565b9150506080830151612e816080860182612a98565b5060a0830151612e9460a0860182612e00565b508091505092915050565b6000612eab8383612e0f565b905092915050565b6000602082019050919050565b6000612ecb82612d8a565b612ed58185612d95565b935083602082028501612ee785612da6565b8060005b85811015612f235784840389528151612f048582612e9f565b9450612f0f83612eb3565b925060208a01995050600181019050612eeb565b50829750879550505050505092915050565b60006020820190508181036000830152612f4f8184612ec0565b905092915050565b6000602082019050612f6c60008301846126bb565b92915050565b600060c083016000830151612f8a6000860182612a98565b506020830151612f9d6020860182612a98565b5060408301518482036040860152612fb58282612dc7565b91505060608301518482036060860152612fcf8282612dc7565b9150506080830151612fe46080860182612a98565b5060a0830151612ff760a0860182612e00565b508091505092915050565b6000602082019050818103600083015261301c8184612f72565b905092915050565b600081519050919050565b600082825260208201905092915050565b6000819050602082019050919050565b600060a0830160008301516130686000860182612a98565b50602083015161307b6020860182612a98565b50604083015161308e6040860182612a98565b5060608301516130a16060860182612a98565b50608083015184820360808601526130b98282612dc7565b9150508091505092915050565b60006130d28383613050565b905092915050565b6000602082019050919050565b60006130f282613024565b6130fc818561302f565b93508360208202850161310e85613040565b8060005b8581101561314a578484038952815161312b85826130c6565b9450613136836130da565b925060208a01995050600181019050613112565b50829750879550505050505092915050565b6000602082019050818103600083015261317681846130e7565b905092915050565b60008060008060808587031215613198576131976125b2565b5b60006131a6878288016125dd565b945050602085013567ffffffffffffffff8111156131c7576131c66125b7565b5b6131d3878288016128d7565b935050604085013567ffffffffffffffff8111156131f4576131f36125b7565b5b613200878288016128d7565b9250506060613211878288016125dd565b91505092959194509250565b60006020820190506132326000830184612c8c565b92915050565b7f4e487b7100000000000000000000000000000000000000000000000000000000600052602260045260246000fd5b6000600282049050600182168061327f57607f821691505b60208210810361329257613291613238565b5b50919050565b7f4e487b7100000000000000000000000000000000000000000000000000000000600052603260045260246000fd5b7f4e487b7100000000000000000000000000000000000000000000000000000000600052601160045260246000fd5b6000613301826125bc565b915061330c836125bc565b9250828201905080821115613324576133236132c7565b5b92915050565b6000613335826125bc565b91507fffffffffffffffffffffffffffffffffffffffffffffffffffffffffffffffff8203613367576133666132c7565b5b600182019050919050565b7f4e487b7100000000000000000000000000000000000000000000000000000000600052601260045260246000fd5b60006133ac826125bc565b91506133b7836125bc565b9250826133c7576133c6613372565b5b828204905092915050565b60008190508160005260206000209050919050565b60006020601f8301049050919050565b600082821b905092915050565b6000600883026134347fffffffffffffffffffffffffffffffffffffffffffffffffffffffffffffffff826133f7565b61343e86836133f7565b95508019841693508086168417925050509392505050565b6000819050919050565b600061347b613476613471846125bc565b613456565b6125bc565b9050919050565b6000819050919050565b61349583613460565b6134a96134a182613482565b848454613404565b825550505050565b600090565b6134be6134b1565b6134c981848461348c565b505050565b5b818110156134ed576134e26000826134b6565b6001810190506134cf565b5050565b601f82111561353257613503816133d2565b61350c846133e7565b8101602085101561351b578190505b61352f613527856133e7565b8301826134ce565b50505b505050565b600082821c905092915050565b600061355560001984600802613537565b1980831691505092915050565b600061356e8383613544565b9150826002028217905092915050565b61358782612c0d565b67ffffffffffffffff8111156135a05761359f6127da565b5b6135aa8254613267565b6135b58282856134f1565b600060209050601f8311600181146135e857600084156135d6578287015190505b6135e08582613562565b865550613648565b601f1984166135f6866133d2565b60005b8281101561361e578489015182556001820191506020850194506020810190506135f9565b8683101561363b5784890151613637601f891682613544565b8355505b6001600288020188555050505b505050505050565b600061365b826125bc565b9150613666836125bc565b925082820390508181111561367e5761367d6132c7565b5b92915050565b6000604082019050613699600083018561261f565b6136a66020830184612c8c565b9392505050565b6000815190506136bc81612974565b92915050565b6000602082840312156136d8576136d76125b2565b5b60006136e6848285016136ad565b91505092915050565b60006136fa826125bc565b91506000820361370d5761370c6132c7565b5b600182039050919050565b600060408201905061372d600083018561261f565b61373a602083018461261f565b939250505056fea26469706673582212209fcd36cd128a6ce9b4c63a213d57fce23d6b3a70bb4cad339c6bc8963c2a17e264736f6c63430008110033",
  "immutableReferences": {},
  "source": "// SPDX-License-Identifier: MIT\npragma solidity ^0.8.0;\nimport \"./Charity.sol\";\nimport \"./CharityStorage.sol\";\n\ncontract ProjectMarketStorage {\n    enum DonationType {\n        ONETIME,\n        RECURRING\n    }\n\n    struct project {\n        uint256 projectId;\n        uint256 charityId;\n        string title;\n        string description;\n        uint256 targetAmount;\n        bool isActive;\n    }\n\n    struct donation {\n        uint256 donationId;\n        uint256 projectId;\n        address donor;\n        uint256 amt;\n        uint256 amtVerified;\n        uint256 transactionDate;\n        uint256 timeTakenToVerify;\n        DonationType donationType;\n    }\n\n    struct proof {\n        uint256 proofId;\n        uint256 projectId;\n        uint256 amtVerified;\n        uint256 timeOfUpload;\n        string utility;\n    }\n\n    uint256 projectIdCtr = 0;\n    uint256 donationIdCtr = 0;\n    uint256 proofIdCtr = 0;\n    uint256 numActiveListings = 0;\n    Charity charityContract;\n\n    address public owner = msg.sender; // set deployer as owner of the storage contract\n    mapping(uint256 => project) public allProjects; // mapping of projectMarket ID to projectMarket\n    mapping(uint256 => donation) public allDonations; // mapping of donation ID to donation\n    mapping(uint256 => project[]) public projectsByCharity; // mapping of charity ID to list of projectMarkets\n    mapping(uint256 => donation[]) public donationsByProject; // mapping of project ID to list of donations\n    mapping(address => donation[]) public donationsByDonor; // don't use this to access donations, purely for counting number of donations per donor\n    mapping(address => donation[]) transactions; // mapping of donor address to their past transactions\n    mapping(uint256 => proof[]) proofsByProject; // mapping of project ID to list of proofs\n\n    project[] projects;\n    uint256 numDonations;\n\n    constructor(Charity charityAddress) {\n        charityContract = charityAddress;\n    }\n\n    modifier ownerOnly() {\n        require(\n            msg.sender == owner,\n            \"Only the owner of this contract is allowed to perform this operation\"\n        );\n        _;\n    }\n\n    modifier owningCharityOnly(address charityAddress) {\n        require(\n            charityAddress == msg.sender,\n            \"Only owning charity can perform this action!\"\n        );\n        _;\n    }\n\n    function addProjectToMarket(\n        uint256 charityId,\n        string memory title,\n        string memory description,\n        uint256 targetAmount\n    ) public returns (uint256) {\n        project memory newProject = project(\n            projectIdCtr,\n            charityId,\n            title,\n            description,\n            targetAmount,\n            true\n        );\n\n        allProjects[projectIdCtr] = newProject;\n        projectsByCharity[charityId].push(newProject);\n        projects.push(newProject);\n        numActiveListings++;\n        return projectIdCtr++;\n    }\n\n    function closeProject(uint256 projectId) public {\n        allProjects[projectId].isActive = false;\n        projectsByCharity[getProjectById(projectId).charityId][projectId].isActive = false;\n        numActiveListings--;\n    }\n\n    function getProjectOwner(uint256 projectId) public view returns (address) {\n        return\n            charityContract.getCharityOwner(allProjects[projectId].charityId);\n    }\n\n    function getProjectOwnerId(\n        uint256 projectId\n    ) public view returns (uint256) {\n        return allProjects[projectId].charityId;\n    }\n\n    function addDonationToProject(\n        uint256 projectId,\n        uint256 amt,\n        address donor,\n        bool isRecurring\n    ) public returns (uint256) {\n        DonationType d = DonationType.ONETIME;\n        if (isRecurring) {\n            d = DonationType.RECURRING;\n        }\n        uint256 cId = allProjects[projectId].charityId;\n        donation memory newDonation = donation(\n            donationIdCtr,\n            projectId,\n            donor,\n            amt,\n            0,\n            block.timestamp,\n            0,\n            d\n        );\n        allDonations[donationIdCtr] = newDonation;\n        donationsByProject[projectId].push(newDonation);\n        donationsByDonor[donor].push(newDonation);\n        numDonations++;\n        incrementOrDecrementNumUnverifiedTransaction(cId, true);\n        return donationIdCtr++;\n    }\n\n    function addProofOfUsageToProject(\n        uint256 projectId,\n        uint256 amount,\n        string memory utility\n    ) public returns (uint256) {\n        uint256 cId = allProjects[projectId].charityId;\n        proof memory newProof = proof(\n            proofIdCtr,\n            projectId,\n            amount,\n            block.timestamp,\n            utility\n        );\n        proofsByProject[projectId].push(newProof);\n        for (uint i = 0; i < donationsByProject[projectId].length; i++) {\n            uint256 donationId = donationsByProject[projectId][i].donationId;\n            if (donationsByProject[projectId][i].timeTakenToVerify == 0) { // not yet verified\n                uint256 amtNeededToFullyVerifyCurrDonation = donationsByProject[projectId][i].amt - donationsByProject[projectId][i].amtVerified;\n                if (amount >= amtNeededToFullyVerifyCurrDonation) { // can just verify full amount\n                    amount -= amtNeededToFullyVerifyCurrDonation;                    \n                    donationsByProject[projectId][i].amtVerified = donationsByProject[projectId][i].amt;\n                    donationsByProject[projectId][i].timeTakenToVerify = block.timestamp - donationsByProject[projectId][i].transactionDate;\n                    allDonations[donationId].amtVerified = donationsByProject[projectId][i].amt;\n                    allDonations[donationId].timeTakenToVerify = block.timestamp - donationsByProject[projectId][i].transactionDate;\n                    uint256 averageTimeTakenToVerify = getAverageTimeTakenToVerifyByCharity(cId);\n                    setCharityAverageTimeTakenToVerify(cId, averageTimeTakenToVerify);\n                    incrementOrDecrementNumVerifiedTransaction(cId, true);\n                    incrementOrDecrementNumUnverifiedTransaction(cId, false);\n                } else {\n                    donationsByProject[projectId][i].amtVerified += amount; // add remaining amount to amount verified\n                    allDonations[donationId].amtVerified += amount;\n                    break;\n                }\n            }\n        }\n        return proofIdCtr++;\n    }\n\n    function getAllProjects() public view returns (project[] memory) {\n        return projects;\n    }\n\n    function getAllActiveProjects() public view returns (project[] memory) {\n        project[] memory active = new project[](numActiveListings);\n        uint256 idx = 0;\n        for (uint256 i = 0; i < projects.length; i++) {\n            if (isProjectActive(i) && idx < numActiveListings) {\n                active[idx] = allProjects[i];\n                idx++;\n            }\n        }\n        return active;\n    }\n\n    function getAllProofsByProject(uint256 projectId) public view returns (proof[] memory) {\n        return proofsByProject[projectId];\n    }\n\n    function getProjectById(uint256 id) public view returns (project memory) {\n        return allProjects[id];\n    }\n\n    function isProjectActive(uint256 id) public view returns (bool) {\n        return allProjects[id].isActive;\n    }\n\n    function setProjectActive(uint256 id) public {\n        allProjects[id].isActive = true;\n        numActiveListings++;\n    }\n\n    function getDonationsByProject(uint256 projectId) public view returns (donation[] memory) {\n        return donationsByProject[projectId];\n    }\n\n    function getDonationsByDonor(address donor) public view returns (donation[] memory) {\n        donation[] memory filtered = new donation[](donationsByDonor[donor].length);\n        uint256 idx = 0;\n        for (uint256 i = 0; i < numDonations; i++) {\n            if (allDonations[i].donor == donor) {\n                filtered[idx] = allDonations[i];\n                idx++;\n            }\n        }\n        return filtered;\n    }\n\n    function setCharityAverageTimeTakenToVerify(uint256 charityId, uint256 timeTakenToVerify) public {\n        charityContract.setCharityAverageTimeTakenToVerify(charityId, timeTakenToVerify);\n    }\n\n    function incrementOrDecrementNumVerifiedTransaction(uint256 charityId, bool isIncrement) public {\n        charityContract.incrementOrDecrementNumVerifiedTransaction(charityId, isIncrement);\n    }\n\n    function incrementOrDecrementNumUnverifiedTransaction(uint256 charityId, bool isIncrement) public {\n        charityContract.incrementOrDecrementNumUnverifiedTransaction(charityId, isIncrement);\n    }\n\n    function getAverageTimeTakenToVerifyByCharity(uint256 charityId) public view returns (uint256) {\n        uint256 totalTime = 0;\n        uint256 numDonationsVerifiable = 0;\n        project[] memory allProjectsByCharity = projectsByCharity[charityId];\n        for (uint256 i = 0; i < allProjectsByCharity.length; i++) {\n            donation[] memory allDonationsByProject = getDonationsByProject(allProjectsByCharity[i].projectId);\n            for (uint256 j = 0; j < allDonationsByProject.length; j++) {\n                if (allDonationsByProject[j].timeTakenToVerify > 0) {\n                    totalTime += allDonationsByProject[j].timeTakenToVerify;\n                    numDonationsVerifiable++;\n                }\n            }\n        }\n        return totalTime / numDonationsVerifiable;\n    }\n}\n",
  "sourcePath": "/Users/danielonges/Desktop/coding/blockchain-charity/contracts/ProjectMarketStorage.sol",
  "compiler": {
    "name": "solc",
    "version": "0.8.17+commit.8df45f5f.Emscripten.clang"
  },
  "schemaVersion": "3.4.11",
  "updatedAt": "2023-04-04T11:26:52.399Z",
  "devdoc": {
    "kind": "dev",
    "methods": {},
    "version": 1
  },
  "userdoc": {
    "kind": "user",
    "methods": {},
    "version": 1
  }
}