{
  "contractName": "ProjectMarketStorage",
  "abi": [
    {
      "inputs": [
        {
          "internalType": "contract Charity",
          "name": "charityAddress",
          "type": "address"
        }
      ],
      "stateMutability": "nonpayable",
      "type": "constructor"
    },
    {
      "inputs": [
        {
          "internalType": "uint256",
          "name": "",
          "type": "uint256"
        }
      ],
      "name": "allDonations",
      "outputs": [
        {
          "internalType": "uint256",
          "name": "donationId",
          "type": "uint256"
        },
        {
          "internalType": "uint256",
          "name": "projectId",
          "type": "uint256"
        },
        {
          "internalType": "address",
          "name": "donor",
          "type": "address"
        },
        {
          "internalType": "uint256",
          "name": "amt",
          "type": "uint256"
        },
        {
          "internalType": "uint256",
          "name": "transactionDate",
          "type": "uint256"
        },
        {
          "internalType": "uint256",
          "name": "timeOfProofUpload",
          "type": "uint256"
        },
        {
          "internalType": "uint256",
          "name": "timeTakenToVerify",
          "type": "uint256"
        },
        {
          "internalType": "enum ProjectMarketStorage.DonationType",
          "name": "donationType",
          "type": "uint8"
        }
      ],
      "stateMutability": "view",
      "type": "function"
    },
    {
      "inputs": [
        {
          "internalType": "uint256",
          "name": "",
          "type": "uint256"
        }
      ],
      "name": "allProjects",
      "outputs": [
        {
          "internalType": "uint256",
          "name": "projectId",
          "type": "uint256"
        },
        {
          "internalType": "uint256",
          "name": "charityId",
          "type": "uint256"
        },
        {
          "internalType": "string",
          "name": "title",
          "type": "string"
        },
        {
          "internalType": "string",
          "name": "description",
          "type": "string"
        },
        {
          "internalType": "uint256",
          "name": "targetAmount",
          "type": "uint256"
        },
        {
          "internalType": "bool",
          "name": "isActive",
          "type": "bool"
        }
      ],
      "stateMutability": "view",
      "type": "function"
    },
    {
      "inputs": [
        {
          "internalType": "uint256",
          "name": "",
          "type": "uint256"
        },
        {
          "internalType": "uint256",
          "name": "",
          "type": "uint256"
        }
      ],
      "name": "donationsByProject",
      "outputs": [
        {
          "internalType": "uint256",
          "name": "donationId",
          "type": "uint256"
        },
        {
          "internalType": "uint256",
          "name": "projectId",
          "type": "uint256"
        },
        {
          "internalType": "address",
          "name": "donor",
          "type": "address"
        },
        {
          "internalType": "uint256",
          "name": "amt",
          "type": "uint256"
        },
        {
          "internalType": "uint256",
          "name": "transactionDate",
          "type": "uint256"
        },
        {
          "internalType": "uint256",
          "name": "timeOfProofUpload",
          "type": "uint256"
        },
        {
          "internalType": "uint256",
          "name": "timeTakenToVerify",
          "type": "uint256"
        },
        {
          "internalType": "enum ProjectMarketStorage.DonationType",
          "name": "donationType",
          "type": "uint8"
        }
      ],
      "stateMutability": "view",
      "type": "function"
    },
    {
      "inputs": [],
      "name": "owner",
      "outputs": [
        {
          "internalType": "address",
          "name": "",
          "type": "address"
        }
      ],
      "stateMutability": "view",
      "type": "function"
    },
    {
      "inputs": [
        {
          "internalType": "uint256",
          "name": "",
          "type": "uint256"
        },
        {
          "internalType": "uint256",
          "name": "",
          "type": "uint256"
        }
      ],
      "name": "projectsByCharity",
      "outputs": [
        {
          "internalType": "uint256",
          "name": "projectId",
          "type": "uint256"
        },
        {
          "internalType": "uint256",
          "name": "charityId",
          "type": "uint256"
        },
        {
          "internalType": "string",
          "name": "title",
          "type": "string"
        },
        {
          "internalType": "string",
          "name": "description",
          "type": "string"
        },
        {
          "internalType": "uint256",
          "name": "targetAmount",
          "type": "uint256"
        },
        {
          "internalType": "bool",
          "name": "isActive",
          "type": "bool"
        }
      ],
      "stateMutability": "view",
      "type": "function"
    },
    {
      "inputs": [
        {
          "internalType": "uint256",
          "name": "charityId",
          "type": "uint256"
        },
        {
          "internalType": "string",
          "name": "title",
          "type": "string"
        },
        {
          "internalType": "string",
          "name": "description",
          "type": "string"
        },
        {
          "internalType": "uint256",
          "name": "targetAmount",
          "type": "uint256"
        }
      ],
      "name": "addProjectToMarket",
      "outputs": [
        {
          "internalType": "uint256",
          "name": "",
          "type": "uint256"
        }
      ],
      "stateMutability": "nonpayable",
      "type": "function"
    },
    {
      "inputs": [
        {
          "internalType": "uint256",
          "name": "charityId",
          "type": "uint256"
        },
        {
          "internalType": "uint256",
          "name": "projectId",
          "type": "uint256"
        }
      ],
      "name": "closeProject",
      "outputs": [],
      "stateMutability": "nonpayable",
      "type": "function"
    },
    {
      "inputs": [
        {
          "internalType": "uint256",
          "name": "projectId",
          "type": "uint256"
        }
      ],
      "name": "getProjectActive",
      "outputs": [
        {
          "internalType": "bool",
          "name": "",
          "type": "bool"
        }
      ],
      "stateMutability": "view",
      "type": "function"
    },
    {
      "inputs": [
        {
          "internalType": "uint256",
          "name": "projectId",
          "type": "uint256"
        }
      ],
      "name": "getProjectOwner",
      "outputs": [
        {
          "internalType": "address",
          "name": "",
          "type": "address"
        }
      ],
      "stateMutability": "view",
      "type": "function"
    },
    {
      "inputs": [
        {
          "internalType": "uint256",
          "name": "projectId",
          "type": "uint256"
        },
        {
          "internalType": "uint256",
          "name": "amt",
          "type": "uint256"
        },
        {
          "internalType": "address",
          "name": "donor",
          "type": "address"
        },
        {
          "internalType": "bool",
          "name": "isRecurring",
          "type": "bool"
        }
      ],
      "name": "addDonationToProject",
      "outputs": [
        {
          "internalType": "uint256",
          "name": "",
          "type": "uint256"
        }
      ],
      "stateMutability": "nonpayable",
      "type": "function"
    },
    {
      "inputs": [
        {
          "internalType": "uint256",
          "name": "projectId",
          "type": "uint256"
        },
        {
          "internalType": "uint256",
          "name": "amount",
          "type": "uint256"
        }
      ],
      "name": "addProofOfUsageToProject",
      "outputs": [],
      "stateMutability": "nonpayable",
      "type": "function"
    },
    {
      "inputs": [
        {
          "internalType": "uint256[]",
          "name": "donations",
          "type": "uint256[]"
        }
      ],
      "name": "addProofOfUsageToDonations",
      "outputs": [],
      "stateMutability": "nonpayable",
      "type": "function"
    }
  ],
  "bytecode": "0x608060405260008055600060015533600360006101000a81548173ffffffffffffffffffffffffffffffffffffffff021916908373ffffffffffffffffffffffffffffffffffffffff1602179055503480156200005b57600080fd5b5060405162001cad38038062001cad833981810160405281019062000081919062000147565b80600260006101000a81548173ffffffffffffffffffffffffffffffffffffffff021916908373ffffffffffffffffffffffffffffffffffffffff1602179055505062000179565b600080fd5b600073ffffffffffffffffffffffffffffffffffffffff82169050919050565b6000620000fb82620000ce565b9050919050565b60006200010f82620000ee565b9050919050565b620001218162000102565b81146200012d57600080fd5b50565b600081519050620001418162000116565b92915050565b60006020828403121562000160576200015f620000c9565b5b6000620001708482850162000130565b91505092915050565b611b2480620001896000396000f3fe608060405234801561001057600080fd5b50600436106100b45760003560e01c806353b3194c1161007157806353b3194c146101ab5780638da5cb5b146101e057806392256aec146101fe578063ce980d4b1461022e578063e851ced814610263578063e948a74c14610293576100b4565b806305bd5734146100b957806306c49713146100f05780631bf598331461012757806328d703631461014357806330933bf0146101735780633972af3b1461018f575b600080fd5b6100d360048036038101906100ce9190610eb5565b6102c3565b6040516100e7989796959493929190610fbc565b60405180910390f35b61010a6004803603810190610105919061103a565b610355565b60405161011e989796959493929190610fbc565b60405180910390f35b610141600480360381019061013c91906111c0565b6103ca565b005b61015d6004803603810190610158919061126d565b610429565b60405161016a91906112d4565b60405180910390f35b61018d60048036038101906101889190610eb5565b610713565b005b6101a960048036038101906101a49190610eb5565b610889565b005b6101c560048036038101906101c0919061103a565b61090b565b6040516101d79695949392919061137d565b60405180910390f35b6101e8610a64565b6040516101f591906113ec565b60405180910390f35b6102186004803603810190610213919061103a565b610a8a565b60405161022591906113ec565b60405180910390f35b61024860048036038101906102439190610eb5565b610b45565b60405161025a9695949392919061137d565b60405180910390f35b61027d600480360381019061027891906114bc565b610cbb565b60405161028a91906112d4565b60405180910390f35b6102ad60048036038101906102a8919061103a565b610e3e565b6040516102ba919061155b565b60405180910390f35b600760205281600052604060002081815481106102df57600080fd5b9060005260206000209060080201600091509150508060000154908060010154908060020160009054906101000a900473ffffffffffffffffffffffffffffffffffffffff16908060030154908060040154908060050154908060060154908060070160009054906101000a900460ff16905088565b60056020528060005260406000206000915090508060000154908060010154908060020160009054906101000a900473ffffffffffffffffffffffffffffffffffffffff16908060030154908060040154908060050154908060060154908060070160009054906101000a900460ff16905088565b60005b8151811015610425576005600082815260200190815260200160002060050154426103f891906115a5565b6005600083815260200190815260200160002060060181905550808061041d906115d9565b9150506103cd565b5050565b6000600360009054906101000a900473ffffffffffffffffffffffffffffffffffffffff1673ffffffffffffffffffffffffffffffffffffffff163373ffffffffffffffffffffffffffffffffffffffff16146104bb576040517f08c379a00000000000000000000000000000000000000000000000000000000081526004016104b2906116b9565b60405180910390fd5b600082156104c857600190505b600060405180610100016040528060015481526020018881526020018673ffffffffffffffffffffffffffffffffffffffff168152602001878152602001428152602001600081526020016000815260200183600181111561052d5761052c610f45565b5b815250905080600560006001548152602001908152602001600020600082015181600001556020820151816001015560408201518160020160006101000a81548173ffffffffffffffffffffffffffffffffffffffff021916908373ffffffffffffffffffffffffffffffffffffffff160217905550606082015181600301556080820151816004015560a0820151816005015560c0820151816006015560e08201518160070160006101000a81548160ff021916908360018111156105f6576105f5610f45565b5b021790555090505060076000888152602001908152602001600020819080600181540180825580915050600190039060005260206000209060080201600090919091909150600082015181600001556020820151816001015560408201518160020160006101000a81548173ffffffffffffffffffffffffffffffffffffffff021916908373ffffffffffffffffffffffffffffffffffffffff160217905550606082015181600301556080820151816004015560a0820151816005015560c0820151816006015560e08201518160070160006101000a81548160ff021916908360018111156106e9576106e8610f45565b5b0217905550505060016000815480929190610703906115d9565b9190505592505050949350505050565b61071c82610a8a565b3373ffffffffffffffffffffffffffffffffffffffff168173ffffffffffffffffffffffffffffffffffffffff161461078a576040517f08c379a00000000000000000000000000000000000000000000000000000000081526004016107819061174b565b60405180910390fd5b6000805b60076000868152602001908152602001600020805490508110156108825760006007600087815260200190815260200160002082815481106107d3576107d261176b565b5b9060005260206000209060080201600501540361086f57836007600087815260200190815260200160002082815481106108105761080f61176b565b5b9060005260206000209060080201600301548361082d919061179a565b1161086e57426007600087815260200190815260200160002082815481106108585761085761176b565b5b9060005260206000209060080201600501819055505b5b808061087a906115d9565b91505061078e565b5050505050565b60006004600083815260200190815260200160002060050160006101000a81548160ff02191690831515021790555060006006600084815260200190815260200160002082815481106108df576108de61176b565b5b906000526020600020906006020160050160006101000a81548160ff0219169083151502179055505050565b600460205280600052604060002060009150905080600001549080600101549080600201805461093a906117fd565b80601f0160208091040260200160405190810160405280929190818152602001828054610966906117fd565b80156109b35780601f10610988576101008083540402835291602001916109b3565b820191906000526020600020905b81548152906001019060200180831161099657829003601f168201915b5050505050908060030180546109c8906117fd565b80601f01602080910402602001604051908101604052809291908181526020018280546109f4906117fd565b8015610a415780601f10610a1657610100808354040283529160200191610a41565b820191906000526020600020905b815481529060010190602001808311610a2457829003601f168201915b5050505050908060040154908060050160009054906101000a900460ff16905086565b600360009054906101000a900473ffffffffffffffffffffffffffffffffffffffff1681565b6000600260009054906101000a900473ffffffffffffffffffffffffffffffffffffffff1673ffffffffffffffffffffffffffffffffffffffff1663e317526a60046000858152602001908152602001600020600101546040518263ffffffff1660e01b8152600401610afd91906112d4565b602060405180830381865afa158015610b1a573d6000803e3d6000fd5b505050506040513d601f19601f82011682018060405250810190610b3e9190611843565b9050919050565b60066020528160005260406000208181548110610b6157600080fd5b906000526020600020906006020160009150915050806000015490806001015490806002018054610b91906117fd565b80601f0160208091040260200160405190810160405280929190818152602001828054610bbd906117fd565b8015610c0a5780601f10610bdf57610100808354040283529160200191610c0a565b820191906000526020600020905b815481529060010190602001808311610bed57829003601f168201915b505050505090806003018054610c1f906117fd565b80601f0160208091040260200160405190810160405280929190818152602001828054610c4b906117fd565b8015610c985780601f10610c6d57610100808354040283529160200191610c98565b820191906000526020600020905b815481529060010190602001808311610c7b57829003601f168201915b5050505050908060040154908060050160009054906101000a900460ff16905086565b6000806040518060c00160405280600054815260200187815260200186815260200185815260200184815260200160011515815250905080600460008054815260200190815260200160002060008201518160000155602082015181600101556040820151816002019081610d309190611a1c565b506060820151816003019081610d469190611a1c565b506080820151816004015560a08201518160050160006101000a81548160ff0219169083151502179055509050506006600087815260200190815260200160002081908060018154018082558091505060019003906000526020600020906006020160009091909190915060008201518160000155602082015181600101556040820151816002019081610dda9190611a1c565b506060820151816003019081610df09190611a1c565b506080820151816004015560a08201518160050160006101000a81548160ff0219169083151502179055505050600080815480929190610e2f906115d9565b91905055915050949350505050565b60006004600083815260200190815260200160002060050160009054906101000a900460ff169050919050565b6000604051905090565b600080fd5b600080fd5b6000819050919050565b610e9281610e7f565b8114610e9d57600080fd5b50565b600081359050610eaf81610e89565b92915050565b60008060408385031215610ecc57610ecb610e75565b5b6000610eda85828601610ea0565b9250506020610eeb85828601610ea0565b9150509250929050565b610efe81610e7f565b82525050565b600073ffffffffffffffffffffffffffffffffffffffff82169050919050565b6000610f2f82610f04565b9050919050565b610f3f81610f24565b82525050565b7f4e487b7100000000000000000000000000000000000000000000000000000000600052602160045260246000fd5b60028110610f8557610f84610f45565b5b50565b6000819050610f9682610f74565b919050565b6000610fa682610f88565b9050919050565b610fb681610f9b565b82525050565b600061010082019050610fd2600083018b610ef5565b610fdf602083018a610ef5565b610fec6040830189610f36565b610ff96060830188610ef5565b6110066080830187610ef5565b61101360a0830186610ef5565b61102060c0830185610ef5565b61102d60e0830184610fad565b9998505050505050505050565b6000602082840312156110505761104f610e75565b5b600061105e84828501610ea0565b91505092915050565b600080fd5b6000601f19601f8301169050919050565b7f4e487b7100000000000000000000000000000000000000000000000000000000600052604160045260246000fd5b6110b58261106c565b810181811067ffffffffffffffff821117156110d4576110d361107d565b5b80604052505050565b60006110e7610e6b565b90506110f382826110ac565b919050565b600067ffffffffffffffff8211156111135761111261107d565b5b602082029050602081019050919050565b600080fd5b600061113c611137846110f8565b6110dd565b9050808382526020820190506020840283018581111561115f5761115e611124565b5b835b8181101561118857806111748882610ea0565b845260208401935050602081019050611161565b5050509392505050565b600082601f8301126111a7576111a6611067565b5b81356111b7848260208601611129565b91505092915050565b6000602082840312156111d6576111d5610e75565b5b600082013567ffffffffffffffff8111156111f4576111f3610e7a565b5b61120084828501611192565b91505092915050565b61121281610f24565b811461121d57600080fd5b50565b60008135905061122f81611209565b92915050565b60008115159050919050565b61124a81611235565b811461125557600080fd5b50565b60008135905061126781611241565b92915050565b6000806000806080858703121561128757611286610e75565b5b600061129587828801610ea0565b94505060206112a687828801610ea0565b93505060406112b787828801611220565b92505060606112c887828801611258565b91505092959194509250565b60006020820190506112e96000830184610ef5565b92915050565b600081519050919050565b600082825260208201905092915050565b60005b8381101561132957808201518184015260208101905061130e565b60008484015250505050565b6000611340826112ef565b61134a81856112fa565b935061135a81856020860161130b565b6113638161106c565b840191505092915050565b61137781611235565b82525050565b600060c0820190506113926000830189610ef5565b61139f6020830188610ef5565b81810360408301526113b18187611335565b905081810360608301526113c58186611335565b90506113d46080830185610ef5565b6113e160a083018461136e565b979650505050505050565b60006020820190506114016000830184610f36565b92915050565b600080fd5b600067ffffffffffffffff8211156114275761142661107d565b5b6114308261106c565b9050602081019050919050565b82818337600083830152505050565b600061145f61145a8461140c565b6110dd565b90508281526020810184848401111561147b5761147a611407565b5b61148684828561143d565b509392505050565b600082601f8301126114a3576114a2611067565b5b81356114b384826020860161144c565b91505092915050565b600080600080608085870312156114d6576114d5610e75565b5b60006114e487828801610ea0565b945050602085013567ffffffffffffffff81111561150557611504610e7a565b5b6115118782880161148e565b935050604085013567ffffffffffffffff81111561153257611531610e7a565b5b61153e8782880161148e565b925050606061154f87828801610ea0565b91505092959194509250565b6000602082019050611570600083018461136e565b92915050565b7f4e487b7100000000000000000000000000000000000000000000000000000000600052601160045260246000fd5b60006115b082610e7f565b91506115bb83610e7f565b92508282039050818111156115d3576115d2611576565b5b92915050565b60006115e482610e7f565b91507fffffffffffffffffffffffffffffffffffffffffffffffffffffffffffffffff820361161657611615611576565b5b600182019050919050565b7f4f6e6c7920746865206f776e6572206f66207468697320636f6e74726163742060008201527f697320616c6c6f77656420746f20706572666f726d2074686973206f7065726160208201527f74696f6e00000000000000000000000000000000000000000000000000000000604082015250565b60006116a36044836112fa565b91506116ae82611621565b606082019050919050565b600060208201905081810360008301526116d281611696565b9050919050565b7f4f6e6c79206f776e696e6720636861726974792063616e20706572666f726d2060008201527f7468697320616374696f6e210000000000000000000000000000000000000000602082015250565b6000611735602c836112fa565b9150611740826116d9565b604082019050919050565b6000602082019050818103600083015261176481611728565b9050919050565b7f4e487b7100000000000000000000000000000000000000000000000000000000600052603260045260246000fd5b60006117a582610e7f565b91506117b083610e7f565b92508282019050808211156117c8576117c7611576565b5b92915050565b7f4e487b7100000000000000000000000000000000000000000000000000000000600052602260045260246000fd5b6000600282049050600182168061181557607f821691505b602082108103611828576118276117ce565b5b50919050565b60008151905061183d81611209565b92915050565b60006020828403121561185957611858610e75565b5b60006118678482850161182e565b91505092915050565b60008190508160005260206000209050919050565b60006020601f8301049050919050565b600082821b905092915050565b6000600883026118d27fffffffffffffffffffffffffffffffffffffffffffffffffffffffffffffffff82611895565b6118dc8683611895565b95508019841693508086168417925050509392505050565b6000819050919050565b600061191961191461190f84610e7f565b6118f4565b610e7f565b9050919050565b6000819050919050565b611933836118fe565b61194761193f82611920565b8484546118a2565b825550505050565b600090565b61195c61194f565b61196781848461192a565b505050565b5b8181101561198b57611980600082611954565b60018101905061196d565b5050565b601f8211156119d0576119a181611870565b6119aa84611885565b810160208510156119b9578190505b6119cd6119c585611885565b83018261196c565b50505b505050565b600082821c905092915050565b60006119f3600019846008026119d5565b1980831691505092915050565b6000611a0c83836119e2565b9150826002028217905092915050565b611a25826112ef565b67ffffffffffffffff811115611a3e57611a3d61107d565b5b611a4882546117fd565b611a5382828561198f565b600060209050601f831160018114611a865760008415611a74578287015190505b611a7e8582611a00565b865550611ae6565b601f198416611a9486611870565b60005b82811015611abc57848901518255600182019150602085019450602081019050611a97565b86831015611ad95784890151611ad5601f8916826119e2565b8355505b6001600288020188555050505b50505050505056fea2646970667358221220ad43f1094496ba74abbf785653d2feed1caf8485dbad1e352c815a0c3958235364736f6c63430008110033",
  "immutableReferences": {},
  "source": "// SPDX-License-Identifier: MIT\npragma solidity ^0.8.0;\nimport \"./Charity.sol\";\n\ncontract ProjectMarketStorage {\n    enum DonationType {\n        ONETIME,\n        RECURRING\n    }\n\n    struct project {\n        uint256 projectId;\n        uint256 charityId;\n        string title;\n        string description;\n        uint256 targetAmount;\n        // donation[] donations;\n        bool isActive;\n    }\n\n    struct donation {\n        uint256 donationId;\n        uint256 projectId;\n        address donor;\n        uint256 amt;\n        uint256 transactionDate;\n        uint256 timeOfProofUpload;\n        uint256 timeTakenToVerify;\n        DonationType donationType;\n    }\n\n    uint256 projectIdCtr = 0;\n    uint256 donationIdCtr = 0;\n    Charity charityContract;\n\n    address public owner = msg.sender; // set deployer as owner of the storage contract\n    mapping(uint256 => project) public allProjects; // mapping of projectMarket ID to projectMarket\n    mapping(uint256 => donation) public allDonations; // mapping of donation ID to donation\n    mapping(uint256 => project[]) public projectsByCharity; // mapping of charity ID to list of projectMarkets\n    mapping(uint256 => donation[]) public donationsByProject; // mapping of project ID to list of donations\n    mapping(address => donation[]) transactions; // mapping of donor address to their past transactions\n\n    constructor(Charity charityAddress) {\n        charityContract = charityAddress;\n    }\n\n    modifier ownerOnly() {\n        require(\n            msg.sender == owner,\n            \"Only the owner of this contract is allowed to perform this operation\"\n        );\n        _;\n    }\n\n    modifier owningCharityOnly(address charityAddress) {\n        require(\n            charityAddress == msg.sender,\n            \"Only owning charity can perform this action!\"\n        );\n        _;\n    }\n\n    function addProjectToMarket(\n        uint256 charityId,\n        string memory title,\n        string memory description,\n        uint256 targetAmount\n    ) public returns (uint256) {\n        // donation[] memory donations;\n        project memory newProject = project(\n            projectIdCtr,\n            charityId,\n            title,\n            description,\n            targetAmount,\n            // donations,\n            true\n        );\n\n        allProjects[projectIdCtr] = newProject;\n        projectsByCharity[charityId].push(newProject);\n\n        return projectIdCtr++;\n    }\n\n    function closeProject(uint256 charityId, uint256 projectId) public {\n        allProjects[projectId].isActive = false;\n        projectsByCharity[charityId][projectId].isActive = false;\n    }\n\n    function getProjectActive(uint256 projectId) public view returns (bool) {\n        return allProjects[projectId].isActive;\n    }\n\n    function getProjectOwner(uint256 projectId) public view returns (address) {\n        return\n            charityContract.getCharityOwner(allProjects[projectId].charityId);\n    }\n\n    function addDonationToProject(\n        uint256 projectId,\n        uint256 amt,\n        address donor,\n        bool isRecurring\n    ) public ownerOnly returns (uint256) {\n        DonationType d = DonationType.ONETIME;\n        if (isRecurring) {\n            d = DonationType.RECURRING;\n        }\n        donation memory newDonation = donation(\n            donationIdCtr,\n            projectId,\n            donor,\n            amt,\n            block.timestamp,\n            0,\n            0,\n            d\n        );\n        // allProjects[projectId].donations.push(newDonation);\n        allDonations[donationIdCtr] = newDonation;\n        donationsByProject[projectId].push(newDonation);\n        return donationIdCtr++;\n    }\n\n    function addProofOfUsageToProject(\n        uint256 projectId,\n        uint256 amount\n    ) public owningCharityOnly(getProjectOwner(projectId)) {\n        uint amt = 0;\n        for (uint i = 0; i < donationsByProject[projectId].length; i++) {\n            if (donationsByProject[projectId][i].timeOfProofUpload == 0) {\n                // no proof yet\n                if (amt + donationsByProject[projectId][i].amt <= amount) {\n                    donationsByProject[projectId][i].timeOfProofUpload = block\n                        .timestamp;\n                }\n            }\n        }\n    }\n\n    function addProofOfUsageToDonations(uint256[] memory donations) public {\n        for (uint i = 0; i < donations.length; i++) {\n            allDonations[i].timeTakenToVerify =\n                block.timestamp -\n                allDonations[i].timeOfProofUpload;\n        }\n    }\n}\n",
  "sourcePath": "/Users/danielonges/Desktop/coding/blockchain-charity/contracts/ProjectMarketStorage.sol",
  "compiler": {
    "name": "solc",
    "version": "0.8.17+commit.8df45f5f.Emscripten.clang"
  },
  "schemaVersion": "3.4.11",
  "updatedAt": "2023-03-24T07:33:42.818Z",
  "devdoc": {
    "kind": "dev",
    "methods": {},
    "version": 1
  },
  "userdoc": {
    "kind": "user",
    "methods": {},
    "version": 1
  }
}