{
  "contractName": "ProjectMarketStorage",
  "abi": [
    {
      "inputs": [
        {
          "internalType": "contract Charity",
          "name": "charityAddress",
          "type": "address"
        }
      ],
      "stateMutability": "nonpayable",
      "type": "constructor"
    },
    {
      "inputs": [
        {
          "internalType": "uint256",
          "name": "",
          "type": "uint256"
        }
      ],
      "name": "allDonations",
      "outputs": [
        {
          "internalType": "uint256",
          "name": "donationId",
          "type": "uint256"
        },
        {
          "internalType": "uint256",
          "name": "projectId",
          "type": "uint256"
        },
        {
          "internalType": "address",
          "name": "donor",
          "type": "address"
        },
        {
          "internalType": "uint256",
          "name": "amt",
          "type": "uint256"
        },
        {
          "internalType": "uint256",
          "name": "amtVerified",
          "type": "uint256"
        },
        {
          "internalType": "uint256",
          "name": "transactionDate",
          "type": "uint256"
        },
        {
          "internalType": "uint256",
          "name": "timeTakenToVerify",
          "type": "uint256"
        },
        {
          "internalType": "enum ProjectMarketStorage.DonationType",
          "name": "donationType",
          "type": "uint8"
        }
      ],
      "stateMutability": "view",
      "type": "function",
      "constant": true
    },
    {
      "inputs": [
        {
          "internalType": "uint256",
          "name": "",
          "type": "uint256"
        }
      ],
      "name": "allProjects",
      "outputs": [
        {
          "internalType": "uint256",
          "name": "projectId",
          "type": "uint256"
        },
        {
          "internalType": "uint256",
          "name": "charityId",
          "type": "uint256"
        },
        {
          "internalType": "string",
          "name": "title",
          "type": "string"
        },
        {
          "internalType": "string",
          "name": "description",
          "type": "string"
        },
        {
          "internalType": "uint256",
          "name": "targetAmount",
          "type": "uint256"
        },
        {
          "internalType": "bool",
          "name": "isActive",
          "type": "bool"
        }
      ],
      "stateMutability": "view",
      "type": "function",
      "constant": true
    },
    {
      "inputs": [
        {
          "internalType": "address",
          "name": "",
          "type": "address"
        },
        {
          "internalType": "uint256",
          "name": "",
          "type": "uint256"
        }
      ],
      "name": "donationsByDonor",
      "outputs": [
        {
          "internalType": "uint256",
          "name": "donationId",
          "type": "uint256"
        },
        {
          "internalType": "uint256",
          "name": "projectId",
          "type": "uint256"
        },
        {
          "internalType": "address",
          "name": "donor",
          "type": "address"
        },
        {
          "internalType": "uint256",
          "name": "amt",
          "type": "uint256"
        },
        {
          "internalType": "uint256",
          "name": "amtVerified",
          "type": "uint256"
        },
        {
          "internalType": "uint256",
          "name": "transactionDate",
          "type": "uint256"
        },
        {
          "internalType": "uint256",
          "name": "timeTakenToVerify",
          "type": "uint256"
        },
        {
          "internalType": "enum ProjectMarketStorage.DonationType",
          "name": "donationType",
          "type": "uint8"
        }
      ],
      "stateMutability": "view",
      "type": "function",
      "constant": true
    },
    {
      "inputs": [
        {
          "internalType": "uint256",
          "name": "",
          "type": "uint256"
        },
        {
          "internalType": "uint256",
          "name": "",
          "type": "uint256"
        }
      ],
      "name": "donationsByProject",
      "outputs": [
        {
          "internalType": "uint256",
          "name": "donationId",
          "type": "uint256"
        },
        {
          "internalType": "uint256",
          "name": "projectId",
          "type": "uint256"
        },
        {
          "internalType": "address",
          "name": "donor",
          "type": "address"
        },
        {
          "internalType": "uint256",
          "name": "amt",
          "type": "uint256"
        },
        {
          "internalType": "uint256",
          "name": "amtVerified",
          "type": "uint256"
        },
        {
          "internalType": "uint256",
          "name": "transactionDate",
          "type": "uint256"
        },
        {
          "internalType": "uint256",
          "name": "timeTakenToVerify",
          "type": "uint256"
        },
        {
          "internalType": "enum ProjectMarketStorage.DonationType",
          "name": "donationType",
          "type": "uint8"
        }
      ],
      "stateMutability": "view",
      "type": "function",
      "constant": true
    },
    {
      "inputs": [],
      "name": "owner",
      "outputs": [
        {
          "internalType": "address",
          "name": "",
          "type": "address"
        }
      ],
      "stateMutability": "view",
      "type": "function",
      "constant": true
    },
    {
      "inputs": [
        {
          "internalType": "uint256",
          "name": "",
          "type": "uint256"
        },
        {
          "internalType": "uint256",
          "name": "",
          "type": "uint256"
        }
      ],
      "name": "projectsByCharity",
      "outputs": [
        {
          "internalType": "uint256",
          "name": "projectId",
          "type": "uint256"
        },
        {
          "internalType": "uint256",
          "name": "charityId",
          "type": "uint256"
        },
        {
          "internalType": "string",
          "name": "title",
          "type": "string"
        },
        {
          "internalType": "string",
          "name": "description",
          "type": "string"
        },
        {
          "internalType": "uint256",
          "name": "targetAmount",
          "type": "uint256"
        },
        {
          "internalType": "bool",
          "name": "isActive",
          "type": "bool"
        }
      ],
      "stateMutability": "view",
      "type": "function",
      "constant": true
    },
    {
      "inputs": [
        {
          "internalType": "uint256",
          "name": "charityId",
          "type": "uint256"
        },
        {
          "internalType": "string",
          "name": "title",
          "type": "string"
        },
        {
          "internalType": "string",
          "name": "description",
          "type": "string"
        },
        {
          "internalType": "uint256",
          "name": "targetAmount",
          "type": "uint256"
        }
      ],
      "name": "addProjectToMarket",
      "outputs": [
        {
          "internalType": "uint256",
          "name": "",
          "type": "uint256"
        }
      ],
      "stateMutability": "nonpayable",
      "type": "function"
    },
    {
      "inputs": [
        {
          "internalType": "uint256",
          "name": "projectId",
          "type": "uint256"
        }
      ],
      "name": "closeProject",
      "outputs": [],
      "stateMutability": "nonpayable",
      "type": "function"
    },
    {
      "inputs": [
        {
          "internalType": "uint256",
          "name": "projectId",
          "type": "uint256"
        }
      ],
      "name": "getProjectOwner",
      "outputs": [
        {
          "internalType": "address",
          "name": "",
          "type": "address"
        }
      ],
      "stateMutability": "view",
      "type": "function",
      "constant": true
    },
    {
      "inputs": [
        {
          "internalType": "uint256",
          "name": "projectId",
          "type": "uint256"
        }
      ],
      "name": "getProjectOwnerId",
      "outputs": [
        {
          "internalType": "uint256",
          "name": "",
          "type": "uint256"
        }
      ],
      "stateMutability": "view",
      "type": "function",
      "constant": true
    },
    {
      "inputs": [
        {
          "internalType": "uint256",
          "name": "projectId",
          "type": "uint256"
        },
        {
          "internalType": "uint256",
          "name": "amt",
          "type": "uint256"
        },
        {
          "internalType": "address",
          "name": "donor",
          "type": "address"
        },
        {
          "internalType": "bool",
          "name": "isRecurring",
          "type": "bool"
        }
      ],
      "name": "addDonationToProject",
      "outputs": [
        {
          "internalType": "uint256",
          "name": "",
          "type": "uint256"
        }
      ],
      "stateMutability": "nonpayable",
      "type": "function"
    },
    {
      "inputs": [
        {
          "internalType": "uint256",
          "name": "projectId",
          "type": "uint256"
        },
        {
          "internalType": "uint256",
          "name": "amount",
          "type": "uint256"
        },
        {
          "internalType": "string",
          "name": "utility",
          "type": "string"
        }
      ],
      "name": "addProofOfUsageToProject",
      "outputs": [
        {
          "internalType": "uint256",
          "name": "",
          "type": "uint256"
        }
      ],
      "stateMutability": "nonpayable",
      "type": "function"
    },
    {
      "inputs": [],
      "name": "getAllProjects",
      "outputs": [
        {
          "components": [
            {
              "internalType": "uint256",
              "name": "projectId",
              "type": "uint256"
            },
            {
              "internalType": "uint256",
              "name": "charityId",
              "type": "uint256"
            },
            {
              "internalType": "string",
              "name": "title",
              "type": "string"
            },
            {
              "internalType": "string",
              "name": "description",
              "type": "string"
            },
            {
              "internalType": "uint256",
              "name": "targetAmount",
              "type": "uint256"
            },
            {
              "internalType": "bool",
              "name": "isActive",
              "type": "bool"
            }
          ],
          "internalType": "struct ProjectMarketStorage.project[]",
          "name": "",
          "type": "tuple[]"
        }
      ],
      "stateMutability": "view",
      "type": "function",
      "constant": true
    },
    {
      "inputs": [],
      "name": "getAllActiveProjects",
      "outputs": [
        {
          "components": [
            {
              "internalType": "uint256",
              "name": "projectId",
              "type": "uint256"
            },
            {
              "internalType": "uint256",
              "name": "charityId",
              "type": "uint256"
            },
            {
              "internalType": "string",
              "name": "title",
              "type": "string"
            },
            {
              "internalType": "string",
              "name": "description",
              "type": "string"
            },
            {
              "internalType": "uint256",
              "name": "targetAmount",
              "type": "uint256"
            },
            {
              "internalType": "bool",
              "name": "isActive",
              "type": "bool"
            }
          ],
          "internalType": "struct ProjectMarketStorage.project[]",
          "name": "",
          "type": "tuple[]"
        }
      ],
      "stateMutability": "view",
      "type": "function",
      "constant": true
    },
    {
      "inputs": [
        {
          "internalType": "uint256",
          "name": "projectId",
          "type": "uint256"
        }
      ],
      "name": "getAllProofsByProject",
      "outputs": [
        {
          "components": [
            {
              "internalType": "uint256",
              "name": "proofId",
              "type": "uint256"
            },
            {
              "internalType": "uint256",
              "name": "projectId",
              "type": "uint256"
            },
            {
              "internalType": "uint256",
              "name": "amtVerified",
              "type": "uint256"
            },
            {
              "internalType": "uint256",
              "name": "timeOfUpload",
              "type": "uint256"
            },
            {
              "internalType": "string",
              "name": "utility",
              "type": "string"
            }
          ],
          "internalType": "struct ProjectMarketStorage.proof[]",
          "name": "",
          "type": "tuple[]"
        }
      ],
      "stateMutability": "view",
      "type": "function",
      "constant": true
    },
    {
      "inputs": [
        {
          "internalType": "uint256",
          "name": "id",
          "type": "uint256"
        }
      ],
      "name": "getProjectById",
      "outputs": [
        {
          "components": [
            {
              "internalType": "uint256",
              "name": "projectId",
              "type": "uint256"
            },
            {
              "internalType": "uint256",
              "name": "charityId",
              "type": "uint256"
            },
            {
              "internalType": "string",
              "name": "title",
              "type": "string"
            },
            {
              "internalType": "string",
              "name": "description",
              "type": "string"
            },
            {
              "internalType": "uint256",
              "name": "targetAmount",
              "type": "uint256"
            },
            {
              "internalType": "bool",
              "name": "isActive",
              "type": "bool"
            }
          ],
          "internalType": "struct ProjectMarketStorage.project",
          "name": "",
          "type": "tuple"
        }
      ],
      "stateMutability": "view",
      "type": "function",
      "constant": true
    },
    {
      "inputs": [
        {
          "internalType": "uint256",
          "name": "id",
          "type": "uint256"
        }
      ],
      "name": "isProjectActive",
      "outputs": [
        {
          "internalType": "bool",
          "name": "",
          "type": "bool"
        }
      ],
      "stateMutability": "view",
      "type": "function",
      "constant": true
    },
    {
      "inputs": [
        {
          "internalType": "uint256",
          "name": "id",
          "type": "uint256"
        }
      ],
      "name": "setProjectActive",
      "outputs": [],
      "stateMutability": "nonpayable",
      "type": "function"
    },
    {
      "inputs": [
        {
          "internalType": "uint256",
          "name": "projectId",
          "type": "uint256"
        }
      ],
      "name": "getDonationsByProject",
      "outputs": [
        {
          "components": [
            {
              "internalType": "uint256",
              "name": "donationId",
              "type": "uint256"
            },
            {
              "internalType": "uint256",
              "name": "projectId",
              "type": "uint256"
            },
            {
              "internalType": "address",
              "name": "donor",
              "type": "address"
            },
            {
              "internalType": "uint256",
              "name": "amt",
              "type": "uint256"
            },
            {
              "internalType": "uint256",
              "name": "amtVerified",
              "type": "uint256"
            },
            {
              "internalType": "uint256",
              "name": "transactionDate",
              "type": "uint256"
            },
            {
              "internalType": "uint256",
              "name": "timeTakenToVerify",
              "type": "uint256"
            },
            {
              "internalType": "enum ProjectMarketStorage.DonationType",
              "name": "donationType",
              "type": "uint8"
            }
          ],
          "internalType": "struct ProjectMarketStorage.donation[]",
          "name": "",
          "type": "tuple[]"
        }
      ],
      "stateMutability": "view",
      "type": "function",
      "constant": true
    },
    {
      "inputs": [
        {
          "internalType": "address",
          "name": "donor",
          "type": "address"
        }
      ],
      "name": "getDonationsByDonor",
      "outputs": [
        {
          "components": [
            {
              "internalType": "uint256",
              "name": "donationId",
              "type": "uint256"
            },
            {
              "internalType": "uint256",
              "name": "projectId",
              "type": "uint256"
            },
            {
              "internalType": "address",
              "name": "donor",
              "type": "address"
            },
            {
              "internalType": "uint256",
              "name": "amt",
              "type": "uint256"
            },
            {
              "internalType": "uint256",
              "name": "amtVerified",
              "type": "uint256"
            },
            {
              "internalType": "uint256",
              "name": "transactionDate",
              "type": "uint256"
            },
            {
              "internalType": "uint256",
              "name": "timeTakenToVerify",
              "type": "uint256"
            },
            {
              "internalType": "enum ProjectMarketStorage.DonationType",
              "name": "donationType",
              "type": "uint8"
            }
          ],
          "internalType": "struct ProjectMarketStorage.donation[]",
          "name": "",
          "type": "tuple[]"
        }
      ],
      "stateMutability": "view",
      "type": "function",
      "constant": true
    },
    {
      "inputs": [
        {
          "internalType": "uint256",
          "name": "charityId",
          "type": "uint256"
        },
        {
          "internalType": "uint256",
          "name": "timeTakenToVerify",
          "type": "uint256"
        }
      ],
      "name": "setCharityAverageTimeTakenToVerify",
      "outputs": [],
      "stateMutability": "nonpayable",
      "type": "function"
    },
    {
      "inputs": [
        {
          "internalType": "uint256",
          "name": "charityId",
          "type": "uint256"
        },
        {
          "internalType": "bool",
          "name": "isIncrement",
          "type": "bool"
        }
      ],
      "name": "incrementOrDecrementNumVerifiedTransaction",
      "outputs": [],
      "stateMutability": "nonpayable",
      "type": "function"
    },
    {
      "inputs": [
        {
          "internalType": "uint256",
          "name": "charityId",
          "type": "uint256"
        },
        {
          "internalType": "bool",
          "name": "isIncrement",
          "type": "bool"
        }
      ],
      "name": "incrementOrDecrementNumUnverifiedTransaction",
      "outputs": [],
      "stateMutability": "nonpayable",
      "type": "function"
    },
    {
      "inputs": [
        {
          "internalType": "uint256",
          "name": "charityId",
          "type": "uint256"
        }
      ],
      "name": "getAverageTimeTakenToVerifyByCharity",
      "outputs": [
        {
          "internalType": "uint256",
          "name": "",
          "type": "uint256"
        }
      ],
      "stateMutability": "view",
      "type": "function",
      "constant": true
    }
  ],
  "bytecode": "0x60806040526000805560006001556000600255600060035533600560006101000a81548173ffffffffffffffffffffffffffffffffffffffff021916908373ffffffffffffffffffffffffffffffffffffffff1602179055503480156200006557600080fd5b506040516200391a3803806200391a83398181016040528101906200008b919062000151565b80600460006101000a81548173ffffffffffffffffffffffffffffffffffffffff021916908373ffffffffffffffffffffffffffffffffffffffff1602179055505062000183565b600080fd5b600073ffffffffffffffffffffffffffffffffffffffff82169050919050565b60006200010582620000d8565b9050919050565b60006200011982620000f8565b9050919050565b6200012b816200010c565b81146200013757600080fd5b50565b6000815190506200014b8162000120565b92915050565b6000602082840312156200016a5762000169620000d3565b5b60006200017a848285016200013a565b91505092915050565b61378780620001936000396000f3fe608060405234801561001057600080fd5b50600436106101585760003560e01c80638da5cb5b116100c3578063c7b031c81161007c578063c7b031c814610463578063cb65bf161461047f578063ce980d4b146104af578063e851ced8146104e4578063ee685df514610514578063f2ef441b1461054457610158565b80638da5cb5b1461037d57806392256aec1461039b57806393dc12e6146103cb578063bb895fc1146103e7578063bee5cdca14610403578063c6d47ac91461043357610158565b80633d0d3086116101155780633d0d30861461027757806350c2f30e146102a757806353b3194c146102d75780636801d5291461030c57806371c69a8e1461032857806380d038291461035f57610158565b8063052e9c131461015d57806305bd57341461018d57806306c49713146101c45780631007f918146101fb57806328d703631461022b5780633739fe631461025b575b600080fd5b61017760048036038101906101729190612602565b610562565b604051610184919061263e565b60405180910390f35b6101a760048036038101906101a29190612659565b610828565b6040516101bb989796959493929190612751565b60405180910390f35b6101de60048036038101906101d99190612602565b6108ba565b6040516101f2989796959493929190612751565b60405180910390f35b61021560048036038101906102109190612915565b61092f565b604051610222919061263e565b60405180910390f35b610245600480360381019061024091906129e8565b610da7565b604051610252919061263e565b60405180910390f35b61027560048036038101906102709190612602565b611161565b005b610291600480360381019061028c9190612a4f565b6111ab565b60405161029e9190612bfb565b60405180910390f35b6102c160048036038101906102bc9190612602565b6113f5565b6040516102ce9190612bfb565b60405180910390f35b6102f160048036038101906102ec9190612602565b611535565b60405161030396959493929190612cab565b60405180910390f35b61032660048036038101906103219190612d1a565b61168e565b005b610342600480360381019061033d9190612d5a565b611721565b604051610356989796959493929190612751565b60405180910390f35b6103676117b3565b6040516103749190612f45565b60405180910390f35b61038561196f565b6040516103929190612f67565b60405180910390f35b6103b560048036038101906103b09190612602565b611995565b6040516103c29190612f67565b60405180910390f35b6103e560048036038101906103e09190612602565b611a50565b005b61040160048036038101906103fc9190612659565b611af5565b005b61041d60048036038101906104189190612602565b611b88565b60405161042a9190613012565b60405180910390f35b61044d60048036038101906104489190612602565b611d12565b60405161045a919061316c565b60405180910390f35b61047d60048036038101906104789190612d1a565b611e3e565b005b61049960048036038101906104949190612602565b611ed1565b6040516104a6919061263e565b60405180910390f35b6104c960048036038101906104c49190612659565b611ef1565b6040516104db96959493929190612cab565b60405180910390f35b6104fe60048036038101906104f9919061318e565b612067565b60405161050b919061263e565b60405180910390f35b61052e60048036038101906105299190612602565b61229a565b60405161053b919061322d565b60405180910390f35b61054c6122c7565b6040516105599190612f45565b60405180910390f35b6000806000905060008060086000868152602001908152602001600020805480602002602001604051908101604052809291908181526020016000905b8282101561072e57838290600052602060002090600602016040518060c001604052908160008201548152602001600182015481526020016002820180546105e690613277565b80601f016020809104026020016040519081016040528092919081815260200182805461061290613277565b801561065f5780601f106106345761010080835404028352916020019161065f565b820191906000526020600020905b81548152906001019060200180831161064257829003601f168201915b5050505050815260200160038201805461067890613277565b80601f01602080910402602001604051908101604052809291908181526020018280546106a490613277565b80156106f15780601f106106c6576101008083540402835291602001916106f1565b820191906000526020600020905b8154815290600101906020018083116106d457829003601f168201915b50505050508152602001600482015481526020016005820160009054906101000a900460ff1615151515815250508152602001906001019061059f565b50505050905060005b8151811015610801576000610769838381518110610758576107576132a8565b5b6020026020010151600001516113f5565b905060005b81518110156107ec57600082828151811061078c5761078b6132a8565b5b602002602001015160c0015111156107d9578181815181106107b1576107b06132a8565b5b602002602001015160c00151866107c89190613306565b955084806107d59061333a565b9550505b80806107e49061333a565b91505061076e565b505080806107f99061333a565b915050610737565b506000821161081157600061081e565b818361081d91906133b1565b5b9350505050919050565b6009602052816000526040600020818154811061084457600080fd5b9060005260206000209060080201600091509150508060000154908060010154908060020160009054906101000a900473ffffffffffffffffffffffffffffffffffffffff16908060030154908060040154908060050154908060060154908060070160009054906101000a900460ff16905088565b60076020528060005260406000206000915090508060000154908060010154908060020160009054906101000a900473ffffffffffffffffffffffffffffffffffffffff16908060030154908060040154908060050154908060060154908060070160009054906101000a900460ff16905088565b6000806006600086815260200190815260200160002060010154905060006040518060a001604052806002548152602001878152602001868152602001428152602001858152509050600c60008781526020019081526020016000208190806001815401808255809150506001900390600052602060002090600502016000909190919091506000820151816000015560208201518160010155604082015181600201556060820151816003015560808201518160040190816109f2919061358e565b50505060005b6009600088815260200190815260200160002080549050811015610d84576000600960008981526020019081526020016000208281548110610a3d57610a3c6132a8565b5b90600052602060002090600802016000015490506000600960008a81526020019081526020016000208381548110610a7857610a776132a8565b5b90600052602060002090600802016006015403610d70576000600960008a81526020019081526020016000208381548110610ab657610ab56132a8565b5b906000526020600020906008020160040154600960008b81526020019081526020016000208481548110610aed57610aec6132a8565b5b906000526020600020906008020160030154610b099190613660565b9050808810610ced578088610b1e9190613660565b9750600960008a81526020019081526020016000208381548110610b4557610b446132a8565b5b906000526020600020906008020160030154600960008b81526020019081526020016000208481548110610b7c57610b7b6132a8565b5b906000526020600020906008020160040181905550600960008a81526020019081526020016000208381548110610bb657610bb56132a8565b5b90600052602060002090600802016005015442610bd39190613660565b600960008b81526020019081526020016000208481548110610bf857610bf76132a8565b5b906000526020600020906008020160060181905550600960008a81526020019081526020016000208381548110610c3257610c316132a8565b5b9060005260206000209060080201600301546007600084815260200190815260200160002060040181905550600960008a81526020019081526020016000208381548110610c8357610c826132a8565b5b90600052602060002090600802016005015442610ca09190613660565b60076000848152602001908152602001600020600601819055506000610cc586610562565b9050610cd18682611af5565b610cdc86600161168e565b610ce7866000611e3e565b50610d6e565b87600960008b81526020019081526020016000208481548110610d1357610d126132a8565b5b90600052602060002090600802016004016000828254610d339190613306565b9250508190555087600760008481526020019081526020016000206004016000828254610d609190613306565b925050819055505050610d84565b505b508080610d7c9061333a565b9150506109f8565b5060026000815480929190610d989061333a565b91905055925050509392505050565b600080600090508215610db957600190505b600060066000888152602001908152602001600020600101549050600060405180610100016040528060015481526020018981526020018773ffffffffffffffffffffffffffffffffffffffff1681526020018881526020016000815260200142815260200160008152602001846001811115610e3957610e386126da565b5b815250905080600760006001548152602001908152602001600020600082015181600001556020820151816001015560408201518160020160006101000a81548173ffffffffffffffffffffffffffffffffffffffff021916908373ffffffffffffffffffffffffffffffffffffffff160217905550606082015181600301556080820151816004015560a0820151816005015560c0820151816006015560e08201518160070160006101000a81548160ff02191690836001811115610f0257610f016126da565b5b021790555090505060096000898152602001908152602001600020819080600181540180825580915050600190039060005260206000209060080201600090919091909150600082015181600001556020820151816001015560408201518160020160006101000a81548173ffffffffffffffffffffffffffffffffffffffff021916908373ffffffffffffffffffffffffffffffffffffffff160217905550606082015181600301556080820151816004015560a0820151816005015560c0820151816006015560e08201518160070160006101000a81548160ff02191690836001811115610ff557610ff46126da565b5b02179055505050600a60008773ffffffffffffffffffffffffffffffffffffffff1673ffffffffffffffffffffffffffffffffffffffff168152602001908152602001600020819080600181540180825580915050600190039060005260206000209060080201600090919091909150600082015181600001556020820151816001015560408201518160020160006101000a81548173ffffffffffffffffffffffffffffffffffffffff021916908373ffffffffffffffffffffffffffffffffffffffff160217905550606082015181600301556080820151816004015560a0820151816005015560c0820151816006015560e08201518160070160006101000a81548160ff02191690836001811115611113576111126126da565b5b02179055505050600e600081548092919061112d9061333a565b919050555061113d826001611e3e565b600160008154809291906111509061333a565b919050559350505050949350505050565b60016006600083815260200190815260200160002060050160006101000a81548160ff021916908315150217905550600360008154809291906111a39061333a565b919050555050565b60606000600a60008473ffffffffffffffffffffffffffffffffffffffff1673ffffffffffffffffffffffffffffffffffffffff1681526020019081526020016000208054905067ffffffffffffffff81111561120b5761120a6127ea565b5b60405190808252806020026020018201604052801561124457816020015b611231612513565b8152602001906001900390816112295790505b5090506000805b600e548110156113ea578473ffffffffffffffffffffffffffffffffffffffff166007600083815260200190815260200160002060020160009054906101000a900473ffffffffffffffffffffffffffffffffffffffff1673ffffffffffffffffffffffffffffffffffffffff16036113d757600760008281526020019081526020016000206040518061010001604052908160008201548152602001600182015481526020016002820160009054906101000a900473ffffffffffffffffffffffffffffffffffffffff1673ffffffffffffffffffffffffffffffffffffffff1673ffffffffffffffffffffffffffffffffffffffff168152602001600382015481526020016004820154815260200160058201548152602001600682015481526020016007820160009054906101000a900460ff166001811115611394576113936126da565b5b60018111156113a6576113a56126da565b5b815250508383815181106113bd576113bc6132a8565b5b602002602001018190525081806113d39061333a565b9250505b80806113e29061333a565b91505061124b565b508192505050919050565b606060096000838152602001908152602001600020805480602002602001604051908101604052809291908181526020016000905b8282101561152a57838290600052602060002090600802016040518061010001604052908160008201548152602001600182015481526020016002820160009054906101000a900473ffffffffffffffffffffffffffffffffffffffff1673ffffffffffffffffffffffffffffffffffffffff1673ffffffffffffffffffffffffffffffffffffffff168152602001600382015481526020016004820154815260200160058201548152602001600682015481526020016007820160009054906101000a900460ff166001811115611505576115046126da565b5b6001811115611517576115166126da565b5b815250508152602001906001019061142a565b505050509050919050565b600660205280600052604060002060009150905080600001549080600101549080600201805461156490613277565b80601f016020809104026020016040519081016040528092919081815260200182805461159090613277565b80156115dd5780601f106115b2576101008083540402835291602001916115dd565b820191906000526020600020905b8154815290600101906020018083116115c057829003601f168201915b5050505050908060030180546115f290613277565b80601f016020809104026020016040519081016040528092919081815260200182805461161e90613277565b801561166b5780601f106116405761010080835404028352916020019161166b565b820191906000526020600020905b81548152906001019060200180831161164e57829003601f168201915b5050505050908060040154908060050160009054906101000a900460ff16905086565b600460009054906101000a900473ffffffffffffffffffffffffffffffffffffffff1673ffffffffffffffffffffffffffffffffffffffff16636801d52983836040518363ffffffff1660e01b81526004016116eb929190613694565b600060405180830381600087803b15801561170557600080fd5b505af1158015611719573d6000803e3d6000fd5b505050505050565b600a602052816000526040600020818154811061173d57600080fd5b9060005260206000209060080201600091509150508060000154908060010154908060020160009054906101000a900473ffffffffffffffffffffffffffffffffffffffff16908060030154908060040154908060050154908060060154908060070160009054906101000a900460ff16905088565b6060600d805480602002602001604051908101604052809291908181526020016000905b8282101561196657838290600052602060002090600602016040518060c0016040529081600082015481526020016001820154815260200160028201805461181e90613277565b80601f016020809104026020016040519081016040528092919081815260200182805461184a90613277565b80156118975780601f1061186c57610100808354040283529160200191611897565b820191906000526020600020905b81548152906001019060200180831161187a57829003601f168201915b505050505081526020016003820180546118b090613277565b80601f01602080910402602001604051908101604052809291908181526020018280546118dc90613277565b80156119295780601f106118fe57610100808354040283529160200191611929565b820191906000526020600020905b81548152906001019060200180831161190c57829003601f168201915b50505050508152602001600482015481526020016005820160009054906101000a900460ff161515151581525050815260200190600101906117d7565b50505050905090565b600560009054906101000a900473ffffffffffffffffffffffffffffffffffffffff1681565b6000600460009054906101000a900473ffffffffffffffffffffffffffffffffffffffff1673ffffffffffffffffffffffffffffffffffffffff1663e317526a60066000858152602001908152602001600020600101546040518263ffffffff1660e01b8152600401611a08919061263e565b602060405180830381865afa158015611a25573d6000803e3d6000fd5b505050506040513d601f19601f82011682018060405250810190611a4991906136d2565b9050919050565b60006006600083815260200190815260200160002060050160006101000a81548160ff021916908315150217905550600060086000611a8e84611b88565b6020015181526020019081526020016000208281548110611ab257611ab16132a8565b5b906000526020600020906006020160050160006101000a81548160ff02191690831515021790555060036000815480929190611aed906136ff565b919050555050565b600460009054906101000a900473ffffffffffffffffffffffffffffffffffffffff1673ffffffffffffffffffffffffffffffffffffffff1663bb895fc183836040518363ffffffff1660e01b8152600401611b52929190613728565b600060405180830381600087803b158015611b6c57600080fd5b505af1158015611b80573d6000803e3d6000fd5b505050505050565b611b90612580565b600660008381526020019081526020016000206040518060c00160405290816000820154815260200160018201548152602001600282018054611bd290613277565b80601f0160208091040260200160405190810160405280929190818152602001828054611bfe90613277565b8015611c4b5780601f10611c2057610100808354040283529160200191611c4b565b820191906000526020600020905b815481529060010190602001808311611c2e57829003601f168201915b50505050508152602001600382018054611c6490613277565b80601f0160208091040260200160405190810160405280929190818152602001828054611c9090613277565b8015611cdd5780601f10611cb257610100808354040283529160200191611cdd565b820191906000526020600020905b815481529060010190602001808311611cc057829003601f168201915b50505050508152602001600482015481526020016005820160009054906101000a900460ff1615151515815250509050919050565b6060600c6000838152602001908152602001600020805480602002602001604051908101604052809291908181526020016000905b82821015611e3357838290600052602060002090600502016040518060a001604052908160008201548152602001600182015481526020016002820154815260200160038201548152602001600482018054611da290613277565b80601f0160208091040260200160405190810160405280929190818152602001828054611dce90613277565b8015611e1b5780601f10611df057610100808354040283529160200191611e1b565b820191906000526020600020905b815481529060010190602001808311611dfe57829003601f168201915b50505050508152505081526020019060010190611d47565b505050509050919050565b600460009054906101000a900473ffffffffffffffffffffffffffffffffffffffff1673ffffffffffffffffffffffffffffffffffffffff1663c7b031c883836040518363ffffffff1660e01b8152600401611e9b929190613694565b600060405180830381600087803b158015611eb557600080fd5b505af1158015611ec9573d6000803e3d6000fd5b505050505050565b600060066000838152602001908152602001600020600101549050919050565b60086020528160005260406000208181548110611f0d57600080fd5b906000526020600020906006020160009150915050806000015490806001015490806002018054611f3d90613277565b80601f0160208091040260200160405190810160405280929190818152602001828054611f6990613277565b8015611fb65780601f10611f8b57610100808354040283529160200191611fb6565b820191906000526020600020905b815481529060010190602001808311611f9957829003601f168201915b505050505090806003018054611fcb90613277565b80601f0160208091040260200160405190810160405280929190818152602001828054611ff790613277565b80156120445780601f1061201957610100808354040283529160200191612044565b820191906000526020600020905b81548152906001019060200180831161202757829003601f168201915b5050505050908060040154908060050160009054906101000a900460ff16905086565b6000806040518060c001604052806000548152602001878152602001868152602001858152602001848152602001600115158152509050806006600080548152602001908152602001600020600082015181600001556020820151816001015560408201518160020190816120dc919061358e565b5060608201518160030190816120f2919061358e565b506080820151816004015560a08201518160050160006101000a81548160ff0219169083151502179055509050506008600087815260200190815260200160002081908060018154018082558091505060019003906000526020600020906006020160009091909190915060008201518160000155602082015181600101556040820151816002019081612186919061358e565b50606082015181600301908161219c919061358e565b506080820151816004015560a08201518160050160006101000a81548160ff0219169083151502179055505050600d8190806001815401808255809150506001900390600052602060002090600602016000909190919091506000820151816000015560208201518160010155604082015181600201908161221e919061358e565b506060820151816003019081612234919061358e565b506080820151816004015560a08201518160050160006101000a81548160ff0219169083151502179055505050600360008154809291906122749061333a565b919050555060008081548092919061228b9061333a565b91905055915050949350505050565b60006006600083815260200190815260200160002060050160009054906101000a900460ff169050919050565b6060600060035467ffffffffffffffff8111156122e7576122e66127ea565b5b60405190808252806020026020018201604052801561232057816020015b61230d612580565b8152602001906001900390816123055790505b5090506000805b600d8054905081101561250a5761233d8161229a565b801561234a575060035482105b156124f757600660008281526020019081526020016000206040518060c0016040529081600082015481526020016001820154815260200160028201805461239190613277565b80601f01602080910402602001604051908101604052809291908181526020018280546123bd90613277565b801561240a5780601f106123df5761010080835404028352916020019161240a565b820191906000526020600020905b8154815290600101906020018083116123ed57829003601f168201915b5050505050815260200160038201805461242390613277565b80601f016020809104026020016040519081016040528092919081815260200182805461244f90613277565b801561249c5780601f106124715761010080835404028352916020019161249c565b820191906000526020600020905b81548152906001019060200180831161247f57829003601f168201915b50505050508152602001600482015481526020016005820160009054906101000a900460ff1615151515815250508383815181106124dd576124dc6132a8565b5b602002602001018190525081806124f39061333a565b9250505b80806125029061333a565b915050612327565b50819250505090565b6040518061010001604052806000815260200160008152602001600073ffffffffffffffffffffffffffffffffffffffff168152602001600081526020016000815260200160008152602001600081526020016000600181111561257a576125796126da565b5b81525090565b6040518060c0016040528060008152602001600081526020016060815260200160608152602001600081526020016000151581525090565b6000604051905090565b600080fd5b600080fd5b6000819050919050565b6125df816125cc565b81146125ea57600080fd5b50565b6000813590506125fc816125d6565b92915050565b600060208284031215612618576126176125c2565b5b6000612626848285016125ed565b91505092915050565b612638816125cc565b82525050565b6000602082019050612653600083018461262f565b92915050565b600080604083850312156126705761266f6125c2565b5b600061267e858286016125ed565b925050602061268f858286016125ed565b9150509250929050565b600073ffffffffffffffffffffffffffffffffffffffff82169050919050565b60006126c482612699565b9050919050565b6126d4816126b9565b82525050565b7f4e487b7100000000000000000000000000000000000000000000000000000000600052602160045260246000fd5b6002811061271a576127196126da565b5b50565b600081905061272b82612709565b919050565b600061273b8261271d565b9050919050565b61274b81612730565b82525050565b600061010082019050612767600083018b61262f565b612774602083018a61262f565b61278160408301896126cb565b61278e606083018861262f565b61279b608083018761262f565b6127a860a083018661262f565b6127b560c083018561262f565b6127c260e0830184612742565b9998505050505050505050565b600080fd5b600080fd5b6000601f19601f8301169050919050565b7f4e487b7100000000000000000000000000000000000000000000000000000000600052604160045260246000fd5b612822826127d9565b810181811067ffffffffffffffff82111715612841576128406127ea565b5b80604052505050565b60006128546125b8565b90506128608282612819565b919050565b600067ffffffffffffffff8211156128805761287f6127ea565b5b612889826127d9565b9050602081019050919050565b82818337600083830152505050565b60006128b86128b384612865565b61284a565b9050828152602081018484840111156128d4576128d36127d4565b5b6128df848285612896565b509392505050565b600082601f8301126128fc576128fb6127cf565b5b813561290c8482602086016128a5565b91505092915050565b60008060006060848603121561292e5761292d6125c2565b5b600061293c868287016125ed565b935050602061294d868287016125ed565b925050604084013567ffffffffffffffff81111561296e5761296d6125c7565b5b61297a868287016128e7565b9150509250925092565b61298d816126b9565b811461299857600080fd5b50565b6000813590506129aa81612984565b92915050565b60008115159050919050565b6129c5816129b0565b81146129d057600080fd5b50565b6000813590506129e2816129bc565b92915050565b60008060008060808587031215612a0257612a016125c2565b5b6000612a10878288016125ed565b9450506020612a21878288016125ed565b9350506040612a328782880161299b565b9250506060612a43878288016129d3565b91505092959194509250565b600060208284031215612a6557612a646125c2565b5b6000612a738482850161299b565b91505092915050565b600081519050919050565b600082825260208201905092915050565b6000819050602082019050919050565b612ab1816125cc565b82525050565b612ac0816126b9565b82525050565b612acf81612730565b82525050565b61010082016000820151612aec6000850182612aa8565b506020820151612aff6020850182612aa8565b506040820151612b126040850182612ab7565b506060820151612b256060850182612aa8565b506080820151612b386080850182612aa8565b5060a0820151612b4b60a0850182612aa8565b5060c0820151612b5e60c0850182612aa8565b5060e0820151612b7160e0850182612ac6565b50505050565b6000612b838383612ad5565b6101008301905092915050565b6000602082019050919050565b6000612ba882612a7c565b612bb28185612a87565b9350612bbd83612a98565b8060005b83811015612bee578151612bd58882612b77565b9750612be083612b90565b925050600181019050612bc1565b5085935050505092915050565b60006020820190508181036000830152612c158184612b9d565b905092915050565b600081519050919050565b600082825260208201905092915050565b60005b83811015612c57578082015181840152602081019050612c3c565b60008484015250505050565b6000612c6e82612c1d565b612c788185612c28565b9350612c88818560208601612c39565b612c91816127d9565b840191505092915050565b612ca5816129b0565b82525050565b600060c082019050612cc0600083018961262f565b612ccd602083018861262f565b8181036040830152612cdf8187612c63565b90508181036060830152612cf38186612c63565b9050612d02608083018561262f565b612d0f60a0830184612c9c565b979650505050505050565b60008060408385031215612d3157612d306125c2565b5b6000612d3f858286016125ed565b9250506020612d50858286016129d3565b9150509250929050565b60008060408385031215612d7157612d706125c2565b5b6000612d7f8582860161299b565b9250506020612d90858286016125ed565b9150509250929050565b600081519050919050565b600082825260208201905092915050565b6000819050602082019050919050565b600082825260208201905092915050565b6000612de282612c1d565b612dec8185612dc6565b9350612dfc818560208601612c39565b612e05816127d9565b840191505092915050565b612e19816129b0565b82525050565b600060c083016000830151612e376000860182612aa8565b506020830151612e4a6020860182612aa8565b5060408301518482036040860152612e628282612dd7565b91505060608301518482036060860152612e7c8282612dd7565b9150506080830151612e916080860182612aa8565b5060a0830151612ea460a0860182612e10565b508091505092915050565b6000612ebb8383612e1f565b905092915050565b6000602082019050919050565b6000612edb82612d9a565b612ee58185612da5565b935083602082028501612ef785612db6565b8060005b85811015612f335784840389528151612f148582612eaf565b9450612f1f83612ec3565b925060208a01995050600181019050612efb565b50829750879550505050505092915050565b60006020820190508181036000830152612f5f8184612ed0565b905092915050565b6000602082019050612f7c60008301846126cb565b92915050565b600060c083016000830151612f9a6000860182612aa8565b506020830151612fad6020860182612aa8565b5060408301518482036040860152612fc58282612dd7565b91505060608301518482036060860152612fdf8282612dd7565b9150506080830151612ff46080860182612aa8565b5060a083015161300760a0860182612e10565b508091505092915050565b6000602082019050818103600083015261302c8184612f82565b905092915050565b600081519050919050565b600082825260208201905092915050565b6000819050602082019050919050565b600060a0830160008301516130786000860182612aa8565b50602083015161308b6020860182612aa8565b50604083015161309e6040860182612aa8565b5060608301516130b16060860182612aa8565b50608083015184820360808601526130c98282612dd7565b9150508091505092915050565b60006130e28383613060565b905092915050565b6000602082019050919050565b600061310282613034565b61310c818561303f565b93508360208202850161311e85613050565b8060005b8581101561315a578484038952815161313b85826130d6565b9450613146836130ea565b925060208a01995050600181019050613122565b50829750879550505050505092915050565b6000602082019050818103600083015261318681846130f7565b905092915050565b600080600080608085870312156131a8576131a76125c2565b5b60006131b6878288016125ed565b945050602085013567ffffffffffffffff8111156131d7576131d66125c7565b5b6131e3878288016128e7565b935050604085013567ffffffffffffffff811115613204576132036125c7565b5b613210878288016128e7565b9250506060613221878288016125ed565b91505092959194509250565b60006020820190506132426000830184612c9c565b92915050565b7f4e487b7100000000000000000000000000000000000000000000000000000000600052602260045260246000fd5b6000600282049050600182168061328f57607f821691505b6020821081036132a2576132a1613248565b5b50919050565b7f4e487b7100000000000000000000000000000000000000000000000000000000600052603260045260246000fd5b7f4e487b7100000000000000000000000000000000000000000000000000000000600052601160045260246000fd5b6000613311826125cc565b915061331c836125cc565b9250828201905080821115613334576133336132d7565b5b92915050565b6000613345826125cc565b91507fffffffffffffffffffffffffffffffffffffffffffffffffffffffffffffffff8203613377576133766132d7565b5b600182019050919050565b7f4e487b7100000000000000000000000000000000000000000000000000000000600052601260045260246000fd5b60006133bc826125cc565b91506133c7836125cc565b9250826133d7576133d6613382565b5b828204905092915050565b60008190508160005260206000209050919050565b60006020601f8301049050919050565b600082821b905092915050565b6000600883026134447fffffffffffffffffffffffffffffffffffffffffffffffffffffffffffffffff82613407565b61344e8683613407565b95508019841693508086168417925050509392505050565b6000819050919050565b600061348b613486613481846125cc565b613466565b6125cc565b9050919050565b6000819050919050565b6134a583613470565b6134b96134b182613492565b848454613414565b825550505050565b600090565b6134ce6134c1565b6134d981848461349c565b505050565b5b818110156134fd576134f26000826134c6565b6001810190506134df565b5050565b601f82111561354257613513816133e2565b61351c846133f7565b8101602085101561352b578190505b61353f613537856133f7565b8301826134de565b50505b505050565b600082821c905092915050565b600061356560001984600802613547565b1980831691505092915050565b600061357e8383613554565b9150826002028217905092915050565b61359782612c1d565b67ffffffffffffffff8111156135b0576135af6127ea565b5b6135ba8254613277565b6135c5828285613501565b600060209050601f8311600181146135f857600084156135e6578287015190505b6135f08582613572565b865550613658565b601f198416613606866133e2565b60005b8281101561362e57848901518255600182019150602085019450602081019050613609565b8683101561364b5784890151613647601f891682613554565b8355505b6001600288020188555050505b505050505050565b600061366b826125cc565b9150613676836125cc565b925082820390508181111561368e5761368d6132d7565b5b92915050565b60006040820190506136a9600083018561262f565b6136b66020830184612c9c565b9392505050565b6000815190506136cc81612984565b92915050565b6000602082840312156136e8576136e76125c2565b5b60006136f6848285016136bd565b91505092915050565b600061370a826125cc565b91506000820361371d5761371c6132d7565b5b600182039050919050565b600060408201905061373d600083018561262f565b61374a602083018461262f565b939250505056fea26469706673582212201c5d61053de2c3020cff170048afa25e061989a67781b620ab59a755392a5a1964736f6c63430008110033",
  "immutableReferences": {},
  "source": "// SPDX-License-Identifier: MIT\npragma solidity ^0.8.0;\nimport \"./Charity.sol\";\nimport \"./CharityStorage.sol\";\n\ncontract ProjectMarketStorage {\n    enum DonationType {\n        ONETIME,\n        RECURRING\n    }\n\n    struct project {\n        uint256 projectId;\n        uint256 charityId;\n        string title;\n        string description;\n        uint256 targetAmount;\n        bool isActive;\n    }\n\n    struct donation {\n        uint256 donationId;\n        uint256 projectId;\n        address donor;\n        uint256 amt;\n        uint256 amtVerified;\n        uint256 transactionDate;\n        uint256 timeTakenToVerify;\n        DonationType donationType;\n    }\n\n    struct proof {\n        uint256 proofId;\n        uint256 projectId;\n        uint256 amtVerified;\n        uint256 timeOfUpload;\n        string utility;\n    }\n\n    uint256 projectIdCtr = 0;\n    uint256 donationIdCtr = 0;\n    uint256 proofIdCtr = 0;\n    uint256 numActiveListings = 0;\n    Charity charityContract;\n\n    address public owner = msg.sender; // set deployer as owner of the storage contract\n    mapping(uint256 => project) public allProjects; // mapping of projectMarket ID to projectMarket\n    mapping(uint256 => donation) public allDonations; // mapping of donation ID to donation\n    mapping(uint256 => project[]) public projectsByCharity; // mapping of charity ID to list of projectMarkets\n    mapping(uint256 => donation[]) public donationsByProject; // mapping of project ID to list of donations\n    mapping(address => donation[]) public donationsByDonor; // don't use this to access donations, purely for counting number of donations per donor\n    mapping(address => donation[]) transactions; // mapping of donor address to their past transactions\n    mapping(uint256 => proof[]) proofsByProject; // mapping of project ID to list of proofs\n\n    project[] projects;\n    uint256 numDonations;\n\n    constructor(Charity charityAddress) {\n        charityContract = charityAddress;\n    }\n\n    modifier ownerOnly() {\n        require(\n            msg.sender == owner,\n            \"Only the owner of this contract is allowed to perform this operation\"\n        );\n        _;\n    }\n\n    modifier owningCharityOnly(address charityAddress) {\n        require(\n            charityAddress == msg.sender,\n            \"Only owning charity can perform this action!\"\n        );\n        _;\n    }\n\n    function addProjectToMarket(\n        uint256 charityId,\n        string memory title,\n        string memory description,\n        uint256 targetAmount\n    ) public returns (uint256) {\n        project memory newProject = project(\n            projectIdCtr,\n            charityId,\n            title,\n            description,\n            targetAmount,\n            true\n        );\n\n        allProjects[projectIdCtr] = newProject;\n        projectsByCharity[charityId].push(newProject);\n        projects.push(newProject);\n        numActiveListings++;\n        return projectIdCtr++;\n    }\n\n    function closeProject(uint256 projectId) public {\n        allProjects[projectId].isActive = false;\n        projectsByCharity[getProjectById(projectId).charityId][projectId]\n            .isActive = false;\n        numActiveListings--;\n    }\n\n    function getProjectOwner(uint256 projectId) public view returns (address) {\n        return\n            charityContract.getCharityOwner(allProjects[projectId].charityId);\n    }\n\n    function getProjectOwnerId(\n        uint256 projectId\n    ) public view returns (uint256) {\n        return allProjects[projectId].charityId;\n    }\n\n    function addDonationToProject(\n        uint256 projectId,\n        uint256 amt,\n        address donor,\n        bool isRecurring\n    ) public returns (uint256) {\n        DonationType d = DonationType.ONETIME;\n        if (isRecurring) {\n            d = DonationType.RECURRING;\n        }\n        uint256 cId = allProjects[projectId].charityId;\n        donation memory newDonation = donation(\n            donationIdCtr,\n            projectId,\n            donor,\n            amt,\n            0,\n            block.timestamp,\n            0,\n            d\n        );\n        allDonations[donationIdCtr] = newDonation;\n        donationsByProject[projectId].push(newDonation);\n        donationsByDonor[donor].push(newDonation);\n        numDonations++;\n        incrementOrDecrementNumUnverifiedTransaction(cId, true);\n        return donationIdCtr++;\n    }\n\n    function addProofOfUsageToProject(\n        uint256 projectId,\n        uint256 amount,\n        string memory utility\n    ) public returns (uint256) {\n        uint256 cId = allProjects[projectId].charityId;\n        proof memory newProof = proof(\n            proofIdCtr,\n            projectId,\n            amount,\n            block.timestamp,\n            utility\n        );\n        proofsByProject[projectId].push(newProof);\n        for (uint i = 0; i < donationsByProject[projectId].length; i++) {\n            uint256 donationId = donationsByProject[projectId][i].donationId;\n            if (donationsByProject[projectId][i].timeTakenToVerify == 0) {\n                // not yet verified\n                uint256 amtNeededToFullyVerifyCurrDonation = donationsByProject[\n                    projectId\n                ][i].amt - donationsByProject[projectId][i].amtVerified;\n                if (amount >= amtNeededToFullyVerifyCurrDonation) {\n                    // can just verify full amount\n                    amount -= amtNeededToFullyVerifyCurrDonation;\n                    donationsByProject[projectId][i]\n                        .amtVerified = donationsByProject[projectId][i].amt;\n                    donationsByProject[projectId][i].timeTakenToVerify =\n                        block.timestamp -\n                        donationsByProject[projectId][i].transactionDate;\n                    allDonations[donationId].amtVerified = donationsByProject[\n                        projectId\n                    ][i].amt;\n                    allDonations[donationId].timeTakenToVerify =\n                        block.timestamp -\n                        donationsByProject[projectId][i].transactionDate;\n                    uint256 averageTimeTakenToVerify = getAverageTimeTakenToVerifyByCharity(\n                            cId\n                        );\n                    setCharityAverageTimeTakenToVerify(\n                        cId,\n                        averageTimeTakenToVerify\n                    );\n                    incrementOrDecrementNumVerifiedTransaction(cId, true);\n                    incrementOrDecrementNumUnverifiedTransaction(cId, false);\n                } else {\n                    donationsByProject[projectId][i].amtVerified += amount; // add remaining amount to amount verified\n                    allDonations[donationId].amtVerified += amount;\n                    break;\n                }\n            }\n        }\n        return proofIdCtr++;\n    }\n\n    function getAllProjects() public view returns (project[] memory) {\n        return projects;\n    }\n\n    function getAllActiveProjects() public view returns (project[] memory) {\n        project[] memory active = new project[](numActiveListings);\n        uint256 idx = 0;\n        for (uint256 i = 0; i < projects.length; i++) {\n            if (isProjectActive(i) && idx < numActiveListings) {\n                active[idx] = allProjects[i];\n                idx++;\n            }\n        }\n        return active;\n    }\n\n    function getAllProofsByProject(\n        uint256 projectId\n    ) public view returns (proof[] memory) {\n        return proofsByProject[projectId];\n    }\n\n    function getProjectById(uint256 id) public view returns (project memory) {\n        return allProjects[id];\n    }\n\n    function isProjectActive(uint256 id) public view returns (bool) {\n        return allProjects[id].isActive;\n    }\n\n    function setProjectActive(uint256 id) public {\n        allProjects[id].isActive = true;\n        numActiveListings++;\n    }\n\n    function getDonationsByProject(\n        uint256 projectId\n    ) public view returns (donation[] memory) {\n        return donationsByProject[projectId];\n    }\n\n    function getDonationsByDonor(\n        address donor\n    ) public view returns (donation[] memory) {\n        donation[] memory filtered = new donation[](\n            donationsByDonor[donor].length\n        );\n        uint256 idx = 0;\n        for (uint256 i = 0; i < numDonations; i++) {\n            if (allDonations[i].donor == donor) {\n                filtered[idx] = allDonations[i];\n                idx++;\n            }\n        }\n        return filtered;\n    }\n\n    function setCharityAverageTimeTakenToVerify(\n        uint256 charityId,\n        uint256 timeTakenToVerify\n    ) public {\n        charityContract.setCharityAverageTimeTakenToVerify(\n            charityId,\n            timeTakenToVerify\n        );\n    }\n\n    function incrementOrDecrementNumVerifiedTransaction(\n        uint256 charityId,\n        bool isIncrement\n    ) public {\n        charityContract.incrementOrDecrementNumVerifiedTransaction(\n            charityId,\n            isIncrement\n        );\n    }\n\n    function incrementOrDecrementNumUnverifiedTransaction(\n        uint256 charityId,\n        bool isIncrement\n    ) public {\n        charityContract.incrementOrDecrementNumUnverifiedTransaction(\n            charityId,\n            isIncrement\n        );\n    }\n\n    function getAverageTimeTakenToVerifyByCharity(\n        uint256 charityId\n    ) public view returns (uint256) {\n        uint256 totalTime = 0;\n        uint256 numDonationsVerifiable = 0;\n        project[] memory allProjectsByCharity = projectsByCharity[charityId];\n        for (uint256 i = 0; i < allProjectsByCharity.length; i++) {\n            donation[] memory allDonationsByProject = getDonationsByProject(\n                allProjectsByCharity[i].projectId\n            );\n            for (uint256 j = 0; j < allDonationsByProject.length; j++) {\n                if (allDonationsByProject[j].timeTakenToVerify > 0) {\n                    totalTime += allDonationsByProject[j].timeTakenToVerify;\n                    numDonationsVerifiable++;\n                }\n            }\n        }\n        return\n            numDonationsVerifiable > 0 ? totalTime / numDonationsVerifiable : 0;\n    }\n}\n",
  "sourcePath": "/Users/danielonges/Desktop/coding/blockchain-charity/contracts/ProjectMarketStorage.sol",
  "compiler": {
    "name": "solc",
    "version": "0.8.17+commit.8df45f5f.Emscripten.clang"
  },
  "schemaVersion": "3.4.11",
  "updatedAt": "2023-04-07T10:35:22.056Z",
  "networkType": "ethereum",
  "devdoc": {
    "kind": "dev",
    "methods": {},
    "version": 1
  },
  "userdoc": {
    "kind": "user",
    "methods": {},
    "version": 1
  }
}