{
  "contractName": "ProjectMarketStorage",
  "abi": [
    {
      "inputs": [
        {
          "internalType": "contract Charity",
          "name": "charityAddress",
          "type": "address"
        }
      ],
      "stateMutability": "nonpayable",
      "type": "constructor"
    },
    {
      "inputs": [
        {
          "internalType": "uint256",
          "name": "",
          "type": "uint256"
        }
      ],
      "name": "allDonations",
      "outputs": [
        {
          "internalType": "uint256",
          "name": "donationId",
          "type": "uint256"
        },
        {
          "internalType": "uint256",
          "name": "projectId",
          "type": "uint256"
        },
        {
          "internalType": "address",
          "name": "donor",
          "type": "address"
        },
        {
          "internalType": "uint256",
          "name": "amt",
          "type": "uint256"
        },
        {
          "internalType": "uint256",
          "name": "amtVerified",
          "type": "uint256"
        },
        {
          "internalType": "uint256",
          "name": "transactionDate",
          "type": "uint256"
        },
        {
          "internalType": "uint256",
          "name": "timeTakenToVerify",
          "type": "uint256"
        },
        {
          "internalType": "enum ProjectMarketStorage.DonationType",
          "name": "donationType",
          "type": "uint8"
        }
      ],
      "stateMutability": "view",
      "type": "function"
    },
    {
      "inputs": [
        {
          "internalType": "uint256",
          "name": "",
          "type": "uint256"
        }
      ],
      "name": "allProjects",
      "outputs": [
        {
          "internalType": "uint256",
          "name": "projectId",
          "type": "uint256"
        },
        {
          "internalType": "uint256",
          "name": "charityId",
          "type": "uint256"
        },
        {
          "internalType": "string",
          "name": "title",
          "type": "string"
        },
        {
          "internalType": "string",
          "name": "description",
          "type": "string"
        },
        {
          "internalType": "uint256",
          "name": "targetAmount",
          "type": "uint256"
        },
        {
          "internalType": "bool",
          "name": "isActive",
          "type": "bool"
        }
      ],
      "stateMutability": "view",
      "type": "function"
    },
    {
      "inputs": [
        {
          "internalType": "address",
          "name": "",
          "type": "address"
        },
        {
          "internalType": "uint256",
          "name": "",
          "type": "uint256"
        }
      ],
      "name": "donationsByDonor",
      "outputs": [
        {
          "internalType": "uint256",
          "name": "donationId",
          "type": "uint256"
        },
        {
          "internalType": "uint256",
          "name": "projectId",
          "type": "uint256"
        },
        {
          "internalType": "address",
          "name": "donor",
          "type": "address"
        },
        {
          "internalType": "uint256",
          "name": "amt",
          "type": "uint256"
        },
        {
          "internalType": "uint256",
          "name": "amtVerified",
          "type": "uint256"
        },
        {
          "internalType": "uint256",
          "name": "transactionDate",
          "type": "uint256"
        },
        {
          "internalType": "uint256",
          "name": "timeTakenToVerify",
          "type": "uint256"
        },
        {
          "internalType": "enum ProjectMarketStorage.DonationType",
          "name": "donationType",
          "type": "uint8"
        }
      ],
      "stateMutability": "view",
      "type": "function"
    },
    {
      "inputs": [
        {
          "internalType": "uint256",
          "name": "",
          "type": "uint256"
        },
        {
          "internalType": "uint256",
          "name": "",
          "type": "uint256"
        }
      ],
      "name": "donationsByProject",
      "outputs": [
        {
          "internalType": "uint256",
          "name": "donationId",
          "type": "uint256"
        },
        {
          "internalType": "uint256",
          "name": "projectId",
          "type": "uint256"
        },
        {
          "internalType": "address",
          "name": "donor",
          "type": "address"
        },
        {
          "internalType": "uint256",
          "name": "amt",
          "type": "uint256"
        },
        {
          "internalType": "uint256",
          "name": "amtVerified",
          "type": "uint256"
        },
        {
          "internalType": "uint256",
          "name": "transactionDate",
          "type": "uint256"
        },
        {
          "internalType": "uint256",
          "name": "timeTakenToVerify",
          "type": "uint256"
        },
        {
          "internalType": "enum ProjectMarketStorage.DonationType",
          "name": "donationType",
          "type": "uint8"
        }
      ],
      "stateMutability": "view",
      "type": "function"
    },
    {
      "inputs": [],
      "name": "owner",
      "outputs": [
        {
          "internalType": "address",
          "name": "",
          "type": "address"
        }
      ],
      "stateMutability": "view",
      "type": "function"
    },
    {
      "inputs": [
        {
          "internalType": "uint256",
          "name": "",
          "type": "uint256"
        },
        {
          "internalType": "uint256",
          "name": "",
          "type": "uint256"
        }
      ],
      "name": "projectsByCharity",
      "outputs": [
        {
          "internalType": "uint256",
          "name": "projectId",
          "type": "uint256"
        },
        {
          "internalType": "uint256",
          "name": "charityId",
          "type": "uint256"
        },
        {
          "internalType": "string",
          "name": "title",
          "type": "string"
        },
        {
          "internalType": "string",
          "name": "description",
          "type": "string"
        },
        {
          "internalType": "uint256",
          "name": "targetAmount",
          "type": "uint256"
        },
        {
          "internalType": "bool",
          "name": "isActive",
          "type": "bool"
        }
      ],
      "stateMutability": "view",
      "type": "function"
    },
    {
      "inputs": [
        {
          "internalType": "uint256",
          "name": "charityId",
          "type": "uint256"
        },
        {
          "internalType": "string",
          "name": "title",
          "type": "string"
        },
        {
          "internalType": "string",
          "name": "description",
          "type": "string"
        },
        {
          "internalType": "uint256",
          "name": "targetAmount",
          "type": "uint256"
        }
      ],
      "name": "addProjectToMarket",
      "outputs": [
        {
          "internalType": "uint256",
          "name": "",
          "type": "uint256"
        }
      ],
      "stateMutability": "nonpayable",
      "type": "function"
    },
    {
      "inputs": [
        {
          "internalType": "uint256",
          "name": "projectId",
          "type": "uint256"
        }
      ],
      "name": "closeProject",
      "outputs": [],
      "stateMutability": "nonpayable",
      "type": "function"
    },
    {
      "inputs": [
        {
          "internalType": "uint256",
          "name": "projectId",
          "type": "uint256"
        }
      ],
      "name": "getProjectOwner",
      "outputs": [
        {
          "internalType": "address",
          "name": "",
          "type": "address"
        }
      ],
      "stateMutability": "view",
      "type": "function"
    },
    {
      "inputs": [
        {
          "internalType": "uint256",
          "name": "projectId",
          "type": "uint256"
        }
      ],
      "name": "getProjectOwnerId",
      "outputs": [
        {
          "internalType": "uint256",
          "name": "",
          "type": "uint256"
        }
      ],
      "stateMutability": "view",
      "type": "function"
    },
    {
      "inputs": [
        {
          "internalType": "uint256",
          "name": "projectId",
          "type": "uint256"
        },
        {
          "internalType": "uint256",
          "name": "amt",
          "type": "uint256"
        },
        {
          "internalType": "address",
          "name": "donor",
          "type": "address"
        },
        {
          "internalType": "bool",
          "name": "isRecurring",
          "type": "bool"
        }
      ],
      "name": "addDonationToProject",
      "outputs": [
        {
          "internalType": "uint256",
          "name": "",
          "type": "uint256"
        }
      ],
      "stateMutability": "nonpayable",
      "type": "function"
    },
    {
      "inputs": [
        {
          "internalType": "uint256",
          "name": "projectId",
          "type": "uint256"
        },
        {
          "internalType": "uint256",
          "name": "amount",
          "type": "uint256"
        }
      ],
      "name": "addProofOfUsageToProject",
      "outputs": [
        {
          "internalType": "uint256",
          "name": "",
          "type": "uint256"
        }
      ],
      "stateMutability": "nonpayable",
      "type": "function"
    },
    {
      "inputs": [],
      "name": "getAllProjects",
      "outputs": [
        {
          "components": [
            {
              "internalType": "uint256",
              "name": "projectId",
              "type": "uint256"
            },
            {
              "internalType": "uint256",
              "name": "charityId",
              "type": "uint256"
            },
            {
              "internalType": "string",
              "name": "title",
              "type": "string"
            },
            {
              "internalType": "string",
              "name": "description",
              "type": "string"
            },
            {
              "internalType": "uint256",
              "name": "targetAmount",
              "type": "uint256"
            },
            {
              "internalType": "bool",
              "name": "isActive",
              "type": "bool"
            }
          ],
          "internalType": "struct ProjectMarketStorage.project[]",
          "name": "",
          "type": "tuple[]"
        }
      ],
      "stateMutability": "view",
      "type": "function"
    },
    {
      "inputs": [],
      "name": "getAllActiveProjects",
      "outputs": [
        {
          "components": [
            {
              "internalType": "uint256",
              "name": "projectId",
              "type": "uint256"
            },
            {
              "internalType": "uint256",
              "name": "charityId",
              "type": "uint256"
            },
            {
              "internalType": "string",
              "name": "title",
              "type": "string"
            },
            {
              "internalType": "string",
              "name": "description",
              "type": "string"
            },
            {
              "internalType": "uint256",
              "name": "targetAmount",
              "type": "uint256"
            },
            {
              "internalType": "bool",
              "name": "isActive",
              "type": "bool"
            }
          ],
          "internalType": "struct ProjectMarketStorage.project[]",
          "name": "",
          "type": "tuple[]"
        }
      ],
      "stateMutability": "view",
      "type": "function"
    },
    {
      "inputs": [
        {
          "internalType": "uint256",
          "name": "projectId",
          "type": "uint256"
        }
      ],
      "name": "getAllProofsByProject",
      "outputs": [
        {
          "components": [
            {
              "internalType": "uint256",
              "name": "proofId",
              "type": "uint256"
            },
            {
              "internalType": "uint256",
              "name": "projectId",
              "type": "uint256"
            },
            {
              "internalType": "uint256",
              "name": "amtVerified",
              "type": "uint256"
            },
            {
              "internalType": "uint256",
              "name": "timeOfUpload",
              "type": "uint256"
            },
            {
              "internalType": "enum CharityStorage.charityCategory",
              "name": "category",
              "type": "uint8"
            }
          ],
          "internalType": "struct ProjectMarketStorage.proof[]",
          "name": "",
          "type": "tuple[]"
        }
      ],
      "stateMutability": "view",
      "type": "function"
    },
    {
      "inputs": [
        {
          "internalType": "uint256",
          "name": "id",
          "type": "uint256"
        }
      ],
      "name": "getProjectById",
      "outputs": [
        {
          "components": [
            {
              "internalType": "uint256",
              "name": "projectId",
              "type": "uint256"
            },
            {
              "internalType": "uint256",
              "name": "charityId",
              "type": "uint256"
            },
            {
              "internalType": "string",
              "name": "title",
              "type": "string"
            },
            {
              "internalType": "string",
              "name": "description",
              "type": "string"
            },
            {
              "internalType": "uint256",
              "name": "targetAmount",
              "type": "uint256"
            },
            {
              "internalType": "bool",
              "name": "isActive",
              "type": "bool"
            }
          ],
          "internalType": "struct ProjectMarketStorage.project",
          "name": "",
          "type": "tuple"
        }
      ],
      "stateMutability": "view",
      "type": "function"
    },
    {
      "inputs": [
        {
          "internalType": "uint256",
          "name": "id",
          "type": "uint256"
        }
      ],
      "name": "isProjectActive",
      "outputs": [
        {
          "internalType": "bool",
          "name": "",
          "type": "bool"
        }
      ],
      "stateMutability": "view",
      "type": "function"
    },
    {
      "inputs": [
        {
          "internalType": "uint256",
          "name": "id",
          "type": "uint256"
        }
      ],
      "name": "setProjectActive",
      "outputs": [],
      "stateMutability": "nonpayable",
      "type": "function"
    },
    {
      "inputs": [
        {
          "internalType": "uint256",
          "name": "projectId",
          "type": "uint256"
        }
      ],
      "name": "getDonationsByProject",
      "outputs": [
        {
          "components": [
            {
              "internalType": "uint256",
              "name": "donationId",
              "type": "uint256"
            },
            {
              "internalType": "uint256",
              "name": "projectId",
              "type": "uint256"
            },
            {
              "internalType": "address",
              "name": "donor",
              "type": "address"
            },
            {
              "internalType": "uint256",
              "name": "amt",
              "type": "uint256"
            },
            {
              "internalType": "uint256",
              "name": "amtVerified",
              "type": "uint256"
            },
            {
              "internalType": "uint256",
              "name": "transactionDate",
              "type": "uint256"
            },
            {
              "internalType": "uint256",
              "name": "timeTakenToVerify",
              "type": "uint256"
            },
            {
              "internalType": "enum ProjectMarketStorage.DonationType",
              "name": "donationType",
              "type": "uint8"
            }
          ],
          "internalType": "struct ProjectMarketStorage.donation[]",
          "name": "",
          "type": "tuple[]"
        }
      ],
      "stateMutability": "view",
      "type": "function"
    },
    {
      "inputs": [
        {
          "internalType": "address",
          "name": "donor",
          "type": "address"
        }
      ],
      "name": "getDonationsByDonor",
      "outputs": [
        {
          "components": [
            {
              "internalType": "uint256",
              "name": "donationId",
              "type": "uint256"
            },
            {
              "internalType": "uint256",
              "name": "projectId",
              "type": "uint256"
            },
            {
              "internalType": "address",
              "name": "donor",
              "type": "address"
            },
            {
              "internalType": "uint256",
              "name": "amt",
              "type": "uint256"
            },
            {
              "internalType": "uint256",
              "name": "amtVerified",
              "type": "uint256"
            },
            {
              "internalType": "uint256",
              "name": "transactionDate",
              "type": "uint256"
            },
            {
              "internalType": "uint256",
              "name": "timeTakenToVerify",
              "type": "uint256"
            },
            {
              "internalType": "enum ProjectMarketStorage.DonationType",
              "name": "donationType",
              "type": "uint8"
            }
          ],
          "internalType": "struct ProjectMarketStorage.donation[]",
          "name": "",
          "type": "tuple[]"
        }
      ],
      "stateMutability": "view",
      "type": "function"
    }
  ],
  "bytecode": "0x60806040526000805560006001556000600255600060035533600560006101000a81548173ffffffffffffffffffffffffffffffffffffffff021916908373ffffffffffffffffffffffffffffffffffffffff1602179055503480156200006557600080fd5b506040516200331d3803806200331d83398181016040528101906200008b919062000151565b80600460006101000a81548173ffffffffffffffffffffffffffffffffffffffff021916908373ffffffffffffffffffffffffffffffffffffffff1602179055505062000183565b600080fd5b600073ffffffffffffffffffffffffffffffffffffffff82169050919050565b60006200010582620000d8565b9050919050565b60006200011982620000f8565b9050919050565b6200012b816200010c565b81146200013757600080fd5b50565b6000815190506200014b8162000120565b92915050565b6000602082840312156200016a5762000169620000d3565b5b60006200017a848285016200013a565b91505092915050565b61318a80620001936000396000f3fe608060405234801561001057600080fd5b506004361061012c5760003560e01c80638da5cb5b116100ad578063cb65bf1611610071578063cb65bf16146103cf578063ce980d4b146103ff578063e851ced814610434578063ee685df514610464578063f2ef441b146104945761012c565b80638da5cb5b1461030557806392256aec1461032357806393dc12e614610353578063bee5cdca1461036f578063c6d47ac91461039f5761012c565b80633d0d3086116100f45780633d0d30861461021b57806350c2f30e1461024b57806353b3194c1461027b57806371c69a8e146102b057806380d03829146102e75761012c565b806305bd57341461013157806306c497131461016857806328d703631461019f57806330933bf0146101cf5780633739fe63146101ff575b600080fd5b61014b600480360381019061014691906120ed565b6104b2565b60405161015f9897969594939291906121f4565b60405180910390f35b610182600480360381019061017d9190612272565b610544565b6040516101969897969594939291906121f4565b60405180910390f35b6101b960048036038101906101b49190612303565b6105b9565b6040516101c6919061236a565b60405180910390f35b6101e960048036038101906101e491906120ed565b61094c565b6040516101f6919061236a565b60405180910390f35b61021960048036038101906102149190612272565b610e5c565b005b61023560048036038101906102309190612385565b610ea6565b6040516102429190612531565b60405180910390f35b61026560048036038101906102609190612272565b6110f0565b6040516102729190612531565b60405180910390f35b61029560048036038101906102909190612272565b611230565b6040516102a7969594939291906125f2565b60405180910390f35b6102ca60048036038101906102c59190612661565b611389565b6040516102de9897969594939291906121f4565b60405180910390f35b6102ef61141b565b6040516102fc919061284c565b60405180910390f35b61030d6115d7565b60405161031a919061286e565b60405180910390f35b61033d60048036038101906103389190612272565b6115fd565b60405161034a919061286e565b60405180910390f35b61036d60048036038101906103689190612272565b6116b8565b005b61038960048036038101906103849190612272565b61175d565b6040516103969190612919565b60405180910390f35b6103b960048036038101906103b49190612272565b6118e7565b6040516103c69190612a9a565b60405180910390f35b6103e960048036038101906103e49190612272565b6119bc565b6040516103f6919061236a565b60405180910390f35b610419600480360381019061041491906120ed565b6119dc565b60405161042b969594939291906125f2565b60405180910390f35b61044e60048036038101906104499190612bf1565b611b52565b60405161045b919061236a565b60405180910390f35b61047e60048036038101906104799190612272565b611d85565b60405161048b9190612c90565b60405180910390f35b61049c611db2565b6040516104a9919061284c565b60405180910390f35b600960205281600052604060002081815481106104ce57600080fd5b9060005260206000209060080201600091509150508060000154908060010154908060020160009054906101000a900473ffffffffffffffffffffffffffffffffffffffff16908060030154908060040154908060050154908060060154908060070160009054906101000a900460ff16905088565b60076020528060005260406000206000915090508060000154908060010154908060020160009054906101000a900473ffffffffffffffffffffffffffffffffffffffff16908060030154908060040154908060050154908060060154908060070160009054906101000a900460ff16905088565b6000806000905082156105cb57600190505b600060405180610100016040528060015481526020018881526020018673ffffffffffffffffffffffffffffffffffffffff16815260200187815260200160008152602001428152602001600081526020018360018111156106305761062f61217d565b5b815250905080600760006001548152602001908152602001600020600082015181600001556020820151816001015560408201518160020160006101000a81548173ffffffffffffffffffffffffffffffffffffffff021916908373ffffffffffffffffffffffffffffffffffffffff160217905550606082015181600301556080820151816004015560a0820151816005015560c0820151816006015560e08201518160070160006101000a81548160ff021916908360018111156106f9576106f861217d565b5b021790555090505060096000888152602001908152602001600020819080600181540180825580915050600190039060005260206000209060080201600090919091909150600082015181600001556020820151816001015560408201518160020160006101000a81548173ffffffffffffffffffffffffffffffffffffffff021916908373ffffffffffffffffffffffffffffffffffffffff160217905550606082015181600301556080820151816004015560a0820151816005015560c0820151816006015560e08201518160070160006101000a81548160ff021916908360018111156107ec576107eb61217d565b5b02179055505050600a60008673ffffffffffffffffffffffffffffffffffffffff1673ffffffffffffffffffffffffffffffffffffffff168152602001908152602001600020819080600181540180825580915050600190039060005260206000209060080201600090919091909150600082015181600001556020820151816001015560408201518160020160006101000a81548173ffffffffffffffffffffffffffffffffffffffff021916908373ffffffffffffffffffffffffffffffffffffffff160217905550606082015181600301556080820151816004015560a0820151816005015560c0820151816006015560e08201518160070160006101000a81548160ff0219169083600181111561090a5761090961217d565b5b02179055505050600e600081548092919061092490612cda565b91905055506001600081548092919061093c90612cda565b9190505592505050949350505050565b6000806006600085815260200190815260200160002060010154905060006040518060a001604052806002548152602001868152602001858152602001428152602001600460009054906101000a900473ffffffffffffffffffffffffffffffffffffffff1673ffffffffffffffffffffffffffffffffffffffff166351c3898f856040518263ffffffff1660e01b81526004016109ea919061236a565b602060405180830381865afa158015610a07573d6000803e3d6000fd5b505050506040513d601f19601f82011682018060405250810190610a2b9190612d47565b6004811115610a3d57610a3c61217d565b5b8152509050600c60008681526020019081526020016000208190806001815401808255809150506001900390600052602060002090600502016000909190919091506000820151816000015560208201518160010155604082015181600201556060820151816003015560808201518160040160006101000a81548160ff02191690836004811115610ad257610ad161217d565b5b0217905550505060005b6009600087815260200190815260200160002080549050811015610e3a576000600960008881526020019081526020016000208281548110610b2157610b20612d74565b5b90600052602060002090600802016000015490506000600960008981526020019081526020016000208381548110610b5c57610b5b612d74565b5b90600052602060002090600802016006015403610e26576000600960008981526020019081526020016000208381548110610b9a57610b99612d74565b5b906000526020600020906008020160040154600960008a81526020019081526020016000208481548110610bd157610bd0612d74565b5b906000526020600020906008020160030154610bed9190612da3565b9050808710610da3578087610c029190612da3565b9650600960008981526020019081526020016000208381548110610c2957610c28612d74565b5b906000526020600020906008020160030154600960008a81526020019081526020016000208481548110610c6057610c5f612d74565b5b906000526020600020906008020160040181905550600960008981526020019081526020016000208381548110610c9a57610c99612d74565b5b90600052602060002090600802016005015442610cb79190612da3565b600960008a81526020019081526020016000208481548110610cdc57610cdb612d74565b5b906000526020600020906008020160060181905550600960008981526020019081526020016000208381548110610d1657610d15612d74565b5b9060005260206000209060080201600301546007600084815260200190815260200160002060040181905550600960008981526020019081526020016000208381548110610d6757610d66612d74565b5b90600052602060002090600802016005015442610d849190612da3565b6007600084815260200190815260200160002060060181905550610e24565b86600960008a81526020019081526020016000208481548110610dc957610dc8612d74565b5b90600052602060002090600802016004016000828254610de99190612dd7565b9250508190555086600760008481526020019081526020016000206004016000828254610e169190612dd7565b925050819055505050610e3a565b505b508080610e3290612cda565b915050610adc565b5060026000815480929190610e4e90612cda565b919050559250505092915050565b60016006600083815260200190815260200160002060050160006101000a81548160ff02191690831515021790555060036000815480929190610e9e90612cda565b919050555050565b60606000600a60008473ffffffffffffffffffffffffffffffffffffffff1673ffffffffffffffffffffffffffffffffffffffff1681526020019081526020016000208054905067ffffffffffffffff811115610f0657610f05612ac6565b5b604051908082528060200260200182016040528015610f3f57816020015b610f2c611ffe565b815260200190600190039081610f245790505b5090506000805b600e548110156110e5578473ffffffffffffffffffffffffffffffffffffffff166007600083815260200190815260200160002060020160009054906101000a900473ffffffffffffffffffffffffffffffffffffffff1673ffffffffffffffffffffffffffffffffffffffff16036110d257600760008281526020019081526020016000206040518061010001604052908160008201548152602001600182015481526020016002820160009054906101000a900473ffffffffffffffffffffffffffffffffffffffff1673ffffffffffffffffffffffffffffffffffffffff1673ffffffffffffffffffffffffffffffffffffffff168152602001600382015481526020016004820154815260200160058201548152602001600682015481526020016007820160009054906101000a900460ff16600181111561108f5761108e61217d565b5b60018111156110a1576110a061217d565b5b815250508383815181106110b8576110b7612d74565b5b602002602001018190525081806110ce90612cda565b9250505b80806110dd90612cda565b915050610f46565b508192505050919050565b606060096000838152602001908152602001600020805480602002602001604051908101604052809291908181526020016000905b8282101561122557838290600052602060002090600802016040518061010001604052908160008201548152602001600182015481526020016002820160009054906101000a900473ffffffffffffffffffffffffffffffffffffffff1673ffffffffffffffffffffffffffffffffffffffff1673ffffffffffffffffffffffffffffffffffffffff168152602001600382015481526020016004820154815260200160058201548152602001600682015481526020016007820160009054906101000a900460ff166001811115611200576111ff61217d565b5b60018111156112125761121161217d565b5b8152505081526020019060010190611125565b505050509050919050565b600660205280600052604060002060009150905080600001549080600101549080600201805461125f90612e3a565b80601f016020809104026020016040519081016040528092919081815260200182805461128b90612e3a565b80156112d85780601f106112ad576101008083540402835291602001916112d8565b820191906000526020600020905b8154815290600101906020018083116112bb57829003601f168201915b5050505050908060030180546112ed90612e3a565b80601f016020809104026020016040519081016040528092919081815260200182805461131990612e3a565b80156113665780601f1061133b57610100808354040283529160200191611366565b820191906000526020600020905b81548152906001019060200180831161134957829003601f168201915b5050505050908060040154908060050160009054906101000a900460ff16905086565b600a60205281600052604060002081815481106113a557600080fd5b9060005260206000209060080201600091509150508060000154908060010154908060020160009054906101000a900473ffffffffffffffffffffffffffffffffffffffff16908060030154908060040154908060050154908060060154908060070160009054906101000a900460ff16905088565b6060600d805480602002602001604051908101604052809291908181526020016000905b828210156115ce57838290600052602060002090600602016040518060c0016040529081600082015481526020016001820154815260200160028201805461148690612e3a565b80601f01602080910402602001604051908101604052809291908181526020018280546114b290612e3a565b80156114ff5780601f106114d4576101008083540402835291602001916114ff565b820191906000526020600020905b8154815290600101906020018083116114e257829003601f168201915b5050505050815260200160038201805461151890612e3a565b80601f016020809104026020016040519081016040528092919081815260200182805461154490612e3a565b80156115915780601f1061156657610100808354040283529160200191611591565b820191906000526020600020905b81548152906001019060200180831161157457829003601f168201915b50505050508152602001600482015481526020016005820160009054906101000a900460ff1615151515815250508152602001906001019061143f565b50505050905090565b600560009054906101000a900473ffffffffffffffffffffffffffffffffffffffff1681565b6000600460009054906101000a900473ffffffffffffffffffffffffffffffffffffffff1673ffffffffffffffffffffffffffffffffffffffff1663e317526a60066000858152602001908152602001600020600101546040518263ffffffff1660e01b8152600401611670919061236a565b602060405180830381865afa15801561168d573d6000803e3d6000fd5b505050506040513d601f19601f820116820180604052508101906116b19190612e80565b9050919050565b60006006600083815260200190815260200160002060050160006101000a81548160ff0219169083151502179055506000600860006116f68461175d565b602001518152602001908152602001600020828154811061171a57611719612d74565b5b906000526020600020906006020160050160006101000a81548160ff0219169083151502179055506003600081548092919061175590612ead565b919050555050565b61176561206b565b600660008381526020019081526020016000206040518060c001604052908160008201548152602001600182015481526020016002820180546117a790612e3a565b80601f01602080910402602001604051908101604052809291908181526020018280546117d390612e3a565b80156118205780601f106117f557610100808354040283529160200191611820565b820191906000526020600020905b81548152906001019060200180831161180357829003601f168201915b5050505050815260200160038201805461183990612e3a565b80601f016020809104026020016040519081016040528092919081815260200182805461186590612e3a565b80156118b25780601f10611887576101008083540402835291602001916118b2565b820191906000526020600020905b81548152906001019060200180831161189557829003601f168201915b50505050508152602001600482015481526020016005820160009054906101000a900460ff1615151515815250509050919050565b6060600c6000838152602001908152602001600020805480602002602001604051908101604052809291908181526020016000905b828210156119b157838290600052602060002090600502016040518060a0016040529081600082015481526020016001820154815260200160028201548152602001600382015481526020016004820160009054906101000a900460ff16600481111561198c5761198b61217d565b5b600481111561199e5761199d61217d565b5b815250508152602001906001019061191c565b505050509050919050565b600060066000838152602001908152602001600020600101549050919050565b600860205281600052604060002081815481106119f857600080fd5b906000526020600020906006020160009150915050806000015490806001015490806002018054611a2890612e3a565b80601f0160208091040260200160405190810160405280929190818152602001828054611a5490612e3a565b8015611aa15780601f10611a7657610100808354040283529160200191611aa1565b820191906000526020600020905b815481529060010190602001808311611a8457829003601f168201915b505050505090806003018054611ab690612e3a565b80601f0160208091040260200160405190810160405280929190818152602001828054611ae290612e3a565b8015611b2f5780601f10611b0457610100808354040283529160200191611b2f565b820191906000526020600020905b815481529060010190602001808311611b1257829003601f168201915b5050505050908060040154908060050160009054906101000a900460ff16905086565b6000806040518060c00160405280600054815260200187815260200186815260200185815260200184815260200160011515815250905080600660008054815260200190815260200160002060008201518160000155602082015181600101556040820151816002019081611bc79190613082565b506060820151816003019081611bdd9190613082565b506080820151816004015560a08201518160050160006101000a81548160ff0219169083151502179055509050506008600087815260200190815260200160002081908060018154018082558091505060019003906000526020600020906006020160009091909190915060008201518160000155602082015181600101556040820151816002019081611c719190613082565b506060820151816003019081611c879190613082565b506080820151816004015560a08201518160050160006101000a81548160ff0219169083151502179055505050600d81908060018154018082558091505060019003906000526020600020906006020160009091909190915060008201518160000155602082015181600101556040820151816002019081611d099190613082565b506060820151816003019081611d1f9190613082565b506080820151816004015560a08201518160050160006101000a81548160ff021916908315150217905550505060036000815480929190611d5f90612cda565b9190505550600080815480929190611d7690612cda565b91905055915050949350505050565b60006006600083815260200190815260200160002060050160009054906101000a900460ff169050919050565b6060600060035467ffffffffffffffff811115611dd257611dd1612ac6565b5b604051908082528060200260200182016040528015611e0b57816020015b611df861206b565b815260200190600190039081611df05790505b5090506000805b600d80549050811015611ff557611e2881611d85565b8015611e35575060035482105b15611fe257600660008281526020019081526020016000206040518060c00160405290816000820154815260200160018201548152602001600282018054611e7c90612e3a565b80601f0160208091040260200160405190810160405280929190818152602001828054611ea890612e3a565b8015611ef55780601f10611eca57610100808354040283529160200191611ef5565b820191906000526020600020905b815481529060010190602001808311611ed857829003601f168201915b50505050508152602001600382018054611f0e90612e3a565b80601f0160208091040260200160405190810160405280929190818152602001828054611f3a90612e3a565b8015611f875780601f10611f5c57610100808354040283529160200191611f87565b820191906000526020600020905b815481529060010190602001808311611f6a57829003601f168201915b50505050508152602001600482015481526020016005820160009054906101000a900460ff161515151581525050838381518110611fc857611fc7612d74565b5b60200260200101819052508180611fde90612cda565b9250505b8080611fed90612cda565b915050611e12565b50819250505090565b6040518061010001604052806000815260200160008152602001600073ffffffffffffffffffffffffffffffffffffffff16815260200160008152602001600081526020016000815260200160008152602001600060018111156120655761206461217d565b5b81525090565b6040518060c0016040528060008152602001600081526020016060815260200160608152602001600081526020016000151581525090565b6000604051905090565b600080fd5b600080fd5b6000819050919050565b6120ca816120b7565b81146120d557600080fd5b50565b6000813590506120e7816120c1565b92915050565b60008060408385031215612104576121036120ad565b5b6000612112858286016120d8565b9250506020612123858286016120d8565b9150509250929050565b612136816120b7565b82525050565b600073ffffffffffffffffffffffffffffffffffffffff82169050919050565b60006121678261213c565b9050919050565b6121778161215c565b82525050565b7f4e487b7100000000000000000000000000000000000000000000000000000000600052602160045260246000fd5b600281106121bd576121bc61217d565b5b50565b60008190506121ce826121ac565b919050565b60006121de826121c0565b9050919050565b6121ee816121d3565b82525050565b60006101008201905061220a600083018b61212d565b612217602083018a61212d565b612224604083018961216e565b612231606083018861212d565b61223e608083018761212d565b61224b60a083018661212d565b61225860c083018561212d565b61226560e08301846121e5565b9998505050505050505050565b600060208284031215612288576122876120ad565b5b6000612296848285016120d8565b91505092915050565b6122a88161215c565b81146122b357600080fd5b50565b6000813590506122c58161229f565b92915050565b60008115159050919050565b6122e0816122cb565b81146122eb57600080fd5b50565b6000813590506122fd816122d7565b92915050565b6000806000806080858703121561231d5761231c6120ad565b5b600061232b878288016120d8565b945050602061233c878288016120d8565b935050604061234d878288016122b6565b925050606061235e878288016122ee565b91505092959194509250565b600060208201905061237f600083018461212d565b92915050565b60006020828403121561239b5761239a6120ad565b5b60006123a9848285016122b6565b91505092915050565b600081519050919050565b600082825260208201905092915050565b6000819050602082019050919050565b6123e7816120b7565b82525050565b6123f68161215c565b82525050565b612405816121d3565b82525050565b6101008201600082015161242260008501826123de565b50602082015161243560208501826123de565b50604082015161244860408501826123ed565b50606082015161245b60608501826123de565b50608082015161246e60808501826123de565b5060a082015161248160a08501826123de565b5060c082015161249460c08501826123de565b5060e08201516124a760e08501826123fc565b50505050565b60006124b9838361240b565b6101008301905092915050565b6000602082019050919050565b60006124de826123b2565b6124e881856123bd565b93506124f3836123ce565b8060005b8381101561252457815161250b88826124ad565b9750612516836124c6565b9250506001810190506124f7565b5085935050505092915050565b6000602082019050818103600083015261254b81846124d3565b905092915050565b600081519050919050565b600082825260208201905092915050565b60005b8381101561258d578082015181840152602081019050612572565b60008484015250505050565b6000601f19601f8301169050919050565b60006125b582612553565b6125bf818561255e565b93506125cf81856020860161256f565b6125d881612599565b840191505092915050565b6125ec816122cb565b82525050565b600060c082019050612607600083018961212d565b612614602083018861212d565b818103604083015261262681876125aa565b9050818103606083015261263a81866125aa565b9050612649608083018561212d565b61265660a08301846125e3565b979650505050505050565b60008060408385031215612678576126776120ad565b5b6000612686858286016122b6565b9250506020612697858286016120d8565b9150509250929050565b600081519050919050565b600082825260208201905092915050565b6000819050602082019050919050565b600082825260208201905092915050565b60006126e982612553565b6126f381856126cd565b935061270381856020860161256f565b61270c81612599565b840191505092915050565b612720816122cb565b82525050565b600060c08301600083015161273e60008601826123de565b50602083015161275160208601826123de565b506040830151848203604086015261276982826126de565b9150506060830151848203606086015261278382826126de565b915050608083015161279860808601826123de565b5060a08301516127ab60a0860182612717565b508091505092915050565b60006127c28383612726565b905092915050565b6000602082019050919050565b60006127e2826126a1565b6127ec81856126ac565b9350836020820285016127fe856126bd565b8060005b8581101561283a578484038952815161281b85826127b6565b9450612826836127ca565b925060208a01995050600181019050612802565b50829750879550505050505092915050565b6000602082019050818103600083015261286681846127d7565b905092915050565b6000602082019050612883600083018461216e565b92915050565b600060c0830160008301516128a160008601826123de565b5060208301516128b460208601826123de565b50604083015184820360408601526128cc82826126de565b915050606083015184820360608601526128e682826126de565b91505060808301516128fb60808601826123de565b5060a083015161290e60a0860182612717565b508091505092915050565b600060208201905081810360008301526129338184612889565b905092915050565b600081519050919050565b600082825260208201905092915050565b6000819050602082019050919050565b600581106129785761297761217d565b5b50565b600081905061298982612967565b919050565b60006129998261297b565b9050919050565b6129a98161298e565b82525050565b60a0820160008201516129c560008501826123de565b5060208201516129d860208501826123de565b5060408201516129eb60408501826123de565b5060608201516129fe60608501826123de565b506080820151612a1160808501826129a0565b50505050565b6000612a2383836129af565b60a08301905092915050565b6000602082019050919050565b6000612a478261293b565b612a518185612946565b9350612a5c83612957565b8060005b83811015612a8d578151612a748882612a17565b9750612a7f83612a2f565b925050600181019050612a60565b5085935050505092915050565b60006020820190508181036000830152612ab48184612a3c565b905092915050565b600080fd5b600080fd5b7f4e487b7100000000000000000000000000000000000000000000000000000000600052604160045260246000fd5b612afe82612599565b810181811067ffffffffffffffff82111715612b1d57612b1c612ac6565b5b80604052505050565b6000612b306120a3565b9050612b3c8282612af5565b919050565b600067ffffffffffffffff821115612b5c57612b5b612ac6565b5b612b6582612599565b9050602081019050919050565b82818337600083830152505050565b6000612b94612b8f84612b41565b612b26565b905082815260208101848484011115612bb057612baf612ac1565b5b612bbb848285612b72565b509392505050565b600082601f830112612bd857612bd7612abc565b5b8135612be8848260208601612b81565b91505092915050565b60008060008060808587031215612c0b57612c0a6120ad565b5b6000612c19878288016120d8565b945050602085013567ffffffffffffffff811115612c3a57612c396120b2565b5b612c4687828801612bc3565b935050604085013567ffffffffffffffff811115612c6757612c666120b2565b5b612c7387828801612bc3565b9250506060612c84878288016120d8565b91505092959194509250565b6000602082019050612ca560008301846125e3565b92915050565b7f4e487b7100000000000000000000000000000000000000000000000000000000600052601160045260246000fd5b6000612ce5826120b7565b91507fffffffffffffffffffffffffffffffffffffffffffffffffffffffffffffffff8203612d1757612d16612cab565b5b600182019050919050565b60058110612d2f57600080fd5b50565b600081519050612d4181612d22565b92915050565b600060208284031215612d5d57612d5c6120ad565b5b6000612d6b84828501612d32565b91505092915050565b7f4e487b7100000000000000000000000000000000000000000000000000000000600052603260045260246000fd5b6000612dae826120b7565b9150612db9836120b7565b9250828203905081811115612dd157612dd0612cab565b5b92915050565b6000612de2826120b7565b9150612ded836120b7565b9250828201905080821115612e0557612e04612cab565b5b92915050565b7f4e487b7100000000000000000000000000000000000000000000000000000000600052602260045260246000fd5b60006002820490506001821680612e5257607f821691505b602082108103612e6557612e64612e0b565b5b50919050565b600081519050612e7a8161229f565b92915050565b600060208284031215612e9657612e956120ad565b5b6000612ea484828501612e6b565b91505092915050565b6000612eb8826120b7565b915060008203612ecb57612eca612cab565b5b600182039050919050565b60008190508160005260206000209050919050565b60006020601f8301049050919050565b600082821b905092915050565b600060088302612f387fffffffffffffffffffffffffffffffffffffffffffffffffffffffffffffffff82612efb565b612f428683612efb565b95508019841693508086168417925050509392505050565b6000819050919050565b6000612f7f612f7a612f75846120b7565b612f5a565b6120b7565b9050919050565b6000819050919050565b612f9983612f64565b612fad612fa582612f86565b848454612f08565b825550505050565b600090565b612fc2612fb5565b612fcd818484612f90565b505050565b5b81811015612ff157612fe6600082612fba565b600181019050612fd3565b5050565b601f8211156130365761300781612ed6565b61301084612eeb565b8101602085101561301f578190505b61303361302b85612eeb565b830182612fd2565b50505b505050565b600082821c905092915050565b60006130596000198460080261303b565b1980831691505092915050565b60006130728383613048565b9150826002028217905092915050565b61308b82612553565b67ffffffffffffffff8111156130a4576130a3612ac6565b5b6130ae8254612e3a565b6130b9828285612ff5565b600060209050601f8311600181146130ec57600084156130da578287015190505b6130e48582613066565b86555061314c565b601f1984166130fa86612ed6565b60005b82811015613122578489015182556001820191506020850194506020810190506130fd565b8683101561313f578489015161313b601f891682613048565b8355505b6001600288020188555050505b50505050505056fea26469706673582212201fbb4164e0ea99f3d1036b30a1a1255f391c8277cc9fd1dc2001018402bc4c7d64736f6c63430008110033",
  "immutableReferences": {},
  "source": "// SPDX-License-Identifier: MIT\npragma solidity ^0.8.0;\nimport \"./Charity.sol\";\nimport \"./CharityStorage.sol\";\n\ncontract ProjectMarketStorage {\n    enum DonationType {\n        ONETIME,\n        RECURRING\n    }\n\n    struct project {\n        uint256 projectId;\n        uint256 charityId;\n        string title;\n        string description;\n        uint256 targetAmount;\n        bool isActive;\n    }\n\n    struct donation {\n        uint256 donationId;\n        uint256 projectId;\n        address donor;\n        uint256 amt;\n        uint256 amtVerified;\n        uint256 transactionDate;\n        uint256 timeTakenToVerify;\n        DonationType donationType;\n    }\n\n    struct proof {\n        uint256 proofId;\n        uint256 projectId;\n        uint256 amtVerified;\n        uint256 timeOfUpload;\n        CharityStorage.charityCategory category;\n    }\n\n    uint256 projectIdCtr = 0;\n    uint256 donationIdCtr = 0;\n    uint256 proofIdCtr = 0;\n    uint256 numActiveListings = 0;\n    Charity charityContract;\n\n    address public owner = msg.sender; // set deployer as owner of the storage contract\n    mapping(uint256 => project) public allProjects; // mapping of projectMarket ID to projectMarket\n    mapping(uint256 => donation) public allDonations; // mapping of donation ID to donation\n    mapping(uint256 => project[]) public projectsByCharity; // mapping of charity ID to list of projectMarkets\n    mapping(uint256 => donation[]) public donationsByProject; // mapping of project ID to list of donations\n    mapping(address => donation[]) public donationsByDonor; // do not use this to access donations, purely for counting number of donations per donor\n    mapping(address => donation[]) transactions; // mapping of donor address to their past transactions\n    mapping(uint256 => proof[]) proofsByProject; // mapping of project ID to list of proofs\n    project[] projects;\n    uint256 numDonations;\n\n    constructor(Charity charityAddress) {\n        charityContract = charityAddress;\n    }\n\n    modifier ownerOnly() {\n        require(\n            msg.sender == owner,\n            \"Only the owner of this contract is allowed to perform this operation\"\n        );\n        _;\n    }\n\n    modifier owningCharityOnly(address charityAddress) {\n        require(\n            charityAddress == msg.sender,\n            \"Only owning charity can perform this action!\"\n        );\n        _;\n    }\n\n    function addProjectToMarket(\n        uint256 charityId,\n        string memory title,\n        string memory description,\n        uint256 targetAmount\n    ) public returns (uint256) {\n        // donation[] memory donations;\n        project memory newProject = project(\n            projectIdCtr,\n            charityId,\n            title,\n            description,\n            targetAmount,\n            // donations,\n            true\n        );\n\n        allProjects[projectIdCtr] = newProject;\n        projectsByCharity[charityId].push(newProject);\n        projects.push(newProject);\n        numActiveListings++;\n        return projectIdCtr++;\n    }\n\n    function closeProject(uint256 projectId) public {\n        allProjects[projectId].isActive = false;\n        projectsByCharity[getProjectById(projectId).charityId][projectId].isActive = false;\n        numActiveListings--;\n    }\n\n    function getProjectOwner(uint256 projectId) public view returns (address) {\n        return\n            charityContract.getCharityOwner(allProjects[projectId].charityId);\n    }\n\n    function getProjectOwnerId(\n        uint256 projectId\n    ) public view returns (uint256) {\n        return allProjects[projectId].charityId;\n    }\n\n    function addDonationToProject(\n        uint256 projectId,\n        uint256 amt,\n        address donor,\n        bool isRecurring\n    ) public returns (uint256) {\n        DonationType d = DonationType.ONETIME;\n        if (isRecurring) {\n            d = DonationType.RECURRING;\n        }\n        donation memory newDonation = donation(\n            donationIdCtr,\n            projectId,\n            donor,\n            amt,\n            0,\n            block.timestamp,\n            0,\n            d\n        );\n        allDonations[donationIdCtr] = newDonation;\n        donationsByProject[projectId].push(newDonation);\n        donationsByDonor[donor].push(newDonation);\n        numDonations++;\n        return donationIdCtr++;\n    }\n\n    function addProofOfUsageToProject(\n        uint256 projectId,\n        uint256 amount\n    ) public returns (uint256) {\n        uint256 cId = allProjects[projectId].charityId;\n        proof memory newProof = proof(\n            proofIdCtr,\n            projectId,\n            amount,\n            block.timestamp,\n            charityContract.getCategoryByCharity(cId)\n        );\n        proofsByProject[projectId].push(newProof);\n        for (uint i = 0; i < donationsByProject[projectId].length; i++) {\n            uint256 donationId = donationsByProject[projectId][i].donationId;\n            if (donationsByProject[projectId][i].timeTakenToVerify == 0) { // not yet verified\n                uint256 amtNeededToFullyVerifyCurrDonation = donationsByProject[projectId][i].amt - donationsByProject[projectId][i].amtVerified;\n                if (amount >= amtNeededToFullyVerifyCurrDonation) {\n                    amount -= amtNeededToFullyVerifyCurrDonation;                    \n                    donationsByProject[projectId][i].amtVerified = donationsByProject[projectId][i].amt; // can just verify full amount\n                    donationsByProject[projectId][i].timeTakenToVerify = block.timestamp - donationsByProject[projectId][i].transactionDate;\n                    allDonations[donationId].amtVerified = donationsByProject[projectId][i].amt; // can just verify full amount\n                    allDonations[donationId].timeTakenToVerify = block.timestamp - donationsByProject[projectId][i].transactionDate;\n                } else {\n                    donationsByProject[projectId][i].amtVerified += amount; // add remaining amount to amount verified\n                    allDonations[donationId].amtVerified += amount;\n                    break;\n                }\n            }\n        }\n        return proofIdCtr++;\n    }\n\n    function getAllProjects() public view returns (project[] memory) {\n        return projects;\n    }\n\n    function getAllActiveProjects() public view returns (project[] memory) {\n        project[] memory active = new project[](numActiveListings);\n        uint256 idx = 0;\n        for (uint256 i = 0; i < projects.length; i++) {\n            if (isProjectActive(i) && idx < numActiveListings) {\n                active[idx] = allProjects[i];\n                idx++;\n            }\n        }\n        return active;\n    }\n\n    function getAllProofsByProject(uint256 projectId) public view returns (proof[] memory) {\n        return proofsByProject[projectId];\n    }\n\n    function getProjectById(uint256 id) public view returns (project memory) {\n        return allProjects[id];\n    }\n\n    function isProjectActive(uint256 id) public view returns (bool) {\n        return allProjects[id].isActive;\n    }\n\n    function setProjectActive(uint256 id) public {\n        allProjects[id].isActive = true;\n        numActiveListings++;\n    }\n\n    function getDonationsByProject(uint256 projectId) public view returns (donation[] memory) {\n        return donationsByProject[projectId];\n    }\n\n    function getDonationsByDonor(address donor) public view returns (donation[] memory) {\n        donation[] memory filtered = new donation[](donationsByDonor[donor].length);\n        uint256 idx = 0;\n        for (uint256 i = 0; i < numDonations; i++) {\n            if (allDonations[i].donor == donor) {\n                filtered[idx] = allDonations[i];\n                idx++;\n            }\n        }\n        return filtered;\n    }\n}\n",
  "sourcePath": "/Users/danielonges/Desktop/coding/blockchain-charity/contracts/ProjectMarketStorage.sol",
  "compiler": {
    "name": "solc",
    "version": "0.8.17+commit.8df45f5f.Emscripten.clang"
  },
  "schemaVersion": "3.4.11",
  "updatedAt": "2023-04-04T10:54:06.663Z",
  "devdoc": {
    "kind": "dev",
    "methods": {},
    "version": 1
  },
  "userdoc": {
    "kind": "user",
    "methods": {},
    "version": 1
  }
}