{
  "contractName": "ProjectMarket",
  "abi": [
    {
      "inputs": [
        {
          "internalType": "contract ProjectMarketStorage",
          "name": "projectMarketAddress",
          "type": "address"
        },
        {
          "internalType": "contract CharityToken",
          "name": "tokenAddress",
          "type": "address"
        },
        {
          "internalType": "contract Charity",
          "name": "charityAddress",
          "type": "address"
        },
        {
          "internalType": "contract Donor",
          "name": "donorAddress",
          "type": "address"
        }
      ],
      "stateMutability": "nonpayable",
      "type": "constructor"
    },
    {
      "anonymous": false,
      "inputs": [
        {
          "indexed": false,
          "internalType": "uint256",
          "name": "projectId",
          "type": "uint256"
        },
        {
          "indexed": false,
          "internalType": "address",
          "name": "donor",
          "type": "address"
        }
      ],
      "name": "donationMade",
      "type": "event"
    },
    {
      "anonymous": false,
      "inputs": [
        {
          "indexed": false,
          "internalType": "uint256",
          "name": "projectId",
          "type": "uint256"
        }
      ],
      "name": "projectClosed",
      "type": "event"
    },
    {
      "anonymous": false,
      "inputs": [
        {
          "indexed": false,
          "internalType": "uint256",
          "name": "charityId",
          "type": "uint256"
        }
      ],
      "name": "projectListed",
      "type": "event"
    },
    {
      "anonymous": false,
      "inputs": [
        {
          "indexed": false,
          "internalType": "uint256",
          "name": "projectId",
          "type": "uint256"
        },
        {
          "indexed": false,
          "internalType": "uint256",
          "name": "amount",
          "type": "uint256"
        }
      ],
      "name": "proofVerified",
      "type": "event"
    },
    {
      "anonymous": false,
      "inputs": [
        {
          "indexed": false,
          "internalType": "uint256",
          "name": "charityId",
          "type": "uint256"
        },
        {
          "indexed": false,
          "internalType": "uint256",
          "name": "timestamp",
          "type": "uint256"
        }
      ],
      "name": "unverifiedDonationsExceeded",
      "type": "event"
    },
    {
      "inputs": [],
      "name": "contractStopped",
      "outputs": [
        {
          "internalType": "bool",
          "name": "",
          "type": "bool"
        }
      ],
      "stateMutability": "view",
      "type": "function",
      "constant": true
    },
    {
      "inputs": [],
      "name": "owner",
      "outputs": [
        {
          "internalType": "address",
          "name": "",
          "type": "address"
        }
      ],
      "stateMutability": "view",
      "type": "function",
      "constant": true
    },
    {
      "inputs": [],
      "name": "unverifiedCtLimit",
      "outputs": [
        {
          "internalType": "uint256",
          "name": "",
          "type": "uint256"
        }
      ],
      "stateMutability": "view",
      "type": "function",
      "constant": true
    },
    {
      "inputs": [],
      "name": "unverifiedTimeLimit",
      "outputs": [
        {
          "internalType": "uint256",
          "name": "",
          "type": "uint256"
        }
      ],
      "stateMutability": "view",
      "type": "function",
      "constant": true
    },
    {
      "inputs": [],
      "name": "toggleContractStopped",
      "outputs": [],
      "stateMutability": "view",
      "type": "function",
      "constant": true
    },
    {
      "inputs": [
        {
          "internalType": "uint256",
          "name": "charityId",
          "type": "uint256"
        },
        {
          "internalType": "string",
          "name": "title",
          "type": "string"
        },
        {
          "internalType": "string",
          "name": "description",
          "type": "string"
        },
        {
          "internalType": "uint256",
          "name": "targetAmount",
          "type": "uint256"
        }
      ],
      "name": "listProject",
      "outputs": [],
      "stateMutability": "nonpayable",
      "type": "function"
    },
    {
      "inputs": [
        {
          "internalType": "uint256",
          "name": "projectId",
          "type": "uint256"
        }
      ],
      "name": "unlistProject",
      "outputs": [],
      "stateMutability": "nonpayable",
      "type": "function"
    },
    {
      "inputs": [
        {
          "internalType": "uint256",
          "name": "charityId",
          "type": "uint256"
        },
        {
          "internalType": "uint256",
          "name": "projectId",
          "type": "uint256"
        }
      ],
      "name": "relistProject",
      "outputs": [],
      "stateMutability": "nonpayable",
      "type": "function"
    },
    {
      "inputs": [
        {
          "internalType": "uint256",
          "name": "projectId",
          "type": "uint256"
        },
        {
          "internalType": "uint256",
          "name": "amt",
          "type": "uint256"
        }
      ],
      "name": "donateToProject",
      "outputs": [],
      "stateMutability": "nonpayable",
      "type": "function"
    },
    {
      "inputs": [
        {
          "internalType": "uint256",
          "name": "projectId",
          "type": "uint256"
        }
      ],
      "name": "checkUnverifiedDonations",
      "outputs": [],
      "stateMutability": "nonpayable",
      "type": "function"
    },
    {
      "inputs": [
        {
          "internalType": "uint256",
          "name": "projectId",
          "type": "uint256"
        },
        {
          "internalType": "uint256",
          "name": "amount",
          "type": "uint256"
        },
        {
          "internalType": "string",
          "name": "utility",
          "type": "string"
        }
      ],
      "name": "verifyProofOfUsage",
      "outputs": [],
      "stateMutability": "nonpayable",
      "type": "function"
    },
    {
      "inputs": [],
      "name": "getAllProjectListings",
      "outputs": [
        {
          "components": [
            {
              "internalType": "uint256",
              "name": "projectId",
              "type": "uint256"
            },
            {
              "internalType": "uint256",
              "name": "charityId",
              "type": "uint256"
            },
            {
              "internalType": "string",
              "name": "title",
              "type": "string"
            },
            {
              "internalType": "string",
              "name": "description",
              "type": "string"
            },
            {
              "internalType": "uint256",
              "name": "targetAmount",
              "type": "uint256"
            },
            {
              "internalType": "bool",
              "name": "isActive",
              "type": "bool"
            }
          ],
          "internalType": "struct ProjectMarketStorage.project[]",
          "name": "",
          "type": "tuple[]"
        }
      ],
      "stateMutability": "view",
      "type": "function",
      "constant": true
    },
    {
      "inputs": [],
      "name": "getAllActiveProjectListings",
      "outputs": [
        {
          "components": [
            {
              "internalType": "uint256",
              "name": "projectId",
              "type": "uint256"
            },
            {
              "internalType": "uint256",
              "name": "charityId",
              "type": "uint256"
            },
            {
              "internalType": "string",
              "name": "title",
              "type": "string"
            },
            {
              "internalType": "string",
              "name": "description",
              "type": "string"
            },
            {
              "internalType": "uint256",
              "name": "targetAmount",
              "type": "uint256"
            },
            {
              "internalType": "bool",
              "name": "isActive",
              "type": "bool"
            }
          ],
          "internalType": "struct ProjectMarketStorage.project[]",
          "name": "",
          "type": "tuple[]"
        }
      ],
      "stateMutability": "view",
      "type": "function",
      "constant": true
    },
    {
      "inputs": [
        {
          "internalType": "uint256",
          "name": "projectId",
          "type": "uint256"
        }
      ],
      "name": "getProofsByProject",
      "outputs": [
        {
          "components": [
            {
              "internalType": "uint256",
              "name": "proofId",
              "type": "uint256"
            },
            {
              "internalType": "uint256",
              "name": "projectId",
              "type": "uint256"
            },
            {
              "internalType": "uint256",
              "name": "amtVerified",
              "type": "uint256"
            },
            {
              "internalType": "uint256",
              "name": "timeOfUpload",
              "type": "uint256"
            },
            {
              "internalType": "string",
              "name": "utility",
              "type": "string"
            }
          ],
          "internalType": "struct ProjectMarketStorage.proof[]",
          "name": "",
          "type": "tuple[]"
        }
      ],
      "stateMutability": "view",
      "type": "function",
      "constant": true
    },
    {
      "inputs": [
        {
          "internalType": "uint256",
          "name": "projectId",
          "type": "uint256"
        }
      ],
      "name": "getProjectListingDetails",
      "outputs": [
        {
          "components": [
            {
              "internalType": "uint256",
              "name": "projectId",
              "type": "uint256"
            },
            {
              "internalType": "uint256",
              "name": "charityId",
              "type": "uint256"
            },
            {
              "internalType": "string",
              "name": "title",
              "type": "string"
            },
            {
              "internalType": "string",
              "name": "description",
              "type": "string"
            },
            {
              "internalType": "uint256",
              "name": "targetAmount",
              "type": "uint256"
            },
            {
              "internalType": "bool",
              "name": "isActive",
              "type": "bool"
            }
          ],
          "internalType": "struct ProjectMarketStorage.project",
          "name": "",
          "type": "tuple"
        }
      ],
      "stateMutability": "view",
      "type": "function",
      "constant": true
    },
    {
      "inputs": [
        {
          "internalType": "uint256",
          "name": "projectId",
          "type": "uint256"
        }
      ],
      "name": "isProjectActive",
      "outputs": [
        {
          "internalType": "bool",
          "name": "",
          "type": "bool"
        }
      ],
      "stateMutability": "view",
      "type": "function",
      "constant": true
    },
    {
      "inputs": [
        {
          "internalType": "uint256",
          "name": "projectId",
          "type": "uint256"
        }
      ],
      "name": "getDonationsByProject",
      "outputs": [
        {
          "components": [
            {
              "internalType": "uint256",
              "name": "donationId",
              "type": "uint256"
            },
            {
              "internalType": "uint256",
              "name": "projectId",
              "type": "uint256"
            },
            {
              "internalType": "address",
              "name": "donor",
              "type": "address"
            },
            {
              "internalType": "uint256",
              "name": "amt",
              "type": "uint256"
            },
            {
              "internalType": "uint256",
              "name": "amtVerified",
              "type": "uint256"
            },
            {
              "internalType": "uint256",
              "name": "transactionDate",
              "type": "uint256"
            },
            {
              "internalType": "uint256",
              "name": "timeTakenToVerify",
              "type": "uint256"
            },
            {
              "internalType": "enum ProjectMarketStorage.DonationType",
              "name": "donationType",
              "type": "uint8"
            }
          ],
          "internalType": "struct ProjectMarketStorage.donation[]",
          "name": "",
          "type": "tuple[]"
        }
      ],
      "stateMutability": "view",
      "type": "function",
      "constant": true
    },
    {
      "inputs": [],
      "name": "viewPastDonationsByDonor",
      "outputs": [
        {
          "components": [
            {
              "internalType": "uint256",
              "name": "donationId",
              "type": "uint256"
            },
            {
              "internalType": "uint256",
              "name": "projectId",
              "type": "uint256"
            },
            {
              "internalType": "address",
              "name": "donor",
              "type": "address"
            },
            {
              "internalType": "uint256",
              "name": "amt",
              "type": "uint256"
            },
            {
              "internalType": "uint256",
              "name": "amtVerified",
              "type": "uint256"
            },
            {
              "internalType": "uint256",
              "name": "transactionDate",
              "type": "uint256"
            },
            {
              "internalType": "uint256",
              "name": "timeTakenToVerify",
              "type": "uint256"
            },
            {
              "internalType": "enum ProjectMarketStorage.DonationType",
              "name": "donationType",
              "type": "uint8"
            }
          ],
          "internalType": "struct ProjectMarketStorage.donation[]",
          "name": "",
          "type": "tuple[]"
        }
      ],
      "stateMutability": "view",
      "type": "function",
      "constant": true
    }
  ],
  "bytecode": "0x60806040526064600555621a5e006006553480156200001d57600080fd5b5060405162003b5a38038062003b5a8339818101604052810190620000439190620002de565b336000806101000a81548173ffffffffffffffffffffffffffffffffffffffff021916908373ffffffffffffffffffffffffffffffffffffffff16021790555083600160006101000a81548173ffffffffffffffffffffffffffffffffffffffff021916908373ffffffffffffffffffffffffffffffffffffffff16021790555082600260006101000a81548173ffffffffffffffffffffffffffffffffffffffff021916908373ffffffffffffffffffffffffffffffffffffffff16021790555081600360006101000a81548173ffffffffffffffffffffffffffffffffffffffff021916908373ffffffffffffffffffffffffffffffffffffffff16021790555080600460006101000a81548173ffffffffffffffffffffffffffffffffffffffff021916908373ffffffffffffffffffffffffffffffffffffffff1602179055505050505062000350565b600080fd5b600073ffffffffffffffffffffffffffffffffffffffff82169050919050565b6000620001c38262000196565b9050919050565b6000620001d782620001b6565b9050919050565b620001e981620001ca565b8114620001f557600080fd5b50565b6000815190506200020981620001de565b92915050565b60006200021c82620001b6565b9050919050565b6200022e816200020f565b81146200023a57600080fd5b50565b6000815190506200024e8162000223565b92915050565b60006200026182620001b6565b9050919050565b620002738162000254565b81146200027f57600080fd5b50565b600081519050620002938162000268565b92915050565b6000620002a682620001b6565b9050919050565b620002b88162000299565b8114620002c457600080fd5b50565b600081519050620002d881620002ad565b92915050565b60008060008060808587031215620002fb57620002fa62000191565b5b60006200030b87828801620001f8565b94505060206200031e878288016200023d565b9350506040620003318782880162000282565b92505060606200034487828801620002c7565b91505092959194509250565b6137fa80620003606000396000f3fe608060405234801561001057600080fd5b50600436106101165760003560e01c8063848744ee116100a2578063a5d9a58411610071578063a5d9a584146102cd578063c1d9fae0146102e9578063daea74c514610307578063e83c78d414610325578063ee685df51461032f57610116565b8063848744ee14610257578063851bc283146102735780638da5cb5b1461029157806392b77ca5146102af57610116565b80634a7888bf116100e95780634a7888bf146101a157806350c2f30e146101bd57806363b0b809146101ed57806364a0e82e14610209578063830df4a61461023957610116565b806324357b2b1461011b578063314690401461014b5780633e639e101461016757806340f4230d14610185575b600080fd5b61013560048036038101906101309190611e92565b61035f565b6040516101429190612009565b60405180910390f35b61016560048036038101906101609190612160565b61040f565b005b61016f6104f0565b60405161017c91906123d9565b60405180910390f35b61019f600480360381019061019a91906123fb565b610598565b005b6101bb60048036038101906101b6919061249a565b610844565b005b6101d760048036038101906101d29190611e92565b610ad6565b6040516101e491906123d9565b60405180910390f35b61020760048036038101906102029190611e92565b610b80565b005b610223600480360381019061021e9190611e92565b61103d565b6040516102309190612612565b60405180910390f35b6102416110e7565b60405161024e9190612786565b60405180910390f35b610271600480360381019061026c9190611e92565b611184565b005b61027b6114e1565b60405161028891906127b7565b60405180910390f35b6102996114e7565b6040516102a691906127e1565b60405180910390f35b6102b761150b565b6040516102c491906127b7565b60405180910390f35b6102e760048036038101906102e2919061249a565b611511565b005b6102f1611c0a565b6040516102fe9190612786565b60405180910390f35b61030f611ca7565b60405161031c919061280b565b60405180910390f35b61032d611cba565b005b61034960048036038101906103449190611e92565b611d6b565b604051610356919061280b565b60405180910390f35b610367611e10565b600160009054906101000a900473ffffffffffffffffffffffffffffffffffffffff1673ffffffffffffffffffffffffffffffffffffffff1663bee5cdca836040518263ffffffff1660e01b81526004016103c291906127b7565b600060405180830381865afa1580156103df573d6000803e3d6000fd5b505050506040513d6000823e3d601f19601f8201168201806040525081019061040891906129b9565b9050919050565b600160009054906101000a900473ffffffffffffffffffffffffffffffffffffffff1673ffffffffffffffffffffffffffffffffffffffff16631007f9188484846040518463ffffffff1660e01b815260040161046e93929190612a4c565b6020604051808303816000875af115801561048d573d6000803e3d6000fd5b505050506040513d601f19601f820116820180604052508101906104b19190612a8a565b507fb982009ab1bb7023fea7e44a58223531d493778f1d7553cec32cf81ac822ef4683836040516104e3929190612ab7565b60405180910390a1505050565b6060600160009054906101000a900473ffffffffffffffffffffffffffffffffffffffff1673ffffffffffffffffffffffffffffffffffffffff16633d0d3086336040518263ffffffff1660e01b815260040161054d91906127e1565b600060405180830381865afa15801561056a573d6000803e3d6000fd5b505050506040513d6000823e3d601f19601f820116820180604052508101906105939190612cc5565b905090565b8360011515600360009054906101000a900473ffffffffffffffffffffffffffffffffffffffff1673ffffffffffffffffffffffffffffffffffffffff16636ab9a02583336040518363ffffffff1660e01b81526004016105fa929190612d0e565b602060405180830381865afa158015610617573d6000803e3d6000fd5b505050506040513d601f19601f8201168201806040525081019061063b9190612d37565b15151461067d576040517f08c379a000000000000000000000000000000000000000000000000000000000815260040161067490612dd6565b60405180910390fd5b8460011515600360009054906101000a900473ffffffffffffffffffffffffffffffffffffffff1673ffffffffffffffffffffffffffffffffffffffff1663f6c997b8836040518263ffffffff1660e01b81526004016106dd91906127b7565b602060405180830381865afa1580156106fa573d6000803e3d6000fd5b505050506040513d601f19601f8201168201806040525081019061071e9190612d37565b151514610760576040517f08c379a000000000000000000000000000000000000000000000000000000000815260040161075790612e68565b60405180910390fd5b600160009054906101000a900473ffffffffffffffffffffffffffffffffffffffff1673ffffffffffffffffffffffffffffffffffffffff1663e851ced8878787876040518563ffffffff1660e01b81526004016107c19493929190612e88565b6020604051808303816000875af11580156107e0573d6000803e3d6000fd5b505050506040513d601f19601f820116820180604052508101906108049190612a8a565b507fc38f3286637a47d6c5733da7780f50e571951431a0b969da69824ad77712c9428660405161083491906127b7565b60405180910390a1505050505050565b8160011515600360009054906101000a900473ffffffffffffffffffffffffffffffffffffffff1673ffffffffffffffffffffffffffffffffffffffff16636ab9a02583336040518363ffffffff1660e01b81526004016108a6929190612d0e565b602060405180830381865afa1580156108c3573d6000803e3d6000fd5b505050506040513d601f19601f820116820180604052508101906108e79190612d37565b151514610929576040517f08c379a000000000000000000000000000000000000000000000000000000000815260040161092090612dd6565b60405180910390fd5b8260011515600360009054906101000a900473ffffffffffffffffffffffffffffffffffffffff1673ffffffffffffffffffffffffffffffffffffffff1663f6c997b8836040518263ffffffff1660e01b815260040161098991906127b7565b602060405180830381865afa1580156109a6573d6000803e3d6000fd5b505050506040513d601f19601f820116820180604052508101906109ca9190612d37565b151514610a0c576040517f08c379a0000000000000000000000000000000000000000000000000000000008152600401610a0390612e68565b60405180910390fd5b600160009054906101000a900473ffffffffffffffffffffffffffffffffffffffff1673ffffffffffffffffffffffffffffffffffffffff16633739fe63846040518263ffffffff1660e01b8152600401610a6791906127b7565b600060405180830381600087803b158015610a8157600080fd5b505af1158015610a95573d6000803e3d6000fd5b505050507fc38f3286637a47d6c5733da7780f50e571951431a0b969da69824ad77712c94284604051610ac891906127b7565b60405180910390a150505050565b6060600160009054906101000a900473ffffffffffffffffffffffffffffffffffffffff1673ffffffffffffffffffffffffffffffffffffffff166350c2f30e836040518263ffffffff1660e01b8152600401610b3391906127b7565b600060405180830381865afa158015610b50573d6000803e3d6000fd5b505050506040513d6000823e3d601f19601f82011682018060405250810190610b799190612cc5565b9050919050565b600160009054906101000a900473ffffffffffffffffffffffffffffffffffffffff1673ffffffffffffffffffffffffffffffffffffffff1663bee5cdca826040518263ffffffff1660e01b8152600401610bdb91906127b7565b600060405180830381865afa158015610bf8573d6000803e3d6000fd5b505050506040513d6000823e3d601f19601f82011682018060405250810190610c2191906129b9565b6020015160011515600360009054906101000a900473ffffffffffffffffffffffffffffffffffffffff1673ffffffffffffffffffffffffffffffffffffffff16636ab9a02583336040518363ffffffff1660e01b8152600401610c86929190612d0e565b602060405180830381865afa158015610ca3573d6000803e3d6000fd5b505050506040513d601f19601f82011682018060405250810190610cc79190612d37565b151514610d09576040517f08c379a0000000000000000000000000000000000000000000000000000000008152600401610d0090612dd6565b60405180910390fd5b600160009054906101000a900473ffffffffffffffffffffffffffffffffffffffff1673ffffffffffffffffffffffffffffffffffffffff1663bee5cdca836040518263ffffffff1660e01b8152600401610d6491906127b7565b600060405180830381865afa158015610d81573d6000803e3d6000fd5b505050506040513d6000823e3d601f19601f82011682018060405250810190610daa91906129b9565b6020015160011515600360009054906101000a900473ffffffffffffffffffffffffffffffffffffffff1673ffffffffffffffffffffffffffffffffffffffff1663f6c997b8836040518263ffffffff1660e01b8152600401610e0d91906127b7565b602060405180830381865afa158015610e2a573d6000803e3d6000fd5b505050506040513d601f19601f82011682018060405250810190610e4e9190612d37565b151514610e90576040517f08c379a0000000000000000000000000000000000000000000000000000000008152600401610e8790612e68565b60405180910390fd5b8260011515600160009054906101000a900473ffffffffffffffffffffffffffffffffffffffff1673ffffffffffffffffffffffffffffffffffffffff1663ee685df5836040518263ffffffff1660e01b8152600401610ef091906127b7565b602060405180830381865afa158015610f0d573d6000803e3d6000fd5b505050506040513d601f19601f82011682018060405250810190610f319190612d37565b151514610f73576040517f08c379a0000000000000000000000000000000000000000000000000000000008152600401610f6a90612f4d565b60405180910390fd5b600160009054906101000a900473ffffffffffffffffffffffffffffffffffffffff1673ffffffffffffffffffffffffffffffffffffffff166393dc12e6856040518263ffffffff1660e01b8152600401610fce91906127b7565b600060405180830381600087803b158015610fe857600080fd5b505af1158015610ffc573d6000803e3d6000fd5b505050507f478d380bf73b98d7970f1149c6ef1b40ecdfa9be7ee0ebb736c5c26d311925ea8460405161102f91906127b7565b60405180910390a150505050565b6060600160009054906101000a900473ffffffffffffffffffffffffffffffffffffffff1673ffffffffffffffffffffffffffffffffffffffff1663c6d47ac9836040518263ffffffff1660e01b815260040161109a91906127b7565b600060405180830381865afa1580156110b7573d6000803e3d6000fd5b505050506040513d6000823e3d601f19601f820116820180604052508101906110e091906130f6565b9050919050565b6060600160009054906101000a900473ffffffffffffffffffffffffffffffffffffffff1673ffffffffffffffffffffffffffffffffffffffff166380d038296040518163ffffffff1660e01b8152600401600060405180830381865afa158015611156573d6000803e3d6000fd5b505050506040513d6000823e3d601f19601f8201168201806040525081019061117f9190613220565b905090565b60008054906101000a900473ffffffffffffffffffffffffffffffffffffffff1673ffffffffffffffffffffffffffffffffffffffff163373ffffffffffffffffffffffffffffffffffffffff1614611212576040517f08c379a0000000000000000000000000000000000000000000000000000000008152600401611209906132db565b60405180910390fd5b6000600160009054906101000a900473ffffffffffffffffffffffffffffffffffffffff1673ffffffffffffffffffffffffffffffffffffffff166350c2f30e836040518263ffffffff1660e01b815260040161126f91906127b7565b600060405180830381865afa15801561128c573d6000803e3d6000fd5b505050506040513d6000823e3d601f19601f820116820180604052508101906112b59190612cc5565b90506000805b82518110156114db5760008382815181106112d9576112d86132fb565b5b6020026020010151608001518483815181106112f8576112f76132fb565b5b60200260200101516060015161130e9190613359565b9050600654848381518110611326576113256132fb565b5b602002602001015160a001514261133d9190613359565b1061135157808361134e919061338d565b92505b60055483106114c7576000600160009054906101000a900473ffffffffffffffffffffffffffffffffffffffff1673ffffffffffffffffffffffffffffffffffffffff1663cb65bf16876040518263ffffffff1660e01b81526004016113b791906127b7565b602060405180830381865afa1580156113d4573d6000803e3d6000fd5b505050506040513d601f19601f820116820180604052508101906113f89190612a8a565b9050600360009054906101000a900473ffffffffffffffffffffffffffffffffffffffff1673ffffffffffffffffffffffffffffffffffffffff16636afc1334826040518263ffffffff1660e01b815260040161145591906127b7565b600060405180830381600087803b15801561146f57600080fd5b505af1158015611483573d6000803e3d6000fd5b505050507f32309b3cb573f3d3fcc1970e05a6425c15bbebb5faa142cab3aace7a9fa5d1b681426040516114b8929190612ab7565b60405180910390a150506114db565b5080806114d3906133c1565b9150506112bb565b50505050565b60055481565b60008054906101000a900473ffffffffffffffffffffffffffffffffffffffff1681565b60065481565b600460009054906101000a900473ffffffffffffffffffffffffffffffffffffffff1673ffffffffffffffffffffffffffffffffffffffff16638b24db1a336040518263ffffffff1660e01b815260040161156c91906127e1565b602060405180830381865afa158015611589573d6000803e3d6000fd5b505050506040513d601f19601f820116820180604052508101906115ad9190612d37565b6115ec576040517f08c379a00000000000000000000000000000000000000000000000000000000081526004016115e390613455565b60405180910390fd5b600060149054906101000a900460ff161561163c576040517f08c379a0000000000000000000000000000000000000000000000000000000008152600401611633906134c1565b60405180910390fd5b600060159054906101000a900460ff161561168c576040517f08c379a00000000000000000000000000000000000000000000000000000000081526004016116839061352d565b60405180910390fd5b6001600060156101000a81548160ff0219169083151502179055506000600260009054906101000a900473ffffffffffffffffffffffffffffffffffffffff1673ffffffffffffffffffffffffffffffffffffffff16635f515226336040518263ffffffff1660e01b815260040161170491906127e1565b602060405180830381865afa158015611721573d6000803e3d6000fd5b505050506040513d601f19601f820116820180604052508101906117459190612a8a565b90508082111561178a576040517f08c379a0000000000000000000000000000000000000000000000000000000008152600401611781906135bf565b60405180910390fd5b600160009054906101000a900473ffffffffffffffffffffffffffffffffffffffff1673ffffffffffffffffffffffffffffffffffffffff1663ee685df5846040518263ffffffff1660e01b81526004016117e591906127b7565b602060405180830381865afa158015611802573d6000803e3d6000fd5b505050506040513d601f19601f820116820180604052508101906118269190612d37565b611865576040517f08c379a000000000000000000000000000000000000000000000000000000000815260040161185c90613651565b60405180910390fd5b600360009054906101000a900473ffffffffffffffffffffffffffffffffffffffff1673ffffffffffffffffffffffffffffffffffffffff16634f95964b600160009054906101000a900473ffffffffffffffffffffffffffffffffffffffff1673ffffffffffffffffffffffffffffffffffffffff1663cb65bf16866040518263ffffffff1660e01b81526004016118fe91906127b7565b602060405180830381865afa15801561191b573d6000803e3d6000fd5b505050506040513d601f19601f8201168201806040525081019061193f9190612a8a565b6040518263ffffffff1660e01b815260040161195b91906127b7565b602060405180830381865afa158015611978573d6000803e3d6000fd5b505050506040513d601f19601f8201168201806040525081019061199c9190612d37565b156119dc576040517f08c379a00000000000000000000000000000000000000000000000000000000081526004016119d390613709565b60405180910390fd5b6000600160009054906101000a900473ffffffffffffffffffffffffffffffffffffffff1673ffffffffffffffffffffffffffffffffffffffff166392256aec856040518263ffffffff1660e01b8152600401611a3991906127b7565b602060405180830381865afa158015611a56573d6000803e3d6000fd5b505050506040513d601f19601f82011682018060405250810190611a7a9190613729565b9050600260009054906101000a900473ffffffffffffffffffffffffffffffffffffffff1673ffffffffffffffffffffffffffffffffffffffff1663bec3fa1782856040518363ffffffff1660e01b8152600401611ad9929190613756565b600060405180830381600087803b158015611af357600080fd5b505af1158015611b07573d6000803e3d6000fd5b50505050600160009054906101000a900473ffffffffffffffffffffffffffffffffffffffff1673ffffffffffffffffffffffffffffffffffffffff166328d7036385853360006040518563ffffffff1660e01b8152600401611b6d949392919061377f565b6020604051808303816000875af1158015611b8c573d6000803e3d6000fd5b505050506040513d601f19601f82011682018060405250810190611bb09190612a8a565b507fc4211fe28f367b609d3a293c8ee487e59922662800f2b1ebe1dddc5e8f5d29798433604051611be2929190612d0e565b60405180910390a1505060008060156101000a81548160ff0219169083151502179055505050565b6060600160009054906101000a900473ffffffffffffffffffffffffffffffffffffffff1673ffffffffffffffffffffffffffffffffffffffff1663f2ef441b6040518163ffffffff1660e01b8152600401600060405180830381865afa158015611c79573d6000803e3d6000fd5b505050506040513d6000823e3d601f19601f82011682018060405250810190611ca29190613220565b905090565b600060149054906101000a900460ff1681565b60008054906101000a900473ffffffffffffffffffffffffffffffffffffffff1673ffffffffffffffffffffffffffffffffffffffff163373ffffffffffffffffffffffffffffffffffffffff1614611d48576040517f08c379a0000000000000000000000000000000000000000000000000000000008152600401611d3f906132db565b60405180910390fd5b600060149054906101000a900460ff161515600060149054906101000a90505050565b6000600160009054906101000a900473ffffffffffffffffffffffffffffffffffffffff1673ffffffffffffffffffffffffffffffffffffffff1663ee685df5836040518263ffffffff1660e01b8152600401611dc891906127b7565b602060405180830381865afa158015611de5573d6000803e3d6000fd5b505050506040513d601f19601f82011682018060405250810190611e099190612d37565b9050919050565b6040518060c0016040528060008152602001600081526020016060815260200160608152602001600081526020016000151581525090565b6000604051905090565b600080fd5b600080fd5b6000819050919050565b611e6f81611e5c565b8114611e7a57600080fd5b50565b600081359050611e8c81611e66565b92915050565b600060208284031215611ea857611ea7611e52565b5b6000611eb684828501611e7d565b91505092915050565b611ec881611e5c565b82525050565b600081519050919050565b600082825260208201905092915050565b60005b83811015611f08578082015181840152602081019050611eed565b60008484015250505050565b6000601f19601f8301169050919050565b6000611f3082611ece565b611f3a8185611ed9565b9350611f4a818560208601611eea565b611f5381611f14565b840191505092915050565b60008115159050919050565b611f7381611f5e565b82525050565b600060c083016000830151611f916000860182611ebf565b506020830151611fa46020860182611ebf565b5060408301518482036040860152611fbc8282611f25565b91505060608301518482036060860152611fd68282611f25565b9150506080830151611feb6080860182611ebf565b5060a0830151611ffe60a0860182611f6a565b508091505092915050565b600060208201905081810360008301526120238184611f79565b905092915050565b600080fd5b600080fd5b7f4e487b7100000000000000000000000000000000000000000000000000000000600052604160045260246000fd5b61206d82611f14565b810181811067ffffffffffffffff8211171561208c5761208b612035565b5b80604052505050565b600061209f611e48565b90506120ab8282612064565b919050565b600067ffffffffffffffff8211156120cb576120ca612035565b5b6120d482611f14565b9050602081019050919050565b82818337600083830152505050565b60006121036120fe846120b0565b612095565b90508281526020810184848401111561211f5761211e612030565b5b61212a8482856120e1565b509392505050565b600082601f8301126121475761214661202b565b5b81356121578482602086016120f0565b91505092915050565b60008060006060848603121561217957612178611e52565b5b600061218786828701611e7d565b935050602061219886828701611e7d565b925050604084013567ffffffffffffffff8111156121b9576121b8611e57565b5b6121c586828701612132565b9150509250925092565b600081519050919050565b600082825260208201905092915050565b6000819050602082019050919050565b600073ffffffffffffffffffffffffffffffffffffffff82169050919050565b6000612226826121fb565b9050919050565b6122368161221b565b82525050565b7f4e487b7100000000000000000000000000000000000000000000000000000000600052602160045260246000fd5b6002811061227c5761227b61223c565b5b50565b600081905061228d8261226b565b919050565b600061229d8261227f565b9050919050565b6122ad81612292565b82525050565b610100820160008201516122ca6000850182611ebf565b5060208201516122dd6020850182611ebf565b5060408201516122f0604085018261222d565b5060608201516123036060850182611ebf565b5060808201516123166080850182611ebf565b5060a082015161232960a0850182611ebf565b5060c082015161233c60c0850182611ebf565b5060e082015161234f60e08501826122a4565b50505050565b600061236183836122b3565b6101008301905092915050565b6000602082019050919050565b6000612386826121cf565b61239081856121da565b935061239b836121eb565b8060005b838110156123cc5781516123b38882612355565b97506123be8361236e565b92505060018101905061239f565b5085935050505092915050565b600060208201905081810360008301526123f3818461237b565b905092915050565b6000806000806080858703121561241557612414611e52565b5b600061242387828801611e7d565b945050602085013567ffffffffffffffff81111561244457612443611e57565b5b61245087828801612132565b935050604085013567ffffffffffffffff81111561247157612470611e57565b5b61247d87828801612132565b925050606061248e87828801611e7d565b91505092959194509250565b600080604083850312156124b1576124b0611e52565b5b60006124bf85828601611e7d565b92505060206124d085828601611e7d565b9150509250929050565b600081519050919050565b600082825260208201905092915050565b6000819050602082019050919050565b600060a08301600083015161251e6000860182611ebf565b5060208301516125316020860182611ebf565b5060408301516125446040860182611ebf565b5060608301516125576060860182611ebf565b506080830151848203608086015261256f8282611f25565b9150508091505092915050565b60006125888383612506565b905092915050565b6000602082019050919050565b60006125a8826124da565b6125b281856124e5565b9350836020820285016125c4856124f6565b8060005b8581101561260057848403895281516125e1858261257c565b94506125ec83612590565b925060208a019950506001810190506125c8565b50829750879550505050505092915050565b6000602082019050818103600083015261262c818461259d565b905092915050565b600081519050919050565b600082825260208201905092915050565b6000819050602082019050919050565b600060c0830160008301516126786000860182611ebf565b50602083015161268b6020860182611ebf565b50604083015184820360408601526126a38282611f25565b915050606083015184820360608601526126bd8282611f25565b91505060808301516126d26080860182611ebf565b5060a08301516126e560a0860182611f6a565b508091505092915050565b60006126fc8383612660565b905092915050565b6000602082019050919050565b600061271c82612634565b612726818561263f565b93508360208202850161273885612650565b8060005b85811015612774578484038952815161275585826126f0565b945061276083612704565b925060208a0199505060018101905061273c565b50829750879550505050505092915050565b600060208201905081810360008301526127a08184612711565b905092915050565b6127b181611e5c565b82525050565b60006020820190506127cc60008301846127a8565b92915050565b6127db8161221b565b82525050565b60006020820190506127f660008301846127d2565b92915050565b61280581611f5e565b82525050565b600060208201905061282060008301846127fc565b92915050565b600080fd5b600080fd5b60008151905061283f81611e66565b92915050565b6000612858612853846120b0565b612095565b90508281526020810184848401111561287457612873612030565b5b61287f848285611eea565b509392505050565b600082601f83011261289c5761289b61202b565b5b81516128ac848260208601612845565b91505092915050565b6128be81611f5e565b81146128c957600080fd5b50565b6000815190506128db816128b5565b92915050565b600060c082840312156128f7576128f6612826565b5b61290160c0612095565b9050600061291184828501612830565b600083015250602061292584828501612830565b602083015250604082015167ffffffffffffffff8111156129495761294861282b565b5b61295584828501612887565b604083015250606082015167ffffffffffffffff8111156129795761297861282b565b5b61298584828501612887565b606083015250608061299984828501612830565b60808301525060a06129ad848285016128cc565b60a08301525092915050565b6000602082840312156129cf576129ce611e52565b5b600082015167ffffffffffffffff8111156129ed576129ec611e57565b5b6129f9848285016128e1565b91505092915050565b600082825260208201905092915050565b6000612a1e82611ece565b612a288185612a02565b9350612a38818560208601611eea565b612a4181611f14565b840191505092915050565b6000606082019050612a6160008301866127a8565b612a6e60208301856127a8565b8181036040830152612a808184612a13565b9050949350505050565b600060208284031215612aa057612a9f611e52565b5b6000612aae84828501612830565b91505092915050565b6000604082019050612acc60008301856127a8565b612ad960208301846127a8565b9392505050565b600067ffffffffffffffff821115612afb57612afa612035565b5b602082029050602081019050919050565b600080fd5b612b1a8161221b565b8114612b2557600080fd5b50565b600081519050612b3781612b11565b92915050565b60028110612b4a57600080fd5b50565b600081519050612b5c81612b3d565b92915050565b60006101008284031215612b7957612b78612826565b5b612b84610100612095565b90506000612b9484828501612830565b6000830152506020612ba884828501612830565b6020830152506040612bbc84828501612b28565b6040830152506060612bd084828501612830565b6060830152506080612be484828501612830565b60808301525060a0612bf884828501612830565b60a08301525060c0612c0c84828501612830565b60c08301525060e0612c2084828501612b4d565b60e08301525092915050565b6000612c3f612c3a84612ae0565b612095565b9050808382526020820190506101008402830185811115612c6357612c62612b0c565b5b835b81811015612c8d5780612c788882612b62565b84526020840193505061010081019050612c65565b5050509392505050565b600082601f830112612cac57612cab61202b565b5b8151612cbc848260208601612c2c565b91505092915050565b600060208284031215612cdb57612cda611e52565b5b600082015167ffffffffffffffff811115612cf957612cf8611e57565b5b612d0584828501612c97565b91505092915050565b6000604082019050612d2360008301856127a8565b612d3060208301846127d2565b9392505050565b600060208284031215612d4d57612d4c611e52565b5b6000612d5b848285016128cc565b91505092915050565b7f4f6e6c79206f776e696e6720636861726974792063616e20706572666f726d2060008201527f7468697320616374696f6e210000000000000000000000000000000000000000602082015250565b6000612dc0602c83612a02565b9150612dcb82612d64565b604082019050919050565b60006020820190508181036000830152612def81612db3565b9050919050565b7f4368617269747920494420676976656e206973206e6f742076616c6964206f7260008201527f2061637469766500000000000000000000000000000000000000000000000000602082015250565b6000612e52602783612a02565b9150612e5d82612df6565b604082019050919050565b60006020820190508181036000830152612e8181612e45565b9050919050565b6000608082019050612e9d60008301876127a8565b8181036020830152612eaf8186612a13565b90508181036040830152612ec38185612a13565b9050612ed260608301846127a8565b95945050505050565b7f50726f6a6563744d61726b657420494420676976656e206973206e6f7420766160008201527f6c6964206f722061637469766500000000000000000000000000000000000000602082015250565b6000612f37602d83612a02565b9150612f4282612edb565b604082019050919050565b60006020820190508181036000830152612f6681612f2a565b9050919050565b600067ffffffffffffffff821115612f8857612f87612035565b5b602082029050602081019050919050565b600060a08284031215612faf57612fae612826565b5b612fb960a0612095565b90506000612fc984828501612830565b6000830152506020612fdd84828501612830565b6020830152506040612ff184828501612830565b604083015250606061300584828501612830565b606083015250608082015167ffffffffffffffff8111156130295761302861282b565b5b61303584828501612887565b60808301525092915050565b600061305461304f84612f6d565b612095565b9050808382526020820190506020840283018581111561307757613076612b0c565b5b835b818110156130be57805167ffffffffffffffff81111561309c5761309b61202b565b5b8086016130a98982612f99565b85526020850194505050602081019050613079565b5050509392505050565b600082601f8301126130dd576130dc61202b565b5b81516130ed848260208601613041565b91505092915050565b60006020828403121561310c5761310b611e52565b5b600082015167ffffffffffffffff81111561312a57613129611e57565b5b613136848285016130c8565b91505092915050565b600067ffffffffffffffff82111561315a57613159612035565b5b602082029050602081019050919050565b600061317e6131798461313f565b612095565b905080838252602082019050602084028301858111156131a1576131a0612b0c565b5b835b818110156131e857805167ffffffffffffffff8111156131c6576131c561202b565b5b8086016131d389826128e1565b855260208501945050506020810190506131a3565b5050509392505050565b600082601f8301126132075761320661202b565b5b815161321784826020860161316b565b91505092915050565b60006020828403121561323657613235611e52565b5b600082015167ffffffffffffffff81111561325457613253611e57565b5b613260848285016131f2565b91505092915050565b7f4f6e6c7920636f6e7472616374206f776e65722063616e20706572666f726d2060008201527f7468697320616374696f6e210000000000000000000000000000000000000000602082015250565b60006132c5602c83612a02565b91506132d082613269565b604082019050919050565b600060208201905081810360008301526132f4816132b8565b9050919050565b7f4e487b7100000000000000000000000000000000000000000000000000000000600052603260045260246000fd5b7f4e487b7100000000000000000000000000000000000000000000000000000000600052601160045260246000fd5b600061336482611e5c565b915061336f83611e5c565b92508282039050818111156133875761338661332a565b5b92915050565b600061339882611e5c565b91506133a383611e5c565b92508282019050808211156133bb576133ba61332a565b5b92915050565b60006133cc82611e5c565b91507fffffffffffffffffffffffffffffffffffffffffffffffffffffffffffffffff82036133fe576133fd61332a565b5b600182019050919050565b7f596f7520617265206e6f7420612076616c696420646f6e6f7221000000000000600082015250565b600061343f601a83612a02565b915061344a82613409565b602082019050919050565b6000602082019050818103600083015261346e81613432565b9050919050565b7f436f6e74726163742073746f7070656421000000000000000000000000000000600082015250565b60006134ab601183612a02565b91506134b682613475565b602082019050919050565b600060208201905081810360008301526134da8161349e565b9050919050565b7f4e6f2072652d656e7472616e6379210000000000000000000000000000000000600082015250565b6000613517600f83612a02565b9150613522826134e1565b602082019050919050565b600060208201905081810360008301526135468161350a565b9050919050565b7f596f7520646f6e277420686176652073756666696369656e742066756e64732060008201527f746f20646f6e6174652100000000000000000000000000000000000000000000602082015250565b60006135a9602a83612a02565b91506135b48261354d565b604082019050919050565b600060208201905081810360008301526135d88161359c565b9050919050565b7f50726f6a6563742049442070726f7669646564206973206e6f742076616c696460008201527f206f722063757272656e746c79206e6f74206163746976650000000000000000602082015250565b600061363b603883612a02565b9150613646826135df565b604082019050919050565b6000602082019050818103600083015261366a8161362e565b9050919050565b7f436861726974792077616c6c6574206973206c6f636b65642120446f6e61746960008201527f6f6e732063616e6e6f74206265206d61646520746f20746869732077616c6c6560208201527f742063757272656e746c79000000000000000000000000000000000000000000604082015250565b60006136f3604b83612a02565b91506136fe82613671565b606082019050919050565b60006020820190508181036000830152613722816136e6565b9050919050565b60006020828403121561373f5761373e611e52565b5b600061374d84828501612b28565b91505092915050565b600060408201905061376b60008301856127d2565b61377860208301846127a8565b9392505050565b600060808201905061379460008301876127a8565b6137a160208301866127a8565b6137ae60408301856127d2565b6137bb60608301846127fc565b9594505050505056fea2646970667358221220bd80bd273ad67761fbff095c325e65a0f915ae76b03170dfe67ae673908931b564736f6c63430008110033",
  "immutableReferences": {},
  "source": "// SPDX-License-Identifier: MIT\npragma solidity ^0.8.0;\nimport \"./ProjectMarketStorage.sol\";\nimport \"./Charity.sol\";\nimport \"./Donor.sol\";\n\ncontract ProjectMarket {\n    address public owner;\n    bool public contractStopped;\n    bool internal locked;\n    ProjectMarketStorage projectMarketStorage;\n    CharityToken tokenContract;\n    Charity charityContract;\n    Donor donorContract;\n\n    uint256 public unverifiedCtLimit = 100;\n    uint256 public unverifiedTimeLimit = 20 days;\n\n    event projectListed(uint256 charityId);\n    event projectClosed(uint256 projectId);\n    event donationMade(uint256 projectId, address donor);\n    event proofVerified(uint256 projectId, uint256 amount);\n    event unverifiedDonationsExceeded(uint256 charityId, uint256 timestamp);\n\n    constructor(\n        ProjectMarketStorage projectMarketAddress,\n        CharityToken tokenAddress,\n        Charity charityAddress,\n        Donor donorAddress\n    ) {\n        owner = msg.sender;\n        projectMarketStorage = projectMarketAddress;\n        tokenContract = tokenAddress;\n        charityContract = charityAddress;\n        donorContract = donorAddress;\n    }\n\n    modifier contractOwnerOnly() {\n        require(\n            msg.sender == owner,\n            \"Only contract owner can perform this action!\"\n        );\n        _;\n    }\n\n    modifier owningCharityOnly(uint256 charityId) {\n        require(\n            charityContract.isOwnerOfCharity(charityId, msg.sender) == true,\n            \"Only owning charity can perform this action!\"\n        );\n        _;\n    }\n\n    modifier activeCharityId(uint256 charityId) {\n        require(\n            charityContract.isCharityActive(charityId) == true,\n            \"Charity ID given is not valid or active\"\n        );\n        _;\n    }\n\n    modifier activeProjectId(uint256 projectMarketId) {\n        require(\n            projectMarketStorage.isProjectActive(projectMarketId) == true,\n            \"ProjectMarket ID given is not valid or active\"\n        );\n        _;\n    }\n\n    modifier isValidDonor() {\n        require(\n            donorContract.isValidDonor(msg.sender),\n            \"You are not a valid donor!\"\n        );\n        _;\n    }\n\n    modifier haltInEmergency() {\n        require(!contractStopped, \"Contract stopped!\");\n        _;\n    }\n\n    modifier noReentrant() {\n        require(!locked, \"No re-entrancy!\");\n        locked = true;\n        _;\n        locked = false;\n    }\n\n    function toggleContractStopped() public view contractOwnerOnly {\n        contractStopped != contractStopped;\n    }\n\n    function listProject(\n        uint256 charityId,\n        string memory title,\n        string memory description,\n        uint256 targetAmount\n    ) public owningCharityOnly(charityId) activeCharityId(charityId) {\n        projectMarketStorage.addProjectToMarket(\n            charityId,\n            title,\n            description,\n            targetAmount\n        );\n        emit projectListed(charityId);\n    }\n\n    function unlistProject(\n        uint256 projectId\n    )\n        public\n        owningCharityOnly(\n            projectMarketStorage.getProjectById(projectId).charityId\n        )\n        activeCharityId(\n            projectMarketStorage.getProjectById(projectId).charityId\n        )\n        activeProjectId(projectId)\n    {\n        projectMarketStorage.closeProject(projectId);\n        emit projectClosed(projectId);\n    }\n\n    function relistProject(\n        uint256 charityId,\n        uint256 projectId\n    ) public owningCharityOnly(charityId) activeCharityId(charityId) {\n        projectMarketStorage.setProjectActive(projectId);\n        emit projectListed(charityId);\n    }\n\n    // in order to donate, donor must first APPROVE the ProjectMarket contract's address to spend the specified ether\n    function donateToProject(\n        uint256 projectId,\n        uint256 amt\n    ) public isValidDonor haltInEmergency noReentrant {\n        uint256 balance = tokenContract.checkBalance(msg.sender);\n        require(amt <= balance, \"You don't have sufficient funds to donate!\");\n        require(\n            projectMarketStorage.isProjectActive(projectId),\n            \"Project ID provided is not valid or currently not active\"\n        );\n        require(\n            !charityContract.isWalletLocked(\n                projectMarketStorage.getProjectOwnerId(projectId)\n            ),\n            \"Charity wallet is locked! Donations cannot be made to this wallet currently\"\n        );\n        // require(\n        //     tokenContract.checkApproval(msg.sender, owner) >= amt,\n        //     \"You did not authorise ProjectMarket to spend the specified amount to donate!\"\n        // );\n\n        address projectOwner = projectMarketStorage.getProjectOwner(projectId);\n        //tokenContract.transferTokensFrom(msg.sender, projectOwner, amt);\n        tokenContract.transferTokens(projectOwner, amt);\n        projectMarketStorage.addDonationToProject(\n            projectId,\n            amt,\n            msg.sender,\n            false\n        );\n        emit donationMade(projectId, msg.sender);\n    }\n\n    // perform check for locking of charity wallet\n    function checkUnverifiedDonations(\n        uint256 projectId\n    ) public contractOwnerOnly {\n        ProjectMarketStorage.donation[] memory donations = projectMarketStorage\n            .getDonationsByProject(projectId);\n\n        uint256 totalUnverifiedAmt = 0;\n\n        for (uint256 i = 0; i < donations.length; i++) {\n            uint256 unverifiedAmt = donations[i].amt - donations[i].amtVerified;\n            if (\n                block.timestamp - donations[i].transactionDate >=\n                unverifiedTimeLimit\n            ) {\n                totalUnverifiedAmt += unverifiedAmt;\n            }\n            if (totalUnverifiedAmt >= unverifiedCtLimit) {\n                uint256 charityId = projectMarketStorage.getProjectOwnerId(\n                    projectId\n                );\n                charityContract.lockWallet(charityId);\n                emit unverifiedDonationsExceeded(charityId, block.timestamp);\n                break;\n            }\n        }\n    }\n\n    function verifyProofOfUsage(\n        uint256 projectId,\n        uint256 amount,\n        string memory utility\n    ) public {\n        projectMarketStorage.addProofOfUsageToProject(\n            projectId,\n            amount,\n            utility\n        );\n        emit proofVerified(projectId, amount);\n    }\n\n    function getAllProjectListings()\n        public\n        view\n        returns (ProjectMarketStorage.project[] memory)\n    {\n        return projectMarketStorage.getAllProjects();\n    }\n\n    function getAllActiveProjectListings()\n        public\n        view\n        returns (ProjectMarketStorage.project[] memory)\n    {\n        return projectMarketStorage.getAllActiveProjects();\n    }\n\n    function getProofsByProject(\n        uint256 projectId\n    ) public view returns (ProjectMarketStorage.proof[] memory) {\n        return projectMarketStorage.getAllProofsByProject(projectId);\n    }\n\n    function getProjectListingDetails(\n        uint256 projectId\n    ) public view returns (ProjectMarketStorage.project memory) {\n        return projectMarketStorage.getProjectById(projectId);\n    }\n\n    function isProjectActive(uint256 projectId) public view returns (bool) {\n        return projectMarketStorage.isProjectActive(projectId);\n    }\n\n    function getDonationsByProject(\n        uint256 projectId\n    ) public view returns (ProjectMarketStorage.donation[] memory) {\n        return projectMarketStorage.getDonationsByProject(projectId);\n    }\n\n    function viewPastDonationsByDonor()\n        public\n        view\n        returns (ProjectMarketStorage.donation[] memory)\n    {\n        return projectMarketStorage.getDonationsByDonor(msg.sender);\n    }\n}\n",
  "sourcePath": "/Users/danielonges/Desktop/coding/blockchain-charity/contracts/ProjectMarket.sol",
  "compiler": {
    "name": "solc",
    "version": "0.8.17+commit.8df45f5f.Emscripten.clang"
  },
  "schemaVersion": "3.4.11",
  "updatedAt": "2023-04-07T10:35:22.067Z",
  "networkType": "ethereum",
  "devdoc": {
    "kind": "dev",
    "methods": {},
    "version": 1
  },
  "userdoc": {
    "kind": "user",
    "methods": {},
    "version": 1
  }
}